:060000000A128A11122809
:10000800FE00030EF2000408F3000A08F40083124D
:1000180003137F08F5000A128A111B280A128A1195
:100028001528F601F70183010A128A1187288C1D09
:100038005F281412141B2228941F2C281308F00080
:10004800F1017008F6007108F700141394131416E0
:1000580083160313941E14194528831203131308D7
:10006800F000F1017008F6007108F7008316031319
:10007800141C3A28831203131308880014169411C9
:100088005D28941E141D5D28831203131308F000C5
:10009800F1017008F6007108F700831603131410B5
:1000A80083120313060893001416831603131418F7
:1000B800592883128C117508FF0074088A00730888
:1000C8008400720E8300FE0E7E0E090080308316B7
:1000D8000313940083120313200883160313930059
:1000E80036308312031394000130831603139100F2
:1000F800871507168B170B17831203138C1183169A
:1001080003138C150800831603138113FF30860030
:1001180088018312031388013030A0000030A10049
:0C0128000A128A116A200A128A11992812
:02400E0039FF78
:00000001FF
