:04000000ACEF7FF0F2
:10FF58000001D7EF7FF0C2EC7FF0B4EC7FF0120025
:10FF6800700ED36E040ED26E400E9B6ED2AEBFEFF3
:10FF78007FF0C1EF7FF0BAEF7FF01200020E896EBA
:10FF8800000E8A6E000E8B6EFE0E926E9368946859
:10FF9800FC0E0F013A6F3F0E396F2C0E386F000EB2
:10FFA800616EF18E1200AFEC7FF080A2DEEF7FF081
:10FFB800E0EF7FF0D9EF7FF089B0E5EF7FF0E8EF71
:10FFC8007FF0010EE9EF7FF0000EFF0A016E895005
:10FFD8000118FE0B0118896E290E026E960E016E2D
:10FFE8007F0EE82EFED7012EFCD7022EFAD700F09E
:08FFF800D9EF7FF000EF00F0EB
:020000040020DA
:08000000FFFFFFFFFFFFFFFF00
:020000040030CA
:0E000000FF281F3CFFBF85FF0FC00FE00F4021
:00000001FF
