:020000040000FA
:04000000BDEF7FF0E1
:10FF7A000001E3EF7FF0CEEC7FF0C5EC7FF01200DA
:10FF8A00700ED36E040ED26E400E9B6ED2BE12005D
:10FF9A00FDD7000E896E000E8A6E000E8B6EFE0E65
:10FFAA00926E93689468FC0E0F013A6F3F0E396F98
:10FFBA002C0E386F000E616EF18E1200C0EC7FF0CD
:10FFCA0080A2FED789A002D0010E01D0000EFF0A3E
:10FFDA00016E89500118FE0B0118896E290E026EF6
:10FFEA00960E016E7F0EE82EFED7012EFCD7022E4A
:06FFFA00FAD700F0E5D784
:020000040020DA
:08000000FFFFFFFFFFFFFFFF00
:020000040030CA
:0E000000FF281F3CFFBF85FF0FC00FE00F4021
:00000001FF
