:020000040000FA
:040000003FEF00F0DE
:100008005782FACF05F0FBCF06F0D9CF07F0DACF49
:1000180008F0F2AC26D09DBC9EAC03D013EC16F0D1
:1000280020D09DB89EA809D001D81BD00500FA6E33
:1000380000018051FD6E81510BD09DBA9EAA0CD053
:1000480001D80FD00500FA6E00017E51FD6E7F5178
:10005800FE6EFF6AFA5012009DB29EA202D06FECAB
:1000680015F008C0DAFF07C0D9FF06C0FBFF05C0BE
:10007800FAFF57921100E9EF10F00C50800B156E43
:100088000C500C241B6E0BBE1B801B50D8B40DD01B
:100098001B28D8A408D0000E096E000E0A6E000EA8
:1000A8000B6E000E0C6E0B8E08D0000E096E000E43
:1000B8000A6E000E0B6E000E0C6E1050800B151A97
:1000C80010501024166E0FBE16801650D8B40DD0DE
:1000D8001628D8A408D0000E0D6E000E0E6E000E65
:1000E8000F6E000E106E0F8E08D0000E0D6E000EF3
:1000F8000E6E000E0F6E000E106E1650D8B403D0A0
:100108001B50D8A409D0000E096E000E0A6E000E0E
:100118000B6E000E0C6E12000F500902F3CF20F088
:10012800F4CF21F02050176E186A196A1A6A215004
:100138001C6E1D6A1E6A1F6A0E500A02F3CF20F059
:10014800F4CF21F020501726000E182219221A2267
:1001580021501C26000E1D221E221F220D500B02AC
:10016800F3CF20F0F4CF21F020501726000E1822EC
:1001780019221A2221501C26000E1D221E221F227F
:1001880019C01AF018C019F017C018F0176A0D50E6
:100198000A02F3CF20F0F4CF21F020501726215087
:1001A8001822000E1922000E1A220E500902F3CF4F
:1001B80020F0F4CF21F02050172621501822000EED
:1001C8001922000E1A2219C01AF018C019F017C007
:1001D80018F0176A0D500902F3CF20F0F4CF21F080
:1001E8002050172621501822000E1922000E1A221C
:1001F8000F500A02F3CF20F0F4CF21F020501C2634
:1002080021501D22000E1E22000E1F220E500B022E
:10021800F3CF20F0F4CF21F020501C2621501D22CE
:10022800000E1E22000E1F220F500B02F3CF20F0EB
:10023800F4CF21F02050116E2150126E136A146A07
:1002480013C014F012C013F011C012F0116A11504B
:100258001C2612501D2213501E2214501F2217C094
:1002680011F018C012F019C013F01AC014F0190ECA
:1002780005D0D8901432133212321132E82EF9D741
:1002880011501C2612501D2213501E2214501F22DA
:1002980019C01AF018C019F017C018F0176A1650CC
:1002A8001BC011F0126A1126000E1222820E1124B0
:1002B800206EFF0E1220216E0FD0D8901C361D36EE
:1002C8001E361F361ABE1C80D890173618361936B7
:1002D8001A362006D8A021061EAEEFD7000E166EDD
:1002E8001AAE17D0FF0E1714116EFF0E1814126EE7
:1002F800FF0E1914136E7F0E1A14146E115012107B
:1003080013101410D8B403D0010E166E02D01CB00E
:10031800FBD71650D8B41FD0010E1C26000E1D2284
:100328001E221F221FA017D01CC011F01DC012F0E2
:100338001EC013F01FC014F01434143213321232DA
:10034800113211C01CF012C01DF013C01EF014C0F1
:100358001FF0204A212A21BE0DD0215003E1202878
:10036800D8A008D0000E1C6E000E1D6E800E1E6EEA
:100378007F0E20D021BE05D021500EE12004D8B038
:100388000BD0000E1C6E000E1D6E000E1E6E000EB1
:100398001F6E000E156E0FD020C01BF0FF0E1C162E
:1003A800FF0E1D167F0E1E16000E1F161BB01E8E8A
:1003B800D8901B301F6E15501F121CC009F01DC0AD
:1003C8000AF01EC00BF01FC00CF0120068C035F018
:1003D80069C036F06AC037F06BC038F023C035F01A
:1003E80024C036F025C037F026C038F035C027F0D5
:1003F80036C028F037C029F038C02AF0180E05D0CA
:10040800D8902A32293228322732E82EF9D72750B5
:100418002F6E306A30BE0FD0305004E1960E2F5C3C
:10042800D8A009D023C023F024C024F025C025F08B
:1004380026C026F0120035C027F036C028F037C095
:1004480029F038C02AF0200E05D0D8902A32293257
:1004580028322732E82EF9D72750281029102A10D9
:10046800D8B412D023C009F024C00AF025C00BF07C
:1004780026C00CF0EFEC14F009C023F00AC024F0F9
:100488000BC025F00CC026F030BE06D030501FE15E
:100498007E0E2F5CD8B01BD035C009F036C00AF0EC
:1004A80037C00BF038C00CF0000E0D6E000E0E6E4B
:1004B800000E0F6E000E106E41EC00F009C023F024
:1004C8000AC024F00BC025F00CC026F01200000E64
:1004D8000D6E000E0E6E000E0F6E4B0E106E23C0CA
:1004E80009F024C00AF025C00BF026C00CF087ECF8
:1004F80003F009C031F00AC032F00BC033F00CC071
:1005080034F0000E0D6E000E0E6E000E0F6ECB0E48
:10051800106E31C009F032C00AF033C00BF034C09D
:100528000CF087EC03F009C02BF00AC02CF00BC0CC
:100538002DF00CC02EF02BC019F02CC01AF02DC0D5
:100548001BF02EC01CF023C01DF024C01EF025C0D7
:100558001FF026C020F043EC13F019C039F01AC080
:100568003AF01BC03BF01CC03CF0000E096E000EB8
:100578000A6E000E0B6E3F0E0C6E39C00DF03AC0BD
:100588000EF03BC00FF03CC010F032EC0EF0D8B0CB
:100598002DD023C00DF024C00EF025C00FF026C0CA
:1005A80010F039C009F03AC00AF03BC00BF03CC06B
:1005B8000CF087EC03F009C031F00AC032F00BC030
:1005C80033F00CC034F031C009F032C00AF033C047
:1005D8000BF034C00CF0000E0D6E000E0E6E800E87
:1005E8000F6EBF0E106E87EC03F053D0000E096E2D
:1005F800000E0A6E000E0B6EBF0E0C6E39C00DF0A9
:100608003AC00EF03BC00FF03CC010F032EC0EF0D8
:10061800D8A02DD023C00DF024C00EF025C00FF0B7
:1006280026C010F039C009F03AC00AF03BC00BF000
:100638003CC00CF087EC03F009C031F00AC032F07E
:100648000BC033F00CC034F031C009F032C00AF0EE
:1006580033C00BF034C00CF0000E0D6E000E0E6EA1
:10066800800E0F6E3F0E106E87EC03F012D039C06B
:1006780009F03AC00AF03BC00BF03CC00CF023C0B4
:100688000DF024C00EF025C00FF026C010F087EC46
:1006980003F009C039F00AC03AF00BC03BF00CC0B7
:1006A8003CF035C027F036C028F037C029F038C0F4
:1006B8002AF0200E05D0D8902A3229322832273243
:1006C800E82EF9D72750281029102A10D8B412D0AC
:1006D80039C009F03AC00AF03BC00BF03CC00CF03E
:1006E800EFEC14F009C039F00AC03AF00BC03BF047
:1006F8000CC03CF039C023F03AC024F03BC025F0D0
:100708003CC026F012000C50800B156E0C500C24C7
:10071800176E0BBE17801750D8B40DD01728D8A461
:1007280008D0000E096E000E0A6E000E0B6E000E49
:100738000C6E0B8E06D0000E096E000E0A6E000EAF
:100748000B6E000E0C6E1050800B166E155016189E
:10075800D8A4158C10501024166E0FBE1680165093
:10076800D8B40DD01628D8A408D0000E0D6E000EEF
:100778000E6E000E0F6E000E106E0F8E06D0000E5D
:100788000D6E000E0E6E000E0F6E000E106E1750DE
:10079800165CD8B022D015AC02D0800E151A17C03E
:1007A80018F016C017F018C016F009C018F00DC0E0
:1007B80009F018C00DF00AC018F00EC00AF018C0F1
:1007C8000EF00BC018F00FC00BF018C00FF00CC0E3
:1007D80018F010C00CF018C010F0000E186E17506A
:1007E80016C011F0126A115E000E125A12BE2CD0F9
:1007F800125004E11A0E115CD8A026D009500A1034
:100808000B100C10D8B402D0010E01D0000E186ED7
:10081800000E096E000E0A6E000E0B6E000E0C6EB6
:1008280016C017F015D018A005D0D89018300109B7
:10083800186E02D0D890183209B0188E0C340C32C9
:100848000B320A320932172A1650175CD8A0EBD798
:1008580015BC28D01750D8A409D0000E096E000E78
:100868000A6E000E0B6E000E0C6E12000D5009265B
:100878000E500A220F500B2210500C220CA071D0DF
:1008880018A005D0D89018300109186E02D0D89059
:10089800183209B0188E0C340C320B320A32093275
:1008A800172A5FD00D50095C0E500A580F500B588C
:1008B8000C50800A116E1050800A1158D8B025D0FB
:1008C80009500D5C116E0A500E58126E0B500F58DD
:1008D800136E0C501058146EFF0E1124096EFF0E83
:1008E80012200A6EFF0E13200B6EFF0E14200C6EE2
:1008F800800E151A186C1850D8A40FD0010E0926AE
:10090800000E0A220B220C2208D00D50095E0E5050
:100918000A5A0F500B5A10500C5A09500A100B1053
:100928000C10D8A41CD01850D8A419D0000E096EE9
:10093800000E0A6E000E0B6E000E0C6E1200D890A0
:1009480009360A360B360C3618BE098018A002D0B4
:10095800D88001D0D89018361750D8A417060BAEF7
:10096800EED7000E166E18AE0BD018C011F07F0E21
:100978001116D8B403D0010E166E02D009B0FBD7F9
:100988001650D8B420D0010E0926000E0A220B22D8
:100998000C220CA018D009C011F00AC012F00BC02C
:1009A80013F00CC014F01434143213321232113212
:1009B80011C009F012C00AF013C00BF014C00CF0FB
:1009C8001728D8A4172A1728D8B403D01750D8A4A2
:1009D8000DD0000E096E000E0A6E000E0B6E000E92
:1009E8000C6E1750D8A402D0000E156E17A002D0B6
:1009F8000B8E01D00B9ED89017300C6E15BE0C8E46
:100A080009C009F00AC00AF00BC00BF00CC00CF0CA
:100A18001200A7C0D9FFA8C0DAFFDECFF6FFDDCFEE
:100A2800F7FFF86A0800F550250AD8A40AD1A7C02C
:100A3800D9FFA8C0DAFFDE2A000EDD22000E000171
:100A4800716F000E706F70C04EF071C04FF0726918
:100A58007369A7C0D9FFA8C0DAFFDECFF6FFDDCFE4
:100A6800F7FFF86A0800F550630AD8A426D0A7C093
:100A7800D9FFA8C0DAFFDE2A000EDD22A9C0D9FFFF
:100A8800AAC0DAFFDFCF4AF0020EDE26DFCF4BF036
:100A9800000EDD224AC0D9FF4BC0DAFFDF50B56F28
:100AA800A5C026F0A6C027F0B5C028F01CEC13F0AE
:100AB80026C0A5F027C0A6F01200A7C0D9FFA8C07D
:100AC800DAFFDECFF6FFDDCFF7FFF86A0800F55052
:100AD800640AD8B40ED0A7C0D9FFA8C0DAFFDECF09
:100AE800F6FFDDCFF7FFF86A0800F550690AD8A4C9
:100AF8003FD0A7C0D9FFA8C0DAFFDE2A000EDD224A
:100B0800A9C0D9FFAAC0DAFFDFCF4AF0020EDE265D
:100B1800DFCF4BF0000EDD224AC0D9FF4BC0DAFF11
:100B2800DECFABF0DDCFACF0000EACBFFF0EAD6F8B
:100B3800AE6FAF6FB06FB16FB26FA5C026F0A6C031
:100B480027F0ABC028F0ACC029F0ADC02AF0AEC089
:100B58002BF0AFC02CF0B0C02DF0B1C02EF0B2C059
:100B68002FF06EEC07F026C0A5F027C0A6F0120003
:100B7800A7C0D9FFA8C0DAFFDECFF6FFDDCFF7FFA9
:100B8800F86A0800F550730AD8A42AD0A7C0D9FF7C
:100B9800A8C0DAFFDE2A000EDD22A9C0D9FFAAC04C
:100BA800DAFFDFCF4AF0020EDE26DFCF4BF0000E71
:100BB800DD224AC0D9FF4BC0DAFFDECFB3F0DDCF6C
:100BC800B4F0A5C014F0A6C015F0B3C016F0B4C0B8
:100BD80017F063EC0CF014C0A5F015C0A6F01200D5
:100BE800A7C0D9FFA8C0DAFFDECFF6FFDDCFF7FF39
:100BF800F86A0800F550250AD8A417D0A7C0D9FF6D
:100C0800A8C0DAFFDE2A000EDD22000E0C6E250ECB
:100C18000B6EA5C00DF0A6C00EF0E7EC11F0000EAB
:100C28000001A66F010EA56F1200A7C0D9FFA8C0CA
:100C3800DAFFDE2A000EDD22000EA66F000EA56F79
:100C48001200A7C0D9FFA8C0DAFFDECFF6FFDDCFBC
:100C5800F7FFF86A0800F5500B6E0C6AA5C00DF096
:100C6800A6C00EF0E7EC11F0A7C0D9FFA8C0DAFFC4
:100C7800DE2A000EDD22D3D7000120EE02F0C65195
:100C8800D926C751DA22DECF09F0DDCF0AF0F20EFD
:100C98000B6EFF0E0C6E1DEC12F009500A10D8A452
:100CA80048D0000120EE04F0C651D926C751DA22F7
:100CB800DECF09F0DDCF0AF0780E0B6EFF0E0C6E5A
:100CC8001DEC12F009500A10D8A404D0010E84ECCF
:100CD80009F01200000120EE04F0C651D926C751D0
:100CE800DA22DECF10F0DDCF11F003EC0DF010C0EA
:100CF800C8F011C0C9F0D10E0001BC6FFE0EBD6F67
:100D0800C8C0BEF0C9C0BFF048EC15F00FEC16F033
:100D18000009D8A407D0600E0001BC6FFC0EBD6F9F
:100D280048EC15F0C8C017F0C9C018F000EC10F076
:100D38001200000120EE02F0C651D926C751DA226E
:100D4800DECF09F0DDCF0AF0D90E0B6EFF0E0C6E68
:100D58001DEC12F009500A10D8A410D00FEC16F0B0
:100D68000009D8B408D00A0E0001BC6FFF0EBD6F91
:100D780048EC15F0120003EC16F0A4D0000120EEA8
:100D880002F0C651D926C751DA22DECF09F0DDCFED
:100D98000AF0E90E0B6EFF0E0C6E1DEC12F00950F6
:100DA8000A10D8A410D00FEC16F00009D8A408D067
:100DB800EE0E0001BC6FFE0EBD6F48EC15F0120080
:100DC80000EC16F07FD0000120EE02F0C651D926C3
:100DD800C751DA22DECF09F0DDCF0AF0C50E0B6E5F
:100DE800FF0E0C6E1DEC12F009500A10D8A46AD040
:100DF8005E0E0001BC6FFF0EBD6F48EC15F0EA0EE9
:100E08000001BC6FFD0EBD6F48EC15F0B30E00017C
:100E1800BC6FFE0EBD6F48EC15F0380E0001BC6FBC
:100E2800FF0EBD6F48EC15F0A40E0001BC6FFF0E5D
:100E3800BD6F48EC15F0110E0001BC6FFE0EBD6FC2
:100E480048EC15F0380E0001BC6FFF0EBD6F48EC82
:100E580015F06C0E0001BC6FFF0EBD6F48EC15F06D
:100E6800460E0001BC6FFD0EBD6F48EC15F0150E67
:100E78000001BC6FFC0EBD6F48EC15F0950E00012B
:100E8800BC6FFE0EBD6F48EC15F0570E0001BC6F2D
:100E9800FE0EBD6F48EC15F0380E0001BC6FFF0E5A
:100EA800BD6F48EC15F0AD0E0001BC6FFF0EBD6FB5
:100EB80048EC15F09A0E0001BC6FFC0EBD6F48ECB3
:100EC80015F01200C60E0001BC6FFC0EBD6F48EC99
:100ED80015F0120028C040F029C041F02AC042F0A5
:100EE8002BC043F02CC044F02DC045F02EC046F076
:100EF8002FC047F047AE02D0010E01D0000E3E6E63
:100F08003F6A3E503F10D8B410D0471E461E451EBB
:100F1800441E431E421E411E406C000E41224222C6
:100F280043224422452246224722000173AF4E92B3
:100F380073BF05D0735108E17205D8B005D0000E13
:100F48003B6E010E3A6E04D072C03AF073C03BF0AB
:100F580070C03CF071C03DF03E503F10D8A402D0A4
:100F68004EA403D03C06D8A03D06000E496E1F0EC5
:100F7800486E000EA46F7CD04806D8A04906850E9E
:100F88004824D96E000E4920DA6E40C009F041C0ED
:100F98000AF042C00BF043C00CF044C00DF045C04D
:100FA8000EF046C00FF047C010F00A0E116E000E8A
:100FB800126E000E136E000E146E000E156E000EEB
:100FC800166E000E176E000E186EA0EC0DF009C01C
:100FD80030F00AC031F00BC032F00CC033F00DC055
:100FE80034F00EC035F00FC036F010C037F030C006
:100FF8001BF032C01CF05EEC14F01B50300FDF6E9B
:101008003A06D8A03B063C06D8A03D0640C009F0E9
:1010180041C00AF042C00BF043C00CF044C00DF0D0
:1010280045C00EF046C00FF047C010F00A0E116E12
:10103800000E126E000E136E000E146E000E156E6A
:10104800000E166E000E176E000E186E1FEC0BF0D9
:1010580009C040F00AC041F00BC042F00CC043F098
:101068000DC044F00EC045F00FC046F010C047F068
:1010780049BE1FD0495003E14804D8A01AD04050B7
:101088004110421043104410451046104710D8A490
:1010980073D73BBE05D03B5002E13A04D8B06CD7B9
:1010A8003DBE07D03D5003E13C04D8A002D04EB26B
:1010B80063D73E503F10D8A402D04EA417D048069C
:1010C800D8A049063E503F10D8A404D0000E396E6F
:1010D8002B0E03D0000E396E2D0E386E850E482467
:1010E800D96E000E4920DA6E38C0DFFF26C01BF02B
:1010F80027C01CF0850E48241D6E000E49201E6E68
:101108003CC01FF03DC020F09EEC10F01BC026F044
:101118001CC027F0120090EC15F0F28EF28C74ECE3
:1011280011F0ADEC15F09FEC15F0100E096E270EBE
:101138000A6EDAEC15F0C2EC15F00009D8B4DED06E
:1011480008EC14F08982D4D0260E0001BC6FFF0E83
:10115800BD6FBE0EBE6FFF0EBF6FDF0EC06FFF0EFE
:10116800C16F48EC15F0AAEC0FF0BDD0340E0001A9
:10117800BC6FFE0EBD6FD0EC15F009C0BEF00AC002
:10118800BFF0BE0E0001C06FFF0EC16F48EC15F036
:10119800F90E0001BC6FFF0EBD6F48EC15F022EE92
:1011A80000F03F0EDE6AE806FDE2000E0001C66FA1
:1011B800020EC76F000EC86F59EC0AF0000E146ECD
:1011C800020E156EFA0E166EFF0E176EF7EC0EF085
:1011D80014C0C2F215C0C3F2000E0201C16F000EA6
:1011E800C06F1DD0D890C035D96EC135DA6E400EAB
:1011F800D926020EDA22C2C2DEFFC3C2DDFFC04B0F
:10120800C12B000E146E000E156EFA0E166EFF0E30
:10121800176EF7EC0EF014C0C2F215C0C3F202014B
:10122800C251C311D8A4DED740C209F041C20AF0A6
:10123800E40E0B6EFF0E0C6E1DEC12F009500A1036
:10124800D8B40ED040C209F041C20AF0780E0B6E35
:10125800FF0E0C6E1DEC12F009500A10D8A404D031
:10126800000E84EC09F03FD040C209F041C20AF0F8
:10127800D30E0B6EFF0E0C6E1DEC12F009500A1007
:10128800D8A408D0400E0001C66F020EC76F40EC0C
:1012980006F029D040C209F041C20AF0CC0E0B6E0C
:1012A800FF0E0C6E1DEC12F009500A10D8A403D0E2
:1012B800F8EC15F018D040C209F041C20AF0C70E88
:1012C8000B6EFF0E0C6E1DEC12F009500A10D8A41C
:1012D80003D078EC12F007D06F0E0001BC6FFD0E42
:1012E800BD6F48EC15F006EC16F00009D8A43ED7FF
:1012F80006EC16F00009D8A41ED726D789921BD76A
:101308000101CC6F000E0101CB6F000EC96F640E96
:10131800C86F000ED46F000ED36F1C0E0001BC6F97
:10132800FD0EBD6F48EC15F0980E0001BC6FFD0E68
:10133800BD6F48EC15F0C10E0001BC6FFD0EBD6F0E
:1013480048EC15F0380E0001BC6FFF0EBD6F48EC7D
:1013580015F00101CC51D8A403EC16F00101D351CA
:10136800C85DD451C959D8B006D0010ECB6F000E54
:10137800D46F000ED36F030E77EC14F00C0E092413
:101388000E6EFE0E0A200F6E000E116E0A0E106E03
:10139800A3EC12F00EC0CDF10FC0CEF1D890010130
:1013A800D335D96ED435DA6E000ED926010EDA227D
:1013B800CDC1DEFFCEC1DDFFD34BD42BCB51D8A49A
:1013C80005D0D3C1D1F1D4C1D2F104D0D1C1D1F16A
:1013D800D2C1D2F1000ED66F000ED56F000ED06FBD
:1013E800000ECF6F0FD0D890CF35D96ED035DA6ECA
:1013F800000ED926010EDA22DE50D527DD50D6237D
:10140800CF4BD02BD151CF5DD251D059D8A0EBD7EB
:10141800D1C110F0D2C111F0D5C10EF0D6C10FF074
:10142800A3EC12F00EC015F00FC016F0176A186A78
:10143800000EC3EC0BF015C023F016C024F017C043
:1014480025F018C026F0EAEC01F023C03DF024C0D6
:101458003EF025C03FF026C040F09AEC0EF03DC0AB
:10146800D5F13EC0D6F10101CC51D8B406D0D5C1D2
:1014780017F0D6C118F000EC10F0F10E0001BC6FA7
:10148800FC0EBD6FCDC1BEF0CEC1BFF0D5C1C0F05E
:10149800D6C1C1F048EC15F008EC14F00101CA6F90
:1014A800030ECA19D8B4120059D7000E0001D26F22
:1014B800000ED16F000ED36FB8D008EC14F0000105
:1014C800D36F0D0ED319D8A421D0D151C625C96F19
:1014D800D251C721CA6FC9C0F6FFCAC0F7FF000EB4
:1014E800F86E0F0EF76404D0000EF56E0C0006D0EF
:1014F800F6CFE1FFF7CFE2FF000EE76E380E0001EE
:10150800BC6FFF0EBD6F48EC15F01200030ED31927
:10151800D8A407D0380EBC6FFF0EBD6F48EC15F08D
:1015280012007F0ED319D8A411D0D2BF7ED0D251C9
:1015380003E1D105D8A079D0D107D8A0D207EE0E03
:10154800BC6FFF0EBD6F48EC15F06FD0E00EC96F91
:10155800FF0ECA6FD351CB6FCC6BC951CB27CA5181
:10156800CC23CC5106E15F0ECB5DD8B002D0010E82
:1015780001D0000ECD6FCE6BCD51CE11D8A41AD0AC
:10158800DF0EC96FFF0ECA6FD351CB6FCC6BC95139
:10159800CB27CA51CC23CC5106E15E0ECB5DD8B027
:1015A80002D0010E01D0000ECF6FD06BCF51D011F9
:1015B800D8B43BD0C851D8B407D0FC0EBC6FFF0ECE
:1015C800BD6F48EC15F009D0F60EBC6FFF0EBD6F6D
:1015D800D3C0BEF0BF6B48EC15F00001D151C62551
:1015E800C96FD251C721CA6FC9C0F6FFCAC0F7FF79
:1015F800000EF86E0F0EF76404D0D3C0F5FF0C0090
:1016080006D0F6CFE1FFF7CFE2FFD3C0E7FF000136
:10161800D14BD22BD2BF09D0D25104E1400ED15DBB
:10162800D8A003D0D107D8A0D2070D0E0001D31936
:10163800D8B4120042D7000E1A6E18AE12D0181E77
:10164800171E161E151E141E131E121E116C000ED8
:101658001222132214221522162217221822010EF2
:101668001A6E10AE12D0101E0F1E0E1E0D1E0C1E6E
:101678000B1E0A1E096C000E0A220B220C220D22D8
:101688000E220F221022010E1A1A20EE1BF0070E4E
:10169800DE6AE806FDE2115012101310141015103E
:1016A800161017101810D8B446D0010E196E0AD0AB
:1016B800D8901136123613361436153616361736B4
:1016C8001836192A18AEF4D7D8901B361C361D3692
:1016D8001E361F362036213622361150095C12502C
:1016E8000A5813500B5814500C5815500D581650D2
:1016F8000E5817500F5818501058D8A011D0115024
:10170800095E12500A5A13500B5A14500C5A1550AD
:101718000D5A16500E5A17500F5A1850105A1B804F
:10172800D890183217321632153214321332123258
:101738001132192EC9D71A50D8B410D0221E211E22
:10174800201E1F1E1E1E1D1E1C1E1B6C000E1C2292
:101758001D221E221F222022212222221BC009F024
:101768001CC00AF01DC00BF01EC00CF01FC00DF00D
:1017780020C00EF021C00FF022C010F012001D6E24
:101788001D50D8A418AE1AD015C019F016C01AF0FA
:1017980017C01BF018C01CF0191E1A1E1B1E1C1E99
:1017A800192A000E1A221B221C2219C01FF01AC067
:1017B80020F01BC021F01CC022F008D015C01FF07B
:1017C80016C020F017C021F018C022F015501610CE
:1017D80017101810D8A409D0000E156E000E166E3A
:1017E800000E176E000E186E1200960E1E6E06D0B2
:1017F8001E2AD8902232213220321F32000E1F14A6
:10180800196E000E20141A6E000E21141B6EFE0EA7
:1018180022141C6E19501A101B101C10D8B40DD0AD
:10182800E7D71E2A010E1F26000E2022212222227F
:10183800D8902232213220321F32000E1F14196E26
:10184800000E20141A6E000E21141B6EFF0E2214B7
:101858001C6E19501A101B101C10D8B407D0E1D7F1
:101868001E06D8901F3620362136223621BE03D0D8
:10187800020E1E60F5D71EA0219ED8901E321EC0F3
:1018880019F01A6A1B6A1C6A19C01CF01B6A1A6ACA
:10189800196A19501F121A5020121B5021121C507D
:1018A80022121D50D8A418AE01D0228E1FC015F0E8
:1018B80020C016F021C017F022C018F0120020EE48
:1018C800D4F010EE19F0060EDBCFE3FFE806FCE2D9
:1018D80016C024F017C025F024502510D8A404D031
:1018E800190E246E000E256E24C009F025C00AF0DA
:1018F80066EC13F009C028F00AC029F072C026F07F
:1019080073C027F027BE0ED02850265C2750800AC7
:10191800186E2950800A1858D8B004D026C028F06C
:1019280027C029F028C026F029C027F070C022F06F
:1019380071C023F04EA00DD016D0000E0C6E200EF4
:101948000B6E14C00DF015C00EF0E7EC11F0284A2C
:10195800292A2250285C2950800A186E2350800AB0
:101968001858D8A0EAD7000E216E000E206E1FD09E
:1019780024C0F6FF25C0F7FF000EF86E0F0EF764BF
:1019880003D00800F55005D0F6CFE1FFF7CFE2FF0E
:10199800E750186E18500B6E0C6A14C00DF015C085
:1019A8000EF0E7EC11F0244A252A204A212A265075
:1019B800205C2150800A186E2750800A1858D8A039
:1019C800D7D74EB00DD016D0000E0C6E200E0B6E71
:1019D80014C00DF015C00EF0E7EC11F0284A292AC2
:1019E8002250285C2950800A186E2350800A185803
:1019F800D8A0EAD728C014F029C015F01200000EAC
:101A08001E6E000E1D6E000E176E000E166E02D0B2
:101A1800104A112A010E1C6E10C0D9FF11C0DAFF3E
:101A2800200EDE18D8B417D0F70E126EFF0E136E04
:101A380010C0D9FF11C0DAFFDF50146E156A1250BA
:101A4800142613501522155004E1050E145CD8A075
:101A580002D0000E1C6E1CC018F0196A185019101C
:101A6800D8B408D0D5D7000E176E010E166E104ADE
:101A7800112A2ED010C0D9FF11C0DAFFDF50126E24
:101A8800136A1350000AD8A423D012502B0AD8B4D2
:101A9800EED7060AD8B4E7D71BD01DC009F01EC080
:101AA8000AF0000E0C6E0A0E0B6E5CEC15F010C0FE
:101AB800D9FF11C0DAFFDF50126E1250095E000E16
:101AC8000A5A300E09241D6E000E0A201E6ECFD74A
:101AD800D00E126EFF0E136E10C0D9FF11C0DAFFC0
:101AE800DF50146E156A1250142613501522155023
:101AF80006E10A0E145CD8B002D0010E01D0000E27
:101B08001A6E1B6A1A501B10D8A4C7D71650171084
:101B1800D8A40DD01DC012F01EC013F0121E131E43
:101B2800124A132A12C010F013C011F012001DC07F
:101B380010F01EC011F01200000E1A6E10AE12D076
:101B4800101E0F1E0E1E0D1E0C1E0B1E0A1E096CEB
:101B5800000E0A220B220C220D220E220F22102226
:101B6800010E1A6E18AE10D0181E171E161E151E5E
:101B7800141E131E121E116C000E122213221422A0
:101B880015221622172218221150121013101410A1
:101B98001510161017101810D8B43CD0010E196E75
:101BA8000AD0D89011361236133614361536163632
:101BB80017361836192A18AEF4D71150095C125086
:101BC8000A5813500B5814500C5815500D581650ED
:101BD8000E5817500F5818501058D8A010D0115040
:101BE800095E12500A5A13500B5A14500C5A1550C9
:101BF8000D5A16500E5A17500F5A1850105AD8909E
:101C08001832173216321532143213321232113298
:101C1800192ED3D71A50D8B410D0101E0F1E0E1E6E
:101C28000D1E0C1E0B1E0A1E096C000E0A220B222A
:101C38000C220D220E220F22102209C009F00AC020
:101C48000AF00BC00BF00CC00CF00DC00DF00EC06C
:101C58000EF00FC00FF010C010F01200000E0914A3
:101C6800116E000E0A14126E800E0B14136E7F0E86
:101C78000C14146E1150121013101410D8A408D09C
:101C8800000E096E000E0A6E000E0B6E000E0C6E32
:101C9800000E0D14116E000E0E14126E800E0F142D
:101CA800136E7F0E1014146E1150121013101410AE
:101CB800D8A408D0000E0D6E000E0E6E000E0F6E2A
:101CC800000E106E0CAE09D0096C0A1ED8B00A2A94
:101CD8000B1ED8B00B2A800E0C5610AE09D00D6C16
:101CE8000E1ED8B00E2A0F1ED8B00F2A800E10561E
:101CF800000E091A000E0A1A000E0B1A800E0C1A92
:101D0800000E0D1A000E0E1A000E0F1A800E101A71
:101D18000D50095C0E500A580F500B5810500C58B3
:101D2800D8B002D0D8901200D88012003F34403486
:101D3800466E4650D8A409D0000E3D6E000E3E6E89
:101D4800000E3F6E000E406E12003DC041F03EC0D6
:101D580042F03FC043F040C044F0200E05D0D89078
:101D68004432433242324132E82EF9D74150456E6F
:101D78003F8EFF0E3D16FF0E3E16FF0E3F16000E5D
:101D88004016960E465E46AE0DD04650800A970F16
:101D9800D8A0D2D7D89040323F323E323D32463E6C
:101DA800F9D70DD01F0E466407D0C6D7D8903D3658
:101DB8003E363F36403646064650D8A4F7D74550FB
:101DC800D8B408D0401E3F1E3E1E3D6C000E3E2279
:101DD8003F2240223DC03DF03EC03EF03FC03FF0B4
:101DE80040C040F0120014501510D8A40DD06CC09B
:101DF80014F06DC015F014501510D8A405D0000EBD
:101E0800146E000E156E120014C00DF015C00EF001
:101E180016C00FF017C010F0CCEC12F00D501426BD
:101E28000E50152214C0D9FF15C0DAFFDF50D8A410
:101E38000AD0000E00016C6F000E6D6F6CC014F0BC
:101E48006DC015F0120014C00DF015C00EF016C0CC
:101E58000FF017C010F0F4EC12F00D50142400012C
:101E68006C6F0E5015206D6F6CC0D9FF6DC0DAFF16
:101E7800DF50D8B409D06CC0D9FF6DC0DAFF000EAE
:101E8800DF6E6C4B6D2B04D0000E6C6F000E6D6F07
:101E980014C014F015C015F0120015D0400E11D062
:101EA800790E0FD0240E0DD0300E0BD0190E09D09C
:101EB800120E07D0020E05D0780E03D0000E01D006
:101EC800180E0F6E26D00B500D6E0E6A0E50000ABB
:101ED800D8A41FD00D50000AD8B4E0D7010AD8B44E
:101EE800DFD7030AD8B4DED7010AD8B4DDD7070A8A
:101EF800D8B4DCD7010AD8B4DBD7030AD8B4DAD708
:101F0800010AD8B4D9D70F0AD8B4D8D7010AD8B497
:101F1800D7D70C50D8A40AD00F5080090F6E06D01E
:101F28000FC0E0F012000FC0DFF0120009C00DF082
:101F38000AC00EF00E50000AD8A412000D50000A74
:101F4800D8B4EED7010AD8A41200EDD721EE40F09C
:101F58003F0EDE6AE806FDE221EE00F03F0EDE6A83
:101F6800E806FDE243D08F0E0001BC6FFF0EBD6F87
:101F780048EC15F0400E0001C66F010EC76F000E49
:101F8800C86F59EC0AF03B0E0001BC6FFF0EBD6F25
:101F9800400EBE6F010EBF6FDF0EC06FFF0EC16F28
:101FA80048EC15F0000E0001C66F010EC76F010E58
:101FB800C86F59EC0AF0400E126E010E136E000E37
:101FC800146E010E156ED7EC14F00009D8A4120097
:101FD800380E0001BC6FFF0EBD6F48EC15F0770E90
:101FE8000001BC6FFE0EBD6F48EC15F006EC16F054
:101FF8000009D8A41200B7D7000E1D6E18BE0DD068
:10200800185004E1640E175CD8A007D0000E186EB3
:10201800630E176E010E1D6E06D018AE04D0000EAA
:10202800186E000E176E000E0C6E0A0E0B6E17C09F
:1020380009F018C00AF032EC11F009C011F00AC01A
:1020480012F0000E146E0A0E136EAFEC11F011C0F0
:1020580019F012C01AF017C011F018C012F0000ED3
:10206800146E0A0E136EAFEC11F011C01BF012C003
:102078001CF0000E0A6E000E096E19C00BF0000E5F
:102088000C6E51EC0FF0000E0A6E010E096E1BC0AB
:102098000BF01DC00CF051EC0FF01200800E532411
:1020A800D96EDA6A030EDA22000EDF6EABA414D002
:1020B800800E5324D96EDA6A030EDA220301DF8216
:1020C80001D80AD00500FA6E00017C51FD6E7D51E1
:1020D800FE6EFF6AFA501200ABA214D0800E532491
:1020E800D96EDA6A030EDA220301DF8401D80AD036
:1020F8000500FA6E00017A51FD6E7B51FE6EFF6A93
:10210800FA501200800E5324D96EDA6A030EDA22CE
:10211800DF50D8B40CD001D812000500FA6E0001C7
:102128007851FD6E7951FE6EFF6AFA50120080EC0C
:1021380015F012004EA00AD01DC014F01EC015F0F4
:102148001BC016F01CC017F027EC14F020BE05D0F9
:102158001FC024F020C025F004D0000E256E000E0C
:10216800246E000E236E000E226E0CD0000E0C6E34
:10217800200E0B6E1BC00DF01CC00EF0E7EC11F02A
:10218800224A232A2450225C2350800A216E25509B
:10219800800A2158D8A0EAD74EB00AD01DC014F042
:1021A8001EC015F01BC016F01CC017F027EC14F069
:1021B8001DC009F01EC00AF066EC13F02450092473
:1021C8001B6E25500A201C6E12002C0EF66E2C0E6B
:1021D800F76E000EF86E0900F5CFC4F20900F5CFCE
:1021E800C5F22A0EF66E2C0EF76E000EF86E090078
:1021F800F5CFD7F10900F5CFD8F1920EF66E2B0E78
:10220800F76E000EF86E00EED4F010EE0DF0090037
:10221800F5CFEEFFE550E150FAE104EE00F0400E94
:10222800EE6AE806FDE103EE00F011EE00F0EE6A5A
:10223800E550E150FCE1E250FAE100EE60F0450EB5
:10224800EE6AE806FDE100EE4EF0090EEE6AE806D9
:10225800FDE15790579200018FEF08F0000E0E6EC7
:102268000CAE06D00B6C0C1ED8B00C2A010E0E6EEC
:102278000AAE06D0096C0A1ED8B00A2A010E0E1A38
:10228800000E106E000E0F6E0B500C10D8B41CD040
:10229800010E0D6E04D0D8900B360C360D2A0CAEFC
:1022A800FAD7D8900F3610360B50095C0C500A58E4
:1022B800D8A005D00B50095E0C500A5A0F80D89050
:1022C8000C320B320D2EEDD70E50D8B404D00F6C53
:1022D800101ED8B0102A0FC009F010C00AF0120062
:1022E8009D9AA40E096E200E0A6EE4EC15F09D98D6
:1022F800660E096E2A0E0A6EDFEC15F0080EB86E2F
:10230800900EAB6E240EAC6E8A0EAF6E000EB06EE1
:10231800300E096E2C0E0A6EEEEC15F0120E096ED8
:102328002C0E0A6EE9EC15F0180E096E2C0E0A6ECA
:10233800F3EC15F0000E0001846F000E566E000ECF
:10234800556E080E546E000E536E000E526E000E3F
:10235800516E9D8A1200000E166E12AE06D0116CD8
:10236800121ED8B0122A010E166E14AE04D0136CC9
:10237800141ED8B0142A13501410D8B418D0010E53
:10238800156E04D0D89013361436152A14AEFAD721
:102398001350115C14501258D8A004D01350115E79
:1023A8001450125AD89014321332152EF1D71650F1
:1023B800D8B404D0116C121ED8B0122A11C011F072
:1023C80012C012F012000D500E10D8B404D00D50E7
:1023D8000E10D8A404D00B50D5EC15F0120020EE46
:1023E80004F00D50D9260E50DA22DE50DE10D8B493
:1023F80016D020EE04F00D50D9260E50DA2210EE39
:1024080002F00D50E1260E50E222DE50E65CE65066
:10241800800A136EDE50800A1358D8B0120020EEDE
:1024280002F00D50D9260E50DA22DE2A000EDD22E7
:10243800120004D0094A0A2A0B4A0C2A09C0D9FFFB
:102448000AC0DAFFDF500D6E0BC0F6FF0CC0F7FFB5
:10245800F86A0800F5500D18D8A407D009C0D9FFAC
:102468000AC0DAFFDF50D8A4E5D709C0D9FF0AC0EF
:10247800DAFFDF500D6E0BC0F6FF0CC0F7FFF86AED
:102488000800F5500D5C096E0A6AD8A00A06120009
:10249800B8C04CF0B9C04DF0000E00016F6F000ECF
:1024A8006E6F13D0B6C0A5F0B7C0A6F04C0EA76FDC
:1024B800000EA86FBAC0A9F0BBC0AAF00DEC05F0D9
:1024C8000001A5516E27A6516F234CC0F6FF4DC0E1
:1024D800F7FFF86A0800F5500009D8A4E3D76EC0E2
:1024E800B6F06FC0B7F01200C80E0001BC6FFB0E4B
:1024F800BD6F48EC15F0380E0001BC6FFF0EBD6FC4
:1025080048EC15F06C0E0001BC6FFF0EBD6F48EC77
:1025180015F0110E0001BC6FFE0EBD6F48EC15F0F2
:102528004E0E0001BC6FFF0EBD6F48EC15F0840E17
:102538000001BC6FFF0EBD6F48EC15F01200000ED5
:10254800146E000E136E10501110D8B41CD0010E6A
:10255800126E04D0D89010361136122A11AEFAD75E
:10256800D8901336143610500E5C11500F58D8A05E
:1025780005D010500E5E11500F5A1380D8901132AA
:102588001032122EEDD713C00EF014C00FF0120047
:10259800000E136E000E126E04D00D4A0E2A124A57
:1025A800132A0DC0D9FF0EC0DAFFDF50D8B413D0FC
:1025B8000FC009F010C00AF00DC0D9FF0EC0DAFF35
:1025C800DF50116E11500B6E0C6AA9EC13F0095014
:1025D8000A10D8A4E2D712C00DF013C00EF01200F2
:1025E800000E136E000E126E04D00D4A0E2A124A07
:1025F800132A0DC0D9FF0EC0DAFFDF50D8B413D0AC
:102608000FC009F010C00AF00DC0D9FF0EC0DAFFE4
:10261800DF50116E11500B6E0C6AA9EC13F00950C3
:102628000A10D8B4E2D712C00DF013C00EF0120091
:10263800000170517111D8A405D070C029F071C083
:102648002AF006D0FF0E7025296EFF0E71212A6E22
:1026580028C085F0000E866F26C01BF027C01CF02E
:10266800850E1D6E000E1E6E29C01FF02AC020F0B8
:102678009EEC10F01BC026F01CC027F01200000EC4
:102688001D1A000E1E1A000E1F1A800E201A19C0DD
:1026980009F01AC00AF01BC00BF01CC00CF01DC0DA
:1026A8000DF01EC00EF01FC00FF020C010F087EC18
:1026B80003F009C019F00AC01AF00BC01BF00CC0D7
:1026C8001CF0120009C00BF00AC00CF002D0094A35
:1026D8000A2A09C0F6FF0AC0F7FF000EF86E0F0EAF
:1026E800F76403D00800F55005D0F6CFE1FFF7CF27
:1026F800E2FFE7500009D8A4EAD70B50095C096E3D
:102708000C500A580A6E12005050D8B41CD0000160
:102718008251D8A40CD0000E026E000E016E06EC99
:1027280015F0E0C081FF010E0001826F1200000E5B
:10273800026E010E016E06EC15F0DFC081FF000E7F
:102748000001826F12008168120009C0F6FF0AC0FA
:10275800F7FFF86A0800F5500B18D8A405D009C08F
:1027680009F00AC00AF0120009C0F6FF0AC0F7FF14
:10277800094A0A2AF86A0800F5500009D8A4E5D7DA
:10278800000E096E000E0A6E12000EC009F00FC08E
:102798000AF09A0E0B6EFF0E0C6E1DEC12F009502B
:1027A8000A10D8A410D010C009F011C00AF0B60E53
:1027B8000B6EFF0E0C6E1DEC12F009500A10D8A417
:1027C80002D0010E1200000E1200010E0F6E200E34
:1027D80009180A10D8B414D0F70E0B6EFF0E0C6E41
:1027E80009C00DF00AC00EF00B500D260C500E2239
:1027F8000E5004E1050E0D5CD8A002D0000E0F6E3D
:102808000FC009F00A6A12005150D8B4FDD7800EE3
:102818005224D96EDA6A030EDA22DF500001846F7F
:10282800C00E5224D96EDA6A030EDA22DF50096E1E
:10283800522A3F0E526402D0000E526E9D9A5106E3
:102848009D8A09501200000E1A6E000E196E0BD0E8
:1028580018C00BF00C6A16C00DF017C00EF0E7ECAC
:1028680011F0194A1A2A19501424D96E1A50152031
:10287800DA6EDF50186E1850D8B41200E9D7096E16
:102888005450D8B4FDD79DB803D009C0ADFF10D0BF
:102898009D98600E5624D96EDA6A000EDA2209C0B5
:1028A800DFFF562A070E566402D0000E566E5406F5
:1028B8009D8812001CBE05D01C5010E11B04D8B026
:1028C8000DD01BC01DF01CC01EF01D1E1E1E1D4A73
:1028D8001E2A1DC01BF01EC01CF012001BC01BF0DE
:1028E8001CC01CF012000D6E0DC00BF00B460B4601
:1028F800C2500B18830B0B18C26EC280C282C2B2C0
:10290800FED7C4500C6E0B6AC3500B24096E000E20
:102918000C200A6E1200D00E0B6EFF0E0C6E09C052
:102928000DF00AC00EF00B500D260C500E220E5062
:1029380006E10A0E0D5CD8B002D0010E01D0000EDF
:10294800096E0A6A1200E00E0B6EFF0E0C6E09C0CB
:102958000DF00AC00EF00B500D260C500E220E5032
:1029680006E15F0E0D5CD8B002D0010E01D0000E5A
:10297800096E0A6A1200DF0E0B6EFF0E0C6E09C09C
:102988000DF00AC00EF00B500D260C500E220E5002
:1029980006E15E0E0D5CD8B002D0010E01D0000E2B
:1029A800096E0A6A120012C00EF013C00FF014C0AC
:1029B80010F015C011F0C9EC13F00009D8B409D013
:1029C80012C074F013C075F0010E0001836F010E80
:1029D8001200000E120009500A100B100C10D8B487
:1029E80008D0000E091A000E0A1A000E0B1A800EE3
:1029F8000C1A09C009F00AC00AF00BC00BF00CC091
:102A08000CF0120006D08B968B8412008B948B8668
:102A1800120001C003F002C004F00450000AD8A458
:102A280012000350000AD8B4EED7010AD8A4120045
:102A3800EDD7000E896E8A68000E8B6EFD0E926EC1
:102A4800000E936EB30E946E300E0F013A6F000EA7
:102A5800396F2D0E386F000E616EF18E1200080E60
:102A6800546010D0600E5524D96EDA6A000EDA224E
:102A7800DF50AD6E552A070E556402D0000E556E14
:102A8800542A12009D981200BE0E0001C46F000E59
:102A9800C56F000EB66F000EB76FBCC0B8F0BDC0F2
:102AA800B9F0C40EBA6F000EBB6F4CEC12F01200F6
:102AB80009500B02F3CF0DF0F4CF0EF009500C02C1
:102AC800F3500E260A500B02F3500E260DC009F0E3
:102AD8000EC00AF012009E92000176517711D8B408
:102AE800120001D812000500FA6E7651FD6E77517A
:102AF800FE6EFF6AFA501200C00E5324D96EDA6ACD
:102B0800030EDA22AECFDFFF532A3F0E536402D002
:102B1800000E536E512A120011EC16F01DEC15F040
:102B2800B9EC15F0FCEC15F09FEC15F0ADEC15F0D8
:102B380074EC11F01200BB68000EBC6E9E929D8270
:102B48002E0E096E2C0E0A6EDAEC15F07E0EBA6E99
:102B58001200010EC26E080EC16E870EC06E000E06
:102B6800C36E000EC46E9D8C1200700ED36E040EE0
:102B7800D26E400E9B6ED2BE1200FDD75150D8B413
:102B880002D0010E1200000E1200286E756C6C291E
:072B980000B6FF9AFFFFFFEA
:102BA00074C009F075C00AF012000A6E0A5043ECB6
:102BB00014F0120009C076F00AC077F0120009C0C4
:102BC00080F00AC081F0120009C07EF00AC07FF0D8
:102BD000120009C07AF00AC07BF0120009C07CF034
:102BE0000AC07DF0120009C078F00AC079F0120026
:102BF000000E0001836F1200900E0F01426F120051
:102C0000000E506E1200010E506E12000001835132
:102C10001200AB98AB88120080EC15F012005050F7
:102C20001200D09E12009E9C1200DFFFBEFF120019
:022C3000120090
:10FBC200000000004BFF5468657365207368656C24
:10FBD2006C20636F6D6D616E647320617265206469
:10FBE2006566696E656420696E7465726E616C6CBF
:10FBF200792E2054797065202768656C70272074EF
:10FC02006F207365652074686973206C6973742E44
:10FC12000D0A0020207365742074656D7065726131
:10FC220074757265202D2042696E642074686520A7
:10FC320074696D65722076616C756520746F200D34
:10FC42000A090920202020617665726167652074A7
:10FC5200656D70657261747572652E0D0A004E6F66
:10FC620074653A2074696D6572206973206E6F74D1
:10FC72002072756E6E696E672C207573652027740D
:10FC8200696D65722073746172742720746F2073BA
:10FC9200746172742E0D0A0020202D682C202D2DE7
:10FCA20068656C700920202D205072696E74732073
:10FCB20068656C7020696E666F726D6174696F6ED3
:10FCC2002E0D0A00496E636F72726563742075733C
:10FCD2006167652C20706C65617365207472792090
:10FCE2002774696D6572202D2D68656C7027000D73
:10FCF20054656D70657261747572653A2025642071
:10FD02007C20417665726167652054656D7065720D
:10FD120061747572653A202564002D2D2D3D3D3D9F
:10FD22003D3D5D2054656D7065726174757265202C
:10FD32004D6F6E69746F72205B3D3D3D3D3D2D2DD3
:10FD42002D0D0A002020736574203C76616C756568
:10FD52003E0920202D205365742074686520746943
:10FD62006D65722076616C75652E0D0A00556E6B9D
:10FD72006E6F776E20636F6D6D616E642C20747987
:10FD82007065202768656C702720666F7220686531
:10FD92006C702E0D0A002020496620796F7520773D
:10FDA20069736820746F20657869742C207072659D
:10FDB20073733A206374726C202B20630D0A002047
:10FDC20020496620796F75207769736820746F20E7
:10FDD2007570646174652C20707265737320616E36
:10FDE20079206B65790D0A004368726973746961E1
:10FDF2006E2048616E73656E203C63776840627561
:10FE0200696C64756E6974792E646B3E0D0A00200C
:10FE12002074696D6572205B666C6167735D203C5E
:10FE2200636F6D6D616E643E205B617267735D0D21
:10FE32000A000D0A1B5B313B33326D25731B5B30AD
:10FE42006D206174201B5B313B33336D25731B5B6B
:10FE5200306D0D0A0020207374617274090920202C
:10FE62002D205374617274207468652074696D6505
:10FE7200722E0D0A004661696C656420746F206CF5
:10FE82006F67696E2C2074727920616761696E21D7
:10FE92000D0A00202073746F70090920202D205351
:10FEA200746F70207468652074696D65722E0D0A16
:10FEB2000053696D706C652074696D657220492FFD
:10FEC2004F20636F6E74726F6C6C65720D0A004323
:10FED20068616E67696E672074696D65722076610C
:10FEE2006C756520746F2025640D0A0054696D6578
:10FEF2007220697320616C72656164792073746F1A
:10FF020070706564210D0A0054696D657220697311
:10FF120020616C72656164792073746172746564C6
:10FF2200210D0A00556E697820302E302E312025A1
:10FF3200732025730D0A0D0A00257340257327735C
:10FF42002070617373776F72643A200020207465A9
:10FF52006D70657261747572650D0A0074696D6504
:10FF62007220302E302E310D0A00436F6D6D616E9E
:10FF720064733A0D0A0074656D706572617475720E
:10FF8200650020206C6F676F75740D0A006C6F67D7
:10FF9200696E2061733A20006368726973746961E3
:10FFA2006E0055736167653A0D0A00466C616773AE
:10FFB2003A0D0A0074657374313233004C6F6F70FE
:10FFC2006564002D2D68656C70006C6F676F7574C9
:10FFD2000074696D657200737461727400434F4DF1
:10FFE200310074656D700073746F70000820080032
:0DFFF200736574002563002420002A0000C0
:020000040020DA
:08000000FFFFFFFFFFFFFFFF00
:020000040030CA
:0E000000FF281F3CFFBF85FF0FC00FE00F4021
:00000001FF
