:060000000A128A11FC2F18
:100D54000A128A11C02683160313111408000A12FA
:100D64008A11C02683160313111508000A128A116A
:100D7400C02670088312031393000800831603131C
:100D84001419C02E11081F3903190800C02E0A12A5
:100D94008A11C0260A128A118316031391150A12A6
:100DA4008A11C0260A128A11831203131308F2004F
:100DB400F3017208F4007308F5000A128A11C026C0
:100DC4000A128A1170087104031DEC2E8316031392
:100DD4009116EF2E83160313911211167508F10064
:100DE4007408F0000800283083120313940083165B
:100DF40003139101831203132008A4002108A50002
:100E04002208A6002308A70002300310A40DA50D94
:100E1400A60DA70DFF3E031D072F2708F300260884
:100E2400F2002508F1002408F0000030F7007A30C1
:100E3400F6001230F5000030F4000A128A112B2754
:100E44007008FF3E83160313930094018715071659
:100E540008000030FC000030FB000030FA000030D5
:100E6400F90073087204710470040319802FFD01E2
:100E7400FD0AF31B4B2F0130F8000310F00DF10DA8
:100E8400F20DF30DF80B3F2F0130F8007808FD0741
:100E94003B2F0130F8000310F90DFA0DFB0DFC0D8A
:100EA400F80B4D2F73087702031D622F7208760228
:100EB400031D622F71087502031D622F70087402EE
:100EC400031C732F7008F4027108031C710FF502E0
:100ED4007208031C720FF6027308031C730FF702E7
:100EE400791401300310F30CF20CF10CF00CFF3EFA
:100EF400031D742F0130FD02031D4B2F7C08F300EA
:100F04007B08F2007A08F1007908F00008008316E3
:100F140003138113FF3086008801831203138801B1
:100F24000030A3000130A2008630A100A030A00050
:100F34000A128A11F5260A128A110A128A11AA269D
:100F44000A128A113030F0000030F1000A128A11BE
:100F5400B8260A128A11831203130608A800A901ED
:100F64002808F0002908F1000A128A11B8260A128A
:100F74008A110A128A11B1260A128A1103308312C5
:100F84000313AA000830A9007830A800A80BC82FC2
:100F9400A90BC82FAA0BC82F0A128A11AA260A1253
:100FA4008A113130F0000030F1000A128A11B8269B
:100FB4000A128A110030F000F1000A128A11C926BF
:100FC4000A128A1170088312031388000A128A1104
:100FD400B1260A128A11033083120313AA000830BF
:100FE400A9007830A800A80BF52FA90BF52FAA0BA0
:0C0FF400F52F9F2F83010A128A11892F0C
:02400E0039FF78
:00000001FF
