:020000040000FA
:040000004DEF00F0D0
:100008004082FACF18F0FBCF19F0D9CF1AF0DACF27
:100018001BF0F6CF1CF0F7CF1DF0F8CF1EF0F5CF90
:100028001FF0F2AC24D09DBC9EAC03D070EC09F05C
:100038001ED09DB89EA808D001D819D00500FA6E28
:100048003050FD6E31500AD09DBA9EAA0BD001D80F
:100058000ED00500FA6E2E50FD6E2F50FE6EFF6A10
:10006800FA5012009DB29EA202D0C4EC08F01FC044
:10007800F5FF1EC0F8FF1DC0F7FF1CC0F6FF1BC030
:10008800DAFF1AC0D9FF19C0FBFF18C0FAFF409267
:10009800110099EF06F07DC095F07EC096F07FC004
:1000A80097F080C098F081C099F082C09AF083C020
:1000B8009BF084C09CF000019CAF02D0010E01D0DF
:1000C800000E936F946B93519411D8B410D09C1F69
:1000D8009B1F9A1F991F981F971F961F956D000EBB
:1000E80096239723982399239A239B239C23DDAF58
:1000F8002692DDBF05D0DD5108E1DC05D8B005D07A
:10010800000E906F010E8F6F04D0DCC08FF0DDC041
:1001180090F024C091F025C092F093519411D8A486
:1001280002D026A403D09107D8A09207000E9E6F94
:100138001F0E9D6F000EFD6F7DD09D07D8A09E07F6
:10014800DE0E9D25D96E000E9E21DA6E95C060F0F8
:1001580096C061F097C062F098C063F099C064F0EF
:100168009AC065F09BC066F09CC067F00A0E686F85
:10017800000E696F000E6A6F000E6B6F000E6C6FD9
:10018800000E6D6F000E6E6F000E6F6FA8EC03F01F
:1001980060C085F061C086F062C087F063C088F0F7
:1001A80064C089F065C08AF066C08BF067C08CF0C7
:1001B80085C022F087C023F013EC08F02250300FDE
:1001C800DF6E00018F07D8A090079107D8A092078B
:1001D80095C060F096C061F097C062F098C063F077
:1001E80099C064F09AC065F09BC066F09CC067F047
:1001F8000A0E686F000E696F000E6A6F000E6B6F53
:10020800000E6C6F000E6D6F000E6E6F000E6F6F3C
:100218006EEC02F060C095F061C096F062C097F095
:1002280063C098F064C099F065C09AF066C09BF00E
:1002380067C09CF000019EBF1FD09E5103E19D0541
:10024800D8A01AD0955196119711981199119A1111
:100258009B119C11D8A471D790BF05D0905102E191
:100268008F05D8B06AD792BF07D0925103E19105A4
:10027800D8A002D026B261D793519411D8A402D045
:1002880026A417D09D07D8A09E0793519411D8A4EF
:1002980004D0000E8E6F2B0E03D0000E8E6F2D0E25
:1002A8008D6FDE0E9D25D96E000E9E21DA6E8DC0F3
:1002B800DFFF7BC070F07CC071F0DE0E9D25726F91
:1002C800000E9E21736F91C074F092C075F0A7EC78
:1002D80004F070C07BF071C07CF01200A1C0D9FF9F
:1002E800A2C0DAFFDECFF6FFDDCFF7FFF86A08001D
:1002F800F550250AD8A4D2D0A1C0D9FFA2C0DAFFF0
:10030800DE2A000EDD22000E256E000E246E24C0AB
:1003180026F025C027F00001DC69DD69A1C0D9FFFE
:10032800A2C0DAFFDECFF6FFDDCFF7FFF86A0800DC
:10033800F550630AD8A426D0A1C0D9FFA2C0DAFF1D
:10034800DE2A000EDD22A3C0D9FFA4C0DAFFDFCF6A
:10035800A5F0020EDE26DFCFA6F0000EDD22A5C036
:10036800D9FFA6C0DAFFDF50AF6F9FC07BF0A0C0F7
:100378007CF0AFC07DF01AEC07F07BC09FF07CC02A
:10038800A0F01200A1C0D9FFA2C0DAFFDECFF6FFAD
:10039800DDCFF7FFF86A0800F550640AD8B40ED02C
:1003A800A1C0D9FFA2C0DAFFDECFF6FFDDCFF7FF8D
:1003B800F86A0800F550690AD8A43FD0A1C0D9FF4F
:1003C800A2C0DAFFDE2A000EDD22A3C0D9FFA4C036
:1003D800DAFFDFCFA5F0020EDE26DFCFA6F0000E93
:1003E800DD22A5C0D9FFA6C0DAFFDECFA7F0DDCF9A
:1003F800A8F0000EA8BFFF0EA96FAA6FAB6FAC6F75
:10040800AD6FAE6F9FC07BF0A0C07CF0A7C07DF041
:10041800A8C07EF0A9C07FF0AAC080F0ABC081F070
:10042800ACC082F0ADC083F0AEC084F04FEC00F0F9
:100438007BC09FF07CC0A0F01200A1C0D9FFA2C071
:10044800DAFFDECFF6FFDDCFF7FFF86A0800F550D8
:10045800250AD8A417D0A1C0D9FFA2C0DAFFDE2A86
:10046800000EDD22000E616F250E606F9FC062F0E6
:10047800A0C063F0FFEC05F0000E0001A06F010EB4
:100488009F6F1200A1C0D9FFA2C0DAFFDE2A000EBA
:10049800DD22000EA06F000E9F6F1200A1C0D9FFD1
:1004A800A2C0DAFFDECFF6FFDDCFF7FFF86A08005B
:1004B800F5500001606F616B9FC062F0A0C063F0EF
:1004C800FFEC05F0A1C0D9FFA2C0DAFFDE2A000EBA
:1004D800DD22D2D7000E0001716F6FAF12D06F1FEF
:1004E8006E1F6D1F6C1F6B1F6A1F691F686D000EE2
:1004F80069236A236B236C236D236E236F23010EFC
:10050800716F67AF12D0671F661F651F641F631F77
:10051800621F611F606D000E6123622363236423E1
:10052800652366236723010E711B20EE72F0070E08
:10053800DE6AE806FDE2685169116A116B116C11F7
:100548006D116E116F11D8B446D0010E706F0AD0BC
:10055800D890683769376A376B376C376D376E37BD
:100568006F37702B6FAFF4D7D890723773377437F3
:10057800753776377737783779376851605D6951DD
:1005880061596A5162596B5163596C5164596D5183
:1005980065596E5166596F516759D8A011D0685185
:1005A800605F6951615B6A51625B6B51635B6C515F
:1005B800645B6D51655B6E51665B6F51675B728101
:1005C800D8906F336E336D336C336B336A33693362
:1005D8006833702FC9D77151D8B410D0791F781FDC
:1005E800771F761F751F741F731F726D000E73239C
:1005F80074237523762377237823792372C060F0D8
:1006080073C061F074C062F075C063F076C064F0C6
:1006180077C065F078C066F079C067F01200E4EC46
:1006280008F0F28EF28C1EEC09F0C5EC05F0F3EC44
:1006380008F0220E206E120E216E41EC09F03AEC01
:1006480009F00009D8B4FBD7C20E0001B86FFF0E3D
:10065800B96FB0EC08F0250E0001B86FFF0EB96F46
:10066800B0EC08F0D90E0001B86FFF0EB96FB0EC0E
:1006780008F0480E0001B86FFF0EB96FB0EC08F033
:10068800A60E0001B86FFF0EB96FB0EC08F0880E27
:100698000101806F010E816F3EEC05F0C0C082F150
:1006A800C1C083F1DDEC07F0880E206E010E216ECB
:1006B800F20E226EFF0E236E69EC06F02050211018
:1006C800D8A40BD0FF0E0001B86FFE0EB96FFEC0A4
:1006D800BAF0BB6BB0EC08F028D0880E206E010E83
:1006E800216EF50E226EFF0E236E69EC06F0205087
:1006F8002110D8A402D0100E0FD0880E206E010E43
:10070800216EF80E226EFF0E236E69EC06F0205063
:100718002110D8A403D00A0E3E6E07D0680E00013F
:10072800B86FFF0EB96FB0EC08F0EC0E0001B86FAF
:10073800FF0EB96FB0EC08F0880E0001B86FFF0E1D
:10074800B96FB0EC08F080D7000E216E000167AFDA
:1007580012D0671F661F651F641F631F621F611F1A
:10076800606D000E6123622363236423652366237F
:100778006723010E216E6FAF10D06F1F6E1F6D1FA4
:100788006C1F6B1F6A1F691F686D000E69236A233F
:100798006B236C236D236E236F23685169116A11D3
:1007A8006B116C116D116E116F11D8B43CD0010E24
:1007B800206E0AD0D890683769376A376B376C373C
:1007C8006D376E376F37202A6FAFF4D76851605D89
:1007D800695161596A5162596B5163596C51645935
:1007E8006D5165596E5166596F516759D8A010D02F
:1007F8006851605F6951615B6A51625B6B51635B11
:100808006C51645B6D51655B6E51665B6F51675BE4
:10081800D8906F336E336D336C336B336A3369330F
:100828006833202ED3D72150D8B410D0671F661F45
:10083800651F641F631F621F611F606D000E6123C7
:1008480062236323642365236623672360C060F003
:1008580061C061F062C062F063C063F064C064F0BC
:1008680065C065F066C066F067C067F01200000EEC
:10087800126E000E136E000E146E000E156E000E32
:10088800166E0C0E2DEC08F00150122602501322A1
:10089800000E1422000E1522162A630E1664F1D7D4
:1008A80012C001F013C002F014C003F015C004F028
:1008B800640E056E000E066E000E076E000E086EC2
:1008C80036EC06F00150176E12C001F013C002F0AA
:1008D80014C003F015C004F0640E056E000E066E19
:1008E800000E076E000E086E84EC05F001C00EF0D5
:1008F80002C00FF0310E176402D00E4A0F2A0C0EF8
:100908000E24106EFE0E0F20116E10C001F011C0E3
:1009180002F0000E046E0A0E036E42EC07F001505E
:10092800176E10C001F011C002F0000E046E0A0E1E
:10093800036EF1EC06F001500001FE6F040E17641F
:100948001200FE2B120026A00AD072C069F073C0F4
:100958006AF070C06BF071C06CF084EC07F00001B5
:1009680075BF05D074C079F075C07AF004D0000E58
:100978007A6F000E796F000E786F000E776F0DD0CA
:10098800000E616F200E606F70C062F071C063F07E
:10099800FFEC05F00001774B782B7951775D7851A2
:1009A800800A766F7A51800A7659D8A0E9D726B09E
:1009B8000AD072C069F073C06AF070C06BF071C081
:1009C8006CF084EC07F072C020F073C021F071EC79
:1009D80008F0000179512024706F7A512120716F3D
:1009E8001200000E3924D96EDA6A010EDA22000EDE
:1009F800DF6EABA413D0000E3924D96EDA6A010E6B
:100A0800DA220101DF8201D809D00500FA6E2C50E4
:100A1800FD6E2D50FE6EFF6AFA501200ABA213D085
:100A2800000E3924D96EDA6A010EDA220101DF8458
:100A380001D809D00500FA6E2A50FD6E2B50FE6EC3
:100A4800FF6AFA501200000E3924D96EDA6A010ED4
:100A5800DA22DF50D8B40BD001D812000500FA6EA4
:100A68002850FD6E2950FE6EFF6AFA501200D4EC31
:100A780008F01200000E0001CF6F33EC09F00009F6
:100A8800D8B4FBD7A2EC07F00001C26FC251D06FF7
:100A9800D16BFB0EB86FFF0EB96FD0C0BAF0BB6B4D
:100AA800B0EC08F0C30E0001CF25D96EDA6A000E4B
:100AB800DA22D0C0DFFFCF2BC30ECF25D96EDA6A7A
:100AC800000EDA22000EDF6E0B0ECF6501D0CF07C5
:100AD800ED0ED01904E1FF0ED119D8B405D00D0ED2
:100AE800D019D111D8A4C9D7EF0EB86FFF0EB96FBE
:100AF800B0EC08F0C30E0001C06F000EC16F120009
:100B0800000E096E000E0A6E000E0B6E000E0C6EC3
:100B18000550061007100810D8B42AD0010E0D6E23
:100B280006D0D89005360636073608360D2A08AEA0
:100B3800F8D7D89009360A360B360C360550015CC2
:100B4800065002580750035808500458D8A009D036
:100B58000550015E0650025A0750035A0850045ABD
:100B68000980D89008320732063205320D2EE1D7B7
:100B780009C001F00AC002F00BC003F00CC004F079
:100B880012009D9AEA0E206E090E216E4BEC09F0B8
:100B98009D98360E206E110E216E46EC09F0080E57
:100BA800B86E900EAB6E240EAC6E8A0EAF6E000E51
:100BB800B06EE80E206E120E216E55EC09F0D00EC4
:100BC800206E120E216E50EC09F0D60E206E120E19
:100BD800216E5AEC09F0000E366E000E3C6E000EC7
:100BE8003B6E080E3A6E000E396E000E386E000E1F
:100BF800376E9D8A1200000162516311D8B404D087
:100C080062516311D8A404D060515FEC09F012005E
:100C180020EE04F06251D9266351DA22DE50DE104C
:100C2800D8B416D020EE04F06251D9266351DA22E6
:100C380010EE02F06251E1266351E222DE50E65CDA
:100C4800E650800A686FDE50800A6859D8B01200F2
:100C580020EE02F06251D9266351DA22DE2A000E14
:100C6800DD2212000550061007100810D8B424D051
:100C7800010E096E06D0D8900536063607360836B6
:100C8800092A08AEF8D70550015C065002580750EB
:100C9800035808500458D8A008D00550015E0650E3
:100CA800025A0750035A0850045AD890083207329B
:100CB80006320532092EE7D701C001F002C002F062
:100CC80003C003F004C004F0120004D0204A212A13
:100CD800224A232A20C0D9FF21C0DAFFDF500001B1
:100CE800606F22C0F6FF23C0F7FFF86A0800F550CE
:100CF8006019D8A407D020C0D9FF21C0DAFFDF507F
:100D0800D8A4E4D720C0D9FF21C0DAFFDF50606F34
:100D180022C0F6FF23C0F7FFF86A0800F550605DAF
:100D2800206E216AD8A021061200EA0EF66E120E75
:100D3800F76E000EF86E0900F5CFFEF0E40EF66EC1
:100D4800120EF76E000EF86E0900F5CF3EF009009E
:100D5800F5CF3FF001EE00F0800EEE6AE806FDE107
:100D680000EED2F02C0EEE6AE806FDE100EE24F06B
:100D78001A0EEE6AE806FDE140904092000113EF7A
:100D880003F0B2C0B6F0B3C0B7F0000E0001DB6FDD
:100D9800000EDA6F13D0B0C09FF0B1C0A0F0B60E4D
:100DA800A16F000EA26FB4C0A3F0B5C0A4F072EC9E
:100DB80001F000019F51DA27A051DB23B6C0F6FFEE
:100DC800B7C0F7FFF86A0800F5500009D8A4E3D7C0
:100DD800DAC0B0F0DBC0B1F01200000E066E000EF3
:100DE800056E03500410D8B41CD0010E076E04D051
:100DF800D89003360436072A04AEFAD7D8900536B9
:100E080006360350015C04500258D8A005D00350A0
:100E1800015E0450025A0580D89004320332072E2E
:100E2800EDD705C001F006C002F0120024502510CD
:100E3800D8A405D024C07EF025C07FF007D0FF0ECF
:100E4800242400017E6FFF0E25207F6F7DC0DEF019
:100E5800000E0001DF6F7BC070F07CC071F0DE0E09
:100E6800726F000E736F7EC074F07FC075F0A7ECD0
:100E780004F070C07BF071C07CF0120003500410C5
:100E8800D8B418D0010E056E04D0D89003360436B5
:100E9800052A04AEFAD70350015C04500258D8A0C2
:100EA80004D00350015E0450025AD8900432033231
:100EB800052EF1D701C001F002C002F012003D502A
:100EC800D8B40FD03EC001F00001FE51C0EC07F0CD
:100ED800056E010E016E05505BEC08F0000E3D6ECC
:100EE80012003EC001F00001FE5186EC08F0066ECB
:100EF800000E016E06505BEC08F0010E3D6E12000C
:100F0800000E00016F6F000E6E6F0CD06DC060F0A8
:100F1800616B6BC062F06CC063F0FFEC05F0000120
:100F28006E4B6F2B6E516925D96E6F516A21DA6E3F
:100F3800DF506D6F6D51D8B41200E8D73750D8B470
:100F4800FDD7000E3824D96EDA6A010EDA22DF5096
:100F5800366E400E3824D96EDA6A010EDA22DF5076
:100F6800206E382A3F0E386402D0000E386E9D9AE3
:100F780037069D8A20501200026E000E046E015042
:100F8800D8B415D0010E036E03D0D8900136032AC9
:100F980001AEFBD7D89004360150025CD8A003D02C
:100FA8000150025E0480D8900132032EF3D704501A
:100FB800120082C184F183C185F180C186F181C1AB
:100FC80087F184C1D9FF85C1DAFF0101844B852BE4
:100FD80086C1E1FF87C1E2FF864B872BDFCFE7FFA2
:100FE800E750D8B41200EDD7206E3A50D8B4FDD7E8
:100FF8009DB803D020C0ADFF10D09D98D20E3C24E0
:10100800D96EDA6A000EDA2220C0DFFF3C2A070E0A
:101018003C6402D0000E3C6E3A069D88120023BE46
:1010280005D0235011E12204D8B00ED022C070F0B0
:1010380023C071F00001701F711F704B712B70C0BD
:1010480022F071C023F0120022C022F023C023F046
:101058001200056E05C003F003460346C25003188C
:10106800830B0318C26EC280C282C2B2FED7C450BC
:10107800046E036AC3500324016E000E0420026E3E
:101088001200000E896E000E8A6E000E8B6E000E26
:10109800926E9368BC0E946E3C0E0F013A6F3F0E31
:1010A800396F000E386F000E616EF18E1200026EFD
:1010B8000150D8B403D08B928B8002D08B908B8256
:1010C800EF0E0224F66EF76AFE0EF722F86A000E9B
:1010D800F8220800F5CF80FF120020C022F021C0BE
:1010E80023F002D0204A212A20C0D9FF21C0DAFFEC
:1010F800DF50D8A4F7D72250205C206E2350215807
:10110800216E1200026E080E036E000E046ED89057
:1011180002340434046ED89002360150045CD8A01E
:1011280002D00150045E032EF2D704501200080EBC
:101138003A6010D0D20E3B24D96EDA6A000EDA2259
:10114800DF50AD6E3B2A070E3B6402D0000E3B6EAB
:101158003A2A12009D981200BA0E0001BE6F000EC6
:10116800BF6F000EB06F000EB16FB8C0B2F0B9C05B
:10117800B3F0BE0EB46F000EB56FC5EC06F01200EA
:101188009E92324A332A335004E10A0E325CD8A0C8
:10119800120002EC09F0000E336E000E326E1200DF
:1011A800400E3924D96EDA6A010EDA22AECFDFFF9B
:1011B800392A3F0E396402D0000E396E372A1200E0
:1011C8006EEC09F045EC08F02AEC09F064EC09F043
:1011D800F3EC08F01EEC09F0C5EC05F012003E0E29
:1011E800BB6E000EBC6E9E929D82E60E206E120EA5
:1011F800216E41EC09F07E0EBA6E120034503510A3
:10120800D8B4120001D812000500FA6E3450FD6EF1
:101218003550FE6EFF6AFA501200640E3F18D8A4CB
:1012280005D03BEC04F0000E3F6E01D03F2A63EC82
:1012380007F01200010EC26E080EC16E870EC06E56
:10124800000EC36E000EC46E9D8C1200700ED36E1D
:10125800040ED26E400E9B6ED2BE1200FDD73750E0
:10126800D8B402D0010E1200000E12003A50D8B4C1
:1012780002D0010E1200000E120020C034F021C06E
:1012880035F0120020C030F021C031F0120020C02B
:101298002EF021C02FF0120020C02AF021C02BF020
:1012A800120020C02CF021C02DF0120020C028F020
:1012B80021C029F01200216E2150F8EC07F012002D
:1012C800900E0F01426F1200AB98AB881200D4EC5D
:1012D80008F01200D09E12009E9C12000A641200B0
:0312E8001200638E
:10FEEE0000C0F9A4B0999282F880900803462106CA
:10FEFE000E5468652074656D7065726174757265F7
:10FF0E0020697320256420646567726565732043DC
:10FF1E00656C7369757300747970696E67207468A7
:10FF2E006520636F72726573706F6E64696E6720A1
:10FF3E006E756D626572200A0D00323A205365743B
:10FF4E0020446973706C617920746F204865786104
:10FF5E00646563696D616C0A0D00496E76616C694A
:10FF6E006420696E7075742C20706C6561736520E9
:10FF7E0074727920616761696E002D2D2D2D2D2DE6
:10FF8E002D2D2D2D2D2D2D2D2D2D2D2D2D2D2D2D93
:10FF9E002D2D2D2D2D0A0D00333A2053657420443E
:10FFAE006973706C617920746F20446563696D614B
:10FFBE006C0A0D0053656C65637420796F75722041
:10FFCE00616374696F6E2062792000313A20476553
:10FFDE00742074656D7065726174757265200A0D9A
:10FFEE00000D0A00310D00320D00330D00256300A7
:01FFFE000002
:020000040020DA
:08000000FFFFFFFFFFFFFFFF00
:020000040030CA
:0E000000FF281F3CFFBF85FF0FC00FE00F4021
:00000001FF
