:020000040000FA
:040000005FEF00F0BE
:100008005F82FACFF0F0FBCFF1F0E1CFF2F0E2CF70
:10001800F3F0D9CFF4F0DACFF5F0F3CFF6F0F4CF70
:10002800F7F0F6CFF8F0F7CFF9F0F8CFFAF0F5CF10
:10003800FBF0F2AC26D09DB89EA809D001D821D0FB
:100048000500FA6E0101F351FD6EF4510BD09DBA13
:100058009EAA0CD001D815D00500FA6E0101F15105
:10006800FD6EF251FE6EFF6AFA5012007DB07EA05E
:1000780003D0DFEC39F005D09DB29EA202D0F1EC9E
:1000880039F0FBC0F5FFFAC0F8FFF9C0F7FFF8C078
:10009800F6FFF7C0F4FFF6C0F3FFF5C0DAFFF4C0CF
:1000A800D9FFF3C0E2FFF2C0E1FFF1C0FBFFF0C0EF
:0A00B800FAFF5F921100AFEF34F081
:10100000006C617374205375636365737366756CEC
:1010100020777269746520646F6573206E6F742029
:101020006D61746368206C61737420617474656DA4
:1010300070746564207772697465200D0A005465C8
:101040006D7065726174757265206E756D62657222
:101050002025642077617320252E3166200D0A003B
:101060004E6F2061636B20726563696576656420ED
:101070007768696C65207772697474696E67200D92
:101080000A0048756D6964697479206E756D6265D2
:10109000722025642077617320252E3166200D0A89
:1010A000000A0D2064617461206C6F6767657220AF
:1010B00069732066756C6C200A0D0068656C6C6F36
:1010C00020776F726C640D0A004048756D69646921
:1010D00074793A004054656D703A200040252E31F5
:1010E0006600494E46004E414E00696E66006E61D4
:1010F0006E00402020006C660000000E00017B6F37
:10110000000E7A6F42C08CF043C08DF044C08EF068
:1011100045C08FF08FAF16D0000E7B6F010E7A6F37
:101120008CC001F08DC002F08EC003F08FC004F0BF
:1011300027EC39F001C08CF002C08DF003C08EF0B6
:1011400004C08FF0000E0001936F000E926FDDC19E
:101150007FF0DEC180F07A517B11D8A403D0010169
:10116000E1A514D000017A517B11D8A404D0000E5F
:10117000656F2B0E03D0000E656F2D0E646F64C07B
:1011800064F2924B932B7F07D8A080078CC001F0AC
:101190008DC002F08EC003F08FC004F005EC2EF07D
:1011A00001040210D8A44CD0BF0E476EFF0E486E4B
:1011B0004650496E4A6A4750492648504A224A508A
:1011C00006E11A0E495CD8B002D0010E01D0000E23
:1011D0000001666F676B66516711D8B40DD0640E5D
:1011E0009225016E020E9321026EE20E036E100E26
:1011F000046EB2EC36F00CD0640E9225016E020E35
:101200009321026EEA0E036E100E046EB2EC36F0FD
:101210000001FD0E7F27FF0E802340C013F041C068
:1012200014F0640E156E020E166E7FC017F080C0AB
:1012300018F073EC32F013C040F014C041F012000B
:101240008CC001F08DC002F08EC003F08FC004F09E
:1012500005EC2EF001500210D8A435D0BF0E476E19
:10126000FF0E486E4650496E4A6A4750492648501C
:101270004A224A5006E11A0E495CD8B002D0010E4B
:1012800001D0000E0001686F696B68516911D8B414
:101290000DD0640E9225016E020E9321026EE60EB1
:1012A000036E100E046EB2EC36F0B2D7640E9225C7
:1012B000016E020E9321026EEE0E036E100E046E8E
:1012C000B2EC36F0A5D7000E0001946F000E956FBA
:1012D000800E966F3F0E976F000E916F000E906F0D
:1012E0008CC001F08DC002F08EC003F08FC004F0FE
:1012F000000E056E000E066E000E076E000E086EE4
:10130000E5EC33F0D8A01ED076D094C01BF095C089
:101310001CF096C01DF097C01EF0000E1F6E000E50
:10132000206E200E216E410E226E30EC18F01BC094
:1013300094F01CC095F01DC096F01EC097F00001FF
:10134000904B912B8CC034F08DC035F08EC036F0B0
:101350008FC037F0000E1F6E000E206E200E216E23
:10136000410E226E94C01BF095C01CF096C01DF07B
:1013700097C01EF030EC18F01BC038F01CC039F0DC
:101380001DC03AF01EC03BF036EC2DF0D8A01FD0A7
:10139000BCD794C001F095C002F096C003F097C08E
:1013A00004F0000E056E000E066E200E076E410E54
:1013B000086E2BEC1EF001C094F002C095F003C043
:1013C00096F004C097F000019007D8A091078CC058
:1013D00034F08DC035F08EC036F08FC037F094C039
:1013E00038F095C039F096C03AF097C03BF036EC33
:1013F0002DF0D8A0CED746C007F0086A2CEC37F005
:1014000007500001816F81C07EF0670E8119D8A45A
:101410001BD00101DF51E011D8A404D0000EE06F11
:10142000010EDF6FE0BF05D0E05109E1DF05D8B064
:1014300006D0000E00017D6F060E7C6F09D0DFC163
:101440007CF0E0C17DF004D00101E0AFF8D7F1D726
:10145000670E00018119D8A422D091AF06D0FC0EEE
:10146000905DFF0E9159D8A018D0FF0E476EFF0E69
:10147000486E7CC049F07DC04AF04750492648502C
:101480004A229051495C4A50800A4B6E9151800A21
:101490004B58D8A002D0660E01D0650E7E6F7CC07E
:1014A00074F07DC075F0670E8119D8A405D0660E62
:1014B0007E19D8B491AF02D0744B752B660E7E198D
:1014C000D8A416D091AF0CD0000E946F000E956F7B
:1014D000800E966F3F0E976F000E916F000E906F0B
:1014E000670E8119D8B404D0905174279151752397
:1014F000000E8B6F000E8A6F8CC082F08DC083F05F
:101500008EC084F08FC085F094C060F095C061F00B
:1015100096C062F097C063F07BD082C001F083C0B8
:1015200002F084C003F085C004F094C005F095C0BB
:1015300006F096C007F097C008F02BEC1EF001C033
:101540001AF002C01BF003C01CF004C01DF094ECA4
:1015500022F01AC086F01BC087F01CC088F01DC0A6
:1015600089F086C034F087C035F088C036F089C075
:1015700037F084EC2FF034C078F035C079F082C0B9
:1015800034F083C035F084C036F085C037F094C0A5
:101590001FF095C020F096C021F097C022F086C0C1
:1015A0001BF087C01CF088C01DF089C01EF030EC15
:1015B00018F01BC038F01CC039F01DC03AF01EC036
:1015C0003BF076EC37F034C082F035C083F036C0A3
:1015D00084F037C085F094C001F095C002F096C049
:1015E00003F097C004F0000E056E000E066E200E8C
:1015F000076E410E086E2BEC1EF001C094F002C085
:1016000095F003C096F004C097F000018A4B8B2B35
:1016100074518A5D8B51800A476E7551800A475814
:10162000D8A07BD794C01BF095C01CF096C01DF0CD
:1016300097C01EF0000E1F6E000E206EA00E216ED1
:10164000400E226E30EC18F01BC086F01CC087F0F4
:101650001DC088F01EC089F082C034F083C035F010
:1016600084C036F085C037F086C038F087C039F0C6
:1016700088C03AF089C03BF036EC2DF0D8B003D0EA
:10168000000E000118D082C001F083C002F084C0B7
:1016900003F085C004F086C005F087C006F088C05E
:1016A00007F089C008F0E5EC33F0D8A00BD00001BA
:1016B00078B108D0000E866F000E876F000E886F1D
:1016C000000E896F8CC001F08DC002F08EC003F057
:1016D0008FC004F086C005F087C006F088C007F010
:1016E00089C008F060EC1BF001C082F002C083F0FA
:1016F00003C084F004C085F060C094F061C095F030
:1017000062C096F063C097F0650E00017E19D8B4F0
:1017100005D090C076F091C077F004D0000E776FBE
:10172000000E766F000E736F000E726F000E716FF9
:10173000000E706F000E8B6F000E8A6FC8D082C0D3
:1017400001F083C002F084C003F085C004F094C0AF
:1017500005F095C006F096C007F097C008F02BEC96
:101760001EF001C01AF002C01BF003C01CF004C040
:101770001DF094EC22F01AC086F01BC087F01CC04C
:1017800088F01DC089F086C034F087C035F088C06D
:1017900036F089C037F084EC2FF034C078F035C0D3
:1017A00079F00101E1B90DD0000178517911D8A487
:1017B00008D0670E8119D8B477AF03D0704B712B66
:1017C0003AD0000172517311D8B477AF22D0640EB1
:1017D0009225D96E020E9321DA6E2E0EDF6E924B99
:1017E000932B7F07D8A08007000E736F010E726FD6
:1017F00010D0640E9225D96E020E9321DA6E300E4F
:10180000DF6E924B932B7F07D8A080077007D8A07C
:10181000710770517111D8A4ECD7640E9225D96E5E
:10182000020E9321DA6E7851300FDF6E924B932BBC
:101830007F07D8A0800782C034F083C035F084C011
:1018400036F085C037F094C01FF095C020F096C0E8
:1018500021F097C022F086C01BF087C01CF088C022
:101860001DF089C01EF030EC18F01BC038F01CC011
:1018700039F01DC03AF01EC03BF076EC37F034C0B2
:1018800082F035C083F036C084F037C085F094C054
:1018900001F095C002F096C003F097C004F0000E6E
:1018A000056E000E066E200E076E410E086E2BECC4
:1018B0001EF001C094F002C095F003C096F004C081
:1018C00097F000017607D8A077078A4B8B2B7451CD
:1018D0008A5D8B51800A476E7551800A4758D8B08F
:1018E00008D093BF2CD7935104E14B0E925DD8A042
:1018F00026D772517311D8A40ED00101E1A90BD0E3
:10190000640E00019225D96E020E9321DA6E2E0E1E
:10191000DF6E924B932B640E00019225D96E020E5E
:101920009321DA6E000EDF6E650E7E19D8A475D491
:10193000000E8B6F4F0E8A6F640E8A25D96E020ED1
:101940008B21DA6E000EDF6E000E7B6F000E7A6F59
:1019500091AF08D0000E7B6F010E7A6F906D911FD2
:10196000D8B0912B000E7D6F020E7C6F2BD08A07B2
:10197000D8A08B07640E8A25D96E020E8B21DA6EF1
:1019800090C001F091C002F0000E046E0A0E036ECA
:10199000A0EC35F00150300FDF6E90C001F091C027
:1019A00002F0000E046E0A0E036E6DEC34F001C0FE
:1019B00090F002C091F000017C07D8A07D077F075E
:1019C000D8A0800790519111D8A4D1D77DBF05D060
:1019D0007D51CDE17C05D8B0CAD78A07D8A08B0746
:1019E0007A517B11D8A404D0000E6B6F2B0E03D05C
:1019F000000E6B6F2D0E6A6F640E8A25D96E020E73
:101A00008B21DA6E6AC0DFFF7F07D8A080078A07C4
:101A1000D8A08B07BF0E476EFF0E486E4650496E2A
:101A20004A6A4750492648504A224A5006E11A0E4F
:101A3000495CD8B002D0010E01D0000E6E6F6F6B02
:101A40006E516F11D8A404D0000E6D6F650E03D0D7
:101A5000000E6D6F450E6C6F640E8A25D96E020EF6
:101A60008B21DA6E6CC0DFFF7F07D8A08007640E81
:101A70009225016E020E9321026E640E8A25036E7A
:101A8000020E8B21046EB2EC36F00DEF09F0000E61
:101A90000101666F000E656F41C177F142C178F1B7
:101AA00043C179F144C17AF17AAF16D0000E666F66
:101AB000010E656F77C100F178C101F179C102F1C2
:101AC0007AC103F1C8EC38F000C177F101C178F1B7
:101AD00002C179F103C17AF1000E01017E6F000E9F
:101AE0007D6FDDC16AF1DEC16BF165516611D8A46D
:101AF00002D0E1A513D065516611D8A404D0000E20
:101B0000506F2B0E03D0000E506F2D0E4F6F4FC134
:101B100064F27D4B7E2B6A07D8A06B0777C100F17A
:101B200078C101F179C102F17AC103F19EEC2DF087
:101B3000010100050111D8A44CD0BF0E466FFF0E65
:101B4000476F4551486F496B4651482747514923D4
:101B5000495106E11A0E485DD8B002D0010E01D0FD
:101B6000000E516F526B51515211D8B40DD0640E0A
:101B70007D25006F020E7E21016FE20E026F100EB6
:101B8000036F5CEC36F00CD0640E7D25006F020E06
:101B90007E21016FEA0E026F100E036F5CEC36F0CF
:101BA0000101FD0E6A27FF0E6B233FC112F140C1F8
:101BB00013F1640E0101146F020E156F6AC116F164
:101BC0006BC117F1D6EC31F012C13FF113C140F1F6
:101BD000120077C100F178C101F179C102F17AC137
:101BE00003F19EEC2DF0010100510111D8A434D075
:101BF000BF0E466FFF0E476F4551486F496B465108
:101C0000482747514923495106E11A0E485DD8B08B
:101C100002D0010E01D0000E536F546B535154117A
:101C2000D8B40DD0640E7D25006F020E7E21016FA9
:101C3000E60E026F100E036F5CEC36F0B1D7640E47
:101C40007D25006F020E7E21016FEE0E026F100ED9
:101C5000036F5CEC36F0A4D7000E7F6F000E806F30
:101C6000800E816F3F0E826F000E7C6F000E7B6FC7
:101C700077C100F178C101F179C102F17AC103F1B4
:101C8000000E046F000E056F000E066F000E076F4A
:101C90009FEC33F00101D8A01ED078D07FC11AF19B
:101CA00080C11BF181C11CF182C11DF1000E1E6FAC
:101CB000000E1F6F200E206F410E216F86EC16F074
:101CC0001AC17FF11BC180F11CC181F11DC182F1DC
:101CD00001017B4B7C2B77C133F178C134F179C1A1
:101CE00035F17AC136F1000E1E6F000E1F6F200E07
:101CF000206F410E216F7FC11AF180C11BF181C19C
:101D00001CF182C11DF186EC16F01AC137F11BC11E
:101D100038F11CC139F11DC13AF1CDEC2CF00101B3
:101D2000D8A01FD0BBD77FC100F180C101F181C114
:101D300002F182C103F1000E046F000E056F200E48
:101D4000066F410E076FE6EC1CF000C17FF101C188
:101D500080F102C181F103C182F101017B07D8A0AA
:101D60007C0777C133F178C134F179C135F17AC19B
:101D700036F17FC137F180C138F181C139F182C1BB
:101D80003AF1CDEC2CF00101D8A0CDD745C106F138
:101D9000076B05EC37F0010106516C6F6CC169F1FE
:101DA000670E6C19D8A419D0DF51E011D8A404D063
:101DB000000EE06F010EDF6FE0BF05D0E05108E1DB
:101DC000DF05D8B005D0000E686F060E676F08D02B
:101DD000DFC167F1E0C168F103D0E0AFF9D7F3D715
:101DE000670E6C19D8A422D07CAF06D0FC0E7B5DA8
:101DF000FF0E7C59D8A018D0FF0E466FFF0E476F1C
:101E000067C148F168C149F1465148274751492304
:101E10007B51485D4951800A4A6F7C51800A4A597A
:101E2000D8A002D0660E01D0650E696F67C15FF160
:101E300068C160F1670E6C19D8A405D0660E6919E7
:101E4000D8B47CAF02D05F4B602B660E6919D8A462
:101E500016D07CAF0CD0000E7F6F000E806F800E0E
:101E6000816F3F0E826F000E7C6F000E7B6F670EDE
:101E70006C19D8B404D07B515F277C516023000ECD
:101E8000766F000E756F77C16DF178C16EF179C113
:101E90006FF17AC170F17FC14BF180C14CF181C10A
:101EA0004DF182C14EF17CD06DC100F16EC101F1E6
:101EB0006FC102F170C103F17FC104F180C105F16E
:101EC00081C106F182C107F1E6EC1CF000C119F1F5
:101ED00001C11AF102C11BF103C11CF1B7EC21F0E1
:101EE00019C171F11AC172F11BC173F11CC174F1F6
:101EF00071C100F172C101F173C102F174C103F14A
:101F00006BEC2EF000C163F101C164F16DC133F1DE
:101F10006EC134F16FC135F170C136F17FC11EF170
:101F200080C11FF181C120F182C121F171C11AF17B
:101F300072C11BF173C11CF174C11DF186EC16F066
:101F40001AC137F11BC138F11CC139F11DC13AF179
:101F500052EC37F033C16DF134C16EF135C16FF120
:101F600036C170F17FC100F180C101F181C102F180
:101F700082C103F1000E0101046F000E056F200EF7
:101F8000066F410E076FE6EC1CF000C17FF101C146
:101F900080F102C181F103C182F10101754B762B01
:101FA0005F51755D7651800A466F6051800A4659CF
:101FB000D8A07AD77FC11AF180C11BF181C11CF171
:101FC00082C11DF1000E1E6F000E1F6FA00E206F4C
:101FD000400E216F86EC16F01AC171F11BC172F12F
:101FE0001CC173F11DC174F16DC133F16EC134F1C7
:101FF0006FC135F170C136F171C137F172C138F17D
:1020000073C139F174C13AF1CDEC2CF00101D8A0C3
:1020100016D06DC100F16EC101F16FC102F170C146
:1020200003F171C104F172C105F173C106F174C10C
:1020300007F19FEC33F00101D8B063B108D0000E76
:10204000716F000E726F000E736F000E746F77C1A8
:1020500000F178C101F179C102F17AC103F171C1D6
:1020600004F172C105F173C106F174C107F1D9EC35
:1020700019F000C16DF101C16EF102C16FF103C130
:1020800070F14BC17FF14CC180F14DC181F14EC166
:1020900082F1650E01016919D8B405D07BC161F1E7
:1020A0007CC162F104D0000E626F000E616F000E01
:1020B0005E6F000E5D6F000E5C6F000E5B6F000EBA
:1020C000766F000E756FC7D06DC100F16EC101F162
:1020D0006FC102F170C103F17FC104F180C105F14C
:1020E00081C106F182C107F1E6EC1CF000C119F1D3
:1020F00001C11AF102C11BF103C11CF1B7EC21F0BF
:1021000019C171F11AC172F11BC173F11CC174F1D3
:1021100071C100F172C101F173C102F174C103F127
:102120006BEC2EF000C163F101C164F10101E1B972
:102130000CD063516411D8A408D0670E6C19D8B4C0
:1021400062AF03D05B4B5C2B39D05D515E11D8B4CC
:1021500062AF22D0640E7D25D96E020E7E21DA6E2A
:102160002E0EDF6E7D4B7E2B6A07D8A06B07000E0C
:102170005E6F010E5D6F10D0640E7D25D96E020E6C
:102180007E21DA6E300EDF6E7D4B7E2B6A07D8A083
:102190006B075B07D8A05C075B515C11D8A4ECD738
:1021A000640E7D25D96E020E7E21DA6E6351300FEA
:1021B000DF6E7D4B7E2B6A07D8A06B076DC133F1B4
:1021C0006EC134F16FC135F170C136F17FC11EF1BE
:1021D00080C11FF181C120F182C121F171C11AF1C9
:1021E00072C11BF173C11CF174C11DF186EC16F0B4
:1021F0001AC137F11BC138F11CC139F11DC13AF1C7
:1022000052EC37F033C16DF134C16EF135C16FF16D
:1022100036C170F17FC100F180C101F181C102F1CD
:1022200082C103F1000E0101046F000E056F200E44
:10223000066F410E076FE6EC1CF000C17FF101C193
:1022400080F102C181F103C182F101016107D8A0CF
:102250006207754B762B5F51755D7651800A466F2C
:102260006051800A4659D8B008D07EBF2DD77E5124
:1022700004E14B0E7D5DD8A027D75D515E11D8B427
:10228000E1A90AD0640E7D25D96E020E7E21DA6E98
:102290002E0EDF6E7D4B7E2B640E7D25D96E020ED9
:1022A0007E21DA6E000EDF6E650E6919D8A47DD42A
:1022B000000E766F4F0E756F640E7525D96E020E87
:1022C0007621DA6E000EDF6E000E666F000E656F0F
:1022D0007CAF08D0000E666F010E656F7B6D7C1FB2
:1022E000D8B07C2B000E686F020E676F2CD075077C
:1022F000D8A07607640E7525D96E020E7621DA6EA7
:102300007BC100F17CC101F1000E036F0A0E026F68
:102310002FEC35F001010051300FDF6E7BC100F171
:102320007CC101F1000E036F0A0E026F2AEC34F03B
:1023300000C17BF101C17CF101016707D8A06807EA
:102340006A07D8A06B077B517C11D8A4D0D768BF8F
:1023500005D06851CCE16705D8B0C9D77507D8A0BA
:10236000760765516611D8A404D0000E566F2B0E67
:1023700003D0000E566F2D0E556F640E7525D96E65
:10238000020E7621DA6E55C1DFFF6A07D8A06B070F
:102390007507D8A07607BF0E466FFF0E476F4551F1
:1023A000486F496B4651482747514923495106E137
:1023B0001A0E485DD8B002D0010E01D0000E596F40
:1023C0005A6B59515A11D8A404D0000E586F650E9B
:1023D00003D0000E586F450E576F640E7525D96EE9
:1023E000020E7621DA6E57C1DFFF6A07D8A06B07AD
:1023F000640E7D25006F020E7E21016F640E75252F
:10240000026F020E7621036F5CEC36F0D5EF0DF013
:1024100085C1D9FF86C1DAFFDECFF6FFDDCFF7FF3A
:10242000F86A0800F550250AD8A416D285C1D9FF4C
:1024300086C1DAFFDE2A000EDD22000E0101DE6F0A
:10244000000EDD6FDDC1E1F1DEC1E2F1DF69E069BF
:1024500085C1D9FF86C1DAFFDECFF6FFDDCFF7FFFA
:10246000F86A0800F5502E0AD8A470D0000EE06F6C
:10247000000EDF6F85C1D9FF86C1DAFFDE2A000EAC
:10248000DD2285C1D9FF86C1DAFFDECFF6FFDDCFC1
:10249000F7FFF86A0800F5502A0AD8A41CD085C1B5
:1024A000D9FF86C1DAFFDE2A000EDD2287C1D9FFFF
:1024B00088C1DAFFDFCF89F1020EDE26DFCF8AF195
:1024C000000EDD2289C1D9FF8AC1DAFFDECFDFF13C
:1024D000DDCFE0F13BD085C1D9FF86C1DAFFDECF89
:1024E00007F1DDCF08F1FBEC24F007C1DFF108C1F3
:1024F000E0F107D085C1D9FF86C1DAFFDE2A000EE0
:10250000DD22D00E0101896FFF0E8A6F85C1D9FFD0
:1025100086C1DAFFDECFF6FFDDCFF7FFF86A0800ED
:10252000F5508B6F8C6B89518B278A518C238C5182
:1025300006E10A0E8B5DD8B002D0010E01D0000E6C
:10254000956F966B95519611D8A4D4D785C1D9FFB4
:1025500086C1DAFFDECFF6FFDDCFF7FFF86A0800AD
:10256000F550066F076B05EC37F0010106519E6FC1
:102570009E51D8B437D085C1D9FF86C1DAFFDECFEE
:1025800089F1DDCF8AF1010E8927000E8A2389C1E6
:10259000F6FF8AC1F7FFF86A0800F550066F076B6F
:1025A00005EC37F0010106519F6F9F51D8B41AD046
:1025B00085C1D9FF86C1DAFFDECF89F1DDCF8AF18F
:1025C000020E8927000E8A2389C1F6FF8AC1F7FF10
:1025D000F86A0800F550066F076B05EC37F001014B
:1025E0000651A06F85C1D9FF86C1DAFFDECFF6FFA5
:1025F000DDCFF7FFF86A0800F550640AD8B40ED0B2
:1026000085C1D9FF86C1DAFFDECFF6FFDDCFF7FF48
:10261000F86A0800F550690AD8A43FD085C1D9FFEF
:1026200086C1DAFFDE2A000EDD2287C1D9FF88C10C
:10263000DAFFDFCF89F1020EDE26DFCF8AF1000E4E
:10264000DD2289C1D9FF8AC1DAFFDECF8DF1DDCF6E
:102650008EF1000E8EBFFF0E8F6F906F916F926F95
:10266000936F946F83C11DF184C11EF18DC11FF161
:102670008EC120F18FC121F190C122F191C123F1CE
:1026800092C124F193C125F194C126F16FEC1FF0A2
:102690001DC183F11EC184F11200660E9E19D8A4DB
:1026A00040D085C1D9FF86C1DAFFDECFF6FFDDCF8E
:1026B000F7FFF86A0800F5CF9DF185C1D9FF86C103
:1026C000DAFFDE2A000EDD2287C1D9FF88C1DAFFDA
:1026D000DFCF89F1040EDE26DFCF8AF1000EDD2286
:1026E00089C1D9FF8AC1DAFFDECF99F1DECF9AF135
:1026F000DECF9BF1DECF9CF183C13FF184C140F17D
:1027000099C141F19AC142F19BC143F19CC144F18D
:102710009DC145F147EC0DF03FC183F140C184F10B
:1027200012009E0E006F010E016FF60E026F100E6A
:10273000036F000E056F020E046F39EC30F00101DB
:1027400000510111D8A457D085C1D9FF86C1DAFF45
:10275000DECF89F1DDCF8AF1010E8927000E8A23B1
:1027600089C1F6FF8AC1F7FFF86A0800F5CF9DF12D
:10277000BF0E896FFF0E8A6F85C1D9FF86C1DAFF50
:10278000DECFF6FFDDCFF7FFF86A0800F5508B6F5C
:102790008C6B89518B278A518C238C5106E11A0E40
:1027A0008B5DD8B002D0010E01D0000E976F986BF0
:1027B0009751981187C1D9FF88C1DAFFDFCF89F11E
:1027C000040EDE26DFCF8AF1000EDD2289C1D9FF9B
:1027D0008AC1DAFFDECF99F1DECF9AF1DECF9BF12D
:1027E000DECF9CF1020E85C1D9FF86C1DAFFDE265D
:1027F000000EDD2281D785C1D9FF86C1DAFFDECF89
:10280000F6FFDDCFF7FFF86A0800F550250AD8A4D7
:1028100017D085C1D9FF86C1DAFFDE2A000EDD227E
:10282000000E036F250E026F83C104F184C105F110
:1028300035EC31F0000E0101846F010E836F120040
:1028400085C1D9FF86C1DAFFDE2A000EDD22000E27
:10285000846F000E836F120085C1D9FF86C1DAFF35
:10286000DECFF6FFDDCFF7FFF86A0800F550010173
:10287000026F036B83C104F184C105F135EC31F0C3
:1028800085C1D9FF86C1DAFFDE2A000EDD22D2D74C
:102890004EC0D9FF4FC0DAFFDECFF6FFDDCFF7FF26
:1028A000F86A0800F550250AD8A415D24EC0D9FF01
:1028B0004FC0DAFFDE2A000EDD22000E0101DE6FBE
:1028C000000EDD6FDDC1E1F1DEC1E2F1DF69E0693B
:1028D0004EC0D9FF4FC0DAFFDECFF6FFDDCFF7FFE6
:1028E000F86A0800F5502E0AD8A470D0000EE06FE8
:1028F000000EDF6F4EC0D9FF4FC0DAFFDE2A000E98
:10290000DD224EC0D9FF4FC0DAFFDECFF6FFDDCFAC
:10291000F7FFF86A0800F5502A0AD8A41CD04EC068
:10292000D9FF4FC0DAFFDE2A000EDD2250C0D9FFEA
:1029300051C0DAFFDFCF52F0020EDE26DFCF53F0B8
:10294000000EDD2252C0D9FF53C0DAFFDECFDFF127
:10295000DDCFE0F13BD04EC0D9FF4FC0DAFFDECF74
:1029600008F0DDCF09F047EC26F008C0DFF109C020
:10297000E0F107D04EC0D9FF4FC0DAFFDE2A000ECB
:10298000DD22D00E526EFF0E536E4EC0D9FF4FC0E7
:10299000DAFFDECFF6FFDDCFF7FFF86A0800F5506B
:1029A000546E556A5250542653505522555006E1E4
:1029B0000A0E545CD8B002D0010E01D0000E000106
:1029C000A06FA16BA051A111D8A4D4D74EC0D9FF3C
:1029D0004FC0DAFFDECFF6FFDDCFF7FFF86A080061
:1029E000F550076E086A2CEC37F007500001A86F0D
:1029F000A851D8B437D04EC0D9FF4FC0DAFFDECFD0
:102A000052F0DDCF53F0010E5226000E532252C079
:102A1000F6FF53C0F7FFF86A0800F550076E086A22
:102A20002CEC37F007500001A96FA951D8B41AD087
:102A30004EC0D9FF4FC0DAFFDECF52F0DDCF53F0EA
:102A4000020E5226000E532252C0F6FF53C0F7FF6B
:102A5000F86A0800F550076E086A2CEC37F007504A
:102A60000001AA6F4EC0D9FF4FC0DAFFDECFF6FFDC
:102A7000DDCFF7FFF86A0800F550640AD8B40ED02D
:102A80004EC0D9FF4FC0DAFFDECFF6FFDDCFF7FF34
:102A9000F86A0800F550690AD8A43FD04EC0D9FFA3
:102AA0004FC0DAFFDE2A000EDD2250C0D9FF51C030
:102AB000DAFFDFCF52F0020EDE26DFCF53F0000E3A
:102AC000DD2252C0D9FF53C0DAFFDECF98F0DDCF50
:102AD00099F0000E99BFFF0E9A6F9B6F9C6F9D6FD0
:102AE0009E6F9F6F4CC01EF04DC01FF098C020F02D
:102AF00099C021F09AC022F09BC023F09CC024F022
:102B00009DC025F09EC026F09FC027F093EC20F0DA
:102B10001EC04CF01FC04DF01200660EA819D8A4BC
:102B200040D04EC0D9FF4FC0DAFFDECFF6FFDDCF79
:102B3000F7FFF86A0800F5CFABF04EC0D9FF4FC0E1
:102B4000DAFFDE2A000EDD2250C0D9FF51C0DAFFC5
:102B5000DFCF52F0040EDE26DFCF53F0000EDD2271
:102B600052C0D9FF53C0DAFFDECFA4F0DECFA5F00C
:102B7000DECFA6F0DECFA7F04CC040F04DC041F054
:102B8000A4C042F0A5C043F0A6C044F0A7C045F0E1
:102B9000ABC046F07DEC08F040C04CF041C04DF0B9
:102BA0001200A80E016E000E026EF60E036E100EDD
:102BB000046E000E066E020E056E8EEC30F00150B3
:102BC0000210D8A458D04EC0D9FF4FC0DAFFDECFD4
:102BD00052F0DDCF53F0010E5226000E532252C0A8
:102BE000F6FF53C0F7FFF86A0800F5CFABF0BF0E51
:102BF000526EFF0E536E4EC0D9FF4FC0DAFFDECFCC
:102C0000F6FFDDCFF7FFF86A0800F550546E556AFD
:102C10005250542653505522555006E11A0E545C1A
:102C2000D8B002D0010E01D0000E0001A26FA36B3C
:102C3000A251A31150C0D9FF51C0DAFFDFCF52F02B
:102C4000040EDE26DFCF53F0000EDD2252C0D9FF86
:102C500053C0DAFFDECFA4F0DECFA5F0DECFA6F0C2
:102C6000DECFA7F0020E4EC0D9FF4FC0DAFFDE263E
:102C7000000EDD2281D74EC0D9FF4FC0DAFFDECF74
:102C8000F6FFDDCFF7FFF86A0800F550250AD8A453
:102C900016D04EC0D9FF4FC0DAFFDE2A000EDD226B
:102CA000000E046E250E036E4CC005F04DC006F0FC
:102CB00086EC31F0000E4D6E010E4C6E12004EC0CF
:102CC000D9FF4FC0DAFFDE2A000EDD22000E4D6E66
:102CD000000E4C6E12004EC0D9FF4FC0DAFFDECF9F
:102CE000F6FFDDCFF7FFF86A0800F550036E046ABF
:102CF0004CC005F04DC006F086EC31F04EC0D9FF57
:102D00004FC0DAFFDE2A000EDD22D4D701011D51AB
:102D1000800B266F1D511D252C6F1CBF2C812C5143
:102D2000D8B40DD02C29D8A408D0000E1A6F000EEC
:102D30001B6F000E1C6F000E1D6F1C8F08D0000E45
:102D40001A6F000E1B6F000E1C6F000E1D6F2151BD
:102D5000800B261B215121252B6F20BF2B812B514E
:102D6000D8B40DD02B29D8A408D0000E1E6F000EA9
:102D70001F6F000E206F000E216F208F08D0000EF5
:102D80001E6F000E1F6F000E206F000E216F2B5163
:102D9000D8B403D02C51D8A409D0000E1A6F000E5D
:102DA0001B6F000E1C6F000E1D6F120020511A03C6
:102DB000F3CF31F1F4CF32F13151276F286B296B0A
:102DC0002A6B32512D6F2E6B2F6B306B1F511B03F3
:102DD000F3CF31F1F4CF32F131512727000E282300
:102DE00029232A2332512D27000E2E232F2330236F
:102DF0001E511C03F3CF31F1F4CF32F131512727AB
:102E0000000E282329232A2332512D27000E2E239A
:102E10002F23302329C12AF128C129F127C128F104
:102E2000276B1E511B03F3CF31F1F4CF32F1315137
:102E3000272732512823000E2923000E2A231F5151
:102E40001A03F3CF31F1F4CF32F131512727325148
:102E50002823000E2923000E2A2329C12AF128C184
:102E600029F127C128F1276B1E511A03F3CF31F145
:102E7000F4CF32F13151272732512823000E292374
:102E8000000E2A2320511B03F3CF31F1F4CF32F18E
:102E900031512D2732512E23000E2F23000E3023C7
:102EA0001F511C03F3CF31F1F4CF32F131512D27F3
:102EB00032512E23000E2F23000E302320511C03ED
:102EC000F3CF31F1F4CF32F13151226F3251236F10
:102ED000246B256B24C125F123C124F122C123F1E8
:102EE000226B22512D2723512E2324512F2325518C
:102EF000302327C122F128C123F129C124F12AC19D
:102F000025F1190E05D0D8902533243323332233ED
:102F1000E82EF9D722512D2723512E2324512F2378
:102F20002551302329C12AF128C129F127C128F1CF
:102F3000276B2B512CC122F1236B2227000E232358
:102F4000820E2225316FFF0E2321326F0FD0D890D1
:102F50002D372E372F3730372ABF2D81D89027377E
:102F6000283729372A373107D8A032072FAFEFD7B4
:102F7000000E2B6F2AAF17D0FF0E2715226FFF0E02
:102F80002815236FFF0E2915246F7F0E2A15256F34
:102F90002251231124112511D8B403D0010E2B6F17
:102FA00002D02DB1FBD72B51D8B41FD0010E2D2745
:102FB000000E2E232F23302330A117D02DC122F154
:102FC0002EC123F12FC124F130C125F12535253340
:102FD00024332333223322C12DF123C12EF124C106
:102FE0002FF125C130F1314B322B32BF0DD0325190
:102FF00003E13129D8A008D0000E2D6F000E2E6FEE
:10300000800E2F6F7F0E20D032BF05D032510EE1DF
:103010003105D8B00BD0000E2D6F000E2E6F000EB4
:103020002F6F000E306F000E266F0FD031C12CF1C4
:10303000FF0E2D17FF0E2E177F0E2F17000E3017C5
:103040002CB12F8FD8902C31306F265130132DC1D9
:103050001AF12EC11BF12FC11CF130C11DF112005C
:103060001E50800B276E1E501E242D6E1DBE2D80FF
:103070002D50D8B40DD02D28D8A408D0000E1B6E2A
:10308000000E1C6E000E1D6E000E1E6E1D8E08D0F2
:10309000000E1B6E000E1C6E000E1D6E000E1E6ECE
:1030A0002250800B271A225022242C6E21BE2C8005
:1030B0002C50D8B40DD02C28D8A408D0000E1F6EE8
:1030C000000E206E000E216E000E226E218E08D0A2
:1030D000000E1F6E000E206E000E216E000E226E7E
:1030E0002C50D8B403D02D50D8A409D0000E1B6E9C
:1030F000000E1C6E000E1D6E000E1E6E1200215082
:103100001B02F3CF32F0F4CF33F03250286E296A2D
:103110002A6A2B6A33502E6E2F6A306A316A205029
:103120001C02F3CF32F0F4CF33F032502826000ED9
:1031300029222A222B2233502E26000E2F22302223
:1031400031221F501D02F3CF32F0F4CF33F0325052
:103150002826000E29222A222B2233502E26000E4A
:103160002F22302231222AC02BF029C02AF028C079
:1031700029F0286A1F501C02F3CF32F0F4CF33F04D
:103180003250282633502922000E2A22000E2B22EC
:1031900020501B02F3CF32F0F4CF33F03250282608
:1031A00033502922000E2A22000E2B222AC02BF097
:1031B00029C02AF028C029F0286A1F501B02F3CF2B
:1031C00032F0F4CF33F03250282633502922000E4B
:1031D0002A22000E2B2221501C02F3CF32F0F4CF12
:1031E00033F032502E2633502F22000E3022000EA4
:1031F000312220501D02F3CF32F0F4CF33F03250A1
:103200002E2633502F22000E3022000E3122215064
:103210001D02F3CF32F0F4CF33F03250236E33502F
:10322000246E256A266A25C026F024C025F023C016
:1032300024F0236A23502E2624502F22255030229A
:103240002650312228C023F029C024F02AC025F0BE
:103250002BC026F0190E05D0D89026322532243204
:103260002332E82EF9D723502E2624502F22255022
:103270003022265031222AC02BF029C02AF028C043
:1032800029F0286A2C502DC023F0246A2326000E32
:103290002422820E2324326EFF0E2420336E0FD0A0
:1032A000D8902E362F36303631362BBE2E80D89021
:1032B000283629362A362B363206D8A0330630AEC9
:1032C000EFD7000E2C6E2BAE17D0FF0E2814236EF6
:1032D000FF0E2914246EFF0E2A14256E7F0E2B1468
:1032E000266E2350241025102610D8B403D0010ECA
:1032F0002C6E02D02EB0FBD72C50D8B41FD0010EAC
:103300002E26000E2F223022312231A017D02EC0BF
:1033100023F02FC024F030C025F031C026F0263431
:10332000263225322432233223C02EF024C02FF03F
:1033300025C030F026C031F0324A332A33BE0DD0DA
:10334000335003E13228D8A008D0000E2E6E000EB4
:103350002F6E800E306E7F0E20D033BE05D03350DE
:103360000EE13204D8B00BD0000E2E6E000E2F6E80
:10337000000E306E000E316E000E276E0FD032C080
:103380002DF0FF0E2E16FF0E2F167F0E3016000E9C
:1033900031162DB0308ED8902D30316E275031122D
:1033A0002EC01BF02FC01CF030C01DF031C01EF02D
:1033B000120001010351800B0C6F035103250E6FA6
:1033C00002BF0E810E51D8B40DD00E29D8A408D05A
:1033D000000E006F000E016F000E026F000E036FF3
:1033E000028F06D0000E006F000E016F000E026FFC
:1033F000000E036F0751800B0D6F0C510D19D8A4EF
:103400000C8D075107250D6F06BF0D810D51D8B4E6
:103410000DD00D29D8A408D0000E046F000E056F42
:10342000000E066F000E076F068F06D0000E046FA9
:10343000000E056F000E066F000E076F0E510D5D3A
:10344000D8B022D00CAD02D0800E0C1B0EC10FF1F3
:103450000DC10EF10FC10DF100C10FF104C100F15A
:103460000FC104F101C10FF105C101F10FC105F157
:1034700002C10FF106C102F10FC106F103C10FF144
:1034800007C103F10FC107F1000E0F6F0E510DC1FF
:1034900008F1096B085F000E095B09BF2CD00951C8
:1034A00004E11A0E085DD8A026D0005101110211C6
:1034B0000311D8B402D0010E01D0000E0F6F000E20
:1034C000006F000E016F000E026F000E036F0DC142
:1034D0000EF115D00FA105D0D8900F3101090F6F53
:1034E00002D0D8900F3300B10F8F0335033302336E
:1034F000013300330E2B0D510E5DD8A0EBD70CBD60
:1035000028D00E51D8A409D0000E006F000E016F14
:10351000000E026F000E036F1200045100270551C8
:103520000123065102230751032303A171D00FA1E8
:1035300005D0D8900F3101090F6F02D0D8900F330A
:1035400000B10F8F033503330233013300330E2BE9
:103550005FD00451005D05510159065102590351D4
:10356000800A086F0751800A0859D8B025D0005149
:10357000045D086F01510559096F025106590A6F20
:10358000035107590B6FFF0E0825006FFF0E09212D
:10359000016FFF0E0A21026FFF0E0B21036F800ED9
:1035A0000C1B0F6D0F51D8A40FD0010E0027000E79
:1035B00001230223032308D00451005F0551015B5E
:1035C0000651025B0751035B005101110211031107
:1035D000D8A41CD00F51D8A419D0000E006F000E33
:1035E000016F000E026F000E036F1200D8900037BB
:1035F0000137023703370FBF00810FA102D0D880F7
:1036000001D0D8900F370E51D8A40E0702AFEED7D5
:10361000000E0D6F0FAF0BD00FC108F17F0E081712
:10362000D8B403D0010E0D6F02D000B1FBD70D51FD
:10363000D8B420D0010E0027000E0123022303235B
:1036400003A118D000C108F101C109F102C10AF1BA
:1036500003C10BF10B350B330A330933083308C1AF
:1036600000F109C101F10AC102F10BC103F10E29F8
:10367000D8A40E2B0E29D8B403D00E51D8A40DD047
:10368000000E006F000E016F000E026F000E036F40
:103690000E51D8A402D0000E0C6F0EA102D0028FE2
:1036A00001D0029FD8900E31036F0CBF038F00C171
:1036B00000F101C101F102C102F103C103F11200E5
:1036C0000450800B0D6E045004240F6E03BE0F8057
:1036D0000F50D8B40DD00F28D8A408D0000E016E1A
:1036E000000E026E000E036E000E046E038E06D0F6
:1036F000000E016E000E026E000E036E000E046ED0
:103700000850800B0E6E0D500E18D8A40D8C08506A
:1037100008240E6E07BE0E800E50D8B40DD00E28B1
:10372000D8A408D0000E056E000E066E000E076EBF
:10373000000E086E078E06D0000E056E000E066E97
:10374000000E076E000E086E0F500E5CD8B022D02F
:103750000DAC02D0800E0D1A0FC010F00EC00FF08D
:1037600010C00EF001C010F005C001F010C005F04F
:1037700002C010F006C002F010C006F003C010F046
:1037800007C003F010C007F004C010F008C004F038
:1037900010C008F0000E106E0F500EC009F00A6A3B
:1037A000095E000E0A5A0ABE2CD00A5004E11A0E15
:1037B000095CD8A026D00150021003100410D8B420
:1037C00002D0010E01D0000E106E000E016E000E30
:1037D000026E000E036E000E046E0EC00FF015D0C8
:1037E00010A005D0D89010300109106E02D0D890EA
:1037F000103201B0108E043404320332023201322E
:103800000F2A0E500F5CD8A0EBD70DBC28D00F505C
:10381000D8A409D0000E016E000E026E000E036ED9
:10382000000E046E120005500126065002220750B9
:1038300003220850042204A071D010A005D0D89013
:1038400010300109106E02D0D890103201B0108EE5
:10385000043404320332023201320F2A5FD00550A1
:10386000015C06500258075003580450800A096E44
:103870000850800A0958D8B025D00150055C096E5F
:10388000025006580A6E035007580B6E0450085831
:103890000C6EFF0E0924016EFF0E0A20026EFF0E51
:1038A0000B20036EFF0E0C20046E800E0D1A106CA0
:1038B0001050D8A40FD0010E0126000E02220322C0
:1038C000042208D00550015E0650025A0750035AE0
:1038D0000850045A0150021003100410D8A41CD040
:1038E0001050D8A419D0000E016E000E026E000E0A
:1038F000036E000E046E1200D890013602360336B5
:10390000043610BE018010A002D0D88001D0D8901B
:1039100010360F50D8A40F0603AEEED7000E0E6E71
:1039200010AE0BD010C009F07F0E0916D8B403D02A
:10393000010E0E6E02D001B0FBD70E50D8B420D0CD
:10394000010E0126000E02220322042204A018D038
:1039500001C009F002C00AF003C00BF004C00CF073
:103960000C340C320B320A32093209C001F00AC0A1
:1039700002F00BC003F00CC004F00F28D8A40F2AEB
:103980000F28D8B403D00F50D8A40DD0000E016E6C
:10399000000E026E000E036E000E046E0F50D8A4CF
:1039A00002D0000E0D6E0FA002D0038E01D0039E38
:1039B000D8900F30046E0DBE048E01C001F002C01D
:1039C00002F003C003F004C004F01200010103512F
:1039D000800B106F03510325176F02BF178117511A
:1039E000D8B40DD01729D8A408D0000E006F000E4F
:1039F000016F000E026F000E036F028F06D0000EE3
:103A0000006F000E016F000E026F000E036F075172
:103A1000800B101B07510725186F06BF188118511E
:103A2000D8B40DD01829D8A408D0000E046F000E09
:103A3000056F000E066F000E076F068F06D0000E92
:103A4000046F000E056F000E066F000E076F045125
:103A5000051106110711D8A417D0000E006F000E33
:103A6000016F000E026F000E036F800E02137F0EB7
:103A700003131051031300C100F101C101F102C190
:103A800002F103C103F112001751D8A409D0000EAE
:103A9000006F000E016F000E026F000E036F120028
:103AA000185117C108F1096B085F000E095B7F0E02
:103AB0000825116F000E0921126F00C10CF101C120
:103AC0000DF102C10EF103C10FF1000E006F000EE7
:103AD000016F000E026F000E036F000E136F000ED9
:103AE000146F000E156F000E166F000E186F28D0A1
:103AF0001851D8B411D0D8900C370D370E370F3776
:103B0000D890003701370237033716BF0081D890AD
:103B1000133714371537163704510C5D05510D59FD
:103B200006510E5907510F59D8A009D0168D0451CE
:103B30000C5F05510D5B06510E5B07510F5B182B97
:103B4000190E1865D5D70C510D110E110F11D8B4DF
:103B500011D013810FD0D8900037013702370337C7
:103B600016BF0081D8901337143715371637110751
:103B7000D8A0120702AFEFD7000E186F16AF17D0FC
:103B8000FF0E1315086FFF0E1415096FFF0E1515A4
:103B90000A6F7F0E16150B6F085109110A110B11D0
:103BA000D8B403D0010E186F02D000B1FBD7185162
:103BB000D8B41FD0010E0027000E012302230323D7
:103BC00003A117D000C108F101C109F102C10AF136
:103BD00003C10BF10B350B330A330933083308C12A
:103BE00000F109C101F10AC102F10BC103F1114B4E
:103BF000122B12BF10D0125103E11129D8A00BD003
:103C0000000E126F1169000E006F000E016F000EA2
:103C1000026F000E036F12BF05D0125111E11105A2
:103C2000D8B00ED0000E126F000E116F000E006F94
:103C3000000E016F000E026F000E036F000E106F7A
:103C400011C117F117A102D0028F01D0029FD890A5
:103C50001731036F0ED70450800B116E04500424EB
:103C6000186E03BE18801850D8B40DD01828D8A4E8
:103C700008D0000E016E000E026E000E036E000EE4
:103C8000046E038E06D0000E016E000E026E000E52
:103C9000036E000E046E0850800B111A08500824A1
:103CA000196E07BE19801950D8B40DD01928D8A4A0
:103CB00008D0000E056E000E066E000E076E000E98
:103CC000086E078E06D0000E056E000E066E000E02
:103CD000076E000E086E0550061007100810D8A4D5
:103CE00017D0000E016E000E026E000E036E000E65
:103CF000046E800E03127F0E04121150041201C0D4
:103D000001F002C002F003C003F004C004F012008E
:103D10001850D8A409D0000E016E000E026E000EDD
:103D2000036E000E046E1200195018C009F00A6AE2
:103D3000095E000E0A5A7F0E0924126E000E0A2038
:103D4000136E01C00DF002C00EF003C00FF004C0EE
:103D500010F0000E016E000E026E000E036E000EDB
:103D6000046E000E146E000E156E000E166E000E20
:103D7000176E000E196E28D01950D8B411D0D890F3
:103D80000D360E360F361036D89001360236033611
:103D9000043617BE0180D8901436153616361736FD
:103DA00005500D5C06500E5807500F58085010581B
:103DB000D8A009D0178C05500D5E06500E5A07503A
:103DC0000F5A0850105A192A190E1964D5D70D50D8
:103DD0000E100F101010D8B411D014800FD0D8903E
:103DE000013602360336043617BE0180D8901436E9
:103DF0001536163617361206D8A0130603AEEFD7BF
:103E0000000E196E17AE17D0FF0E1414096EFF0EB8
:103E100015140A6EFF0E16140B6E7F0E17140C6E1F
:103E200009500A100B100C10D8B403D0010E196EF3
:103E300002D001B0FBD71950D8B41FD0010E012613
:103E4000000E02220322042204A017D001C009F0B0
:103E500002C00AF003C00BF004C00CF00C340C32AA
:103E60000B320A32093209C001F00AC002F00BC05D
:103E700003F00CC004F0124A132A13BE10D01350E2
:103E800003E11228D8A00BD0000E136E1268000EAA
:103E9000016E000E026E000E036E000E046E13BE65
:103EA00005D0135011E11204D8B00ED0000E136EDD
:103EB000000E126E000E016E000E026E000E036EFA
:103EC000000E046E000E116E12C018F018A002D081
:103ED000038E01D0039ED8901830046E0ED71FC1F8
:103EE00037F120C138F121C139F122C13AF123C1A2
:103EF0003BF124C13CF125C13DF126C13EF1010158
:103F00003EAF02D0010E01D0000E356F366B355139
:103F10003611D8B410D03E1F3D1F3C1F3B1F3A1F27
:103F2000391F381F376D000E382339233A233B23BE
:103F30003C233D233E23E0AFE193E0BF05D0E051B9
:103F400008E1DF05D8B005D0000E326F010E316FE9
:103F500004D0DFC131F1E0C132F1DDC133F1DEC1A6
:103F600034F135513611D8A402D0E1A503D033077E
:103F7000D8A03407000E406F4F0E3F6F000E0201B5
:103F8000B36F7DD03F07D8A04007640E3F25D96EA0
:103F9000020E4021DA6E37C100F138C101F139C19A
:103FA00002F13AC103F13BC104F13CC105F13DC14D
:103FB00006F13EC107F10A0E086F000E096F000EF0
:103FC0000A6F000E0B6F000E0C6F000E0D6F000ECF
:103FD0000E6F000E0F6F65EC29F000C127F101C1D3
:103FE00028F102C129F103C12AF104C12BF105C155
:103FF0002CF106C12DF107C12EF127C112F129C103
:1040000013F14BEC38F001011251300FDF6E310724
:10401000D8A032073307D8A0340737C100F138C120
:1040200001F139C102F13AC103F13BC104F13CC1D4
:1040300005F13DC106F13EC107F10A0E086F000E01
:10404000096F000E0A6F000E0B6F000E0C6F000E52
:104050000D6F000E0E6F000E0F6FA2EC25F000C169
:1040600037F101C138F102C139F103C13AF104C19C
:104070003BF105C13CF106C13DF107C13EF1010133
:1040800040BF1FD0405103E13F05D8A01AD037519F
:10409000381139113A113B113C113D113E11D8A490
:1040A00071D732BF05D0325102E13105D8B06AD79D
:1040B00034BF07D0345103E13305D8A002D0E1B3B7
:1040C00061D735513611D8A402D0E1A517D03F07EA
:1040D000D8A0400735513611D8A404D0000E306F57
:1040E0002B0E03D0000E306F2D0E2F6F640E3F2568
:1040F000D96E020E4021DA6E2FC1DFFF1DC112F111
:104100001EC113F1640E3F25146F020E4021156F7E
:1041100033C116F134C117F1D6EC31F012C11DF1E3
:1041200013C11EF1120020C038F021C039F022C0A6
:104130003AF023C03BF024C03CF025C03DF026C03F
:104140003EF027C03FF03FAE02D0010E01D0000E7E
:10415000366E376A36503710D8B410D03F1E3E1E28
:104160003D1E3C1E3B1E3A1E391E386C000E392285
:104170003A223B223C223D223E223F220101E0AF77
:10418000E193E0BF05D0E05108E1DF05D8B005D0EC
:10419000000E336E010E326E04D0DFC132F0E0C18A
:1041A00033F0DDC134F0DEC135F036503710D8A41D
:1041B00002D0E1A503D03406D8A03506000E416E2A
:1041C0004F0E406E000E0201B36F7CD04006D8A0A7
:1041D0004106640E4024D96E020E4120DA6E38C0CA
:1041E00001F039C002F03AC003F03BC004F03CC01B
:1041F00005F03DC006F03EC007F03FC008F00A0ED3
:10420000096E000E0A6E000E0B6E000E0C6E000E94
:104210000D6E000E0E6E000E0F6E000E106E8AEC0C
:104220002AF001C028F002C029F003C02AF004C01F
:104230002BF005C02CF006C02DF007C02EF008C0F2
:104240002FF028C013F02AC014F097EC38F0135068
:10425000300FDF6E3206D8A033063406D8A03506FC
:1042600038C001F039C002F03AC003F03BC004F09E
:104270003CC005F03DC006F03EC007F03FC008F06E
:104280000A0E096E000E0A6E000E0B6E000E0C6E0A
:10429000000E0D6E000E0E6E000E0F6E000E106EF4
:1042A000ECEC26F001C038F002C039F003C03AF05F
:1042B00004C03BF005C03CF006C03DF007C03EF036
:1042C00008C03FF041BE20D0415003E14004D8A0D7
:1042D0001BD0385039103A103B103C103D103E10A6
:1042E0003F10D8A473D733BE05D0335002E1320457
:1042F000D8B06CD735BE08D0355003E13404D8A00F
:1043000003D00101E1B362D736503710D8A403D0EF
:104310000101E1A517D04006D8A04106365037105C
:10432000D8A404D0000E316E2B0E03D0000E316ED7
:104330002D0E306E640E4024D96E020E4120DA6ECE
:1043400030C0DFFF1EC013F01FC014F0640E402405
:10435000156E020E4120166E34C017F035C018F0ED
:1043600073EC32F013C01EF014C01FF0120056C2DE
:1043700029F157C22AF158C22BF159C22CF119C1A7
:1043800029F11AC12AF11BC12BF11CC12CF1810E9C
:1043900001011D6FFF0E1E6F29C11FF12AC120F1FF
:1043A0002BC121F12CC122F1180E05D0D890223357
:1043B000213320331F33E82EF9D71F511D25276FD6
:1043C000000E1E21286F28BF0FD0285104E1170EC0
:1043D000275DD8A009D019C119F11AC11AF11BC162
:1043E0001BF11CC11CF1120028BF5FD027C11DF1B9
:1043F000FF0E1E6FFF0E1F6F7F0E206F000E216FCE
:104400001D6701D007D02135213320331F331E33E0
:104410001D2FF6D71EC123F11FC124F120C125F1A4
:1044200021C126F10101235129151D6F24512A159F
:104430001E6F25512B151F6F26512C15206F1D51F6
:104440001E111F112011D8B4C6D729C11DF12AC1D0
:104450001EF12BC11FF12CC120F1200E05D0D890E8
:1044600020331F331E331D33E82EF9D71D511E1183
:104470001F112011D8B408D02351292724512A23F1
:1044800025512B2326512C23231D1D6F241D1E6F08
:10449000251D1F6F261D206F1D5129171E512A171C
:1044A0001F512B1720512C1736D029C11DF12AC1BD
:1044B0001EF12BC11FF12CC120F1200E05D0D89088
:1044C00020331F331E331D33E82EF9D71D511E1123
:1044D0001F112011D8A408D0000E296F000E2A6FDA
:1044E000000E2B6F000E16D0D89029351D6F2A357F
:1044F0001E6F2B351F6F2C35206F1D511E111F1184
:104500002011D8B408D0000E296F000E2A6F800E3B
:104510002B6FBF0E2C6F29C119F12AC11AF12BC1C3
:104520001BF12CC11CF1120056C22AF057C22BF00D
:1045300058C22CF059C22DF01AC02AF01BC02BF023
:104540001CC02CF01DC02DF0810E1E6EFF0E1F6EC4
:104550002AC020F02BC021F02CC022F02DC023F067
:10456000180E05D0D8902332223221322032E82E84
:10457000F9D720501E24286E000E1F20296E29BE58
:104580000FD0295004E1170E285CD8A009D01AC01A
:104590001AF01BC01BF01CC01CF01DC01DF0120047
:1045A00029BE5ED028C01EF0FF0E1F6EFF0E206ECB
:1045B0007F0E216E000E226E1E6601D007D02234BF
:1045C0002232213220321F321E2EF6D71FC024F095
:1045D00020C025F021C026F022C027F024502A1444
:1045E0001E6E25502B141F6E26502C14206E275043
:1045F0002D14216E1E501F1020102110D8B4C7D7C3
:104600002AC01EF02BC01FF02CC020F02DC021F0BE
:10461000200E05D0D890213220321F321E32E82ED3
:10462000F9D71E501F1020102110D8B408D02450E4
:104630002A2625502B2226502C2227502D22241C9E
:104640001E6E251C1F6E261C206E271C216E1E5000
:104650002A161F502B1620502C1621502D1636D0FE
:104660002AC01EF02BC01FF02CC020F02DC021F05E
:10467000200E05D0D890213220321F321E32E82E73
:10468000F9D71E501F1020102110D8A408D0000EFA
:104690002A6E000E2B6E000E2C6E000E16D0D890D7
:1046A0002A341E6E2B341F6E2C34206E2D34216E56
:1046B0001E501F1020102110D8B408D0000E2A6EF2
:1046C000000E2B6E800E2C6EBF0E2D6E2AC01AF0BF
:1046D0002BC01BF02CC01CF02DC01DF01200680E6A
:1046E0005E6EE40EE82EFED75E2EFCD700D0B80E2C
:1046F0000001B86F020EB96F020EBA6FFE5156EC90
:1047000033F0680E5E6EE40EE82EFED75E2EFCD708
:1047100000D0EE0E016E000E026E020E036E00015E
:10472000FE51C0EC32F0040E0001EF27EF51D8A487
:104730000BD0EE2BEE51D8A407D0A10EAC6F100E0B
:10474000AD6FA6EC39F012005EC2E2F05FC2E3F09A
:1047500060C2E4F061C2E5F0000EE26F000EE36FAC
:10476000EEC0E4F0EFC0E5F0680E5E6EE40EE82EF9
:10477000FED75E2EFCD700D0E20E0001B86F000E0F
:10478000B96F040EBA6FFE5156EC33F0ADEC2BF05E
:10479000C0C0D4F0C1C0D5F0C2C0D6F0C3C0D7F0FD
:1047A000D4C03EF0D5C03FF0D6C040F0D7C041F0F5
:1047B000EA0E426E000E436E27EC2FF03DEC2CF01B
:1047C000C0C0D8F0C1C0D9F0C2C0DAF0C3C0DBF0BD
:1047D000D8C03EF0D9C03FF0DAC040F0DBC041F0B5
:1047E000EC0E426E000E436E27EC2FF022EE50F0DE
:1047F00010EEDCF0050EDBCFE3FFE806FCE2EEC0D6
:10480000DCF0EFC0DDF0EAC0DEF0EBC0DFF0ECC0C2
:10481000E0F0EDC0E1F0680E5E6EE40EE82EFED72B
:104820005E2EFCD700D0DC0E0001B86F000EB96F11
:10483000060EBA6FFE5156EC33F05AC2E6F05BC278
:10484000E7F05CC2E8F05DC2E9F0000E0001E66F3F
:10485000020EE76FEEC0E8F0EFC0E9F0680E5E6EA2
:10486000E40EE82EFED75E2EFCD700D0E60E000147
:10487000B86F000EB96F040EBA6FFE5156EC33F0EC
:1048800012000001FC2B640EFC19D8A41200010ECA
:10489000FD6FBAC2C2F0BBC2C3F0680E0001C06FA8
:1048A000E40EE82EFED7C02FFCD700F0C20E0001A8
:1048B000B86F000EB96F020EBA6FFE5156EC33F0AE
:1048C000680E0001C06FE40EE82EFED7C02FFCD7A3
:1048D00000F0CC0E016E000E026E020E036E00019F
:1048E000FE51C0EC32F00001CC51D16FD06BCD51F4
:1048F000D027000ED123D0C0C0F0D1C0C1F0D890D5
:10490000C133C033D890C133C033C0C0D0F0C1C0B0
:10491000D1F0000ED36F000ED26F58D0680E000198
:10492000C06FE40EE82EFED7C02FFCD700F0CC0EEF
:10493000016E000E026E040E036E0001FE51C0EC0B
:1049400032F0CDC01BF00001CC51C9EC2EF01BC0E1
:10495000C4F01CC0C5F01DC0C6F01EC0C7F03E0E9E
:104960000001AC6F100EAD6FD2C0AEF0D3C0AFF08F
:10497000C4C0B0F0C5C0B1F0C6C0B2F0C7C0B3F09B
:10498000A6EC39F0CFC01BF00001CE51C9EC2EF0DF
:104990001BC0C8F01CC0C9F01DC0CAF01EC0CBF0BF
:1049A000820E0001AC6F100EAD6FD2C0AEF0D3C05E
:1049B000AFF0C8C0B0F0C9C0B1F0CAC0B2F0CBC04F
:1049C000B3F0A6EC39F00001D24BD32BD051D25D1D
:1049D000D151D359D8A0A2D7B40EB86F020EB96F77
:1049E000040EBA6FFE5156EC33F0000E0001FD6F5D
:1049F000000EFC6F1200000E0101156F000E146F07
:104A0000000E0E6F000E0D6F02D0074B082B010E2B
:104A1000136F07C1F6FF08C1F7FFF86A0800F550E9
:104A2000200AD8B419D0F70E096FFF0E0A6F07C11C
:104A3000F6FF08C1F7FFF86A0800F5500B6F0C6B22
:104A400009510B270A510C230C5104E1050E0B5D93
:104A5000D8A002D0000E136F13C10FF1106B0F51CD
:104A60001011D8B408D0D1D7000E0E6F010E0D6F03
:104A7000074B082B31D007C1F6FF08C1F7FFF86AD2
:104A80000800F550096F0A6B0A51000AD8A424D017
:104A900009512B0AD8B4ECD7060AD8B4E5D71CD0F4
:104AA00014C100F115C101F1000E036F0A0E026F6F
:104AB00092EC39F007C1F6FF08C1F7FFF86A080069
:104AC000F5500101005F000E015B300E0025146FF0
:104AD000000E0121156FCCD7D00E096FFF0E0A6FA3
:104AE00007C1F6FF08C1F7FFF86A0800F5500B6F21
:104AF0000C6B09510B270A510C230C5106E10A0ECD
:104B00000B5DD8B002D0010E01D0000E116F126BF8
:104B100011511211D8A4C4D70D510E11D8A40DD023
:104B200014C109F115C10AF1091F0A1F094B0A2B0B
:104B300009C107F10AC108F1120014C107F115C13A
:104B400008F11200000E0101116F0FAF12D00F1FFC
:104B50000E1F0D1F0C1F0B1F0A1F091F086D000ED3
:104B600009230A230B230C230D230E230F23010EED
:104B7000116F07AF12D0071F061F051F041F031F69
:104B8000021F011F006D000E0123022303230423D3
:104B9000052306230723010E111B21EE12F0070E39
:104BA000DE6AE806FDE2085109110A110B110C1129
:104BB0000D110E110F11D8B446D0010E106F0AD08E
:104BC000D890083709370A370B370C370D370E37AF
:104BD0000F37102B0FAFF4D7D89012371337143785
:104BE000153716371737183719370851005D09512F
:104BF00001590A5102590B5103590C5104590D51D5
:104C000005590E5106590F510759D8A011D0085116
:104C1000005F0951015B0A51025B0B51035B0C51B0
:104C2000045B0D51055B0E51065B0F51075B128152
:104C3000D8900F330E330D330C330B330A33093353
:104C40000833102FC9D71151D8B410D0191F181F0D
:104C5000171F161F151F141F131F126D000E13238D
:104C600014231523162317231823192312C100F127
:104C700013C101F114C102F115C103F116C104F110
:104C800017C105F118C106F119C107F11200000E94
:104C9000166E000E156E000E0F6E000E0E6E02D018
:104CA000084A092A010E146E08C0F6FF09C0F7FF72
:104CB000F86A0800F550200AD8B419D0F70E0A6E29
:104CC000FF0E0B6E08C0F6FF09C0F7FFF86A080078
:104CD000F5500C6E0D6A0A500C260B500D220D502B
:104CE00004E1050E0C5CD8A002D0000E146E14C0B6
:104CF00010F0116A10501110D8B408D0D1D7000E9E
:104D00000F6E010E0E6E084A092A30D008C0F6FF59
:104D100009C0F7FFF86A0800F5500A6E0B6A0B50DD
:104D2000000AD8A423D00A502B0AD8B4ECD7060A1C
:104D3000D8B4E5D71BD015C001F016C002F0000EA4
:104D4000046E0A0E036EBAEC39F008C0F6FF09C013
:104D5000F7FFF86A0800F550015E000E025A300EA7
:104D60000124156E000E0220166ECDD7D00E0A6EED
:104D7000FF0E0B6E08C0F6FF09C0F7FFF86A0800C7
:104D8000F5500C6E0D6A0A500C260B500D220D507A
:104D900006E10A0E0C5CD8B002D0010E01D0000E64
:104DA000126E136A12501310D8A4C5D70E500F10EC
:104DB000D8A40DD015C00AF016C00BF00A1E0B1EA9
:104DC0000A4A0B2A0AC008F00BC009F0120015C0ED
:104DD00008F016C009F01200000E126E10AE12D0CC
:104DE000101E0F1E0E1E0D1E0C1E0B1E0A1E096C21
:104DF000000E0A220B220C220D220E220F2210225C
:104E0000010E126E08AE12D0081E071E061E051EE9
:104E1000041E031E021E016C000E02220322042245
:104E20000522062207220822010E121A20EE13F094
:104E3000070EDE6AE806FDE209500A100B100C109E
:104E40000D100E100F101010D8B446D0010E116EB8
:104E50000AD0D89009360A360B360C360D360E3687
:104E60000F361036112A10AEF4D7D89013361436F8
:104E7000153616361736183619361A360950015CAB
:104E80000A5002580B5003580C5004580D50055846
:104E90000E5006580F50075810500858D8A011D07F
:104EA0000950015E0A50025A0B50035A0C50045A22
:104EB0000D50055A0E50065A0F50075A1050085AF6
:104EC0001380D89010320F320E320D320C320B326A
:104ED0000A320932112EC9D71250D8B410D01A1E76
:104EE000191E181E171E161E151E141E136C000EFA
:104EF0001422152216221722182219221A2213C050
:104F000001F014C002F015C003F016C004F017C081
:104F100005F018C006F019C007F01AC008F012001A
:104F20000101146F01011451D8A40FAF1AD00CC1A4
:104F300010F10DC111F10EC112F10FC113F1101FCB
:104F4000111F121F131F102B000E112312231323E6
:104F500010C116F111C117F112C118F113C119F1E5
:104F600008D00CC116F10DC117F10EC118F10FC117
:104F700019F10C510D110E110F11D8A409D0000E0A
:104F80000C6F000E0D6F000E0E6F000E0F6F1200F3
:104F9000960E156F06D0152BD8901933183317338A
:104FA0001633000E1615106F000E1715116F000E38
:104FB0001815126FFE0E1915136F105111111211E1
:104FC0001311D8B40DD0E7D7152B010E1627000EFC
:104FD000172318231923D89019331833173316338E
:104FE000000E1615106F000E1715116F000E181514
:104FF000126FFF0E1915136F1051111112111311A9
:10500000D8B407D0E1D71507D89016371737183717
:10501000193718BF03D0020E1561F5D715A1189FD7
:10502000D890153315C110F1116B126B136B10C1B1
:1050300013F1126B116B106B1051161311511713E2
:1050400012511813135119131451D8A40FAF01D0D2
:10505000198F16C10CF117C10DF118C10EF119C14C
:105060000FF11200156E1550D8A410AE1AD00DC055
:1050700011F00EC012F00FC013F010C014F0111E8A
:10508000121E131E141E112A000E122213221422A5
:1050900011C017F012C018F013C019F014C01AF0A4
:1050A00008D00DC017F00EC018F00FC019F010C0D6
:1050B0001AF00D500E100F101010D8A409D0000EC9
:1050C0000D6E000E0E6E000E0F6E000E106E1200B2
:1050D000960E166E06D0162AD8901A321932183249
:1050E0001732000E1714116E000E1814126E000EF7
:1050F0001914136EFE0E1A14146E115012101310A0
:105100001410D8B40DD0E7D7162A010E1726000EBA
:10511000182219221A22D8901A321932183217324C
:10512000000E1714116E000E1814126E000E1914D2
:10513000136EFF0E1A14146E115012101310141067
:10514000D8B407D0E1D71606D890173618361936D6
:105150001A3619BE03D0020E1660F5D716A0199E96
:10516000D890163216C011F0126A136A146A11C070
:1051700014F0136A126A116A1150171212501812A1
:105180001350191214501A121550D8A410AE01D091
:105190001A8E17C00DF018C00EF019C00FF01AC00B
:1051A00010F01200000E0101B76F000EB0EC38F0E5
:1051B000D40E0101AF6F100EB06F070EB16F3C0E31
:1051C0000DEC33F0000E0101B76F010EB0EC38F0BA
:1051D000C90E0101AF6F100EB06F0A0EB16F3C0E19
:1051E0000DEC33F0F8EC29F0B7C1D1F1B8C1D2F130
:1051F000B9C1D3F1BAC1D4F1060E0101B76F000EE7
:10520000B0EC38F0CB0E0101A96F010EAA6FDC0ED5
:10521000AB6F100EAC6FD1C1ADF1D2C1AEF1D3C145
:10522000AFF1D4C1B0F1DCEC36F0000E0101D06F6B
:10523000CB0EAF6F010EB06F060EB16F3C0E0DECD2
:1052400033F0F20E0101AF6F100EB06F020EB16FAE
:105250003C0E0DEC33F01CEC2BF0B7C1D1F1B8C112
:10526000D2F1B9C1D3F1BAC1D4F10A0E0101B76FBD
:10527000010EB0EC38F0CB0E0101A96F010EAA6F40
:10528000DC0EAB6F100EAC6FD1C1ADF1D2C1AEF17F
:10529000D3C1AFF1D4C1B0F1DCEC36F0010E0101A5
:1052A000D06FCB0EAF6F010EB06F060EB16F3C0E1C
:1052B0000DEC33F0F20E0101AF6F100EB06F020E65
:1052C000B16F3C0E0DEC33F01200000E0101116FB6
:1052D00007AF12D0071F061F051F041F031F021F61
:1052E000011F006D000E0123022303230423052365
:1052F00006230723010E116F0FAF10D00F1F0E1FD3
:105300000D1F0C1F0B1F0A1F091F086D000E09231C
:105310000A230B230C230D230E230F2308510911FD
:105320000A110B110C110D110E110F11D8B43CD034
:10533000010E106F0AD0D890083709370A370B379B
:105340000C370D370E370F37102B0FAFF4D708512E
:10535000005D095101590A5102590B5103590C5171
:1053600004590D5105590E5106590F510759D8A02E
:1053700010D00851005F0951015B0A51025B0B51CB
:10538000035B0C51045B0D51055B0E51065B0F5125
:10539000075BD8900F330E330D330C330B330A33C6
:1053A00009330833102FD3D71151D8B410D0071FA9
:1053B000061F051F041F031F021F011F006D000EA3
:1053C000012302230323042305230623072300C10B
:1053D00000F101C101F102C102F103C103F104C1F5
:1053E00004F105C105F106C106F107C107F112007C
:1053F000FF0E0101AF6F010EB06F010EB16FFC51D6
:105400000DEC33F0C10E0101006F010E016F020EB1
:10541000026FFC51E2EC30F00101C151BC6FBB6B7B
:10542000BBC1C3F1BCC1C4F1000EC4BFFF0EC56F48
:10543000C66FC251C325C36F000EC421C46F000ED6
:10544000C521C56F000EC621C66FC3C10CF1C4C112
:105450000DF1C5C10EF1C6C10FF1000E90EC27F0A1
:105460000CC11AF10DC11BF10EC11CF10FC11DF1D0
:105470001F0E01011E6F850E1F6F2F0E206F430E32
:10548000216F86EC16F01AC1C7F11BC1C8F11CC10F
:10549000C9F11DC1CAF1C7C100F1C8C101F1C9C13B
:1054A00002F1CAC103F1000E0101046F000E056F85
:1054B000800E066F470E076FE6EC1CF000C1C7F1C7
:1054C00001C1C8F102C1C9F103C1CAF1C7C100F1EC
:1054D000C8C101F1C9C102F1CAC103F1660E0101DF
:1054E000046F660E056F3B0E066FC20E076FD9EC98
:1054F00019F000C1BDF101C1BEF102C1BFF103C18C
:10550000C0F1BDC1B7F1BEC1B8F1BFC1B9F1C0C1F1
:10551000BAF11200000E126E08AE12D0081E071E5D
:10552000061E051E041E031E021E016C000E022232
:10553000032204220522062207220822010E126EEF
:1055400010AE10D0101E0F1E0E1E0D1E0C1E0B1EB8
:105550000A1E096C000E0A220B220C220D220E22BA
:105560000F22102209500A100B100C100D100E10F3
:105570000F101010D8B43CD0010E116E0AD0D89084
:1055800009360A360B360C360D360E360F36103607
:10559000112A10AEF4D70950015C0A5002580B5082
:1055A00003580C5004580D5005580E5006580F5013
:1055B000075810500858D8A010D00950015E0A5062
:1055C000025A0B50035A0C50045A0D50055A0E50F3
:1055D000065A0F50075A1050085AD89010320F32FE
:1055E0000E320D320C320B320A320932112ED3D761
:1055F0001250D8B410D0081E071E061E051E041E29
:10560000031E021E016C000E022203220422052248
:1056100006220722082201C001F002C002F003C0E6
:1056200003F004C004F005C005F006C006F007C092
:1056300007F008C008F01200FE0E0101AF6F010E66
:10564000B06F010EB16FFC510DEC33F0C10E0101D2
:10565000006F010E016F020E026FFC51E2EC30F0A0
:105660000101C151BC6FBB6BBBC1C3F1BCC1C4F173
:10567000000EC4BFFF0EC56FC66FC251C325C36FF6
:10568000000EC421C46F000EC521C56F000EC621D7
:10569000C66FC3C100F1C4C101F1C5C102F1C6C1E9
:1056A00003F17D0E046F000E056F000E066F000EF5
:1056B000076FD8EC35F000C10CF101C10DF102C14A
:1056C0000EF103C10FF1000E90EC27F00CC1C7F1F1
:1056D0000DC1C8F10EC1C9F10FC1CAF1C7C100F1B6
:1056E000C8C101F1C9C102F1CAC103F1000E010133
:1056F000046F000E056F800E066F470E076FE6EC15
:105700001CF000C1C7F101C1C8F102C1C9F103C158
:10571000CAF1C7C100F1C8C101F1C9C102F1CAC1D2
:1057200003F1000E0101046F000E056FC00E066F3D
:10573000C00E076FD9EC19F000C1BDF101C1BEF177
:1057400002C1BFF103C1C0F1BDC1B7F1BEC1B8F123
:10575000BFC1B9F1C0C1BAF11200FF0E0001B86FAC
:10576000010EB96F010EBA6F0101FC5156EC33F016
:10577000CA0E016E000E026E020E036E0101FC5194
:10578000C0EC32F00001CA51C56FC46BC4C0CCF08C
:10579000C5C0CDF0000ECDBFFF0ECE6FCF6FCB5189
:1057A000CC25CC6F000ECD21CD6F000ECE21CE6F5B
:1057B000000ECF21CF6FCCC00DF0CDC00EF0CEC00B
:1057C0000FF0CFC010F0000E32EC28F00DC01BF02F
:1057D0000EC01CF00FC01DF010C01EF01F0E1F6E7B
:1057E000850E206E2F0E216E430E226E30EC18F0C7
:1057F0001BC0D0F01CC0D1F01DC0D2F01EC0D3F031
:10580000D0C001F0D1C002F0D2C003F0D3C004F088
:10581000000E056E000E066E800E076E470E086EB7
:105820002BEC1EF001C0D0F002C0D1F003C0D2F0CA
:1058300004C0D3F0D0C001F0D1C002F0D2C003F058
:10584000D3C004F0660E056E660E066E3B0E076E44
:10585000C20E086E60EC1BF001C0C6F002C0C7F0BB
:1058600003C0C8F004C0C9F0C6C0C0F0C7C0C1F0D2
:10587000C8C0C2F0C9C0C3F01200FE0E0001B86F6C
:10588000010EB96F010EBA6F0101FC5156EC33F0F5
:10589000CA0E016E000E026E020E036E0101FC5173
:1058A000C0EC32F00001CA51C56FC46BC4C0CCF06B
:1058B000C5C0CDF0000ECDBFFF0ECE6FCF6FCB5168
:1058C000CC25CC6F000ECD21CD6F000ECE21CE6F3A
:1058D000000ECF21CF6FCCC001F0CDC002F0CEC002
:1058E00003F0CFC004F07D0E056E000E066E000EB4
:1058F000076E000E086E87EC36F001C00DF002C096
:105900000EF003C00FF004C010F0000E32EC28F0CF
:105910000DC0D0F00EC0D1F00FC0D2F010C0D3F047
:10592000D0C001F0D1C002F0D2C003F0D3C004F067
:10593000000E056E000E066E800E076E470E086E96
:105940002BEC1EF001C0D0F002C0D1F003C0D2F0A9
:1059500004C0D3F0D0C001F0D1C002F0D2C003F037
:10596000D3C004F0000E056E000E066EC00E076E6A
:10597000C00E086E60EC1BF001C0C6F002C0C7F09C
:1059800003C0C8F004C0C9F0C6C0C0F0C7C0C1F0B1
:10599000C8C0C2F0C9C0C3F01200000E0101331527
:1059A0003B6F000E34153C6F800E35153D6F7F0E3A
:1059B00036153E6F3B513C113D113E11D8A408D025
:1059C000000E336F000E346F000E356F000E366F11
:1059D000000E37153B6F000E38153C6F800E3915E1
:1059E0003D6F7F0E3A153E6F3B513C113D113E110C
:1059F000D8A408D0000E376F000E386F000E396F34
:105A0000000E3A6F36AF09D0336D341FD8B0342B47
:105A1000351FD8B0352B800E36573AAF09D0376DC9
:105A2000381FD8B0382B391FD8B0392B800E3A57D1
:105A3000000E331B000E341B000E351B800E361B70
:105A4000000E371B000E381B000E391B800E3A1B50
:105A50003751335D38513459395135593A513659E6
:105A6000D8B002D0D8901200D8801200000E3414A2
:105A70003C6E000E35143D6E800E36143E6E7F0E69
:105A800037143F6E3C503D103E103F10D8A408D054
:105A9000000E346E000E356E000E366E000E376E40
:105AA000000E38143C6E000E39143D6E800E3A1410
:105AB0003E6E7F0E3B143F6E3C503D103E103F103B
:105AC000D8A408D0000E386E000E396E000E3A6E63
:105AD000000E3B6E37AE09D0346C351ED8B0352A77
:105AE000361ED8B0362A800E37563BAE09D0386CF9
:105AF000391ED8B0392A3A1ED8B03A2A800E3B5601
:105B0000000E341A000E351A000E361A800E371A9F
:105B1000000E381A000E391A000E3A1A800E3B1A7F
:105B20003850345C395035583A5036583B50375815
:105B3000D8B002D0D8901200D8801200D7C10AF194
:105B4000D8C10BF1D9C10CF1DAC10DF100C10AF1D4
:105B500001C10BF102C10CF103C10DF10AC104F145
:105B60000BC105F10CC106F10DC107F1180E06D0ED
:105B70000101D8900733063305330433E82EF8D7F4
:105B80000451086F096B08510911D8A419D0D89095
:105B90000A35046F0B35056F0C35066F0D35076F31
:105BA0000451051106110711D8A405D0000E016F8C
:105BB000020E006F1200000E016F030E006F120044
:105BC00008290911D8A41CD00AC104F10BC105F1A0
:105BD0000CC106F10DC107F1090ED8900437053745
:105BE00006370737E82EF9D70451051106110711BA
:105BF000D8A402D0010E01D0000E006F016B12007C
:105C0000000E016F040E006F1200D7C10BF0D8C157
:105C10000CF0D9C10DF0DAC10EF001C00BF002C0DA
:105C20000CF003C00DF004C00EF00BC005F00CC06A
:105C300006F00DC007F00EC008F0180E05D0D89081
:105C40000832073206320532E82EF9D70550096EC0
:105C50000A6A09500A10D8A419D0D8900B34056EDE
:105C60000C34066E0D34076E0E34086E05500610A7
:105C700007100810D8A405D0000E026E020E016EA7
:105C80001200000E026E030E016E120009280A10A7
:105C9000D8A41CD00BC005F00CC006F00DC007F056
:105CA0000EC008F0090ED8900536063607360836BD
:105CB000E82EF9D70550061007100810D8A402D016
:105CC000010E01D0000E016E026A1200000E026E7B
:105CD000040E016E1200010102350335096F0951EE
:105CE000D8A409D0000E006F000E016F000E026FE5
:105CF000000E036F120000C104F101C105F102C1E1
:105D000006F103C107F1200E05D0D8900733063302
:105D100005330433E82EF9D70451086F028FFF0EC4
:105D20000017FF0E0117FF0E0217000E0317960E45
:105D3000095F09AF0DD00951800A970FD8A0D2D7BB
:105D4000D8900333023301330033093FF9D70DD024
:105D50001F0E096507D0C6D7D89000370137023724
:105D6000033709070951D8A4F7D70851D8B408D088
:105D7000031F021F011F006D000E012302230323D6
:105D800000C100F101C101F102C102F103C103F13F
:105D900012001F6E1F500D6E0E6A0F6A106A000E01
:105DA00032EC28F00DC020F00EC021F00FC022F020
:105DB00010C023F01B500D6E0E6A0F6A106A000EA1
:105DC00032EC28F00DC024F00EC025F00FC026F0F4
:105DD00010C027F024C001F025C002F026C003F057
:105DE00027C004F0000E056E000E066EC80E076E8A
:105DF000420E086E2BEC1EF001C024F002C025F00C
:105E000003C026F004C027F020C001F021C002F03A
:105E100022C003F023C004F024C005F025C006F022
:105E200026C007F027C008F060EC1BF001C020F08E
:105E300002C021F003C022F004C023F020C01BF0F8
:105E400021C01CF022C01DF023C01EF012003EC075
:105E500034F03FC035F040C036F041C037F084EC3C
:105E60002FF0345042C0D9FF43C0DAFFDF6E3EC08E
:105E700034F03FC035F040C036F041C037F042C08A
:105E8000D9FF43C0DAFFDF50446E44500D6E0E6AF6
:105E90000F6A106A010E32EC28F00DC038F00EC007
:105EA00039F00FC03AF010C03BF076EC37F034C058
:105EB00045F035C046F036C047F037C048F020EE18
:105EC00001F04250D9264350DA22000E1F6E000E18
:105ED000206EC80E216E420E226E45C01BF046C0D9
:105EE0001CF047C01DF048C01EF030EC18F01BC07D
:105EF00034F01CC035F01DC036F01EC037F084EC05
:105F00002FF03450DF6E1200363437343D6E3D5082
:105F1000D8A409D0000E346E000E356E000E366E19
:105F2000000E376E120034C038F035C039F036C07C
:105F30003AF037C03BF0200E05D0D8903B323A32D1
:105F400039323832E82EF9D738503C6E368EFF0E93
:105F50003416FF0E3516FF0E3616000E3716960E47
:105F60003D5E3DAE0DD03D50800A970FD8A0D2D7F0
:105F7000D89037323632353234323D3EF9D70DD0F3
:105F80001F0E3D6407D0C6D7D89034363536363626
:105F900037363D063D50D8A4F7D73C50D8B408D08A
:105FA000371E361E351E346C000E3522362237223F
:105FB00034C034F035C035F036C036F037C037F075
:105FC000120053EC3AF0F28EF28C14EC3AF0EA0E36
:105FD0000101006F740E016F8AEC3AF0CDEC39F0DC
:105FE000820E0101006F480E016F85EC3AF0EFEC74
:105FF00034F060EC3AF0D20E0101AF6F020EB06FD8
:10600000050EB16F3C0E0DEC33F0D00E0101D56FD3
:10601000C90EE82EFED7D52FFCD700D0C70E010140
:10602000AF6F020EB06F0B0EB16F3C0E0DEC33F084
:10603000BC0E0101AF6F020EB06F0B0EB16F3C0EC4
:106040000DEC33F0BB0E0101A96F100EAA6F7EECB0
:1060500039F0D2EC28F0520E0101D66F2B0ED56F1D
:10606000000EE82EFED7D52FFCD7D62FFAD700F09A
:10607000F0D700C107F101C108F102C109F103C164
:106080000AF101010407D8A0050704290FE1052939
:10609000D8A40CD0000E016F000E006F1200074B49
:1060A000082B094B0A2B0407D8A0050707C1D9FF05
:1060B00008C1DAFFDF50D8B41ED009C1F6FF0AC10B
:1060C000F7FFF86A0800F5500009D8B414D004515D
:1060D0000511D8B410D007C1D9FF08C1DAFFDF50CD
:1060E000066F09C1F6FF0AC1F7FFF86A0800F5500C
:1060F0000619D8B4D4D707C1D9FF08C1DAFFDF50D9
:10610000066F09C1F6FF0AC1F7FFF86A0800F550EB
:10611000065D006F016BD8A00107120001C008F0F6
:1061200002C009F003C00AF004C00BF00506D8A0B5
:10613000060605280FE10628D8A40CD0000E026E32
:10614000000E016E1200084A092A0A4A0B2A0506A7
:10615000D8A0060608C0D9FF09C0DAFFDF50D8B4BE
:106160001ED00AC0F6FF0BC0F7FFF86A0800F55012
:106170000009D8B414D005500610D8B410D008C007
:10618000D9FF09C0DAFFDF50076E0AC0F6FF0BC067
:10619000F7FFF86A0800F5500718D8B4D4D708C03C
:1061A000D9FF09C0DAFFDF50076E0AC0F6FF0BC047
:1061B000F7FFF86A0800F550075C016E026AD8A084
:1061C000020612000101076FC7B4FED7C5CF03F165
:1061D0001F0E01010317D8A4F7D7C580C5B0FED79D
:1061E00001010751020DF328086F08C1C9FFC7B4A8
:1061F000FED7C5BC1200000E01010A6F000E096F28
:1062000027D0C586C5B6FED7010109510025D96E34
:106210000A510121DA6EC9CFDFFFFF0E036FFF0EB7
:10622000046F0251056F066B0351052704510623C5
:106230000951051906E10A510619D8A402D0C58AE8
:1062400001D0C59AC588C5B8FED70101094B0A2BF4
:106250000251036F046B0351095D04510A59D8A020
:10626000D0D7C584C5A41200FDD701010451051182
:10627000D8B404D004510511D8A404D002517EEC46
:106280003AF0120020EE04F00451D9260551DA222A
:10629000DE50DE10D8B416D020EE04F00451D9261A
:1062A0000551DA2210EE02F00451E1260551E222F6
:1062B000DE50E65CE650800A0A6FDE50800A0A591A
:1062C000D8B0120020EE02F00451D9260551DA228E
:1062D000DECF06F1DDCF07F104C1D9FF05C1DAFF3A
:1062E000DECF08F1DDCF09F106510825D96E07513F
:1062F0000921DA6E02C1DFFF20EE02F00451D92637
:106300000551DA22DE2A000EDD22120005500610A9
:10631000D8B404D005500610D8A404D00350A8EC7B
:106320003AF0120020EE04F00550D9260650DA2289
:10633000DE50DE10D8B416D020EE04F00550D92679
:106340000650DA2210EE02F00550E1260650E22255
:10635000DE50E65CE650800A0B6EDE50800A0B5879
:10636000D8B0120020EE02F00550D9260650DA22ED
:10637000DECF07F0DDCF08F005C0D9FF06C0DAFF99
:10638000DECF09F0DDCF0AF007500924D96E08509E
:106390000A20DA6E03C0DFFF20EE02F00550D92696
:1063A0000650DA22DE2A000EDD2212000101E1A1F0
:1063B0000AD014C10BF115C10CF112C10DF113C1BA
:1063C0000EF1D8EC37F0010117BF05D016C11BF153
:1063D00017C11CF104D0000E1C6F000E1B6F000EC5
:1063E0001A6F000E196F0DD0000E036F200E026F92
:1063F00012C104F113C105F135EC31F00101194B63
:106400001A2B1B51195D1A51800A186F1C51800AF2
:106410001859D8A0E9D7E1B10AD014C10BF115C1C0
:106420000CF112C10DF113C10EF1D8EC37F014C10B
:1064300000F115C101F110EC39F001011B510025EB
:10644000126F1C510121136F1200400E0101F8253B
:10645000D96EDA6A020EDA22000EDF6EABA414D017
:10646000400EF825D96EDA6A020EDA220201DF82C6
:1064700001D80AD00500FA6E0101EF51FD6EF0510E
:10648000FE6EFF6AFA501200ABA215D0400E010159
:10649000F825D96EDA6A020EDA220201DF8401D809
:1064A0000AD00500FA6E0101ED51FD6EEE51FE6E4F
:1064B000FF6AFA501200400E0101F825D96EDA6A1F
:1064C000020EDA22DF50D8B40BD001D8120005003A
:1064D000FA6EEB51FD6EEC51FE6EFF6AFA5012003F
:1064E00003EC3AF012000101E1A10AD015C00CF052
:1064F00016C00DF013C00EF014C00FF013EC38F0FE
:1065000018BE05D017C01CF018C01DF004D0000E36
:106510001D6E000E1C6E000E1B6E000E1A6E0CD04F
:10652000000E046E200E036E13C005F014C006F0BA
:1065300086EC31F01A4A1B2A1C501A5C1B50800A48
:10654000196E1D50800A1958D8A0EAD70101E1B18F
:106550000AD015C00CF016C00DF013C00EF014C018
:106560000FF013EC38F015C001F016C002F069EC22
:1065700039F01C500124136E1D500220146E1200BD
:10658000086EC7B4FED7C5CF04F01F0E0416D8A4FA
:10659000F8D7C580C5B0FED70850020DF328096EA4
:1065A00009C0C9FFC7B4FED7C5BC1200000E0B6EF0
:1065B000000E0A6E25D0C586C5B6FED70A50012446
:1065C000D96E0B500220DA6EC9CFDFFFFF0E046ECA
:1065D000FF0E056E0350066E076A0450062605502E
:1065E00007220A50061806E10B500718D8A402D05B
:1065F000C58A01D0C59AC588C5B8FED70A4A0B2AF4
:106600000350046E056A04500A5C05500B58D8A06C
:10661000D2D7C584C5A41200FDD70101B46FC7B499
:10662000FED7C5CFB2F11F0E0101B217D8A4F7D71C
:10663000B451B425B56FC580C5B0FED7B5C1C9FF8B
:10664000C7B4FED7C5BC2ED0000E0101B66F26D050
:10665000B651AF25B26F000EB021B36FB2C1F6FFD5
:10666000B3C1F7FF000EF86E0F0EF76403D00800F9
:10667000F55005D0F6CFE1FFF7CFE2FFE750C96E46
:10668000C7B4FED7C5AC08D0600E0101A96F100ECB
:10669000AA6F7EEC39F006D00101B62BB151B65D80
:1066A000D8A0D6D7C584C5A41200FDD70001BD6F00
:1066B000C7B4FED7C5CFBBF01F0E0001BB17D8A4CF
:1066C000F7D7BD51BD25BE6FC580C5B0FED7BEC0D2
:1066D000C9FFC7B4FED7C5BC2ED0000E0001BF6FE6
:1066E00026D0BF51B825BB6F000EB921BC6FBBC00F
:1066F000F6FFBCC0F7FF000EF86E0F0EF76403D074
:106700000800F55005D0F6CFE1FFF7CFE2FFE750E4
:10671000C96EC7B4FED7C5AC08D0600E0001AC6F1F
:10672000100EAD6FA6EC39F006D00001BF2BBA51A8
:10673000BF5DD8A0D6D7C584C5A41200FDD7000E72
:1067400001010015086F000E0115096F800E02157A
:106750000A6F7F0E03150B6F085109110A110B11F7
:10676000D8A408D0000E006F000E016F000E026F5B
:10677000000E036F000E0415086F000E0515096F5B
:10678000800E06150A6F7F0E07150B6F0851091151
:106790000A110B11D8A408D0000E046F000E056F6B
:1067A000000E066F000E076F045100190AE1055133
:1067B000011907E10651021904E107510319D8B480
:1067C00002D0D8901200D8801200000E0114096E79
:1067D000000E02140A6E800E03140B6E7F0E04145A
:1067E0000C6E09500A100B100C10D8A408D0000E23
:1067F000016E000E026E000E036E000E046E000E9F
:106800000514096E000E06140A6E800E07140B6E36
:106810007F0E08140C6E09500A100B100C10D8A42F
:1068200008D0000E056E000E066E000E076E000EFC
:10683000086E055001180AE10650021807E10750DA
:10684000031804E108500418D8B402D0D8901200FC
:10685000D8801200000E0101056F03AF06D0026D53
:10686000031FD8B0032B010E056F01AF06D0006DDA
:10687000011FD8B0012B010E051B000E076F000E83
:10688000066F02510311D8B41CD0010E046F04D05E
:10689000D89002370337042B03AFFAD7D8900637C6
:1068A00007370251005D03510159D8A005D00251AC
:1068B000005F0351015B0681D89003330233042F3C
:1068C000EDD70551D8B404D0066D071FD8B0072BFB
:1068D00006C100F107C101F11200000E066E04AE00
:1068E00006D0036C041ED8B0042A010E066E02AE58
:1068F00006D0016C021ED8B0022A010E061A000E44
:10690000086E000E076E03500410D8B41CD0010EA0
:10691000056E04D0D89003360436052A04AEFAD7A3
:10692000D890073608360350015C04500258D8A0AE
:1069300005D00350015E0450025A0780D8900432FB
:106940000332052EEDD70650D8B404D0076C081ECC
:10695000D8B0082A07C001F008C002F01200880E63
:10696000F66E740EF76E000EF86E02EEBAF010EED0
:106970001DF00900F5CFEEFFE550E150FAE1660E9B
:10698000F66E750EF76E000EF86E01EEFCF010EE6E
:1069900004F00900F5CFEEFFE550E150FAE16E0E8C
:1069A000F66E750EF76E000EF86E0900F5CFFEF06C
:1069B0000900F5CFFFF002EE00F0BA0EEE6AE8062D
:1069C000FDE101EED7F0250EEE6AE806FDE10001DB
:1069D000FD6BFC6B5F905F920001E1EF2FF09D9AE1
:1069E0004A0E0101006F640E016F94EC3AF09D981D
:1069F0007C0E0101006F720E016F8FEC3AF0080EF1
:106A0000B86E900EAB6E240EAC6E8A0EAF6E000E9A
:106A1000B06E740E0101006F750E016F9EEC3AF0BE
