:0400000058EF00F0C5
:100008005982FACF01F0FBCF02F0D9CF03F0DACF53
:1000180004F0F2AC12EF00F014EF00F04EEF00F035
:100028009DA819EF00F01BEF00F031EF00F09EA83B
:1000380020EF00F022EF00F031EF00F002D82FEFB0
:1000480000F00500FA6E00017451FD6E7551FE6EE8
:10005800FF6AFA5012004EEF00F09DAA36EF00F04A
:1000680038EF00F04EEF00F09EAA3DEF00F03FEFB2
:1000780000F04EEF00F002D84CEF00F00500FA6EE9
:1000880000017251FD6E7351FE6EFF6AFA50120044
:100098004EEF00F004C0DAFF03C0D9FF02C0FBFF37
:0C00A80001C0FAFF59921100A5EF0EF004
:101000000046656A6C2069206C6165736E696E6765
:1010100020616620646174610D0A00536B72697609
:10102000657220646174613A202523202D20256398
:101030000A0D00536B72697665723A2061647265BD
:0B1040007373653A2025640A0D000060
:10104C0024C03CF025C03DF026C03EF027C03FF048
:10105C0028C040F029C041F02AC042F02BC043F018
:10106C0043BE3BEF08F03EEF08F0010E3FEF08F0F7
:10107C00000E3A6E3B6A3A503B10D8B448EF08F079
:10108C004AEF08F05AEF08F0431E421E411E401E64
:10109C003F1E3E1E3D1E3C6C000E3D223E223F225A
:1010AC004022412242224322000169BF60EF08F036
:1010BC0062EF08F063EF08F06A9369BF70EF08F015
:1010CC00695106E16805D8B06EEF08F070EF08F0D2
:1010DC0076EF08F0000E376E010E366E7AEF08F0E0
:1010EC0068C036F069C037F066C038F067C039F0B8
:1010FC003A503B10D8A485EF08F087EF08F08EEF3C
:10110C0008F06AA58CEF08F08EEF08F091EF08F06C
:10111C003806D8A03906000E456E1F0E446E000E20
:10112C00976F15EF09F04406D8A04506780E4424B5
:10113C00D96E000E4520DA6E3CC005F03DC006F0BD
:10114C003EC007F03FC008F040C009F041C00AF0B3
:10115C0042C00BF043C00CF00A0E0D6E000E0E6E6A
:10116C00000E0F6E000E106E000E116E000E126E41
:10117C00000E136E000E146E98EC0BF005C02CF0E4
:10118C0006C02DF007C02EF008C02FF009C030F0BB
:10119C000AC031F00BC032F00CC033F02CC017F089
:1011AC002EC018F0EDEC0EF01750300FDF6E360637
:1011BC00D8A037063806D8A039063CC005F03DC08B
:1011CC0006F03EC007F03FC008F040C009F041C037
:1011DC000AF042C00BF043C00CF00A0E0D6E000E6C
:1011EC000E6E000E0F6E000E106E000E116E000EC5
:1011FC00126E000E136E000E146ED4EC0AF005C0C5
:10120C003CF006C03DF007C03EF008C03FF009C0FE
:10121C0040F00AC041F00BC042F00CC043F045BE98
:10122C0020EF09F0455008E14404D8A020EF09F064
:10123C0022EF09F053EF09F03C503D103E103F10E7
:10124C004010411042104310D8A42FEF09F031EF99
:10125C0009F099EF08F037BE3EEF09F0375006E180
:10126C003604D8B03CEF09F03EEF09F099EF08F0E6
:10127C0039BE49EF09F0395008E13804D8A049EFDC
:10128C0009F04BEF09F053EF09F000016AB351EF8D
:10129C0009F053EF09F099EF08F03A503B10D8A43D
:1012AC005AEF09F05CEF09F064EF09F000016AA550
:1012BC0062EF09F064EF09F082EF09F04406D8A060
:1012CC0045063A503B10D8A46EEF09F070EF09F0C8
:1012DC0076EF09F0000E356E2B0E346E7AEF09F0B6
:1012EC00000E356E2D0E346E780E4424D96E000E21
:1012FC004520DA6E34C0DFFF22C017F023C018F08F
:10130C00780E4424196E000E45201A6E38C01BF05E
:10131C0039C01CF0D7EC0CF017C022F018C023F029
:10132C00120048C0D9FF49C0DAFFDECFF6FFDDCF8F
:10133C00F7FFF86A0800F550250AD8A4A8EF09F0C1
:10134C00AAEF09F0B7EF0AF048C0D9FF49C0DAFF9D
:10135C00DE2A000EDD22000E0001676F000E666FA4
:10136C0066C06AF067C06BF068696969000EA16FAE
:10137C00000EA06F09EF0AF06A8148C0D9FF49C07E
:10138C00DAFFDE2A000EDD2209EF0AF06A83C3EFD2
:10139C0009F06A85C3EF09F06A87C3EF09F06A891F
:1013AC00C3EF09F0000EA16F010EA06F09EF0AF058
:1013BC0048C0D9FF49C0DAFFDECFF6FFDDCFF7FF1B
:1013CC00F86A0800F5504C6E4D6A4D50000AD8B4BE
:1013DC00F2EF09F0D8EF09F04C50200AD8B4D2EF54
:1013EC0009F0030AD8B4D5EF09F0080AD8B4CFEF46
:1013FC0009F0060AD8B4C2EF09F01D0AD8B4CCEF34
:10140C0009F0D8EF09F0A051A111D8B410EF0AF0EF
:10141C0012EF0AF0DEEF09F06AA117EF0AF019EFEC
:10142C000AF01AEF0AF06A9348C0D9FF49C0DAFFF4
:10143C00DECFF6FFDDCFF7FFF86A0800F550640A3F
:10144C00D8B42BEF0AF02DEF0AF040EF0AF048C0A9
:10145C00D9FF49C0DAFFDECFF6FFDDCFF7FFF86A20
:10146C000800F550690AD8A43EEF0AF040EF0AF0E4
:10147C0080EF0AF048C0D9FF49C0DAFFDE2A000E1F
:10148C00DD224AC0D9FF4BC0DAFFDFCF4CF0020E91
:10149C00DE26DFCF4DF0000EDD224CC0D9FF4DC053
:1014AC00DAFFDECF98F0DDCF99F0000E99BFFF0E7A
:1014BC009A6F9B6F9C6F9D6F9E6F9F6F46C022F0C3
:1014CC0047C023F098C024F099C025F09AC026F0AC
:1014DC009BC027F09CC028F09DC029F09EC02AF02C
:1014EC009FC02BF026EC08F022C046F023C047F03A
:1014FC00D3EF0AF048C0D9FF49C0DAFFDECFF6FFC0
:10150C00DDCFF7FFF86A0800F550250AD8A491EF53
:10151C000AF093EF0AF0AAEF0AF048C0D9FF49C0CD
:10152C00DAFFDE2A000EDD22000E086E250E076E95
:10153C0046C009F047C00AF09AEC0DF0000E476E59
:10154C00010E466ED3EF0AF048C0D9FF49C0DAFF4E
:10155C00DE2A000EDD22000E476E000E466ED3EF23
:10156C000AF048C0D9FF49C0DAFFDECFF6FFDDCF65
:10157C00F7FFF86A0800F550076E086A46C009F0D4
:10158C0047C00AF09AEC0DF048C0D9FF49C0DAFF09
:10159C00DE2A000EDD22A4EF0AF01200000E166EF9
:1015AC0014BEDDEF0AF0DBEF0AF0EFEF0AF0141EC9
:1015BC00131E121E111E101E0F1E0E1E0D6C000E81
:1015CC000E220F2210221122122213221422010E9B
:1015DC00166E0CBEF6EF0AF0F4EF0AF008EF0BF003
:1015EC000C1E0B1E0A1E091E081E071E061E056C6D
:1015FC00000E06220722082209220A220B220C22A4
:10160C00010E161A20EE17F0070EDE6AE806FDE250
:10161C000D500E100F10101011101210131014107A
:10162C00D8B41BEF0BF01DEF0BF06FEF0BF0010EAE
:10163C00156E2BEF0BF0D8900D360E360F3610368C
:10164C001136123613361436152A14AE30EF0BF051
:10165C0032EF0BF021EF0BF0D89017361836193605
:10166C001A361B361C361D361E360D50055C0E50B8
:10167C0006580F500758105008581150095812505E
:10168C000A5813500B5814500C58D8A050EF0BF0AC
:10169C0052EF0BF063EF0BF00D50055E0E50065A37
:1016AC000F50075A1050085A1150095A12500A5A22
:1016BC0013500B5A14500C5A1780D8901432133202
:1016CC001232113210320F320E320D32152E32EF21
:1016DC000BF01650D8B475EF0BF077EF0BF087EFDB
:1016EC000BF01E1E1D1E1C1E1B1E1A1E191E181E64
:1016FC00176C000E182219221A221B221C221D22E2
:10170C001E2217C005F018C006F019C007F01AC049
:10171C0008F01BC009F01CC00AF01DC00BF01EC065
:10172C000CF01200000E166E0CBEA1EF0BF09FEF2A
:10173C000BF0B3EF0BF00C1E0B1E0A1E091E081E3D
:10174C00071E061E056C000E06220722082209221F
:10175C000A220B220C22010E166E14BEBAEF0BF0ED
:10176C00B8EF0BF0CAEF0BF0141E131E121E111E55
:10177C00101E0F1E0E1E0D6C000E0E220F221022BC
:10178C0011221222132214220D500E100F101010C1
:10179C001110121013101410D8B4D7EF0BF0D9EF9E
:1017AC000BF021EF0CF0010E156EE7EF0BF0D8905B
:1017BC000D360E360F3610361136123613361436E9
:1017CC00152A14AEECEF0BF0EEEF0BF0DDEF0BF097
:1017DC000D50055C0E5006580F5007581050085805
:1017EC001150095812500A5813500B5814500C58D9
:1017FC00D8A003EF0CF005EF0CF015EF0CF00D502A
:10180C00055E0E50065A0F50075A1050085A1150C8
:10181C00095A12500A5A13500B5A14500C5AD89099
:10182C00143213321232113210320F320E320D3298
:10183C00152EEEEF0BF01650D8B427EF0CF029EF65
:10184C000CF039EF0CF00C1E0B1E0A1E091E081EA4
:10185C00071E061E056C000E06220722082209220E
:10186C000A220B220C2205C005F006C006F007C0A8
:10187C0007F008C008F009C009F00AC00AF00BC054
:10188C000BF00CC00CF012000001B16F0001B15153
:10189C00B125B26FC7B455EF0CF057EF0CF050EF09
:1018AC000CF0C5CF52F01F0E5216D8A460EF0CF0FE
:1018BC0062EF0CF050EF0CF0C580C5B068EF0CF087
:1018CC006AEF0CF063EF0CF0B2C0C9FF6BBC71EFA8
:1018DC000CF073EF0CF06CEF0CF0330E0001A86FF2
:1018EC00100EA96FB2C0AAF0AB6B74EC0FF06BBC0E
:1018FC0082EF0CF084EF0CF0CEEF0CF0000E000138
:10190C00B36FC5EF0CF0C5BC8EEF0CF090EF0CF084
:10191C00BDEF0CF0B351AE25D96E000EAF21DA6ECF
:10192C00DF50C96E1B0EA86F100EA96FB351AE25F8
:10193C00D96E000EAF21DA6EDF50526E5250AA6F84
:10194C00AB6BB351AE25D96E000EAF21DA6EDF5002
:10195C00536E5350AC6FAD6B74EC0FF0D00E526EE7
:10196C00CA0EE82EFED7522EFCD7C3EF0CF0010E98
:10197C00A86F100EA96F74EC0FF00001B32BB051CF
:10198C00B35DD8A0CCEF0CF0CEEF0CF089EF0CF0DF
:10199C00C584C5B4D4EF0CF0D6EF0CF0CFEF0CF03F
:1019AC00120000016AA1DDEF0CF0DFEF0CF0E9EFA3
:1019BC000CF019C010F01AC011F017C012F018C0BA
:1019CC0013F0CBEC0EF01CBEEEEF0CF0F0EF0CF0C5
:1019DC00F6EF0CF01BC020F01CC021F0FAEF0CF05D
:1019EC00000E216E000E206E000E1F6E000E1E6E7D
:1019FC000CEF0DF0000E086E200E076E17C009F0EC
:101A0C0018C00AF09AEC0DF01E4A1F2A20501E5CDA
:101A1C001F50800A1D6E2150800A1D58D8A019EF46
:101A2C000DF01BEF0DF000EF0DF000016AB121EF8E
:101A3C000DF023EF0DF02DEF0DF019C010F01AC0C2
:101A4C0011F017C012F018C013F0CBEC0EF019C047
:101A5C0005F01AC006F02DEC0FF020500524176E7F
:101A6C0021500620186E1200000E5524D96EDA6A29
:101A7C00010EDA22000EDF6EABA447EF0DF049EF3A
:101A8C000DF05EEF0DF0000E5524D96EDA6A010EE2
:101A9C00DA220101DF8202D85EEF0DF00500FA6E4A
:101AAC0000017051FD6E7151FE6EFF6AFA5012000A
:101ABC00ABA263EF0DF065EF0DF07AEF0DF0000EB9
:101ACC005524D96EDA6A010EDA220101DF8402D8BC
:101ADC007AEF0DF00500FA6E00016E51FD6E6F513C
:101AEC00FE6EFF6AFA501200000E5524D96EDA6AA7
:101AFC00010EDA22DF50D8B486EF0DF088EF0DF02E
:101B0C0097EF0DF002D895EF0DF00500FA6E00017D
:101B1C006C51FD6E6D51FE6EFF6AFA50120099EF1A
:101B2C000DF05EEC0FF0120009500A10D8B4A1EFC2
:101B3C000DF0A3EF0DF0ACEF0DF009500A10D8A486
:101B4C00AAEF0DF0ACEF0DF0B1EF0DF00750B9ECC2
:101B5C000FF0E4EF0DF020EE04F00950D9260A50F6
:101B6C00DA22DE50DE10D8B4BEEF0DF0C0EF0DF06F
:101B7C00DBEF0DF020EE04F00950D9260A50DA22E2
:101B8C0010EE02F00950E1260A50E222DE50E65C2B
:101B9C00E650800A0F6EDE50800A0F58D8B0D9EF8D
:101BAC000DF0DBEF0DF0E4EF0DF020EE02F009503C
:101BBC00D9260A50DA22DE2A000EDD2212009D9A66
:101BCC00740E056E1A0E066EC3EC0FF09D981A0E6D
:101BDC00056E1E0E066EBEEC0FF0080EB86E900E63
:101BEC00AB6E240EAC6E820EAF6E060EB06EBE0ED9
:101BFC00056E1F0E066ECDEC0FF0AE0E056E1F0EB1
:101C0C00066EC8EC0FF0B40E056E1F0E066ED2EC0D
:101C1C000FF0000E0001766F000E586E000E576E1E
:101C2C00400E566E000E556E000E546E000E776F01
:101C3C009D8A1200A4C04EF0A5C04FF0000E00010A
:101C4C00656F000E646F3EEF0EF0A2C046F0A3C0AD
:101C5C0047F04E0E486E000E496EA6C04AF0A7C063
:101C6C004BF097EC09F04650000164274750652370
:101C7C004EC0F6FF4FC0F7FFF86A0800F550000998
:101C8C00D8A44BEF0EF04DEF0EF02BEF0EF064C01E
:101C9C00A2F065C0A3F01200056E5650D8B459EFEF
:101CAC000EF05BEF0EF053EF0EF09DB860EF0EF000
:101CBC0062EF0EF066EF0EF005C0ADFF7BEF0EF09D
:101CCC009D98800E5824D96EDA6A010EDA2205C06E
:101CDC00DFFF582A3F0E586476EF0EF078EF0EF0C7
:101CEC007AEF0EF0000E586E56069D881200B0EC7E
:101CFC000FF0F28EF28CA4EC0FF0C90E0001AE6F57
:101D0C00000EAF6F040EB06F3C0E4AEC0CF0CD0E13
:101D1C000001AE6F000EAF6F020EB06F3C0E4AECBE
:101D2C000CF0B70E0001AE6F000EAF6F110EB06F5E
:101D3C003C0E4AEC0CF0A1EF0EF058EF00F02C0E1C
:101D4C00F66E1F0EF76E000EF86E00EEB4F010EE8D
:101D5C001BF00900F5CFEEFFE550E150FAE101EE82
:101D6C0000F0C00EEE6AE806FDE100EE60F0380E01
:101D7C00EE6AE806FDE1586A576A566A556A546A73
:101D8C005990599200017DEF0EF0000E166E000E68
:101D9C00156EDCEF0EF014C007F0086A12C009F0E3
:101DAC0013C00AF09AEC0DF0154A162A155010249F
:101DBC00D96E16501120DA6EDF50146E1450D8A460
:101DCC00EAEF0EF0ECEF0EF0D1EF0EF0120018BEB1
:101DDC00FAEF0EF0185006E11704D8B0F8EF0EF039
:101DEC00FAEF0EF008EF0FF017C019F018C01AF048
:101DFC00191E1A1E194A1A2A19C017F01AC018F0FF
:101E0C000CEF0FF017C017F018C018F01200400EAE
:101E1C00566013EF0FF015EF0FF02BEF0FF0800E55
:101E2C005724D96EDA6A010EDA22DF50AD6E572ACA
:101E3C003F0E576424EF0FF026EF0FF028EF0FF052
:101E4C00000E576E562A2CEF0FF09D98120005C00D
:101E5C0007F006C008F035EF0FF0054A062A05C05A
:101E6C00D9FF06C0DAFFDF50D8A43FEF0FF041EFE7
:101E7C000FF033EF0FF00750055C056E0850065855
:101E8C00066E1200000E896E000E8A6E000E8B6EAE
:101E9C009268DF0E936EBF0E946E3C0E0F013A6F7C
:101EAC001F0E396F2F0E386F000E616EF18E1200FF
:101EBC00400E5524D96EDA6A010EDA22AECFDFFF5E
:101ECC00552A3F0E55646DEF0FF06FEF0FF071EF69
:101EDC000FF0000E556E0001772B1200AA0E506EFB
:101EEC00000E516E000E0001A26F000EA36FA8C071
:101EFC00A4F0A9C0A5F0500EA66F000EA76F20ECA1
:101F0C000EF01200700ED36E040ED26E400E9B6E4D
:101F1C00D2AE93EF0FF095EF0FF08EEF0FF01200A3
:101F2C0000C03C4048656C6C6F20576F726C64212C
:0B1F3C00202020200000380C06008050
:101F4800948694880F013A973A999F0EC86E280E86
:101F5800C66E000EC56E1200DDEC0FF048EC0FF0F7
:101F680088EC0FF0E5EC0DF01200066E065052EC0E
:101F78000EF0120005C074F006C075F0120005C01E
:101F880072F006C073F0120005C06EF006C06FF064
:101F9800120005C070F006C071F0120005C06CF0A8
:101FA80006C06DF01200AB98AB8812005EEC0FF023
:081FB8001200D09E120012007D
:020000040020DA
:08000000FFFFFFFFFFFFFFFF00
:020000040030CA
:0E000000FF281F3CFFBF85FF0FC00FE00F4021
:00000001FF
