:020000040000FA
:0400000034EF00F0E9
:100008005B82FACF01F0FBCF02F0D9CF03F0DACF51
:1000180004F0F2AC1BD09DB89EA809D001D816D028
:100028000500FA6E0001ED51FD6EEE510BD09DBA40
:100038009EAA0CD001D80AD00500FA6E0001EB5137
:10004800FD6EEC51FE6EFF6AFA50120004C0DAFF32
:1000580003C0D9FF02C0FBFF01C0FAFF5B92110089
:100068006BEF16F0000E00017B6F000E7A6F34C044
:100078008CF035C08DF036C08EF037C08FF08FAF62
:1000880016D0000E7B6F010E7A6F8CC005F08DC004
:1000980006F08EC007F08FC008F02CEC19F005C0F0
:1000A8008CF006C08DF007C08EF008C08FF0000EEF
:1000B8000001936F000E926FE1C07FF0E2C080F004
:1000C8007A517B11D8A402D057A413D07A517B114E
:1000D800D8A404D0000E656F2B0E03D0000E656FF8
:1000E8002D0E646F64C017F1924B932B7F07D8A035
:1000F80080078CC005F08DC006F08EC007F08FC059
:1001080008F056EC13F005040610D8A44CD0BF0E26
:10011800396EFF0E3A6E38503B6E3C6A39503B26BA
:100128003A503C223C5006E11A0E3B5CD8B002D053
:10013800010E01D0000E0001666F676B66516711F2
:10014800D8B40DD0170E9225056E010E9321066EB8
:10015800E60E076EFF0E086E78EC17F00CD0170E3F
:100168009225056E010E9321066EEE0E076EFF0EA8
:10017800086E78EC17F00001FD0E7F27FF0E802334
:1001880032C017F033C018F0170E196E010E1A6E30
:100198007FC01BF080C01CF055EC15F017C032F082
:1001A80018C033F012008CC005F08DC006F08EC068
:1001B80007F08FC008F056EC13F005500610D8A4CD
:1001C80035D0BF0E396EFF0E3A6E38503B6E3C6A22
:1001D80039503B263A503C223C5006E11A0E3B5C13
:1001E800D8B002D0010E01D0000E0001686F696B13
:1001F80068516911D8B40DD0170E9225056E010EFD
:100208009321066EEA0E076EFF0E086E78EC17F063
:10021800B2D7170E9225056E010E9321066EF20EC7
:10022800076EFF0E086E78EC17F0A5D7000E0001D8
:10023800946F000E956F800E966F3F0E976F000EAD
:10024800916F000E906F8CC005F08DC006F08EC0C7
:1002580007F08FC008F0000E096E000E0A6E000E3F
:100268000B6E000E0C6EA0EC15F0D8A01ED076D048
:1002780094C005F095C006F096C007F097C008F046
:10028800000E096E000E0A6E200E0B6E410E0C6EEB
:10029800B8EC08F005C094F006C095F007C096F0D9
:1002A80008C097F00001904B912B8CC01EF08DC0B8
:1002B8001FF08EC020F08FC021F0000E096E000ED6
:1002C8000A6E200E0B6E410E0C6E94C005F095C0A0
:1002D80006F096C007F097C008F0B8EC08F005C023
:1002E80022F006C023F007C024F008C025F0EEEC89
:1002F80012F0D8A01FD0BCD794C005F095C006F066
:1003080096C007F097C008F0000E096E000E0A6E3E
:10031800200E0B6E410E0C6EE7EC0BF005C094F04E
:1003280006C095F007C096F008C097F00001900746
:10033800D8A091078CC01EF08DC01FF08EC020F091
:100348008FC021F094C022F095C023F096C024F00D
:1003580097C025F0EEEC12F0D8A0CED738C00BF03D
:100368000C6ACAEC17F00B500001816F81C07EF057
:10037800670E8119D8A419D0E351E411D8A404D088
:10038800000EE46F010EE36FE4BF05D0E45108E10D
:10039800E305D8B005D0000E7D6F060E7C6F08D03F
:1003A800E3C07CF0E4C07DF003D0E4AFF9D7F3D725
:1003B800670E8119D8A422D091AF06D0FC0E905DAB
:1003C800FF0E9159D8A018D0FF0E396EFF0E3A6E65
:1003D8007CC03BF07DC03CF039503B263A503C2273
:1003E80090513B5C3C50800A3D6E9151800A3D58CB
:1003F800D8A002D0660E01D0650E7E6F7CC074F066
:100408007DC075F0670E8119D8A405D0660E7E19D7
:10041800D8B491AF02D0744B752B660E7E19D8A450
:1004280016D091AF0CD0000E946F000E956F800E11
:10043800966F3F0E976F000E916F000E906F670ECC
:100448008119D8B404D09051742791517523000EA6
:100458008B6F000E8A6F8CC082F08DC083F08EC0C7
:1004680084F08FC085F094C060F095C061F096C0AC
:1004780062F097C063F07BD082C005F083C006F0BD
:1004880084C007F085C008F094C009F095C00AF050
:1004980096C00BF097C00CF0E7EC0BF005C01EF00F
:1004A80006C01FF007C020F008C021F064EC0FF070
:1004B8001EC086F01FC087F020C088F021C089F0D8
:1004C80086C005F087C006F088C007F089C008F02C
:1004D800BCEC13F005C078F006C079F082C01EF0BD
:1004E80083C01FF084C020F085C021F094C009F0BB
:1004F80095C00AF096C00BF097C00CF086C005F0C6
:1005080087C006F088C007F089C008F0B8EC08F08A
:1005180005C022F006C023F007C024F008C025F06B
:1005280015EC18F01EC082F01FC083F020C084F0C4
:1005380021C085F094C005F095C006F096C007F07C
:1005480097C008F0000E096E000E0A6E200E0B6EA2
:10055800410E0C6EE7EC0BF005C094F006C095F068
:1005680007C096F008C097F000018A4B8B2B745196
:100578008A5D8B51800A396E7551800A3958D8A026
:100588007BD794C005F095C006F096C007F097C0D9
:1005980008F0000E096E000E0A6EA00E0B6E400EDB
:1005A8000C6EB8EC08F005C086F006C087F007C0EE
:1005B80088F008C089F082C01EF083C01FF084C094
:1005C80020F085C021F086C022F087C023F088C0C3
:1005D80024F089C025F0EEEC12F0D8B003D0000E5C
:1005E800000118D082C005F083C006F084C007F06F
:1005F80085C008F086C009F087C00AF088C00BF0F3
:1006080089C00CF0A0EC15F0D8A00BD0000178B18F
:1006180008D0000E866F000E876F000E886F000EE0
:10062800896F8CC005F08DC006F08EC007F08FC0B2
:1006380008F086C009F087C00AF088C00BF089C0AE
:100648000CF061EC0AF005C082F006C083F007C028
:1006580084F008C085F060C094F061C095F062C075
:1006680096F063C097F0650E00017E19D8B405D0E6
:1006780090C076F091C077F004D0000E776F000E2E
:10068800766F000E736F000E726F000E716F000EA2
:10069800706F000E8B6F000E8A6FC7D082C005F096
:1006A80083C006F084C007F085C008F094C009F044
:1006B80095C00AF096C00BF097C00CF0E7EC0BF071
:1006C80005C01EF006C01FF007C020F008C021F0CA
:1006D80064EC0FF01EC086F01FC087F020C088F0C1
:1006E80021C089F086C005F087C006F088C007F0F1
:1006F80089C008F0BCEC13F005C078F006C079F0AA
:1007080057B80DD0000178517911D8A408D0670ED8
:100718008119D8B477AF03D0704B712B3AD0000150
:1007280072517311D8B477AF22D0170E9225D96EB3
:10073800010E9321DA6E2E0EDF6E924B932B7F07FC
:10074800D8A08007000E736F010E726F10D0170EBD
:100758009225D96E010E9321DA6E300EDF6E924B20
:10076800932B7F07D8A080077007D8A07107705116
:100778007111D8A4ECD7170E9225D96E010E9321CA
:10078800DA6E7851300FDF6E924B932B7F07D8A02B
:10079800800782C01EF083C01FF084C020F085C08F
:1007A80021F094C009F095C00AF096C00BF097C0EC
:1007B8000CF086C005F087C006F088C007F089C035
:1007C80008F0B8EC08F005C022F006C023F007C016
:1007D80024F008C025F015EC18F01EC082F01FC0E8
:1007E80083F020C084F021C085F094C005F095C046
:1007F80006F096C007F097C008F0000E096E000ECC
:100808000A6E200E0B6E410E0C6EE7EC0BF005C065
:1008180094F006C095F007C096F008C097F0000164
:100828007607D8A077078A4B8B2B74518A5D8B513A
:10083800800A396E7551800A3958D8B008D093BFEC
:100848002DD7935104E14B0E925DD8A027D7725152
:100858007311D8B457A80AD0170E9225D96E010E75
:100868009321DA6E2E0EDF6E924B932B170E922584
:10087800D96E010E9321DA6E000EDF6E650E7E19B9
:10088800D8A47ED4000E8B6F4F0E8A6F170E8A2560
:10089800D96E010E8B21DA6E000EDF6E000E7B6FB3
:1008A800000E7A6F91AF08D0000E7B6F010E7A6F41
:1008B800906D911FD8B0912B000E7D6F020E7C6F4A
:1008C8002BD08A07D8A08B07170E8A25D96E010E60
:1008D8008B21DA6E90C005F091C006F0000E086E0C
:1008E8000A0E076EE1EC16F00550300FDF6E90C06F
:1008F80005F091C006F0000E086E0A0E076E29EC8E
:1009080016F005C090F006C091F000017C07D8A051
:100918007D077F07D8A0800790519111D8A4D1D71F
:100928007DBF05D07D51CDE17C05D8B0CAD78A07F7
:10093800D8A08B077A517B11D8A404D0000E6B6F16
:100948002B0E03D0000E6B6F2D0E6A6F170E8A25C3
:10095800D96E010E8B21DA6E6AC0DFFF7F07D8A03F
:1009680080078A07D8A08B07BF0E396EFF0E3A6E34
:1009780038503B6E3C6A39503B263A503C223C503A
:1009880006E11A0E3B5CD8B002D0010E01D0000E71
:100998006E6F6F6B6E516F11D8A404D0000E6D6F1F
:1009A800650E03D0000E6D6F450E6C6F170E8A250D
:1009B800D96E010E8B21DA6E6CC0DFFF7F07D8A0DD
:1009C8008007170E9225056E010E9321066E170EED
:1009D8008A25076E010E8B21086E78EC17F0C4EF9C
:1009E80000F04BC0D9FF4CC0DAFFDECFF6FFDDCFF9
:1009F800F7FFF86A0800F550250AD8A49AD34BC027
:100A0800D9FF4CC0DAFFDE2A000EDD22000E0001FD
:100A1800E26F000EE16FE1C057F0E2C058F0E36901
:100A2800E469000EAB6F000E14D057804BC0D9FF9D
:100A38004CC0DAFFDE2A000EDD222FD05782F6D70F
:100A48005784F4D75786F2D75788F0D7000EAB6F84
:100A5800010EAA6F22D04BC0D9FF4CC0DAFFDECFFF
:100A6800F6FFDDCFF7FFF86A0800F5504F6E506AC1
:100A78005050000AD8A4EAD74F50200AD8B4E2D779
:100A8800030AD8B4E1D7080AD8B4DAD7060AD8B422
:100A9800CCD71D0AD8B4D2D7D9D7AA51AB11D8B45C
:100AA800DAD757B057924BC0D9FF4CC0DAFFDECF28
:100AB800F6FFDDCFF7FFF86A0800F5502A0AD8A438
:100AC80023D04BC0D9FF4CC0DAFFDE2A000EDD224E
:100AD8004DC0D9FF4EC0DAFFDFCF4FF0020EDE2641
:100AE800DFCF50F0000EDD224FC0D9FF50C0DAFF33
:100AF800DECFE1F0DDCFE2F0E2AF41D05780E16D2B
:100B0800E21FD8B0E22B3BD04BC0D9FF4CC0DAFF74
:100B1800DECF0CF0DDCF0DF03FEC10F00CC0E1F0B3
:100B28000DC0E2F007D04BC0D9FF4CC0DAFFDE2A77
:100B3800000EDD22D00E4F6EFF0E506E4BC0D9FF57
:100B48004CC0DAFFDECFF6FFDDCFF7FFF86A08000A
:100B5800F550516E526A4F50512650505222525001
:100B680006E10A0E515CD8B002D0010E01D0000E89
:100B78000001AC6FAD6BAC51AD11D8A4D4D74BC04C
:100B8800D9FF4CC0DAFFDECFF6FFDDCFF7FFF86AFA
:100B98000800F5502E0AD8A470D0000EE46F000E9D
:100BA800E36F4BC0D9FF4CC0DAFFDE2A000EDD220E
:100BB8004BC0D9FF4CC0DAFFDECFF6FFDDCFF7FF21
:100BC800F86A0800F5502A0AD8A41CD04BC0D9FFEF
:100BD8004CC0DAFFDE2A000EDD224DC0D9FF4EC020
:100BE800DAFFDFCF4FF0020EDE26DFCF50F0000E27
:100BF800DD224FC0D9FF50C0DAFFDECFE3F0DDCFF2
:100C0800E4F03BD04BC0D9FF4CC0DAFFDECF0CF08C
:100C1800DDCF0DF03FEC10F00CC0E3F00DC0E4F0B8
:100C280007D04BC0D9FF4CC0DAFFDE2A000EDD2208
:100C3800D00E4F6EFF0E506E4BC0D9FF4CC0DAFF7E
:100C4800DECFF6FFDDCFF7FFF86A0800F550516EEA
:100C5800526A4F50512650505222525006E10A0E05
:100C6800515CD8B002D0010E01D0000E0001AE6F69
:100C7800AF6BAE51AF11D8A4D4D74BC0D9FF4CC07D
:100C8800DAFFDECFF6FFDDCFF7FFF86A0800F55090
:100C98000B6E0C6ACAEC17F00B500001B66FB65118
:100CA800D8B437D04BC0D9FF4CC0DAFFDECF4FF0F5
:100CB800DDCF50F0010E4F26000E50224FC0F6FF38
:100CC80050C0F7FFF86A0800F5500B6E0C6ACAECC2
:100CD80017F00B500001B76FB751D8B41AD04BC0FA
:100CE800D9FF4CC0DAFFDECF4FF0DDCF50F0020E57
:100CF8004F26000E50224FC0F6FF50C0F7FFF86A8B
:100D08000800F5500B6E0C6ACAEC17F00B50000186
:100D1800B86F4BC0D9FF4CC0DAFFDECFF6FFDDCF8E
:100D2800F7FFF86A0800F550630AD8A426D04BC02C
:100D3800D9FF4CC0DAFFDE2A000EDD224DC0D9FFF4
:100D48004EC0DAFFDFCF4FF0020EDE26DFCF50F0C5
:100D5800000EDD224FC0D9FF50C0DAFFDF50B96F57
:100D680049C022F04AC023F0B9C024F0A2EC17F021
:100D780022C049F023C04AF012004BC0D9FF4CC032
:100D8800DAFFDECFF6FFDDCFF7FFF86A0800F5508F
:100D9800640AD8B40ED04BC0D9FF4CC0DAFFDECFFE
:100DA800F6FFDDCFF7FFF86A0800F550690AD8A406
:100DB8003FD04BC0D9FF4CC0DAFFDE2A000EDD223F
:100DC8004DC0D9FF4EC0DAFFDFCF4FF0020EDE264E
:100DD800DFCF50F0000EDD224FC0D9FF50C0DAFF40
:100DE800DECF98F0DDCF99F0000E99BFFF0E9A6F15
:100DF8009B6F9C6F9D6F9E6F9F6F49C022F04AC08A
:100E080023F098C024F099C025F09AC026F09BC022
:100E180027F09CC028F09DC029F09EC02AF09FC0F2
:100E28002BF02BEC0DF022C049F023C04AF0120041
:100E3800660EB619D8A440D04BC0D9FF4CC0DAFF13
:100E4800DECFF6FFDDCFF7FFF86A0800F5CFB9F07F
:100E58004BC0D9FF4CC0DAFFDE2A000EDD224DC0A0
:100E6800D9FF4EC0DAFFDFCF4FF0040EDE26DFCF0A
:100E780050F0000EDD224FC0D9FF50C0DAFFDECFA0
:100E8800B2F0DECFB3F0DECFB4F0DECFB5F049C0BC
:100E980032F04AC033F0B2C034F0B3C035F0B4C059
:100EA80036F0B5C037F0B9C038F036EC00F032C0D3
:100EB80049F033C04AF01200B60E056E000E066EF9
:100EC800F60E076EFF0E086E000E0A6E020E096E11
:100ED80019EC14F005500610D8A458D04BC0D9FF0F
:100EE8004CC0DAFFDECF4FF0DDCF50F0010E4F26B9
:100EF800000E50224FC0F6FF50C0F7FFF86A0800F6
:100F0800F5CFB9F0BF0E4F6EFF0E506E4BC0D9FF34
:100F18004CC0DAFFDECFF6FFDDCFF7FFF86A080036
:100F2800F550516E526A4F5051265050522252502D
:100F380006E11A0E515CD8B002D0010E01D0000EA5
:100F48000001B06FB16BB051B1114DC0D9FF4EC0A7
:100F5800DAFFDFCF4FF0040EDE26DFCF50F0000EB1
:100F6800DD224FC0D9FF50C0DAFFDECFB2F0DECFAE
:100F7800B3F0DECFB4F0DECFB5F0020E4BC0D9FF30
:100F88004CC0DAFFDE26000EDD2281D74BC0D9FF28
:100F98004CC0DAFFDECFF6FFDDCFF7FFF86A0800B6
:100FA800F550730AD8A42AD04BC0D9FF4CC0DAFF39
:100FB800DE2A000EDD224DC0D9FF4EC0DAFFDFCF9A
:100FC8004FF0020EDE26DFCF50F0000EDD224FC0BC
:100FD800D9FF50C0DAFFDECFA8F0DDCFA9F049C0B5
:100FE80010F04AC011F0A8C012F0A9C013F0BCEC70
:100FF80011F010C049F011C04AF012004BC0D9FFDF
:101008004CC0DAFFDECFF6FFDDCFF7FFF86A080045
:10101800F550780AD8B40ED04BC0D9FF4CC0DAFFCF
:10102800DECFF6FFDDCFF7FFF86A0800F550580A63
:10103800D8A44FD04BC0D9FF4CC0DAFFDECFF6FFA3
:10104800DDCFF7FFF86A0800F5CFB9F04BC0D9FF3C
:101058004CC0DAFFDE2A000EDD224DC0D9FF4EC09B
:10106800DAFFDFCF4FF0020EDE26DFCF50F0000EA2
:10107800DD224FC0D9FF50C0DAFFDECF51F0DDCFFF
:1010880052F051C0A0F052C0A1F00001A26BA36BB6
:10109800A46BA56BA66BA76B49C022F04AC023F0CE
:1010A800A0C024F0A1C025F0A2C026F0A3C027F05C
:1010B800A4C028F0A5C029F0A6C02AF0A7C02BF02C
:1010C800B9C02CF04DEC0EF022C049F023C04AF014
:1010D80012004BC0D9FF4CC0DAFFDECFF6FFDDCFE0
:1010E800F7FFF86A0800F550250AD8A416D04BC0B7
:1010F800D9FF4CC0DAFFDE2A000EDD22000E086E92
:10110800250E076E49C009F04AC00AF06DEC14F0CC
:10111800000E4A6E010E496E12004BC0D9FF4CC03A
:10112800DAFFDE2A000EDD22000E4A6E000E496E3E
:1011380012004BC0D9FF4CC0DAFFDECFF6FFDDCF7F
:10114800F7FFF86A0800F550076E086A49C009F009
:101158004AC00AF06DEC14F04BC0D9FF4CC0DAFF5E
:10116800DE2A000EDD22D4D70850800B116E0850FD
:101178000824176E07BE17801750D8B40DD017284B
:10118800D8A408D0000E056E000E066E000E076E7D
:10119800000E086E078E08D0000E056E000E066E53
:1011A800000E076E000E086E0C50800B111A0C50C2
:1011B8000C24126E0BBE12801250D8B40DD0122817
:1011C800D8A408D0000E096E000E0A6E000E0B6E31
:1011D800000E0C6E0B8E08D0000E096E000E0A6E03
:1011E800000E0B6E000E0C6E1250D8B403D01750C0
:1011F800D8A409D0000E056E000E066E000E076E0C
:10120800000E086E12000B500502F3CF1CF0F4CF4D
:101218001DF01C50136E146A156A166A1D50186E5C
:10122800196A1A6A1B6A0A500602F3CF1CF0F4CF37
:101238001DF01C501326000E1422152216221D50D4
:101248001826000E19221A221B2209500702F3CF72
:101258001CF0F4CF1DF01C501326000E142215228A
:1012680016221D501826000E19221A221B2215C0FC
:1012780016F014C015F013C014F0136A09500602D2
:10128800F3CF1CF0F4CF1DF01C5013261D50142270
:10129800000E1522000E16220A500502F3CF1CF08C
:1012A800F4CF1DF01C5013261D501422000E1522D9
:1012B800000E162215C016F014C015F013C014F055
:1012C800136A09500502F3CF1CF0F4CF1DF01C502F
:1012D80013261D501422000E1522000E16220B5044
:1012E8000602F3CF1CF0F4CF1DF01C5018261D5039
:1012F8001922000E1A22000E1B220A500702F3CFF1
:101308001CF0F4CF1DF01C5018261D501922000E99
:101318001A22000E1B220B500702F3CF1CF0F4CF49
:101328001DF01C500D6E1D500E6E0F6A106A0FC016
:1013380010F00EC00FF00DC00EF00D6A0D501826FB
:101348000E5019220F501A2210501B2213C00DF0F4
:1013580014C00EF015C00FF016C010F0190E05D00D
:10136800D89010320F320E320D32E82EF9D70D50C8
:1013780018260E5019220F501A2210501B2215C081
:1013880016F014C015F013C014F0136A125017C0E9
:101398000DF00E6A0D26000E0E22820E0D241C6E14
:1013A800FF0E0E201D6E0FD0D890183619361A363B
:1013B8001B3616BE1880D8901336143615361636D6
:1013C8001C06D8A01D061AAEEFD7000E126E16AE78
:1013D80017D0FF0E13140D6EFF0E14140E6EFF0EB1
:1013E80015140F6E7F0E1614106E0D500E100F1080
:1013F8001010D8B403D0010E126E02D018B0FBD76B
:101408001250D8B41FD0010E1826000E19221A2225
:101418001B221BA017D018C00DF019C00EF01AC05F
:101428000FF01BC010F0103410320F320E320D3294
:101438000DC018F00EC019F00FC01AF010C01BF044
:101448001C4A1D2A1DBE0DD01D5003E11C28D8A022
:1014580008D0000E186E000E196E800E1A6E7F0EE0
:1014680020D01DBE05D01D500EE11C04D8B00BD0F5
:10147800000E186E000E196E000E1A6E000E1B6E0E
:10148800000E116E0FD01CC017F0FF0E1816FF0EBD
:1014980019167F0E1A16000E1B1617B01A8ED89042
:1014A80017301B6E11501B1218C005F019C006F03A
:1014B8001AC007F01BC008F012000850800B116E0C
:1014C80008500824136E07BE13801350D8B40DD0EB
:1014D8001328D8A408D0000E056E000E066E000E64
:1014E800076E000E086E078E06D0000E056E000E01
:1014F800066E000E076E000E086E0C50800B126E02
:1015080011501218D8A4118C0C500C24126E0BBE5A
:1015180012801250D8B40DD01228D8A408D0000ECA
:10152800096E000E0A6E000E0B6E000E0C6E0B8E0E
:1015380006D0000E096E000E0A6E000E0B6E000E2D
:101548000C6E1350125CD8B022D011AC02D0800EB1
:10155800111A13C014F012C013F014C012F005C011
:1015680014F009C005F014C009F006C014F00AC050
:1015780006F014C00AF007C014F00BC007F014C03E
:101588000BF008C014F00CC008F014C00CF0000EEA
:10159800146E135012C00DF00E6A0D5E000E0E5A36
:1015A8000EBE2CD00E5004E11A0E0D5CD8A026D029
:1015B8000550061007100810D8B402D0010E01D04B
:1015C800000E146E000E056E000E066E000E076EFD
:1015D800000E086E12C013F015D014A005D0D890D4
:1015E80014300109146E02D0D890143205B0148E4C
:1015F80008340832073206320532132A1250135CB7
:10160800D8A0EBD711BC28D01350D8A409D0000E0D
:10161800056E000E066E000E076E000E086E1200B4
:10162800095005260A5006220B5007220C500822A2
:1016380008A071D014A005D0D89014300109146EF8
:1016480002D0D890143205B0148E0834083207320C
:1016580006320532132A5FD00950055C0A50065835
:101668000B5007580850800A0D6E0C50800A0D5810
:10167800D8B025D00550095C0D6E06500A580E6E7C
:1016880007500B580F6E08500C58106EFF0E0D24A3
:10169800056EFF0E0E20066EFF0E0F20076EFF0E62
:1016A8001020086E800E111A146C1450D8A40FD094
:1016B800010E0526000E06220722082208D009502E
:1016C800055E0A50065A0B50075A0C50085A055026
:1016D800061007100810D8A41CD01450D8A419D08C
:1016E800000E056E000E066E000E076E000E086EE8
:1016F8001200D890053606360736083614BE05801F
:1017080014A002D0D88001D0D89014361350D8A491
:10171800130607AEEED7000E126E14AE0BD014C02F
:101728000DF07F0E0D16D8B403D0010E126E02D044
:1017380005B0FBD71250D8B420D0010E0526000EF4
:1017480006220722082208A018D005C00DF006C0FE
:101758000EF007C00FF008C010F0103410320F322E
:101768000E320D320DC005F00EC006F00FC007F0A6
:1017780010C008F01328D8A4132A1328D8B403D00B
:101788001350D8A40DD0000E056E000E066E000E84
:10179800076E000E086E1350D8A402D0000E116E0A
:1017A80013A002D0078E01D0079ED8901330086E80
:1017B80011BE088E05C005F006C006F007C007F088
:1017C80008C008F012000850800B156E0850082455
:1017D8001C6E07BE1C801C50D8B40DD01C28D8A481
:1017E80008D0000E056E000E066E000E076E000E85
:1017F800086E078E06D0000E056E000E066E000EEF
:10180800076E000E086E0C50800B151A0C500C2435
:101818001D6E0BBE1D801D50D8B40DD01D28D8A438
:1018280008D0000E096E000E0A6E000E0B6E000E38
:101838000C6E0B8E06D0000E096E000E0A6E000E9E
:101848000B6E000E0C6E09500A100B100C10D8A469
:1018580017D0000E056E000E066E000E076E000E05
:10186800086E800E07127F0E08121550081205C068
:1018780005F006C006F007C007F008C008F012001F
:101888001C50D8A409D0000E056E000E066E000E7E
:10189800076E000E086E12001D501CC00DF00E6A77
:1018A8000D5E000E0E5A7F0E0D24166E000E0E20D1
:1018B800176E05C011F006C012F007C013F008C07B
:1018C80014F0000E056E000E066E000E076E000E78
:1018D800086E000E186E000E196E000E1A6E000EBD
:1018E8001B6E000E1D6E28D01D50D8B411D0D89094
:1018F8001136123613361436D890053606360736A2
:1019080008361BBE0580D890183619361A361B368D
:101918000950115C0A5012580B5013580C501458A7
:10192800D8A009D01B8C0950115E0A50125A0B50CE
:10193800135A0C50145A1D2A190E1D64D5D711506C
:10194800121013101410D8B411D018800FD0D890DA
:1019580005360636073608361BBE0580D890183679
:1019680019361A361B361606D8A0170607AEEFD753
:10197800000E1D6E1BAE17D0FF0E18140D6EFF0E55
:1019880019140E6EFF0E1A140F6E7F0E1B14106EB4
:101998000D500E100F101010D8B403D0010E1D6E8C
:1019A80002D005B0FBD71D50D8B41FD0010E0526B4
:1019B800000E06220722082208A017D005C00DF045
:1019C80006C00EF007C00FF008C010F01034103237
:1019D8000F320E320D320DC005F00EC006F00FC0EA
:1019E80007F010C008F0164A172A17BE10D0175073
:1019F80003E11628D8A00BD0000E176E1668000E4B
:101A0800056E000E066E000E076E000E086E17BEFD
:101A180005D0175011E11604D8B00ED0000E176E7D
:101A2800000E166E000E056E000E066E000E076E96
:101A3800000E086E000E156E16C01CF01CA002D019
:101A4800078E01D0079ED8901C30086E0ED724C090
:101A58003CF025C03DF026C03EF027C03FF028C02E
:101A680040F029C041F02AC042F02BC043F043AEF9
:101A780002D0010E01D0000E3A6E3B6A3A503B107C
:101A8800D8B410D0431E421E411E401E3F1E3E1EAB
:101A98003D1E3C6C000E3D223E223F224022412248
:101AA800422243220001E4AF5792E4BF05D0E4513B
:101AB80008E1E305D8B005D0000E376E010E366E8A
:101AC80004D0E3C036F0E4C037F0E1C038F0E2C03B
:101AD80039F03A503B10D8A402D057A403D03806A6
:101AE800D8A03906000E456E4F0E446E000E010157
:101AF800666F7CD04406D8A04506170E4424D96EDC
:101B0800010E4520DA6E3CC005F03DC006F03EC02F
:101B180007F03FC008F040C009F041C00AF042C0D9
:101B28000BF043C00CF00A0E0D6E000E0E6E000E88
:101B38000F6E000E106E000E116E000E126E000E6B
:101B4800136E000E146E5CEC12F005C02CF006C08B
:101B58002DF007C02EF008C02FF009C030F00AC0E1
:101B680031F00BC032F00CC033F02CC017F02EC08F
:101B780018F0CBEC18F01750300FDF6E3606D8A0EF
:101B880037063806D8A039063CC005F03DC006F037
:101B98003EC007F03FC008F040C009F041C00AF05D
:101BA80042C00BF043C00CF00A0E0D6E000E0E6E14
:101BB800000E0F6E000E106E000E116E000E126EEB
:101BC800000E136E000E146E18EC11F005C03CF0F8
:101BD80006C03DF007C03EF008C03FF009C040F025
:101BE8000AC041F00BC042F00CC043F045BE1FD004
:101BF800455003E14404D8A01AD03C503D103E1093
:101C08003F104010411042104310D8A473D737BE7C
:101C180005D0375002E13604D8B06CD739BE07D0AA
:101C2800395003E13804D8A002D057B263D73A50EC
:101C38003B10D8A402D057A417D04406D8A0450614
:101C48003A503B10D8A404D0000E356E2B0E03D0AA
:101C5800000E356E2D0E346E170E4424D96E010E0B
:101C68004520DA6E34C0DFFF22C017F023C018F019
:101C7800170E4424196E010E45201A6E38C01BF049
:101C880039C01CF055EC15F017C022F018C023F02D
:101C980012000001E4AF5792E4BF05D0E45108E117
:101CA800E305D8B005D0000E3A6E010E396E04D0A7
:101CB800E3C039F0E4C03AF0E1C03BF0E2C03CF0E8
:101CC80057A804D0FE0E3B26FF0E3C2224C03DF050
:101CD80025C03EF026C03FF027C040F028C041F0A4
:101CE80029C042F02AC043F02BC044F0000E466ED3
:101CF8004F0E456E000E0101666F93D04506D8A0C1
:101D080046060F0E3D14476E486A48BE08D0485034
:101D180004E10A0E475CD8A002D0570E01D0300E5D
:101D28004724476E000E4820486EBF0E2D6EFF0EEA
:101D38002E6E2C502F6E306A2D502F262E503022AA
:101D4800305006E11A0E2F5CD8B002D0010E01D037
:101D5800000E356E366A35503610D8B427D09F0E2F
:101D68002D6EFF0E2E6E200E47102F6E000E48109F
:101D7800306E2D502F262E503022305006E11A0E8C
:101D88002F5CD8B002D0010E01D0000E376E386A31
:101D980037503810D8B40AD047C00BF048C00CF000
:101DA800F0EC17F00BC047F00CC048F0170E4524B4
:101DB800D96E010E4620DA6E47C0DFFF3906D8A07B
:101DC8003A063B06D8A03C063DC02DF03EC02EF09A
:101DD8003FC02FF040C030F041C031F042C032F077
:101DE80043C033F044C034F0050E09D0D8903432E3
:101DF80033323232313230322F322E322D32E82E17
:101E0800F5D72DC03DF02EC03EF02FC03FF030C0BA
:101E180040F031C041F032C042F033C043F034C02A
:101E280044F046BE20D0465004E1020E455CD8A0DE
:101E38001AD03D503E103F10401041104210431040
:101E48004410D8A45BD73ABE05D03A5002E1390411
:101E5800D8B054D73CBE07D03C5003E13B04D8A0CF
:101E680002D057B24BD757A816D04506D8A0460679
:101E7800170E4524D96E010E4620DA6E2CC0DFFFFE
:101E88004506D8A04606170E4524D96E010E4620F1
:101E9800DA6E300EDF6E22C017F023C018F0170E6E
:101EA8004524196E010E46201A6E3BC01BF03CC03B
:101EB8001CF055EC15F017C022F018C023F01200E2
:101EC800D7C02EF0D8C02FF0D9C030F0DAC031F02A
:101ED8001EC02EF01FC02FF020C030F021C031F0FE
:101EE800810E226EFF0E236E2EC024F02FC025F027
:101EF80030C026F031C027F0180E05D0D890273210
:101F0800263225322432E82EF9D7245022242C6E8A
:101F1800000E23202D6E2DBE0FD02D5004E1170E7C
:101F28002C5CD8A009D01EC01EF01FC01FF020C016
:101F380020F021C021F012002DBE5ED02CC022F06E
:101F4800FF0E236EFF0E246E7F0E256E000E266E8A
:101F5800226601D007D02634263225322432233295
:101F6800222EF6D723C028F024C029F025C02AF055
:101F780026C02BF028502E14226E29502F14236EC1
:101F88002A503014246E2B503114256E2250231001
:101F980024102510D8B4C7D72EC022F02FC023F0A4
:101FA80030C024F031C025F0200E05D0D89025325D
:101FB800243223322232E82EF9D72250231024105B
:101FC8002510D8B408D028502E2629502F222A5060
:101FD80030222B503122281C226E291C236E2A1CE9
:101FE800246E2B1C256E22502E1623502F1624509B
:101FF80030162550311636D02EC022F02FC023F0CF
:1020080030C024F031C025F0200E05D0D8902532FC
:10201800243223322232E82EF9D7225023102410FA
:102028002510D8A408D0000E2E6E000E2F6E000EBC
:10203800306E000E16D0D8902E34226E2F34236EB8
:102048003034246E3134256E22502310241025108C
:10205800D8B408D0000E2E6E000E2F6E800E306E93
:10206800BF0E316E2EC01EF02FC01FF030C020F002
:1020780031C021F01200000E1A6E000E196E000E0B
:10208800136E000E126E02D00C4A0D2A010E186E45
:102098000CC0F6FF0DC0F7FF000EF86E0F0EF764C8
:1020A80003D00800F55005D0F6CFE9FFF7CFEAFFD7
:1020B800EF50200AD8B423D0F70E0E6EFF0E0F6E25
:1020C8000CC0F6FF0DC0F7FF000EF86E0F0EF76498
:1020D80003D00800F55005D0F6CFE9FFF7CFEAFFA7
:1020E800EF50106E116A0E5010260F501122115029
:1020F80004E1050E105CD8A002D0000E186E18C0BE
:1021080014F0156A14501510D8B408D0BDD7000EB5
:10211800136E010E126E0C4A0D2A46D00CC0F6FF43
:102128000DC0F7FF000EF86E0F0EF76403D008001D
:10213800F55005D0F6CFE9FFF7CFEAFFEF500E6E66
:102148000F6A0F50000AD8A42FD00E502B0AD8B40B
:10215800E2D7060AD8B4DBD727D019C005F01AC0D1
:1021680006F0000E086E0A0E076E83EC19F00CC01C
:10217800F6FF0DC0F7FF000EF86E0F0EF76403D0E0
:102188000800F55005D0F6CFE9FFF7CFEAFFEF508A
:102198000E6E0E50055E000E065A300E0524196E9E
:1021A800000E06201A6EB7D7D00E0E6EFF0E0F6EF9
:1021B8000CC0F6FF0DC0F7FF000EF86E0F0EF764A7
:1021C80003D00800F55005D0F6CFE9FFF7CFEAFFB6
:1021D800EF50106E116A0E5010260F501122115038
:1021E80006E10A0E105CD8B002D0010E01D0000E34
:1021F800166E176A16501710D8A4AFD712501310BE
:10220800D8A40DD019C00EF01AC00FF00E1E0F1E64
:102218000E4A0F2A0EC00CF00FC00DF0120019C0A4
:102228000CF01AC00DF01200000E166E14AE12D08B
:10223800141E131E121E111E101E0F1E0E1E0D6CD4
:10224800000E0E220F221022112212221322142213
:10225800010E166E0CAE12D00C1E0B1E0A1E091EA5
:10226800081E071E061E056C000E062207220822FD
:1022780009220A220B220C22010E161A20EE17F050
:10228800070EDE6AE806FDE20D500E100F10101062
:102298001110121013101410D8B446D0010E156E78
:1022A8000AD0D8900D360E360F3610361136123643
:1022B80013361436152A14AEF4D7D89017361836B4
:1022C80019361A361B361C361D361E360D50055C5F
:1022D8000E5006580F5007581050085811500958FA
:1022E80012500A5813500B5814500C58D8A011D03B
:1022F8000D50055E0E50065A0F50075A1050085AD6
:102308001150095A12500A5A13500B5A14500C5AA9
:102318001780D890143213321232113210320F3221
:102328000E320D32152EC9D71650D8B410D01E1E35
:102338001D1E1C1E1B1E1A1E191E181E176C000EB1
:10234800182219221A221B221C221D221E2217C003
:1023580005F018C006F019C007F01AC008F01BC035
:1023680009F01CC00AF01DC00BF01EC00CF01200D2
:1023780021EEE6F010EE15F0060EDBCFE3FFE806DF
:10238800FCE212C020F013C021F020502110D8A484
:1023980004D0150E206E000E216E20C005F021C05D
:1023A80006F038EC18F005C024F006C025F0E3C0AC
:1023B80022F0E4C023F023BE0ED02450225C235028
:1023C800800A146E2550800A1458D8B004D022C050
:1023D80024F023C025F024C022F025C023F0E1C05A
:1023E8001EF0E2C01FF057A00DD016D0000E086EE8
:1023F800200E076E10C009F011C00AF06DEC14F041
:10240800244A252A1E50245C2550800A146E1F5029
:10241800800A1458D8A0EAD7000E1D6E000E1C6E54
:102428001FD020C0F6FF21C0F7FF000EF86E0F0E78
:10243800F76403D00800F55005D0F6CFE9FFF7CFD1
:10244800EAFFEF50146E1450076E086A10C009F0C6
:1024580011C00AF06DEC14F0204A212A1C4A1D2AEA
:1024680022501C5C1D50800A146E2350800A145898
:10247800D8A0D7D757B00DD016D0000E086E200EB2
:10248800076E10C009F011C00AF06DEC14F0244A70
:10249800252A1E50245C2550800A146E1F50800A7D
:1024A8001458D8A0EAD724C010F025C011F01200A3
:1024B800000E166E0CAE12D00C1E0B1E0A1E091E44
:1024C800081E071E061E056C000E0622072208229B
:1024D80009220A220B220C22010E166E14AE10D00D
:1024E800141E131E121E111E101E0F1E0E1E0D6C22
:1024F800000E0E220F221022112212221322142261
:102508000D500E100F10101011101210131014107F
:10251800D8B43CD0010E156E0AD0D8900D360E36C0
:102528000F3610361136123613361436152A14AEF5
:10253800F4D70D50055C0E5006580F500758105030
:1025480008581150095812500A5813500B58145073
:102558000C58D8A010D00D50055E0E50065A0F50DA
:10256800075A1050085A1150095A12500A5A135053
:102578000B5A14500C5AD8901432133212321132AA
:1025880010320F320E320D32152ED3D71650D8B462
:1025980010D00C1E0B1E0A1E091E081E071E061E42
:1025A800056C000E06220722082209220A220B22A5
:1025B8000C2205C005F006C006F007C007F008C0E9
:1025C80008F009C009F00AC00AF00BC00BF00CC0F3
:1025D8000CF01200000E1E14266E000E1F14276E3B
:1025E800800E2014286E7F0E2114296E2650271085
:1025F80028102910D8A408D0000E1E6E000E1F6ED9
:10260800000E206E000E216E000E2214266E000EA3
:102618002314276E800E2414286E7F0E2514296E2D
:102628002650271028102910D8A408D0000E226E92
:10263800000E236E000E246E000E256E21AE09D00A
:102648001E6C1F1ED8B01F2A201ED8B0202A800E4C
:10265800215625AE09D0226C231ED8B0232A241E69
:10266800D8B0242A800E2556000E1E1A000E1F1AF6
:10267800000E201A800E211A000E221A000E231AAC
:10268800000E241A800E251A22501E5C23501F5853
:102698002450205825502158D8B002D0D890120084
:1026A800D8801200DBC00FF0DCC010F0DDC011F0E4
:1026B800DEC012F005C00FF006C010F007C011F020
:1026C80008C012F00FC009F010C00AF011C00BF0DA
:1026D80012C00CF0180E05D0D8900C320B320A320A
:1026E8000932E82EF9D709500D6E0E6A0D500E10FA
:1026F800D8A419D0D8900F34096E10340A6E11344A
:102708000B6E12340C6E09500A100B100C10D8A462
:1027180005D0000E066E020E056E1200000E066E43
:10272800030E056E12000D280E10D8A41CD00FC081
:1027380009F010C00AF011C00BF012C00CF0090E1D
:10274800D89009360A360B360C36E82EF9D70950D8
:102758000A100B100C10D8A402D0010E01D0000EE4
:10276800056E066A1200000E066E040E056E120053
:10277800073408340E6E0E50D8A409D0000E056E2A
:10278800000E066E000E076E000E086E120005C0E1
:1027980009F006C00AF007C00BF008C00CF0200EC4
:1027A80005D0D8900C320B320A320932E82EF9D70C
:1027B80009500D6E078EFF0E0516FF0E0616FF0E4A
:1027C8000716000E0816960E0E5E0EAE0DD00E50B1
:1027D800800A970FD8A0D2D7D8900832073206328D
:1027E80005320E3EF9D70DD01F0E0E6407D0C6D79E
:1027F800D89005360636073608360E060E50D8A489
:10280800F7D70D50D8B408D0081E071E061E056C51
:10281800000E06220722082205C005F006C006F0B1
:1028280007C007F008C008F0120005C00CF006C089
:102838000DF007C00EF008C00FF00906D8A00A0670
:1028480009280FE10A28D8A40CD0000E066E000E45
:10285800056E12000C4A0D2A0E4A0F2A0906D8A046
:102868000A060CC0D9FF0DC0DAFFDF50D8B41ED05D
:102878000EC0F6FF0FC0F7FFF86A0800F550000910
:10288800D8B414D009500A10D8B410D00CC0D9FF4D
:102898000DC0DAFFDF500B6E0EC0F6FF0FC0F7FF5A
:1028A800F86A0800F5500B18D8B4D4D70CC0D9FF73
:1028B8000DC0DAFFDF500B6E0EC0F6FF0FC0F7FF3A
:1028C800F86A0800F5500B5C056E066AD8A0060683
:1028D800120009500A10D8B404D009500A10D8A41C
:1028E80004D00750C5EC19F0120020EE04F009508E
:1028F800D9260A50DA22DE50DE10D8B416D020EEDF
:1029080004F00950D9260A50DA2210EE02F00950D4
:10291800E1260A50E222DE50E65CE650800A0F6E9D
:10292800DE50800A0F58D8B0120020EE02F009508D
:10293800D9260A50DA22DECF0BF0DDCF0CF009C021
:10294800D9FF0AC0DAFFDECF0DF0DDCF0EF00B5055
:102958000D24D96E0C500E20DA6E07C0DFFF20EE72
:1029680002F00950D9260A50DA22DE2A000EDD22AA
:102978001200B3EC19F0A6EC16F0F28EF28CF40EFD
:102988000001D66F820ED56F050EE82EFED7D52F23
:10299800FCD7D62FFAD7F40E0001D66F820ED56F6A
:1029A800050EE82EFED7D52FFCD7D62FFAD7A7ECE1
:1029B80019F0FB0E0001D26F010ED36F040ED46F15
:1029C8003C0EE5EC15F0FD0E0001D26F000ED36F42
:1029D800020ED46F3C0EE5EC15F0ED0E0001D26F3F
:1029E800010ED36F0D0ED46F3C0EE5EC15F0090EF9
:1029F8000001D66F1E0ED56FE40EE82EFED7D52F38
:102A0800FCD7D62FFAD700F0FFD7000E5A24D96E7C
:102A1800DA6A020EDA22000EDF6EABA414D0000EC2
:102A28005A24D96EDA6A020EDA220201DF8201D84C
:102A38000AD00500FA6E0001E951FD6EEA51FE6EFA
:102A4800FF6AFA501200ABA214D0000E5A24D96EB5
:102A5800DA6A020EDA220201DF8401D80AD0050000
:102A6800FA6E0001E751FD6EE851FE6EFF6AFA50FA
:102A78001200000E5A24D96EDA6A020EDA22DF50EA
:102A8800D8B40CD001D812000500FA6E0001E55147
:102A9800FD6EE651FE6EFF6AFA50120096EC19F0D0
:102AA800120057A00AD019C010F01AC011F017C0B0
:102AB80012F018C013F079EC18F01CBE05D01BC03A
:102AC80020F01CC021F004D0000E216E000E206EF4
:102AD800000E1F6E000E1E6E0CD0000E086E200E2B
:102AE800076E17C009F018C00AF06DEC14F01E4A02
:102AF8001F2A20501E5C1F50800A1D6E2150800A1C
:102B08001D58D8A0EAD757B00AD019C010F01AC07B
:102B180011F017C012F018C013F079EC18F019C0B2
:102B280005F01AC006F038EC18F020500524176E8E
:102B380021500620186E1200000E05140D6E000EAE
:102B480006140E6E800E07140F6E7F0E0814106E9A
:102B58000D500E100F101010D8A408D0000E056EDE
:102B6800000E066E000E076E000E086E000E0914A9
:102B78000D6E000E0A140E6E800E0B140F6E7F0E73
:102B88000C14106E0D500E100F101010D8A408D091
:102B9800000E096E000E0A6E000E0B6E000E0C6E13
:102BA800095005180AE10A50061807E10B500718E2
:102BB80004E10C500818D8B402D0D8901200D8807C
:102BC80012000201E86F0201E851E825E96FC7B475
:102BD800FED7C5CF55F01F0E5516D8A4F8D7C58017
:102BE800C5B0FED7E9C2C9FFC7B4FED76BBC29D0B0
:102BF800000E0201EA6F1FD0C5BC1BD0EA510001CC
:102C0800D225556E000ED321566E55C0F6FF56C01C
:102C1800F7FF000EF86E0F0EF76403D00800F550AA
:102C280005D0F6CFE9FFF7CFEAFFEF50C96EC7B47A
:102C3800FED70201EA2B0001D4510201EA5DD8A0B7
:102C4800DBD7C584C5A41200FDD7000E0A6E08AEF6
:102C580006D0076C081ED8B0082A010E0A6E06AE08
:102C680006D0056C061ED8B0062A010E0A1A000EF8
:102C78000C6E000E0B6E07500810D8B41CD0010E55
:102C8800096E04D0D89007360836092A08AEFAD754
:102C9800D8900B360C360750055C08500658D8A05B
:102CA80005D00750055E0850065A0B80D8900832A8
:102CB8000732092EEDD70A50D8B404D00B6C0C1E7D
:102CC800D8B00C2A0BC005F00CC006F01200320E6A
:102CD800F66E2E0EF76E000EF86E01EE99F010EEFD
:102CE80066F00900F5CFEEFFE550E150FAE1C60EB7
:102CF800F66E330EF76E000EF86E00EEF7F010EE7B
:102D080009F00900F5CFEEFFE550E150FAE102EED7
:102D180000F0E80EEE6AE806FDE101EE00F0990E1B
:102D2800EE6AE806FDE100EED7F0200EEE6AE8064E
:102D3800FDE15A6A596A586A576A5B905B920001CA
:102D4800BDEF14F09D9A120E056E2A0E066ECFEC9A
:102D580019F09D98B20E056E320E066ECAEC19F087
:102D6800080EB86E900EAB6E240EAC6E150EAF6EDC
:102D7800010EB06EE00E056E330E066ED9EC19F03A
:102D8800D00E056E330E066ED4EC19F0D60E056E15
:102D9800330E066EDEEC19F0000E0001F26F000E25
:102DA800F66F000EF56F400EF46F000E5A6E000EAF
:102DB800596E000EF36F9D8A1200000E0A6E06AE61
:102DC80006D0056C061ED8B0062A010E0A6E08AE9B
:102DD80004D0076C081ED8B0082A07500810D8B4C9
:102DE80018D0010E096E04D0D89007360836092A83
:102DF80008AEFAD70750055C08500658D8A004D08A
:102E08000750055E0850065AD89008320732092E36
:102E1800F1D70A50D8B404D0056C061ED8B0062ADB
:102E280005C005F006C006F012008078400E0E11AD
:102E3800111F1111008070400E0A0E010F110F00B2
:102E48008068400E13151515190E008060400000AB
:102E58000E1315190E008058400F14141F14141760
:102E68000080504000000E050F140F008040400CF9
:102E780012120C00000000286E756C6C2900404886
:102E8800656C6C6F20576F726C64210000380C06FB
:102E9800BCC053F0BDC054F0000E0001E06F000E3E
:102EA800DF6F13D0BAC049F0BBC04AF0530E4B6E67
:102EB800000E4C6EBEC04DF0BFC04EF0F5EC04F0F5
:102EC80049500001DF274A50E02353C0F6FF54C0A1
:102ED800F7FFF86A0800F5500009D8A4E3D7DFC067
:102EE800BAF0E0C0BBF0120007C00BF008C00CF04D
:102EF80005C00DF006C00EF00B50096E0C500A6E9E
:102F08000B4A0C2A09C0F6FF0AC0F7FF000EF86E3C
:102F18000DC0D9FF0EC0DAFF0D4A0E2A0F0EF76456
:102F280003D00800F55005D0F6CFE9FFF7CFEAFF48
:102F3800EF50DF6EDF50D8B41200DED70001E15148
:102F4800E211D8A405D0E1C025F0E2C026F006D0F1
:102F5800FF0EE125256EFF0EE221266E24C017F133
:102F6800000E0101186F22C017F023C018F0170EC9
:102F7800196E010E1A6E25C01BF026C01CF055EC08
:102F880015F017C022F018C023F01200BF0E0D6E06
:102F9800FF0E0E6E0BC00FF00CC010F00D500F2678
:102FA8000E501022105006E11A0E0F5CD8B002D055
:102FB800010E01D0000E116E126A11501210D8B411
:102FC80006D0200E0B100B6E0C500C6E12000BC0AE
:102FD8000BF00CC00CF012009F0E0D6EFF0E0E6E63
:102FE8000BC00FF00CC010F00D500F260E50102221
:102FF800105006E11A0E0F5CD8B002D0010E01D0B5
:10300800000E116E126A11501210D8B405D05F0E5E
:103018000B140B6E0C6A12000BC00BF00CC00CF0FA
:103028001200000E221A000E231A000E241A800E17
:10303800251A1EC005F01FC006F020C007F021C0E9
:1030480008F022C009F023C00AF024C00BF025C004
:103058000CF061EC0AF005C01EF006C01FF007C0B6
:1030680020F008C021F0120005C007F006C008F0E3
:1030780002D0054A062A05C0F6FF06C0F7FF000E73
:10308800F86E0F0EF76403D00800F55005D0F6CFA0
:10309800E9FFF7CFEAFFEF500009D8A4EAD70750B5
:1030A800055C056E08500658066E1200010E0B6E80
:1030B800200E05180610D8B414D0F70E076EFF0EB0
:1030C800086E05C009F006C00AF007500926085026
:1030D8000A220A5004E1050E095CD8A002D0000EAD
:1030E8000B6E0BC005F0066A1200000E166E000E7D
:1030F800156E0BD014C007F0086A12C009F013C08F
:103108000AF06DEC14F0154A162A15501024D96EE1
:1031180016501120DA6EDF50146E1450D8B4120015
:10312800E9D7056E0001F451D8B4FCD79DB803D097
:1031380005C0ADFF10D09D98800EF625D96EDA6ACD
:10314800020EDA2205C0DFFFF62B3F0EF66502D02D
:10315800000EF66FF4079D8812009F0E076EFF0E93
:10316800086E200E0510096E000E06100A6E075034
:10317800092608500A220A5006E11A0E095CD8B03E
:1031880002D0010E01D0000E056E066A120018BEAC
:1031980005D0185010E11704D8B00DD017C019F099
:1031A80018C01AF0191E1A1E194A1A2A19C017F03F
:1031B8001AC018F0120017C017F018C018F0120043
:1031C8009F0E076EFF0E086E05C009F006C00AF0D4
:1031D8000750092608500A220A5006E11A0E095C0F
:1031E800D8B002D0010E01D0000E056E066A12009A
:1031F800BF0E076EFF0E086E05C009F006C00AF084
:103208000750092608500A220A5006E11A0E095CDE
:10321800D8B002D0010E01D0000E056E066A120069
:10322800D00E076EFF0E086E05C009F006C00AF042
:103238000750092608500A220A5006E10A0E095CBE
:10324800D8B002D0010E01D0000E056E066A120039
:103258000550061007100810D8B408D0000E051A3B
:10326800000E061A000E071A800E081A05C005F08F
:1032780006C006F007C007F008C008F01200000EEC
:10328800896E000E8A6E000E8B6E9268DF0E936E4A
:10329800BF0E946E3C0E0F013A6F1F0E396F2F0E42
:1032A800386F000E616EF18E1200400E0001F4615D
:1032B80010D0800EF525D96EDA6A020EDA22DF50B8
:1032C800AD6EF52B3F0EF56502D0000EF56FF42BB1
:1032D80012009D981200C20E0001D06F000ED16F2F
:1032E800000EBA6F000EBB6FC0C0BCF0C1C0BDF00D
:1032F800D00EBE6F000EBF6F4CEC17F012000550D9
:103308000702F3CF09F0F4CF0AF005500802F35092
:103318000A2606500702F3500A2609C005F00AC01B
:1033280006F01200400E5A24D96EDA6A020EDA222A
:10333800AECFDFFF5A2A3F0E5A6402D0000E5A6EF3
:103348000001F32B1200948694880F013A973A995A
:103358009F0EC86E280EC66E000EC56E1200EEECEB
:1033680019F043EC19F0BCEC19F0A6EC16F01200B9
:10337800700ED36E040ED26E400E9B6ED2BE12003B
:10338800FDD7066E065095EC18F0120005C0EDF05A
:1033980006C0EEF0120005C0EBF006C0ECF012001B
:1033A80005C0E7F006C0E8F0120005C0E9F006C065
:1033B800EAF0120005C0E5F006C0E6F01200044588
:0733C8003C0100C00080037E
:1033D000AB98AB88120096EC19F01200D09E120048
:0233E0001200D9
:10FDC600004048756D69643A2020202025202020B7
:10FDD60020200040546D703A78782C786F202020CF
:10FDE60020202020000042005840DF008A684000A2
:10FDF6000000E056341205011020402D00C6008494
:10FE0600E3E52F6E2F722A2A2A2A2A2A2A2A2A2A42
:10FE16002A524541442A2A2A2A2A2A2A2A2A2A2AC8
:10FE26002A2A2A2A2A2A0A0D00257320642E20252A
:10FE36003032582E20257320323025303258206B30
:10FE46006C2E20253032583A253032580D0A005390
:10FE56006B72697665722074696C20616472657371
:10FE660073653A2025303258202D2025640A0D006E
:10FE7600536B726976657220646174613A2025302D
:10FE86003278202D202564202D2025630A0D00467A
:10FE9600656A6C2069206C6165736E696E672061A6
:10FEA6006620646174610D0A00536B72697665722F
:10FEB6003A20616472657373653A2025640A0D0001
:10FEC6004861722073656E64742073746172740A7B
:10FED6000D004861722073656E64742073746F70D0
:10FEE6000A0D0042757373656E6572206B6C6172E4
:10FEF6000A0D0053656E6474653A204E41434B0A01
:10FF06000D004048756D69643A20252E3166252519
:10FF1600004040546D703A20252E31664300005350
:10FF2600656E6474653A2041434B0A0D004C616569
:10FF36007374653A2025640A0D0053657074656D07
:10FF46006265720000446563656D62657200004E0D
:10FF56006F76656D6265720000536F656E646167EA
:10FF660000004C6F657264616700005469727364C7
:10FF760061670000546F72736461670000466562D2
:10FF86007275617200004F6B746F62657200004695
:10FF9600726564616700004D616E64616700004FC1
:10FFA6006E7364616700004A616E7561720000419C
:10FFB60075677573740000417072696C00004D615D
:10FFC60072747300004A756C6900004A756E6900A8
:10FFD600004D616A000025730D0A00253032480085
:10FFE600494E46004E414E00696E66006E616E00D7
:0AFFF6006C66003F00002573000058
:020000040020DA
:08000000FFFFFFFFFFFFFFFF00
:020000040030CA
:0E000000FF281F3CFFBF85FF0FC00FE00F4021
:00000001FF
