:020000040000FA
:0400000034EF00F0E9
:100008005B82FACF01F0FBCF02F0D9CF03F0DACF51
:1000180004F0F2AC1BD09DB89EA809D001D816D028
:100028000500FA6E0001E551FD6EE6510BD09DBA50
:100038009EAA0CD001D80AD00500FA6E0001E3513F
:10004800FD6EE451FE6EFF6AFA50120004C0DAFF3A
:1000580003C0D9FF02C0FBFF01C0FAFF5B92110089
:10006800BDEF09F0000E00019B6F000E9C6F000EA3
:100078009D6F000E9E6F000E9A6F000E7D6F000E32
:100088007E6F000E7F6F270EE0EC04F0F90E000182
:100098007D6F000E7E6F040E7F6F270E07EC07F052
:1000A800F9C08EF03F0E00018E178E51906F8F6B46
:1000B8008FC096F090C097F0000E97BFFF0E986F14
:1000C800996FFA519627000E97239823992396C083
:1000D80005F097C006F098C007F099C008F0640EC4
:1000E800096E000E0A6E000E0B6E000E0C6ECDEC43
:1000F8000AF005C096F006C097F007C098F008C04F
:1001080099F096C005F097C006F098C007F099C01E
:1001180008F0FE0E096E3F0E0A6E000E0B6E000E02
:100128000C6E7CEC09F005C096F006C097F007C08D
:1001380098F008C099F000019651F1EC08F0000120
:10014800FB518F6F8E6B8EC09BF08FC09CF0000EA2
:100158009CBFFF0E9D6F9E6FFC519B27000E9C233A
:100168009D239E23020E8E6F9E359E339D339C33B6
:100178009B338E2FF9D79BC005F09CC006F09DC01D
:1001880007F09EC008F0740E096E400E0A6E000E4D
:100198000B6E000E0C6ECDEC0AF005C09BF006C08D
:1001A8009CF007C09DF008C09EF09BC005F09CC065
:1001B80006F09DC007F09EC008F0FE0E096E3F0EC7
:1001C8000A6E000E0B6E000E0C6E9CEC07F005C05C
:1001D8009BF006C09CF007C09DF008C09EF0600E22
:1001E80000019B27F00E9C23FF0E9D23FF0E9E23EC
:1001F800400EEA6F9A2B9EAF23D0EA0E9A25D96E4D
:10020800DA6A000EDA222D0EDF6E9A2B9BC005F0FB
:100218009CC006F09DC007F09EC008F0FF0E096E56
:10022800FF0E0A6EFF0E0B6EFF0E0C6ECDEC0AF081
:1002380005C09BF006C09CF007C09DF008C09EF06A
:100248009BC005F09CC006F09DC007F09EC008F05A
:100258000A0E096E000E0A6E000E0B6E000E0C6E72
:1002680002EC08F005500001926F9BC005F09CC09D
:1002780006F09DC007F09EC008F00A0E096E000E39
:100288000A6E000E0B6E000E0C6E9CEC07F005C09B
:100298009BF006C09CF007C09DF008C09EF09BC074
:1002A80005F09CC006F09DC007F09EC008F00A0E3D
:1002B800096E000E0A6E000E0B6E000E0C6E02EC3C
:1002C80008F005500001956F9251800A7B0FD8A065
:1002D80007D0952B010E9B27000E9C239D239E2360
:1002E8009BC005F09CC006F09DC007F09EC008F0BA
:1002F8000A0E096E000E0A6E000E0B6E000E0C6ED2
:100308009CEC07F005C09BF006C09CF007C09DF070
:1003180008C09EF000019EBF46D09E519D119C11C1
:1003280004E10A0E9B5DD8A03ED09BC005F0066A8A
:10033800000E086E0A0E076E33EC0AF00550000135
:10034800936F9BC005F09CC006F09DC007F09EC04F
:1003580008F00A0E096E000E0A6E000E0B6E000EF3
:100368000C6E9CEC07F005C09BF006C09CF007C023
:100378009DF008C09EF09BC094F0EA0E00019A25FB
:10038800D96EDA6A000EDA2294513009DF6E9A2BA0
:10039800EA0E9A25D96EDA6A000EDA2293513009EC
:1003A800DF6E9A2B09D0EA0E9A25D96EDA6A000E0A
:1003B800DA229BC0DFFFF5D7EA0E9A25D96EDA6AF2
:1003C800000EDA222C0EDF6E9A2BEA0E9A25D96ED1
:1003D800DA6A000EDA2295513009DF6E9A2BEA0E9E
:1003E8009A25D96EDA6A000EDA22000EDF6E9A2B91
:1003F800C90E7D6F000E7E6F020E7F6F3C0EE0EC23
:1004080004F0EA0E00017D6F000E7E6F9AC07FF047
:100418003C0EE0EC04F012004BC0D9FF4CC0DAFFF0
:10042800DECFF6FFDDCFF7FFF86A0800F550250AA2
:10043800D8A48ED14BC0D9FF4CC0DAFFDE2A000EFB
:10044800DD22000E0001D86F000ED76FD7C0DBF099
:10045800D8C0DCF0D969DA69000E696F000E14D0D3
:10046800DB814BC0D9FF4CC0DAFFDE2A000EDD224B
:100478002FD0DB83F6D7DB85F4D7DB87F2D7DB8990
:10048800F0D7000E696F010E686F22D04BC0D9FFFC
:100498004CC0DAFFDECFF6FFDDCFF7FFF86A0800C1
:1004A800F5504F6E506A5050000AD8A4EAD74F5002
:1004B800200AD8B4E2D7030AD8B4E1D7080AD8B4D6
:1004C800DAD7060AD8B4CCD71D0AD8B4D2D7D9D728
:1004D80068516911D8B4DAD7DBB1DB934BC0D9FFC7
:1004E8004CC0DAFFDECFF6FFDDCFF7FFF86A080071
:1004F800F5502A0AD8A423D04BC0D9FF4CC0DAFF44
:10050800DE2A000EDD224DC0D9FF4EC0DAFFDFCF54
:100518004FF0020EDE26DFCF50F0000EDD224FC076
:10052800D9FF50C0DAFFDECFD7F0DDCFD8F0D8AF93
:1005380041D0DB81D76DD81FD8B0D82B3BD04BC06A
:10054800D9FF4CC0DAFFDECF0CF0DDCF0DF062EC46
:1005580006F00CC0D7F00DC0D8F007D04BC0D9FFBB
:100568004CC0DAFFDE2A000EDD22D00E4F6EFF0EE1
:10057800506E4BC0D9FF4CC0DAFFDECFF6FFDDCF9F
:10058800F7FFF86A0800F550516E526A4F5051262D
:1005980050505222525006E10A0E515CD8B002D097
:1005A800010E01D0000E00016A6F6B6B6A516B116E
:1005B800D8A4D4D74BC0D9FF4CC0DAFFDECFF6FFA2
:1005C800DDCFF7FFF86A0800F550630AD8A426D0F3
:1005D8004BC0D9FF4CC0DAFFDE2A000EDD224DC029
:1005E800D9FF4EC0DAFFDFCF4FF0020EDE26DFCF95
:1005F80050F0000EDD224FC0D9FF50C0DAFFDF50A7
:100608006C6F49C022F04AC023F06CC024F0F8ECAB
:100618000AF022C049F023C04AF012004BC0D9FFAB
:100628004CC0DAFFDECFF6FFDDCFF7FFF86A08002F
:10063800F550780AD8B40ED04BC0D9FF4CC0DAFFB9
:10064800DECFF6FFDDCFF7FFF86A0800F550580A4D
:10065800D8A44ED04BC0D9FF4CC0DAFFDECFF6FF8E
:10066800DDCFF7FFF86A0800F5CF6CF04BC0D9FF73
:100678004CC0DAFFDE2A000EDD224DC0D9FF4EC085
:10068800DAFFDFCF4FF0020EDE26DFCF50F0000E8C
:10069800DD224FC0D9FF50C0DAFFDECF51F0DDCFE9
:1006A80052F051C060F052C061F0626B636B646BD2
:1006B800656B666B676B49C022F04AC023F060C067
:1006C80024F061C025F062C026F063C027F064C042
:1006D80028F065C029F066C02AF067C02BF06CC00E
:1006E8002CF0C7EC03F022C049F023C04AF01200F6
:1006F8004BC0D9FF4CC0DAFFDECFF6FFDDCFF7FFE6
:10070800F86A0800F550250AD8A416D04BC0D9FFBE
:100718004CC0DAFFDE2A000EDD22000E086E250E20
:10072800076E49C009F04AC00AF06BEC0AF0000EE7
:100738004A6E010E496E12004BC0D9FF4CC0DAFF59
:10074800DE2A000EDD22000E4A6E000E496E1200EF
:100758004BC0D9FF4CC0DAFFDECFF6FFDDCFF7FF85
:10076800F86A0800F550076E086A49C009F04AC0DF
:100778000AF06BEC0AF04BC0D9FF4CC0DAFFDE2A56
:10078800000EDD22D4D70001DAAFDB93DABF05D043
:10079800DA5108E1D905D8B005D0000E3A6E010E3D
:1007A800396E04D0D9C039F0DAC03AF0D7C03BF07E
:1007B800D8C03CF0DBA904D0FE0E3B26FF0E3C223D
:1007C80024C03DF025C03EF026C03FF027C040F0D1
:1007D80028C041F029C042F02AC043F02BC044F0A1
:1007E800000E466E1F0E456E000E01019F6F93D0DE
:1007F8004506D8A046060F0E3D14476E486A48BE07
:1008080008D0485004E10A0E475CD8A002D0570E21
:1008180001D0300E4724476E000E4820486EBF0EA8
:100828002D6EFF0E2E6E2C502F6E306A2D502F26F7
:100838002E503022305006E11A0E2F5CD8B002D06C
:10084800010E01D0000E356E366A35503610D8B418
:1008580027D09F0E2D6EFF0E2E6E200E47102F6E86
:10086800000E4810306E2D502F262E50302230505A
:1008780006E11A0E2F5CD8B002D0010E01D0000E8E
:10088800376E386A37503810D8B40AD047C00BF0E2
:1008980048C00CF020EC0BF00BC047F00CC048F03F
:1008A800800E4524D96E010E4620DA6E47C0DFFF60
:1008B8003906D8A03A063B06D8A03C063DC02DF024
:1008C8003EC02EF03FC02FF040C030F041C031F0A4
:1008D80042C032F043C033F044C034F0050E09D0B2
:1008E800D890343233323232313230322F322E32E3
:1008F8002D32E82EF5D72DC03DF02EC03EF02FC08A
:100908003FF030C040F031C041F032C042F033C057
:1009180043F034C044F046BE21D0465004E1020EF4
:10092800455CD8A01BD03D503E103F1040104110F0
:10093800421043104410D8A45BD73ABE05D03A50B1
:1009480002E13904D8B054D73CBE08D03C5003E18A
:100958003B04D8A003D00001DBB34AD70001DBA9D0
:1009680016D04506D8A04606800E4524D96E010E3D
:100978004620DA6E2CC0DFFF4506D8A04606800E5A
:100988004524D96E010E4620DA6E300EDF6E22C085
:1009980017F023C018F0800E4524196E010E46206A
:1009A8001A6E3BC01BF03CC01CF058EC08F017C096
:1009B80022F018C023F012000001806F000180515E
:1009C8008025816F6C0E736FFE0E746F57EC0CF000
:1009D800C7B4FED7C5CF55F01F0E5516D8A4F8D703
:1009E800C90E0001736FFF0E746F57EC0CF0C580D1
:1009F800C5B0FED7950E0001736FFF0E746F57ECEC
:100A08000CF0830E0001736FFF0E746F81C075F0D8
:100A1800766B57EC0CF081C0C9FFC7B4FED7C5BCD4
:100A280093D0F50E0001736FFE0E746F81C075F0E0
:100A3800766B57EC0CF0000E0001826F76D0EA0E50
:100A4800736FFF0E746F82517D25D96E000E7E2163
:100A5800DA6EDF50556E5550756F766B57EC0CF0AB
:100A6800000182517D25D96E000E7E21DA6EDF509D
:100A7800C96EC7B4FED7C5BC1ED0D60E0001736FB1
:100A8800FE0E746F82517D25D96E000E7E21DA6EBE
:100A9800DF50556E5550756F766B82517D25D96E36
:100AA800000E7E21DA6EDF50566E5650776F786BE7
:100AB80057EC0CF038D0700E0001736FFF0E746F96
:100AC80057EC0CF0C586C5B6FED7000182517D25CE
:100AD800D96E000E7E21DA6EDF50C96EC5BC1DD0FE
:100AE800D60E736FFE0E746F82517D25D96E000E7F
:100AF8007E21DA6EDF50556E5550756F766B8251D8
:100B08007D25D96E000E7E21DA6EDF50566E565066
:100B1800776F786B57EC0CF006D0B40E736FFE0E3F
:100B2800746F57EC0CF00001822B7F51825DD8A0C6
:100B380086D7C584C5B4FED7B80E0001736FFF0E03
:100B4800746F57EC0CF007D02C0E0001736FFF0E7A
:100B5800746F57EC0CF0910E0001736FFE0E746FFA
:100B680057EC0CF01200ADEC0CF0F28EF28CF8ECB5
:100B780009F0F28EF28CF40E0001A06F820E9F6FC6
:100B8800050EE82EFED79F2FFCD7A02FFAD7A30E6D
:100B98000001A06F570E9F6F020EE82EFED79F2F01
:100BA800FCD7A02FFAD700F0F80E0001736FFF0EE4
:100BB800746F57EC0CF0A1EC0CF0C30E00017D6FC4
:100BC800000E7E6F040E7F6F3C0EE0EC04F0CD0E3D
:100BD80000017D6F000E7E6F020E7F6F3C0EE0EC11
:100BE80004F0B20E00017D6F010E7E6F110E7F6F53
:100BF8003C0EE0EC04F0CB0E00017D6F000E7E6F22
:100C0800020E7F6F3C0EE0EC04F0A00E00017D6F39
:100C1800010E7E6F110E7F6F3C0EE0EC04F0B80EF3
:100C280000017D6F000E7E6F0B0E7F6F3C0EE0ECB7
:100C380004F0CD0E00017D6F000E7E6F020E7F6FF7
:100C48003C0EE0EC04F0450E0001736FFF0E746F6C
:100C580057EC0CF0A70E00017D6F000E7E6F110E91
:100C68007F6F500EE0EC04F05D0E0001736FFF0E15
:100C7800746F57EC0CF0FD0E00017D6F000E7E6F57
:100C8800020E7F6F500EE0EC04F0400E00017D6F05
:100C9800020E7E6F110E7F6F500E07EC07F036ECD8
:100CA80000F0F40E0001A06F820E9F6F050EE82E73
:100CB800FED79F2FFCD7A02FFAD7F3D7000E1A6EB6
:100CC800000E196E000E136E000E126E02D00C4A42
:100CD8000D2A010E186E0CC0F6FF0DC0F7FFF86A5A
:100CE8000800F550200AD8B419D0F70E0E6EFF0E82
:100CF8000F6E0CC0F6FF0DC0F7FFF86A0800F5503C
:100D0800106E116A0E5010260F501122115004E176
:100D1800050E105CD8A002D0000E186E18C014F092
:100D2800156A14501510D8B408D0D1D7000E136E18
:100D3800010E126E0C4A0D2A30D00CC0F6FF0DC001
:100D4800F7FFF86A0800F5500E6E0F6A0F50000A98
:100D5800D8A423D00E502B0AD8B4ECD7060AD8B49E
:100D6800E5D71BD019C005F01AC006F0000E086EB2
:100D78000A0E076E6BEC0CF00CC0F6FF0DC0F7FF07
:100D8800F86A0800F550055E000E065A300E052474
:100D9800196E000E06201A6ECDD7D00E0E6EFF0EFD
:100DA8000F6E0CC0F6FF0DC0F7FFF86A0800F5508B
:100DB800106E116A0E5010260F501122115006E1C4
:100DC8000A0E105CD8B002D0010E01D0000E166ECB
:100DD800176A16501710D8A4C5D712501310D8A4E4
:100DE8000DD019C00EF01AC00FF00E1E0F1E0E4ABD
:100DF8000F2A0EC00CF00FC00DF0120019C00CF035
:100E08001AC00DF012000001866F00018651020D14
:100E1800F328876F470E736FFE0E746F57EC0CF054
:100E2800C7B4FED7C5CF80F01F0E00018017D8A425
:100E3800F7D7C90E736FFF0E746F57EC0CF0C580AF
:100E4800C5B0FED7950E0001736FFF0E746F57EC97
:100E58000CF087C0C9FF120E0001736FFF0E746F8C
:100E680087C075F0766B57EC0CF0C5BC52D0000EFD
:100E78000001886F3BD0C586C5B6FED700018851F2
:100E88007D25D96E000E7E21DA6EC9CFDFFF88512D
:100E9800806F816BFF0E826FFF0E836F7F51846FAF
:100EA800856B82518427835185238051841904E1FD
:100EB80081518519D8B402D0C59A01D0C58AC58890
:100EC800C5B8FED7DA0E0001736FFF0E746F885134
:100ED8007D25D96E000E7E21DA6EDF50806F80513D
:100EE800756F766B57EC0CF00001882B7F51885D8D
:100EF800D8A0C1D7C58AC588C5B8FED7C584C5B42A
:100F0800FED7A70E0001736FFF0E746F57EC0CF03D
:100F180007D02C0E0001736FFF0E746F57EC0CF0A6
:100F2800910E0001736FFE0E746F57EC0CF01200F7
:100F3800000E0E6E0CAE0AD00C1E0B1E0A1E096C9B
:100F4800000E0A220B220C22010E0E6E08AE0AD0E9
:100F5800081E071E061E056C000E06220722082220
:100F6800010E0E1A000E0F6E000E106E000E116E9E
:100F7800000E126E09500A100B100C10D8B42AD0AB
:100F8800010E0D6E06D0D89009360A360B360C368F
:100F98000D2A0CAEF8D7D8900F3610361136123607
:100FA8000950055C0A5006580B5007580C50085851
:100FB800D8A009D00950055E0A50065A0B50075AA6
:100FC8000C50085A0F80D8900C320B320A32093272
:100FD8000D2EE1D70E50D8B408D0121E111E101EC7
:100FE8000F6C000E1022112212220FC005F010C043
:100FF80006F011C007F012C008F01200000E0E6EC5
:1010080008AE0AD0081E071E061E056C000E062232
:1010180007220822010E0E6E0CAE08D00C1E0B1E05
:101028000A1E096C000E0A220B220C2209500A1013
:101038000B100C10D8B424D0010E0D6E06D0D89029
:1010480009360A360B360C360D2A0CAEF8D709507D
:10105800055C0A5006580B5007580C500858D8A081
:1010680008D00950055E0A50065A0B50075A0C5012
:10107800085AD8900C320B320A3209320D2EE7D7B3
:101088000E50D8B408D0081E071E061E056C000EA8
:1010980006220722082205C005F006C006F007C090
:1010A80007F008C008F012000001DBA10AD019C03F
:1010B80010F01AC011F017C012F018C013F064EC49
:1010C8000BF01CBE05D01BC020F01CC021F004D0C2
:1010D800000E216E000E206E000E1F6E000E1E6E9A
:1010E8000CD0000E086E200E076E17C009F018C04D
:1010F8000AF06BEC0AF01E4A1F2A20501E5C1F5093
:10110800800A1D6E2150800A1D58D8A0EAD7000118
:10111800DBB10AD019C010F01AC011F017C012F0D4
:1011280018C013F064EC0BF019C005F01AC006F0F3
:1011380042EC0CF020500524176E21500620186E42
:101148001200000E5824D96EDA6A010EDA22000E57
:10115800DF6EABA414D0000E5824D96EDA6A010EE3
:10116800DA220101DF8201D80AD00500FA6E0001F7
:10117800E151FD6EE251FE6EFF6AFA501200ABA219
:1011880014D0000E5824D96EDA6A010EDA22010151
:10119800DF8401D80AD00500FA6E0001DF51FD6E28
:1011A800E051FE6EFF6AFA501200000E5824D96E04
:1011B800DA6A010EDA22DF50D8B40CD001D8120056
:1011C8000500FA6E0001DD51FD6EDE51FE6EFF6A0C
:1011D800FA50120090EC0CF0120000018D6F400ED6
:1011E8000001836F630E8D6507D0010E846F300E8A
:1011F8008413640E8D5F02D0A00E846F090E8D6576
:101208001AD08DC005F0066A000E086E0A0E076E29
:101218003AEC09F0055030090001856F8DC005F0E2
:10122800066A000E086E0A0E076E33EC0AF00550C7
:101238003009000106D0A00E846FA00E856F8D5175
:101248003009866FC70E7D6F000E7E6F020E7F6FAE
:101258003C0EE0EC04F0830E00017D6F000E7E6F03
:10126800040E7F6F3C0EE0EC04F01200000E0A6ED4
:1012780008AE06D0076C081ED8B0082A010E0A6E00
:1012880006AE06D0056C061ED8B0062A010E0A1A4C
:10129800000E0C6E000E0B6E07500810D8B41CD050
:1012A800010E096E04D0D89007360836092A08AE10
:1012B800FAD7D8900B360C360750055C08500658FC
:1012C800D8A005D00750055E0850065A0B80D89064
:1012D80008320732092EEDD70A50D8B404D00B6C67
:1012E8000C1ED8B00C2A0BC005F00CC006F012007A
:1012F800000E0D6E000E0E6E000E0F6E000E106EBC
:1013080009500A100B100C10D8B42AD0010E116E17
:1013180006D0D89009360A360B360C36112A0CAE90
:10132800F8D7D8900D360E360F3610360950055CB2
:101338000A5006580B5007580C500858D8A009D026
:101348000950055E0A50065A0B50075A0C50085AA5
:101358000D80D8900C320B320A320932112EE1D7A7
:101368000DC005F00EC006F00FC007F010C008F061
:101378001200FC0EF66E180EF76E000EF86E01EEF7
:10138800A0F010EE24F00900F5CFEEFFE550E15093
:10139800FAE16C0EF66E170EF76E000EF86E00EEA0
:1013A800A1F010EE30F00900F5CFEEFFE550E15066
:1013B800FAE102EE00F0C00EEE6AE806FDE101EE89
:1013C80000F0A00EEE6AE806FDE100EED1F02E0E68
:1013D800EE6AE806FDE15A6A596A586A576A5B90EC
:1013E8005B920001B7EF05F09D9A4A0E056E110E4B
:1013F800066EC9EC0CF09D98580E056E180E066E18
:10140800C4EC0CF0080EB86E900EAB6E240EAC6EE9
:101418008A0EAF6E000EB06ECA0E056E190E066EFD
:10142800D3EC0CF0BA0E056E190E066ECEEC0CF06D
:10143800C00E056E190E066ED8EC0CF0000E0001F9
:10144800E76F000E5A6E000E596E400EE96F000EDF
:10145800586E000E576E000EE86F9D8A1200000E3F
:101468000A6E06AE06D0056C061ED8B0062A010E16
:101478000A6E08AE04D0076C081ED8B0082A0750B8
:101488000810D8B418D0010E096E04D0D8900736C9
:101498000836092A08AEFAD70750055C08500658DE
:1014A800D8A004D00750055E0850065AD8900832D4
:1014B8000732092EF1D70A50D8B404D0056C061E9D
:1014C800D8B0062A05C005F006C006F0120009507B
:1014D8000A10D8B404D009500A10D8A404D0075070
:1014E800BFEC0CF0120020EE04F00950D9260A5087
:1014F800DA22DE50DE10D8B416D020EE04F00950FF
:10150800D9260A50DA2210EE02F00950E1260A50D4
:10151800E222DE50E65CE650800A0F6EDE50800A5A
:101528000F58D8B0120020EE02F00950D9260A5000
:10153800DA22DE2A000EDD2212006FC053F070C0DE
:1015480054F0000E0001D66F000ED56F13D06DC099
:1015580049F06EC04AF0530E4B6E000E4C6E71C0CF
:101568004DF072C04EF010EC02F049500001D52742
:101578004A50D62353C0F6FF54C0F7FFF86A080054
:10158800F5500009D8A4E3D7D5C06DF0D6C06EF0E9
:101598001200000E0D6E000E0E6E000E0F6E000E85
:1015A800106E05A008D009500D260A500E220B50C7
:1015B8000F220C501022D89009360A360B360C36FA
:1015C800D890083207320632053205500610071047
:1015D8000810D8A4E6D70DC005F00EC006F00FC05D
:1015E80007F010C008F012000001D751D811D8A494
:1015F80005D0D7C025F0D8C026F006D0FF0ED725D5
:10160800256EFF0ED821266E24C080F1000E010140
:10161800816F22C017F023C018F0800E196E010EDA
:101628001A6E25C01BF026C01CF058EC08F017C035
:1016380022F018C023F012009F0E0D6EFF0E0E6EE2
:101648000BC00FF00CC010F00D500F260E501022DA
:10165800105006E11A0E0F5CD8B002D0010E01D06E
:10166800000E116E126A11501210D8B405D05F0E18
:101678000B140B6E0C6A12000BC00BF00CC00CF0B4
:101688001200010E0B6E200E05180610D8B414D0E7
:10169800F70E076EFF0E086E05C009F006C00AF0C7
:1016A8000750092608500A220A5004E1050E095C71
:1016B800D8A002D0000E0B6E0BC005F0066A12000F
:1016C800000E166E000E156E0BD014C007F0086AD7
:1016D80012C009F013C00AF06BEC0AF0154A162A7A
:1016E80015501024D96E16501120DA6EDF50146E82
:1016F8001450D8B41200E9D7056E0001E951D8B4E6
:10170800FCD79DB803D005C0ADFF10D09D98400E02
:101718005A24D96EDA6A010EDA2205C0DFFF5A2A86
:101728003F0E5A6402D0000E5A6EE9079D881200D7
:101738009F0E076EFF0E086E200E0510096E000E34
:1017480006100A6E0750092608500A220A5006E1B8
:101758001A0E095CD8B002D0010E01D0000E056E39
:10176800066A1200008A503C2701000001020304A7
:1017780005060708090A0B0C0D0E0F8040400C12D5
:10178800120C0000000000380C0600C6008400C0DF
:101798000080402D9F0E076EFF0E086E05C009F0F1
:1017A80006C00AF00750092608500A220A5006E126
:1017B8001A0E095CD8B002D0010E01D0000E056ED9
:1017C800066A1200BF0E076EFF0E086E05C009F00C
:1017D80006C00AF00750092608500A220A5006E1F6
:1017E8001A0E095CD8B002D0010E01D0000E056EA9
:1017F800066A1200D00E076EFF0E086E05C009F0CB
:1018080006C00AF00750092608500A220A5006E1C5
:101818000A0E095CD8B002D0010E01D0000E056E88
:10182800066A1200000E896E000E8A6E000E8B6E1C
:101838009268DF0E936EBF0E946E3C0E0F013A6FE6
:101848001F0E396F2F0E386F000E616EF18E120069
:10185800400E0001E96110D0400E5924D96EDA6AB1
:10186800010EDA22DF50AD6E592A3F0E596402D0BC
:10187800000E596EE92B12009D98120005C007F062
:1018880006C008F002D0054A062A05C0D9FF06C0DE
:10189800DAFFDF50D8A4F7D70750055C056E08506B
:1018A8000658066E1200750E00017B6F000E7C6FE5
:1018B800000E6D6F000E6E6F73C06FF074C070F025
:1018C8007B0E716F000E726FA1EC0AF012000550CA
:1018D8000702F3CF09F0F4CF0AF005500802F350DD
:1018E8000A2606500702F3500A2609C005F00AC066
:1018F80006F01200404D6F6973743A7878782520A5
:1019080020202020200040546D703A78782C786F81
:101918002020202020202000000E5824D96EDA6ACA
:10192800020EDA22AECFDFFF582A3F0E586402D0EB
:10193800000E586E0001E82B1200948694880F015F
:101948003A973A999F0EC86E280EC66E000EC56E5D
:101958001200E3EC0CF016EC0CF0B6EC0CF0F8EC22
:1019680009F01200700ED36E040ED26E400E9B6EFC
:10197800D2BE1200FDD7066E065080EC0BF01200A6
:1019880005C0E5F006C0E6F0120005C0E3F006C0A9
:10199800E4F0120005C0DFF006C0E0F0120005C058
:1019A800E1F006C0E2F0120005C0DDF006C0DEF08E
:1019B8001200AB98AB88120090EC0CF01200D09E8D
:0419C80012001200F7
:10FE4600000D0A2A2A2A2A2A2A2A2A2A2A2A524530
:10FE560041442A2A2A2A2A2A2A2A2A2A2A2A2A2ACB
:10FE66002A2A2A0A0D000A0D2A2A2A2A2A2A2A2A90
:10FE76002A2A2A57524954452A2A2A2A2A2A2A2A23
:10FE86002A2A2A2A2A2A2A2A0A0D002A2A2A2A2A33
:10FE96002A2A2A2A2A2A2A2A2A2A2A2A2A2A2A2ABC
:10FEA6002A2A2A2A2A2A2A2A2A2A2A0A0D004E41D8
:10FEB600434B202D2046656A6C206920736B72695E
:10FEC600766E696E6720616620646174610D0A0052
:10FED60041434B202D20536B72657620646174611B
:10FEE6003A202523303258202D2025630A0D004163
:10FEF600434B202D20536B726576206164726573C7
:10FF060073653A2025233032580A0D00536B726907
:10FF16007665723A20616472657373653A202523AB
:10FF26003032580A0D004B756E6E6520696B6B6535
:10FF36002066696E646520656E6865640D0A005307
:10FF46006B726976207465676E2074696C2045450E
:10FF560050524F4D0D0A004F67206C616573206447
:10FF6600656D206967656E0D0A004E41434B202D75
:10FF76002067656E73656E6465720D0A0041646480
:10FF860072657373653A2025233032580D0A00488E
:10FF960061722073656E64742073746172740A0DE5
:10FFA600004861722073656E64742073746F700DFF
:10FFB6000A004861722073656E64742073746F70F2
:10FFC6000A0D0042757373656E206572206B6C6155
:10FFD600720A0D004C61657374653A202523303230
:10FFE600580A0D00446174613A2025233032580DB9
:09FFF6000A0048656A0D0A0000CA
:020000040020DA
:08000000FFFFFFFFFFFFFFFF00
:020000040030CA
:0E000000FF281F3CFFBF85FF0FC00FE00F4021
:00000001FF
