:020000040000FA
:0400000066EF00F0B7
:100008005E82FACFEBF0FBCFECF0E1CFEDF0E2CF80
:10001800EEF0D9CFEFF0DACFF0F0F3CFF1F0F4CF84
:10002800F2F0F6CFF3F0F7CFF4F0F8CFF5F0F5CF24
:10003800F6F0F2AC2DD09DB29EA203D0CFEC35F0F5
:1000480027D07DB47EA403D0E1EC35F021D09DBA51
:100058009EAA09D001D81CD00500FA6E0101BF5133
:10006800FD6EC05111D07DB07EA003D0F2EC35F00A
:100078000FD09DB89EA80CD001D80AD00500FA6E02
:100088000101C151FD6EC251FE6EFF6AFA501200A5
:10009800F6C0F5FFF5C0F8FFF4C0F7FFF3C0F6FFB0
:1000A800F2C0F4FFF1C0F3FFF0C0DAFFEFC0D9FFF0
:1000B800EEC0E2FFEDC0E1FFECC0FBFFEBC0FAFFD2
:0800C8005E9211004EEF31F0D1
:101000000050403C80484018190204081303008037
:10101000404006090906000000004048756D693A25
:10102000004054656D703A000000000300380F0660
:101030000002020001E3E5546865206C61737420CE
:10104000737461747573206973206E6F74203078C7
:101050003031206F722030783032200D0A00257335
:101060002C20646964206E6F74206D617463682045
:101070006120636F6D6D616E64200A0D00326E64D5
:10108000205265616420646174613A202573200DEB
:101090000A00317374205265616420646174613A9E
:1010A000202573200D0A0053746172742074696DD9
:1010B0006572200D0A0053746F702074696D65723B
:1010C000200D0A004675636B2031200D0A00402573
:1010D0002E31660073746172740073746F7000490E
:1010E0004E46004E414E00696E66006E616E006CA9
:0310F00066000097
:1010F400000E0001826F000E816F62C093F063C026
:1011040094F064C095F065C096F096AF16D0000ECA
:10111400826F010E816F93C001F094C002F095C0FC
:1011240003F096C004F005EC35F001C093F002C062
:1011340094F003C095F004C096F0000E00019A6F7D
:10114400000E996FA7C186F0A8C187F08151821162
:10115400D8A403D00101ABA514D0000181518211A0
:10116400D8A404D0000E6C6F2B0E03D0000E6C6F4D
:101174002D0E6B6F6BC080F2994B9A2B8607D8A00B
:10118400870793C001F094C002F095C003F096C0A5
:1011940004F07EEC2BF001040210D8A44CD0BF0E56
:1011A400596EFF0E5A6E000166515B6E5C6A5950AF
:1011B4005B265A505C225C5006E11A0E5B5CD8B088
:1011C40002D0010E01D0000E6D6F6E6B6D516E1169
:1011D400D8B40DD0800E9925016E020E9A21026EAC
:1011E400DF0E036E100E046E82EC32F00CD0800E13
:1011F4009925016E020E9A21026EE70E036E100EFF
:10120400046E82EC32F00001FD0E8627FF0E872368
:1012140060C013F061C014F0800E156E020E166EDD
:1012240086C017F087C018F027EC2FF013C060F0C9
:1012340014C061F0120093C001F094C002F095C094
:1012440003F096C004F07EEC2BF001500210D8A4F9
:1012540035D0BF0E596EFF0E5A6E000166515B6E9B
:101264005C6A59505B265A505C225C5006E11A0EA7
:101274005B5CD8B002D0010E01D0000E6F6F706BB2
:101284006F517011D8B40DD0800E9925016E020EE5
:101294009A21026EE30E036E100E046E82EC32F09D
:1012A400B2D7800E9925016E020E9A21026EEB0EC2
:1012B400036E100E046E82EC32F0A5D7000E00010E
:1012C4009B6F000E9C6F800E9D6F3F0E9E6F000EF5
:1012D400986F000E976F93C001F094C002F095C010
:1012E40003F096C004F0000E056E000E066E000EAC
:1012F400076E000E086E01EC30F0D8A01ED076D038
:101304009BC00FF09CC010F09DC011F09EC012F065
:10131400000E136E000E146E200E156E410E166E26
:10132400A9EC19F00FC09BF010C09CF011C09DF007
:1013340012C09EF00001974B982B93C028F094C0E4
:1013440029F095C02AF096C02BF0000E136E000E03
:10135400146E200E156E410E166E9BC00FF09CC0CD
:1013640010F09DC011F09EC012F0A9EC19F00FC04E
:101374002CF010C02DF011C02EF012C02FF0AFECE5
:101384002AF0D8A01FD0BCD79BC028F09CC029F05D
:101394009DC02AF09EC02BF0000E2C6E000E2D6E08
:1013A400200E2E6E410E2F6EFFEC20F028C09BF015
:1013B40029C09CF02AC09DF02BC09EF00001970725
:1013C400D8A0980793C028F094C029F095C02AF0BB
:1013D40096C02BF09BC02CF09CC02DF09DC02EF02D
:1013E4009EC02FF0AFEC2AF0D8A0CED766C007F08D
:1013F400086AFCEC32F007500001886F88C085F061
:10140400670E8819D8A41BD00101A951AA11D8A428
:1014140004D0000EAA6F010EA96FAABF05D0AA516D
:1014240009E1A905D8B006D0000E0001846F060EAC
:10143400836F09D0A9C183F0AAC184F004D001014B
:10144400AAAFF8D7F1D7670E00018819D8A422D023
:1014540098AF06D0FC0E975DFF0E9859D8A018D00F
:10146400FF0E596EFF0E5A6E83C05BF084C05CF0B1
:1014740059505B265A505C2297515B5C5C50800A41
:101484005D6E9851800A5D58D8A002D0660E01D0D6
:10149400650E856F83C07BF084C07CF0670E88196D
:1014A400D8A405D0660E8519D8B498AF02D07B4B6A
:1014B4007C2B660E8519D8A416D098AF0CD0000EDC
:1014C4009B6F000E9C6F800E9D6F3F0E9E6F000EF3
:1014D400986F000E976F670E8819D8B404D097518F
:1014E4007B2798517C23000E926F000E916F93C05E
:1014F40089F094C08AF095C08BF096C08CF09BC0A4
:1015040067F09CC068F09DC069F09EC06AF07BD013
:1015140089C028F08AC029F08BC02AF08CC02BF037
:101524009BC02CF09CC02DF09DC02EF09EC02FF0CF
:10153400FFEC20F028C041F029C042F02AC043F05B
:101544002BC044F035EC24F041C08DF042C08EF045
:1015540043C08FF044C090F08DC001F08EC002F003
:101564008FC003F090C004F042EC2CF001C07FF077
:1015740002C080F089C051F08AC052F08BC053F091
:101584008CC054F09BC013F09CC014F09DC015F0A7
:101594009EC016F08DC00FF08EC010F08FC011F0F9
:1015A40090C012F0A9EC19F00FC055F010C056F01D
:1015B40011C057F012C058F046EC33F051C089F016
:1015C40052C08AF053C08BF054C08CF09BC028F0FA
:1015D4009CC029F09DC02AF09EC02BF0000E2C6EFA
:1015E400000E2D6E200E2E6E410E2F6EFFEC20F09D
:1015F40028C09BF029C09CF02AC09DF02BC09EF00F
:101604000001914B922B7B51915D9251800A596E4E
:101614007C51800A5958D8A07BD79BC00FF09CC03E
:1016240010F09DC011F09EC012F0000E136E000E5B
:10163400146EA00E156E400E166EA9EC19F00FC0B4
:101644008DF010C08EF011C08FF012C090F089C0E0
:1016540028F08AC029F08BC02AF08CC02BF08DC0F2
:101664002CF08EC02DF08FC02EF090C02FF0AFEC78
:101674002AF0D8B003D0000E000118D089C001F0C0
:101684008AC002F08BC003F08CC004F08DC005F05A
:101694008EC006F08FC007F090C008F001EC30F067
:1016A400D8A00BD000017FB108D0000E8D6F000EC2
:1016B4008E6F000E8F6F000E906F93C041F094C038
:1016C40042F095C043F096C044F08DC045F08EC002
:1016D40046F08FC047F090C048F0D9EC1CF041C0F0
:1016E40089F042C08AF043C08BF044C08CF067C0DC
:1016F4009BF068C09CF069C09DF06AC09EF0650EC6
:1017040000018519D8B405D097C07DF098C07EF04B
:1017140004D0000E7E6F000E7D6F000E7A6F000EF7
:10172400796F000E786F000E776F000E926F000EC7
:10173400916FC8D089C028F08AC029F08BC02AF0E4
:101744008CC02BF09BC02CF09CC02DF09DC02EF0C3
:101754009EC02FF0FFEC20F028C041F029C042F0D9
:101764002AC043F02BC044F035EC24F041C08DF086
:1017740042C08EF043C08FF044C090F08DC001F0A1
:101784008EC002F08FC003F090C004F042EC2CF045
:1017940001C07FF002C080F00101ABB90DD000019F
:1017A4007F518011D8A408D0670E8819D8B47EAFB1
:1017B40003D0774B782B3AD0000179517A11D8B401
:1017C4007EAF22D0800E9925D96E020E9A21DA6E50
:1017D4002E0EDF6E994B9A2B8607D8A08707000E32
:1017E4007A6F010E796F10D0800E9925D96E020E92
:1017F4009A21DA6E300EDF6E994B9A2B8607D8A0A9
:1018040087077707D8A0780777517811D8A4ECD741
:10181400800E9925D96E020E9A21DA6E7F51300F0F
:10182400DF6E994B9A2B8607D8A0870789C051F0A1
:101834008AC052F08BC053F08CC054F09BC013F09C
:101844009CC014F09DC015F09EC016F08DC00FF022
:101854008EC010F08FC011F090C012F0A9EC19F0F6
:101864000FC055F010C056F011C057F012C058F018
:1018740046EC33F051C089F052C08AF053C08BF06B
:1018840054C08CF09BC028F09CC029F09DC02AF065
:101894009EC02BF0000E2C6E000E2D6E200E2E6EB0
:1018A400410E2F6EFFEC20F028C09BF029C09CF065
:1018B4002AC09DF02BC09EF000017D07D8A07E07B2
:1018C400914B922B7B51915D9251800A596E7C51C0
:1018D400800A5958D8B008D09ABF2CD79A5104E13D
:1018E4004B0E995DD8A026D779517A11D8A40ED081
:1018F4000101ABA90BD0800E00019925D96E020E0F
:101904009A21DA6E2E0EDF6E994B9A2B800E00010F
:101914009925D96E020E9A21DA6E000EDF6E650EDD
:101924008519D8A475D4000E926F4F0E916F800E56
:101934009125D96E020E9221DA6E000EDF6E000E32
:10194400826F000E816F98AF08D0000E826F010E77
:10195400816F976D981FD8B0982B000E846F020E7C
:10196400836F2BD09107D8A09207800E9125D96E52
:10197400020E9221DA6E97C001F098C002F0000EB8
:10198400046E0A0E036EC3EC31F00150300FDF6EAB
:1019940097C001F098C002F0000E046E0A0E036EA8
:1019A400CCEC30F001C097F002C098F0000183073E
:1019B400D8A084078607D8A0870797519811D8A480
:1019C400D1D784BF05D08451CDE18305D8B0CAD71F
:1019D4009107D8A0920781518211D8A404D0000E97
:1019E400726F2B0E03D0000E726F2D0E716F800E6E
:1019F4009125D96E020E9221DA6E71C0DFFF86073F
:101A0400D8A087079107D8A09207BF0E596EFF0E82
:101A14005A6E66515B6E5C6A59505B265A505C2262
:101A24005C5006E11A0E5B5CD8B002D0010E01D006
:101A3400000E756F766B75517611D8A404D0000E24
:101A4400746F650E03D0000E746F450E736F800EB5
:101A54009125D96E020E9221DA6E73C0DFFF8607DC
:101A6400D8A08707800E9925016E020E9A21026E76
:101A7400800E9125036E020E9221046E82EC32F0E8
:101A84000AEF09F0000E0101546F000E536F2FC1CD
:101A940065F130C166F131C167F132C168F168AFF7
:101AA40016D0000E546F010E536F65C100F166C16C
:101AB40001F167C102F168C103F1A6EC34F000C181
:101AC40065F101C166F102C167F103C168F1000E5D
:101AD40001016C6F000E6B6FA7C158F1A8C159F1D9
:101AE40053515411D8A402D0ABA513D0535154115F
:101AF400D8A404D0000E3E6F2B0E03D0000E3E6F10
:101B04002D0E3D6F3DC180F26B4B6C2B5807D8A056
:101B1400590765C100F166C101F167C102F168C1ED
:101B240003F117EC2BF0010100050111D8A44CD0EE
:101B3400BF0E346FFF0E356F3351366F376B345130
:101B4400362735513723375106E11A0E365DD8B0A2
:101B540002D0010E01D0000E3F6F406B3F51401187
:101B6400D8B40DD0800E6B25006F020E6C21016F6E
:101B7400DF0E026F100E036F57EC32F00CD0800EA4
:101B84006B25006F020E6C21016FE70E026F100EC1
:101B9400036F57EC32F00101FD0E5827FF0E592355
:101BA4002DC112F12EC113F1800E0101146F020E2A
:101BB400156F58C116F159C117F13CEC2EF012C142
:101BC4002DF113C12EF1120065C100F166C101F1BE
:101BD40067C102F168C103F117EC2BF00101005158
:101BE4000111D8A434D0BF0E346FFF0E356F3351BA
:101BF400366F376B3451362735513723375106E169
:101C04001A0E365DD8B002D0010E01D0000E416F1D
:101C1400426B41514211D8B40DD0800E6B25006F38
:101C2400020E6C21016FE30E026F100E036F57EC6E
:101C340032F0B1D7800E6B25006F020E6C21016F5C
:101C4400EB0E026F100E036F57EC32F0A4D7000EA8
:101C54006D6F000E6E6F800E6F6F3F0E706F000E13
:101C64006A6F000E696F65C100F166C101F167C159
:101C740002F168C103F1000E046F000E056F000E3F
:101C8400066F000E076FBBEC2FF00101D8A01ED029
:101C940078D06DC100F16EC101F16FC102F170C164
:101CA40003F1000E046F000E056F200E066F410E47
:101CB400076FFFEC17F000C16DF101C16EF102C1B5
:101CC4006FF103C170F10101694B6A2B65C119F110
:101CD40066C11AF167C11BF168C11CF1000E046FE3
:101CE400000E056F200E066F410E076F6DC100F1E7
:101CF4006EC101F16FC102F170C103F1FFEC17F085
:101D040000C11DF101C11EF102C11FF103C120F187
:101D140046EC2AF00101D8A01FD0BBD76DC100F159
:101D24006EC101F16FC102F170C103F1000E046FC5
:101D3400000E056F200E066F410E076FBAEC1FF000
:101D440000C16DF101C16EF102C16FF103C170F107
:101D540001016907D8A06A0765C119F166C11AF1C2
:101D640067C11BF168C11CF16DC11DF16EC11EF18B
:101D74006FC11FF170C120F146EC2AF00101D8A017
:101D8400CDD733C106F1076BD5EC32F00101065112
:101D94005A6F5AC157F1670E5A19D8A419D0A951CC
:101DA400AA11D8A404D0000EAA6F010EA96FAABF6D
:101DB40005D0AA5108E1A905D8B005D0000E566F88
:101DC400060E556F08D0A9C155F1AAC156F103D02A
:101DD400AAAFF9D7F3D7670E5A19D8A422D06AAF9D
:101DE40006D0FC0E695DFF0E6A59D8A018D0FF0E0C
:101DF400346FFF0E356F55C136F156C137F134518A
:101E04003627355137236951365D3751800A386F8B
:101E14006A51800A3859D8A002D0660E01D0650EE6
:101E2400576F55C14DF156C14EF1670E5A19D8A4DA
:101E340005D0660E5719D8B46AAF02D04D4B4E2B5D
:101E4400660E5719D8A416D06AAF0CD0000E6D6F69
:101E5400000E6E6F800E6F6F3F0E706F000E6A6F14
:101E6400000E696F670E5A19D8B404D069514D2712
:101E74006A514E23000E646F000E636F65C15BF1FF
:101E840066C15CF167C15DF168C15EF16DC139F194
:101E94006EC13AF16FC13BF170C13CF17CD05BC1C2
:101EA40000F15CC101F15DC102F15EC103F16DC1DC
:101EB40004F16EC105F16FC106F170C107F1BAEC0E
:101EC4001FF000C119F101C11AF102C11BF103C1D4
:101ED4001CF158EC23F019C15FF11AC160F11BC168
:101EE40061F11CC162F15FC100F160C101F161C126
:101EF40002F162C103F1E4EC2BF000C151F101C124
:101F040052F15BC119F15CC11AF15DC11BF15EC1F3
:101F14001CF16DC104F16EC105F16FC106F170C110
:101F240007F15FC100F160C101F161C102F162C159
:101F340003F1FFEC17F000C11DF101C11EF102C154
:101F44001FF103C120F122EC33F019C15BF11AC176
:101F54005CF11BC15DF11CC15EF16DC100F16EC18C
:101F640001F16FC102F170C103F1000E0101046FB0
:101F7400000E056F200E066F410E076FBAEC1FF0BE
:101F840000C16DF101C16EF102C16FF103C170F1C5
:101F94000101634B642B4D51635D6451800A346FBE
:101FA4004E51800A3459D8A07AD76DC100F16EC160
:101FB40001F16FC102F170C103F1000E046F000E54
:101FC400056FA00E066F400E076FFFEC17F000C1FF
:101FD4005FF101C160F102C161F103C162F15BC152
:101FE40019F15CC11AF15DC11BF15EC11CF15FC145
:101FF4001DF160C11EF161C11FF162C120F146EC07
:102004002AF00101D8A016D05BC100F15CC101F136
:102014005DC102F15EC103F15FC104F160C105F16C
:1020240061C106F162C107F1BBEC2FF00101D8B028
:1020340051B108D0000E5F6F000E606F000E616F2B
:10204400000E626F65C100F166C101F167C102F162
:1020540068C103F15FC104F160C105F161C106F11A
:1020640062C107F152EC1BF000C15BF101C15CF1EC
:1020740002C15DF103C15EF139C16DF13AC16EF186
:102084003BC16FF13CC170F1650E01015719D8B421
:1020940005D069C14FF16AC150F104D0000E506FF0
:1020A400000E4F6F000E4C6F000E4B6F000E4A6F08
:1020B400000E496F000E646F000E636FC7D05BC1E2
:1020C40000F15CC101F15DC102F15EC103F16DC1BA
:1020D40004F16EC105F16FC106F170C107F1BAECEC
:1020E4001FF000C119F101C11AF102C11BF103C1B2
:1020F4001CF158EC23F019C15FF11AC160F11BC146
:1021040061F11CC162F15FC100F160C101F161C103
:1021140002F162C103F1E4EC2BF000C151F101C101
:1021240052F10101ABB90CD051515211D8A408D0CD
:10213400670E5A19D8B450AF03D0494B4A2B39D043
:102144004B514C11D8B450AF22D0800E6B25D96EB0
:10215400020E6C21DA6E2E0EDF6E6B4B6C2B580761
:10216400D8A05907000E4C6F010E4B6F10D0800E93
:102174006B25D96E020E6C21DA6E300EDF6E6B4B5E
:102184006C2B5807D8A059074907D8A04A074951CA
:102194004A11D8A4ECD7800E6B25D96E020E6C219F
:1021A400DA6E5151300FDF6E6B4B6C2B5807D8A091
:1021B40059075BC119F15CC11AF15DC11BF15EC124
:1021C4001CF16DC104F16EC105F16FC106F170C15E
:1021D40007F15FC100F160C101F161C102F162C1A7
:1021E40003F1FFEC17F000C11DF101C11EF102C1A2
:1021F4001FF103C120F122EC33F019C15BF11AC1C4
:102204005CF11BC15DF11CC15EF16DC100F16EC1D9
:1022140001F16FC102F170C103F1000E0101046FFD
:10222400000E056F200E066F410E076FBAEC1FF00B
:1022340000C16DF101C16EF102C16FF103C170F112
:1022440001014F07D8A05007634B642B4D51635DC8
:102254006451800A346F4E51800A3459D8B008D082
:102264006CBF2DD76C5104E14B0E6B5DD8A027D702
:102274004B514C11D8B4ABA90AD0800E6B25D96E42
:10228400020E6C21DA6E2E0EDF6E6B4B6C2B800E01
:102294006B25D96E020E6C21DA6E000EDF6E650EB0
:1022A4005719D8A47DD4000E646F4F0E636F800E4F
:1022B4006325D96E020E6421DA6E000EDF6E000E05
:1022C400546F000E536F6AAF08D0000E546F010EA6
:1022D400536F696D6A1FD8B06A2B000E566F020ED9
:1022E400556F2CD06307D8A06407800E6325D96E80
:1022F400020E6421DA6E69C100F16AC101F1000EB7
:10230400036F0A0E026F8AEC31F001010051300FA5
:10231400DF6E69C100F16AC101F1000E036F0A0E9C
:10232400026F46EC30F000C169F101C16AF10101AC
:102334005507D8A056075807D8A0590769516A11FC
:10234400D8A4D0D756BF05D05651CCE15505D8B046
:10235400C9D76307D8A0640753515411D8A404D033
:10236400000E446F2B0E03D0000E446F2D0E436FEE
:10237400800E6325D96E020E6421DA6E43C1DFFF3D
:102384005807D8A059076307D8A06407BF0E346F55
:10239400FF0E356F3351366F376B34513627355155
:1023A4003723375106E11A0E365DD8B002D0010E3C
:1023B40001D0000E476F486B47514811D8A404D090
:1023C400000E466F650E03D0000E466F450E456F36
:1023D400800E6325D96E020E6421DA6E45C1DFFFDB
:1023E4005807D8A05907800E6B25006F020E6C2188
:1023F400016F800E6325026F020E6421036F57EC98
:1024040032F0D2EF0DF073C1D9FF74C1DAFFDECF21
:10241400F6FFDDCFF7FFF86A0800F550250AD8A4C7
:10242400F3D173C1D9FF74C1DAFFDE2A000EDD22B5
:10243400000E0101A86F000EA76FA7C1ABF1A8C1E0
:10244400ACF1A969AA6973C1D9FF74C1DAFFDECFFF
:10245400F6FFDDCFF7FFF86A0800F5502E0AD8A47E
:1024640070D0000EAA6F000EA96F73C1D9FF74C19A
:10247400DAFFDE2A000EDD2273C1D9FF74C1DAFF50
:10248400DECFF6FFDDCFF7FFF86A0800F5502A0A21
:10249400D8A41CD073C1D9FF74C1DAFFDE2A000EA0
:1024A400DD2275C1D9FF76C1DAFFDFCF77F1020EE5
:1024B400DE26DFCF78F1000EDD2277C1D9FF78C1A7
:1024C400DAFFDECFA9F1DDCFAAF13BD073C1D9FF8A
:1024D40074C1DAFFDECF07F1DDCF08F191EC26F00D
:1024E40007C1A9F108C1AAF107D073C1D9FF74C10A
:1024F400DAFFDE2A000EDD22D00E0101776FFF0E17
:10250400786F73C1D9FF74C1DAFFDECFF6FFDDCF78
:10251400F7FFF86A0800F550796F7A6B77517927DD
:1025240078517A237A5106E10A0E795DD8B002D047
:10253400010E01D0000E7D6F7E6B7D517E11D8A4FB
:10254400D4D773C1D9FF74C1DAFFDECFF6FFDDCF74
:10255400F7FFF86A0800F550066F076BD5EC32F008
:1025640001010651866F8651D8B437D073C1D9FFA3
:1025740074C1DAFFDECF77F1DDCF78F1010E772772
:10258400000E782377C1F6FF78C1F7FFF86A0800D8
:10259400F550066F076BD5EC32F001010651876FD9
:1025A4008751D8B41AD073C1D9FF74C1DAFFDECF12
:1025B40077F1DDCF78F1020E7727000E782377C10B
:1025C400F6FF78C1F7FFF86A0800F550066F076B4D
:1025D400D5EC32F001010651886F660E8619D8A435
:1025E40040D073C1D9FF74C1DAFFDECFF6FFDDCF6F
:1025F400F7FFF86A0800F5CF85F173C1D9FF74C1FC
:10260400DAFFDE2A000EDD2275C1D9FF76C1DAFFBA
:10261400DFCF77F1040EDE26DFCF78F1000EDD2266
:1026240077C1D9FF78C1DAFFDECF81F1DECF82F145
:10263400DECF83F1DECF84F171C12DF172C12EF1B1
:1026440081C12FF182C130F183C131F184C132F1F2
:1026540085C133F144EC0DF02DC171F12EC172F13D
:102664001200860E006F010E016FEF0E026F100E46
:10267400036F000E056F020E046F9FEC2CF0010136
:1026840000510111D8A457D073C1D9FF74C1DAFF26
:10269400DECF77F1DDCF78F1010E7727000E7823B6
:1026A40077C1F6FF78C1F7FFF86A0800F5CF85F126
:1026B400BF0E776FFF0E786F73C1D9FF74C1DAFF55
:1026C400DECFF6FFDDCFF7FFF86A0800F550796F2B
:1026D4007A6B7751792778517A237A5106E11A0E69
:1026E400795DD8B002D0010E01D0000E7F6F806BEF
:1026F4007F51801175C1D9FF76C1DAFFDFCF77F141
:10270400040EDE26DFCF78F1000EDD2277C1D9FF7B
:1027140078C1DAFFDECF81F1DECF82F1DECF83F143
:10272400DECF84F1020E73C1D9FF74C1DAFFDE2655
:10273400000EDD2281D773C1D9FF74C1DAFFDECF69
:10274400F6FFDDCFF7FFF86A0800F550730AD8A446
:102754002AD073C1D9FF74C1DAFFDE2A000EDD224C
:1027640075C1D9FF76C1DAFFDFCF77F1020EDE261D
:10277400DFCF78F1000EDD2277C1D9FF78C1DAFF0F
:10278400DECF7BF1DDCF7CF171C10BF172C10CF1B5
:102794007BC10DF17CC10EF117EC29F00BC171F175
:1027A4000CC172F1120073C1D9FF74C1DAFFDECF1C
:1027B400F6FFDDCFF7FFF86A0800F550250AD8A424
:1027C40017D073C1D9FF74C1DAFFDE2A000EDD22EF
:1027D400000E036F250E026F71C104F172C105F181
:1027E4009BEC2DF0000E0101726F010E716F12004F
:1027F40073C1D9FF74C1DAFFDE2A000EDD22000E98
:10280400726F000E716F120073C1D9FF74C1DAFFC9
:10281400DECFF6FFDDCFF7FFF86A0800F5500101BF
:10282400026F036B71C104F172C105F19BEC2DF0D1
:1028340073C1D9FF74C1DAFFDE2A000EDD22D2D7BC
:10284400A1C0D9FFA2C0DAFFDECFF6FFDDCFF7FFCC
:10285400F86A0800F550250AD8A4F4D1A1C0D9FF1C
:10286400A2C0DAFFDE2A000EDD22000E0101A86FED
:10287400000EA76FA7C1ABF1A8C1ACF1A969AA6901
:10288400A1C0D9FFA2C0DAFFDECFF6FFDDCFF7FF8C
:10289400F86A0800F5502E0AD8A470D0000EAA6F6A
:1028A400000EA96FA1C0D9FFA2C0DAFFDE2A000E74
:1028B400DD22A1C0D9FFA2C0DAFFDECFF6FFDDCF53
:1028C400F7FFF86A0800F5502A0AD8A41CD0A1C062
:1028D400D9FFA2C0DAFFDE2A000EDD22A3C0D9FF91
:1028E400A4C0DAFFDFCFA5F0020EDE26DFCFA6F00C
:1028F400000EDD22A5C0D9FFA6C0DAFFDECFA9F104
:10290400DDCFAAF13BD0A1C0D9FFA2C0DAFFDECF50
:1029140008F0DDCF09F038EC27F008C0A9F109C0B0
:10292400AAF107D0A1C0D9FFA2C0DAFFDE2A000EA7
:10293400DD22D00E0001A56FFF0EA66FA1C0D9FF46
:10294400A2C0DAFFDECFF6FFDDCFF7FFF86A08009A
:10295400F550A76FA86BA551A727A651A823A85186
:1029640006E10A0EA75DD8B002D0010E01D0000E18
:10297400AB6FAC6BAB51AC11D8A4D4D7A1C0D9FF09
:10298400A2C0DAFFDECFF6FFDDCFF7FFF86A08005A
:10299400F550076E086AFCEC32F007500001B36F83
:1029A400B351D8B437D0A1C0D9FFA2C0DAFFDECF6B
:1029B400A5F0DDCFA6F0010EA527000EA623A5C025
:1029C400F6FFA6C0F7FFF86A0800F550076E086A1C
:1029D400FCEC32F007500001B46FB451D8B41AD0F3
:1029E400A1C0D9FFA2C0DAFFDECFA5F0DDCFA6F0EB
:1029F400020EA527000EA623A5C0F6FFA6C0F7FF6A
:102A0400F86A0800F550076E086AFCEC32F00750CB
:102A14000001B56F660EB319D8A440D0A1C0D9FF88
:102A2400A2C0DAFFDECFF6FFDDCFF7FFF86A0800B9
:102A3400F5CFB6F0A1C0D9FFA2C0DAFFDE2A000E9E
:102A4400DD22A3C0D9FFA4C0DAFFDFCFA5F0040EB6
:102A5400DE26DFCFA6F0000EDD22A5C0D9FFA6C07A
:102A6400DAFFDECFAFF0DECFB0F0DECFB1F0DECFF5
:102A7400B2F09FC060F0A0C061F0AFC062F0B0C01F
:102A840063F0B1C064F0B2C065F0B6C066F07AEC31
:102A940008F060C09FF061C0A0F01200B30E016E98
:102AA400000E026EEF0E036E100E046E000E066E24
:102AB400020E056EF4EC2CF001500210D8A458D08C
:102AC400A1C0D9FFA2C0DAFFDECFA5F0DDCFA6F00A
:102AD400010E0001A527000EA623A5C0F6FFA6C07F
:102AE400F7FFF86A0800F5CFB6F0BF0EA56FFF0E2A
:102AF400A66FA1C0D9FFA2C0DAFFDECFF6FFDDCFFB
:102B0400F7FFF86A0800F550A76FA86BA551A7272F
:102B1400A651A823A85106E11A0EA75DD8B002D089
:102B2400010E01D0000EAD6FAE6BAD51AE11A3C05E
:102B3400D9FFA4C0DAFFDFCFA5F0040EDE26DFCF75
:102B4400A6F0000EDD22A5C0D9FFA6C0DAFFDECFB5
:102B5400AFF0DECFB0F0DECFB1F0DECFB2F0020ED8
:102B6400A1C0D9FFA2C0DAFFDE26000EDD2281D784
:102B7400A1C0D9FFA2C0DAFFDECFF6FFDDCFF7FF99
:102B8400F86A0800F550730AD8A42AD0A1C0D9FF66
:102B9400A2C0DAFFDE2A000EDD22A3C0D9FFA4C042
:102BA400DAFFDFCFA5F0020EDE26DFCFA6F0000E9F
:102BB400DD22A5C0D9FFA6C0DAFFDECFA9F0DDCFA4
:102BC400AAF09FC00CF0A0C00DF0A9C00EF0AAC0DE
:102BD4000FF0B0EC29F00CC09FF00DC0A0F0120073
:102BE400A1C0D9FFA2C0DAFFDECFF6FFDDCFF7FF29
:102BF400F86A0800F550250AD8A417D0A1C0D9FF57
:102C0400A2C0DAFFDE2A000EDD22000E046E250EBD
:102C1400036E9FC005F0A0C006F0ECEC2DF0000E92
:102C24000001A06F010E9F6F1200A1C0D9FFA2C0C6
:102C3400DAFFDE2A000EDD22000E0001A06F000E76
:102C44009F6F1200A1C0D9FFA2C0DAFFDECFF6FF4A
:102C5400DDCFF7FFF86A0800F550036E046A9FC0E1
:102C640005F0A0C006F0ECEC2DF0A1C0D9FFA2C085
:102C7400DAFFDE2A000EDD22D2D7000E026E3C0EF1
:102C8400016E330E036E100E046E000E066E020EFD
:102C9400056E89EC30F0000E026E400E016E360EA9
:102CA400036E100E046E000E066E010E056E89ECA6
:102CB40030F0000E026E400E016ED70E036E010E50
:102CC400046E000E066E020E056E8BEC2EF00101F2
:102CD400D851D7C1D1F00001D26BD1C0D2F0D16BA1
:102CE400D127000ED223D1C001F0D2C002F0000ED1
:102CF40002BEFF0E036E046E010EDDEC27F001C070
:102D0400E7F002C0E8F003C0E9F004C0EAF0000E06
:102D14002C6E000E2D6E800E2E6E470E2F6E000E42
:102D2400136E000E146EFA0E156E420E166EE7C088
:102D34000FF0E8C010F0E9C011F0EAC012F0A9ECFD
:102D440019F00FC028F010C029F011C02AF012C0E9
:102D54002BF0FFEC20F028C041F029C042F02AC03B
:102D640043F02BC044F0000E456E000E466EC00EBC
:102D7400476EC00E486ED9EC1CF041C0DFF042C073
:102D8400E0F043C0E1F044C0E2F0800E0001FA6FCD
:102D9400000E026E3C0E016EF90E036E000E046E00
:102DA400000E066E020E056E89EC30F0000E026E07
:102DB4003C0E016E1A0E036E100E046E000E066EAB
:102DC400060E056E89EC30F0860E0001FA6F000ED7
:102DD400026E3C0E016EF90E036E000E046E000EC0
:102DE400066E020E056E89EC30F0D50E0001BF6F41
:102DF400000EC06FCE0EC16F100EC26FDFC0C3F0E5
:102E0400E0C0C4F0E1C0C5F0E2C0C6F0ACEC32F002
:102E1400000E026E3C0E016ED50E036E000E046EA3
:102E2400000E066E050E056E89EC30F0010E0001F1
:102E3400FE6F000E026E3C0E016EFD0E036E000E60
:102E4400046E000E066E020E056E89EC30F0000E64
:102E5400026E400E016E350E036E100E046E000EEF
:102E6400066E010E056E89EC30F0000E026E400E07
:102E7400016EF70E036E000E046E000E066E020E57
:102E8400056E8BEC2EF0000E2C6E000E2D6E800E57
:102E94002E6E470E2F6E520E136EB80E146E2F0E3A
:102EA400156E430E166EF8C0D1F00001D26BD1BF7F
:102EB400D207F751D46FD36BD151D327D251D42336
:102EC400D3C001F0D4C002F0000E02BEFF0E036EA8
:102ED400046E010EDDEC27F001C00FF002C010F00B
:102EE40003C011F004C012F0A9EC19F00FC028F0CF
:102EF40010C029F011C02AF012C02BF0FFEC20F012
:102F040028C041F029C042F02AC043F02BC044F04D
:102F1400660E456E660E466E3B0E476EC20E486EDA
:102F2400D9EC1CF041C0E3F042C0E4F043C0E5F04A
:102F340044C0E6F0C00E0001FA6F000E026E3C0EB3
:102F4400016EF90E036E000E046E000E066E020E84
:102F5400056E89EC30F0000E026E3C0E016E210EFF
:102F6400036E100E046E000E066E060E056E89ECDE
:102F740030F0C60E0001FA6F000E026E3C0E016EB8
:102F8400F90E036E000E046E000E066E020E056E40
:102F940089EC30F0DA0E0001BF6F000EC06FCE0E68
:102FA400C16F100EC26FE3C0C3F0E4C0C4F0E5C04B
:102FB400C5F0E6C0C6F0ACEC32F0000E026E3C0E7A
:102FC400016EDA0E036E000E046E000E066E050E20
:102FD400056E89EC30F0000E0001FE6F000E026EEB
:102FE4003C0E016EFD0E036E000E046E000E066EA6
:102FF400020E056E89EC30F0120001010351800BC2
:103004000C6F03510325126F02BF12811251D8B401
:103014000DD01229D8A408D0000E006F000E016F45
:10302400000E026F000E036F028F08D0000E006FB7
:10303400000E016F000E026F000E036F0751800B2C
:103044000C1B07510725116F06BF11811151D8B40C
:103054000DD01129D8A408D0000E046F000E056FFE
:10306400000E066F000E076F068F08D0000E046F67
:10307400000E056F000E066F000E076F1151D8B4D5
:1030840003D01251D8A409D0000E006F000E016FB6
:10309400000E026F000E036F120006510003F3CFFF
:1030A40017F1F4CF18F117510D6F0E6B0F6B106BF6
:1030B4001851136F146B156B166B05510103F3CF85
:1030C40017F1F4CF18F117510D27000E0E230F231B
:1030D400102318511327000E14231523162304510B
:1030E4000203F3CF17F1F4CF18F117510D27000E97
:1030F4000E230F23102318511327000E1423152316
:1031040016230FC110F10EC10FF10DC10EF10D6B9D
:1031140004510103F3CF17F1F4CF18F117510D2720
:1031240018510E23000E0F23000E10230551000327
:10313400F3CF17F1F4CF18F117510D2718510E23BF
:10314400000E0F23000E10230FC110F10EC10FF15A
:103154000DC10EF10D6B04510003F3CF17F1F4CF41
:1031640018F117510D2718510E23000E0F23000ECE
:10317400102306510103F3CF17F1F4CF18F11751BF
:10318400132718511423000E1523000E162305517E
:103194000203F3CF17F1F4CF18F117511327185185
:1031A4001423000E1523000E162306510203F3CF39
:1031B40017F1F4CF18F11751086F1851096F0A6B02
:1031C4000B6B0AC10BF109C10AF108C109F1086BC3
:1031D40008511327095114230A5115230B5116239F
:1031E4000DC108F10EC109F10FC10AF110C10BF1B3
:1031F400190E05D0D8900B330A3309330833E82E5F
:10320400F9D708511327095114230A5115230B51D7
:1032140016230FC110F10EC10FF10DC10EF10D6B8C
:10322400115112C108F1096B0827000E0923820EFF
:103234000825176FFF0E0921186F0FD0D890133788
:1032440014371537163710BF1381D8900D370E3742
:103254000F3710371707D8A0180715AFEFD7000E90
:10326400116F10AF17D0FF0E0D15086FFF0E0E155E
:10327400096FFF0E0F150A6F7F0E10150B6F0851A3
:1032840009110A110B11D8B403D0010E116F02D029
:1032940013B1FBD71151D8B41FD0010E1327000E60
:1032A40014231523162316A117D013C108F114C132
:1032B40009F115C10AF116C10BF10B350B330A33B1
:1032C4000933083308C113F109C114F10AC115F116
:1032D4000BC116F1174B182B18BF0DD0185103E171
:1032E4001729D8A008D0000E136F000E146F800E9B
:1032F400156F7F0E20D018BF05D018510EE11705A9
:10330400D8B00BD0000E136F000E146F000E156FA3
:10331400000E166F000E0C6F0FD017C112F1FF0EC6
:103324001317FF0E14177F0E1517000E161712B180
:10333400158FD8901231166F0C51161313C100F16A
:1033440014C101F115C102F116C103F112001250AA
:10335400800B1B6E12501224216E11BE218021504D
:10336400D8B40DD02128D8A408D0000E0F6E000EBA
:10337400106E000E116E000E126E118E08D0000E2B
:103384000F6E000E106E000E116E000E126E1650AF
:10339400800B1B1A16501624206E15BE2080205058
:1033A400D8B40DD02028D8A408D0000E136E000E77
:1033B400146E000E156E000E166E158E08D0000EDB
:1033C400136E000E146E000E156E000E166E205055
:1033D400D8B403D02150D8A409D0000E0F6E000E2B
:1033E400106E000E116E000E126E120015500F02B8
:1033F400F3CF26F0F4CF27F026501C6E1D6A1E6A08
:103404001F6A2750226E236A246A256A1450100208
:10341400F3CF26F0F4CF27F026501C26000E1D22F1
:103424001E221F2227502226000E23222422252278
:1034340013501102F3CF26F0F4CF27F026501C26A8
:10344400000E1D221E221F2227502226000E232298
:10345400242225221EC01FF01DC01EF01CC01DF01A
:103464001C6A13501002F3CF26F0F4CF27F0265035
:103474001C2627501D22000E1E22000E1F2214504F
:103484000F02F3CF26F0F4CF27F026501C26275046
:103494001D22000E1E22000E1F221EC01FF01DC082
:1034A4001EF01CC01DF01C6A13500F02F3CF26F04F
:1034B400F4CF27F026501C2627501D22000E1E2272
:1034C400000E1F2215501002F3CF26F0F4CF27F080
:1034D4002650222627502322000E2422000E2522C5
:1034E40014501102F3CF26F0F4CF27F026502226F1
:1034F40027502322000E2422000E252215501102EB
:10350400F3CF26F0F4CF27F02650176E2750186E0D
:10351400196A1A6A19C01AF018C019F017C018F0FD
:10352400176A1750222618502322195024221A50A1
:1035340025221CC017F01DC018F01EC019F01FC0B2
:103544001AF0190E05D0D8901A32193218321732DF
:10355400E82EF9D717502226185023221950242276
:103564001A5025221EC01FF01DC01EF01CC01DF0E5
:103574001C6A205021C017F0186A1726000E182262
:10358400820E1724266EFF0E1820276E0FD0D890B7
:1035940022362336243625361FBE2280D8901C3688
:1035A4001D361E361F362606D8A0270624AEEFD7B2
:1035B400000E206E1FAE17D0FF0E1C14176EFF0EE8
:1035C4001D14186EFF0E1E14196E7F0E1F141A6E32
:1035D4001750181019101A10D8B403D0010E206E09
:1035E40002D022B0FBD72050D8B41FD0010E22261F
:1035F400000E23222422252225A017D022C017F052
:1036040023C018F024C019F025C01AF01A341A3255
:1036140019321832173217C022F018C023F019C01B
:1036240024F01AC025F0264A272A27BE0DD0275099
:1036340003E12628D8A008D0000E226E000E236EC7
:10364400800E246E7F0E20D027BE05D027500EE1B9
:103654002604D8B00BD0000E226E000E236E000E8E
:10366400246E000E256E000E1B6E0FD026C021F0B6
:10367400FF0E2216FF0E23167F0E2416000E2516AB
:1036840021B0248ED8902130256E1B50251222C0E3
:103694000FF023C010F024C011F025C012F0120066
:1036A40001010351800B0C6F035103250E6F02BF00
:1036B4000E810E51D8B40DD00E29D8A408D0000E16
:1036C400006F000E016F000E026F000E036F028F79
:1036D40006D0000E006F000E016F000E026F000E88
:1036E400036F0751800B0D6F0C510D19D8A40C8D6D
:1036F400075107250D6F06BF0D810D51D8B40DD0AC
:103704000D29D8A408D0000E046F000E056F000E1A
:10371400066F000E076F068F06D0000E046F000EB2
:10372400056F000E066F000E076F0E510D5DD8B0C9
:1037340022D00CAD02D0800E0C1B0EC10FF10DC1B6
:103744000EF10FC10DF100C10FF104C100F10FC161
:1037540004F101C10FF105C101F10FC105F102C16D
:103764000FF106C102F10FC106F103C10FF107C148
:1037740003F10FC107F1000E0F6F0E510DC108F1D7
:10378400096B085F000E095B09BF2CD0095104E1E5
:103794001A0E085DD8A026D00051011102110311A0
:1037A400D8B402D0010E01D0000E0F6F000E006FCE
:1037B400000E016F000E026F000E036F0DC10EF1BB
:1037C40015D00FA105D0D8900F3101090F6F02D089
:1037D400D8900F3300B10F8F033503330233013315
:1037E40000330E2B0D510E5DD8A0EBD70CBD28D0A5
:1037F4000E51D8A409D0000E006F000E016F000E08
:10380400026F000E036F12000451002705510123BB
:10381400065102230751032303A171D00FA105D040
:10382400D8900F3101090F6F02D0D8900F3300B137
:103834000F8F033503330233013300330E2B5FD074
:103844000451005D05510159065102590351800A82
:10385400086F0751800A0859D8B025D00051045D7B
:10386400086F01510559096F025106590A6F035136
:1038740007590B6FFF0E0825006FFF0E0921016F1A
:10388400FF0E0A21026FFF0E0B21036F800E0C1B2B
:103894000F6D0F51D8A40FD0010E0027000E012385
:1038A4000223032308D00451005F0551015B065134
:1038B400025B0751035B0051011102110311D8A4EB
:1038C4001CD00F51D8A419D0000E006F000E016F48
:1038D400000E026F000E036F1200D89000370137FC
:1038E400023703370FBF00810FA102D0D88001D067
:1038F400D8900F370E51D8A40E0702AFEED7000EA2
:103904000D6F0FAF0BD00FC108F17F0E0817D8B49D
:1039140003D0010E0D6F02D000B1FBD70D51D8B406
:1039240020D0010E0027000E01230223032303A14C
:1039340018D000C108F101C109F102C10AF103C1A3
:103944000BF10B350B330A330933083308C100F18B
:1039540009C101F10AC102F10BC103F10E29D8A476
:103964000E2B0E29D8B403D00E51D8A40DD0000EBE
:10397400006F000E016F000E026F000E036F0E51F8
:10398400D8A402D0000E0C6F0EA102D0028F01D079
:10399400029FD8900E31036F0CBF038F00C100F15A
:1039A40001C101F102C102F103C103F1120044504B
:1039B400800B4D6E445044244F6E43BE4F804F5095
:1039C400D8B40DD04F28D8A408D0000E416E000EF4
:1039D400426E000E436E000E446E438E06D0000EFF
:1039E400416E000E426E000E436E000E446E48504F
:1039F400800B4E6E4D504E18D8A44D8C4850482420
:103A04004E6E47BE4E804E50D8B40DD04E28D8A42A
:103A140008D0000E456E000E466E000E476E000E76
:103A2400486E478E06D0000E456E000E466E000EA0
:103A3400476E000E486E4F504E5CD8B022D04DAC4D
:103A440002D0800E4D1A4FC050F04EC04FF050C0FF
:103A54004EF041C050F045C041F050C045F042C066
:103A640050F046C042F050C046F043C050F047C04A
:103A740043F050C047F044C050F048C044F050C038
:103A840048F0000E506E4F504EC049F04A6A495EED
:103A9400000E4A5A4ABE2CD04A5004E11A0E495C20
:103AA400D8A026D04150421043104410D8B402D0BC
:103AB400010E01D0000E506E000E416E000E426EDB
:103AC400000E436E000E446E4EC04FF015D050A051
:103AD40005D0D89050300109506E02D0D8905032A1
:103AE40041B0508E443444324332423241324F2A40
:103AF4004E504F5CD8A0EBD74DBC28D04F50D8A423
:103B040009D0000E416E000E426E000E436E000E90
:103B1400446E1200455041264650422247504322EB
:103B24004850442244A071D050A005D0D8905030C1
:103B34000109506E02D0D890503241B0508E4434B6
:103B440044324332423241324F2A5FD04550415CC5
:103B540046504258475043584450800A496E485092
:103B6400800A4958D8B025D04150455C496E42502E
:103B740046584A6E435047584B6E445048584C6E12
:103B8400FF0E4924416EFF0E4A20426EFF0E4B2069
:103B9400436EFF0E4C20446E800E4D1A506C5050F4
:103BA400D8A40FD0010E4126000E42224322442203
:103BB40008D04550415E4650425A4750435A4850F7
:103BC400445A4150421043104410D8A41CD05050C1
:103BD400D8A419D0000E416E000E426E000E436E42
:103BE400000E446E1200D8904136423643364436B5
:103BF40050BE418050A002D0D88001D0D890503619
:103C04004F50D8A44F0643AEEED7000E4E6E50AEC2
:103C14000BD050C049F07F0E4916D8B403D0010E22
:103C24004E6E02D041B0FBD74E50D8B420D0010E16
:103C34004126000E42224322442244A018D041C00F
:103C440049F042C04AF043C04BF044C04CF04C34FD
:103C54004C324B324A32493249C041F04AC042F0F8
:103C64004BC043F04CC044F04F28D8A44F2A4F28EF
:103C7400D8B403D04F50D8A40DD0000E416E000E1E
:103C8400426E000E436E000E446E4F50D8A402D014
:103C9400000E4D6E4FA002D0438E01D0439ED890AB
:103CA4004F30446E4DBE448E41C041F042C042F09C
:103CB40043C043F044C044F01200000E026E500EA4
:103CC400016EFB0E036E000E046E000E066E020EF5
:103CD400056E89EC30F0D00E0001D16FC90EE82ECC
:103CE400FED7D12FFCD700D00001FC51D16FD26B8D
:103CF400020ED127000ED223D129D211D8B403D079
:103D0400040EFC2723D0FC51D16FD26B020ED127B5
:103D1400000ED223D129D211D8A406D0FB29D8B4BD
:103D240003D0FB2B000E11D0FC51D16FD26B020ECD
:103D3400D127000ED223D129D211D8A407D0FB2930
:103D4400D8A404D0000EFB6F030EFC6F000E026EAD
:103D5400500E016ECB0E036E010E046E000E066E45
:103D6400040E056E8BEC2EF0D00E0001D16FC90E3F
:103D7400E82EFED7D12FFCD700D0000E2C6E000EFB
:103D84002D6E800E2E6E470E2F6E520E136EB80ED1
:103D9400146E2F0E156E430E166E0101CC51CBC15D
:103DA400D1F00001D26BD1C0D2F0D16BD127000E7B
:103DB400D223D1C001F0D2C002F0000E02BEFF0E29
:103DC400036E046E010EDDEC27F001C00FF002C09B
:103DD40010F003C011F004C012F0A9EC19F00FC0E8
:103DE40028F010C029F011C02AF012C02BF0FFEC0B
:103DF40020F028C041F029C042F02AC043F02BC073
:103E040044F0660E456E660E466E3B0E476EC20E5D
:103E1400486ED9EC1CF041C0D8F042C0D9F043C080
:103E2400DAF044C0DBF0D30E0001BF6F000EC06FA8
:103E3400CF0EC16F100EC26FD8C0C3F0D9C0C4F08A
:103E4400DAC0C5F0DBC0C6F0ACEC32F0920E000173
:103E5400BF6F100EC06FD30EC16F000EC26F84EC23
:103E640035F0D00E0001D16FC90EE82EFED7D12F48
:103E7400FCD700D0000E2C6E000E2D6E800E2E6E20
:103E8400470E2F6E520E136EB80E146E2F0E156E53
:103E9400430E166E0101CE51CDC1D1F00001D26B9B
:103EA400D1C0D2F0D16BD127000ED223D1C001F002
:103EB400D2C002F0000E02BEFF0E036E046E010EAD
:103EC400DDEC27F001C00FF002C010F003C011F0C8
:103ED40004C012F0A9EC19F00FC028F010C029F0AA
:103EE40011C02AF012C02BF0FFEC20F028C041F0E2
:103EF40029C042F02AC043F02BC044F0660E456E40
:103F0400660E466E3B0E476EC20E486ED9EC1CF030
:103F140041C0D8F042C0D9F043C0DAF044C0DBF06D
:103F2400D30E0001BF6F000EC06FCF0EC16F100E15
:103F3400C26FD8C0C3F0D9C0C4F0DAC0C5F0DBC0CA
:103F4400C6F0ACEC32F07D0E0001BF6F100EC06FF6
:103F5400D30EC16F000EC26F84EC35F0D00E000199
:103F6400D16FC90EE82EFED7D12FFCD700D0120096
:103F740001010351800B106F03510325176F02BF1A
:103F840017811751D8B40DD01729D8A408D0000E22
:103F9400006F000E016F000E026F000E036F028FA0
:103FA40006D0000E006F000E016F000E026F000EAF
:103FB400036F0751800B101B07510725186F06BFAD
:103FC40018811851D8B40DD01829D8A408D0000EDF
:103FD400046F000E056F000E066F000E076F068F4C
:103FE40006D0000E046F000E056F000E066F000E63
:103FF400076F0451051106110711D8A417D0000E3C
:10400400006F000E016F000E026F000E036F800E32
:1040140002137F0E03131051031300C100F101C1F9
:1040240001F102C102F103C103F112001751D8A436
:1040340009D0000E006F000E016F000E026F000E1B
:10404400036F1200185117C108F1096B085F000EC5
:10405400095B7F0E0825116F000E0921126F00C144
:104064000CF101C10DF102C10EF103C10FF1000EFB
:10407400006F000E016F000E026F000E036F000E42
:10408400136F000E146F000E156F000E166F000EE6
:10409400186F28D01851D8B411D0D8900C370D37D8
:1040A4000E370F37D890003701370237033716BF62
:1040B4000081D890133714371537163704510C5D27
:1040C40005510D5906510E5907510F59D8A009D061
:1040D400168D04510C5F05510D5B06510E5B0751A3
:1040E4000F5B182B190E1865D5D70C510D110E1135
:1040F4000F11D8B411D013810FD0D89000370137E5
:104104000237033716BF0081D89013371437153799
:1041140016371107D8A0120702AFEFD7000E186F99
:1041240016AF17D0FF0E1315086FFF0E1415096F85
:10413400FF0E15150A6F7F0E16150B6F0851091126
:104144000A110B11D8B403D0010E186F02D000B1BC
:10415400FBD71851D8B41FD0010E0027000E01233D
:104164000223032303A117D000C108F101C109F1FF
:1041740002C10AF103C10BF10B350B330A330933C6
:10418400083308C100F109C101F10AC102F10BC1F0
:1041940003F1114B122B12BF10D0125103E111295C
:1041A400D8A00BD0000E126F1169000E006F000E24
:1041B400016F000E026F000E036F12BF05D0125183
:1041C40011E11105D8B00ED0000E126F000E116F60
:1041D400000E006F000E016F000E026F000E036FE1
:1041E400000E106F11C117F117A102D0028F01D078
:1041F400029FD8901731036F0ED72B50800B386E67
:104204002B502B243F6E2ABE3F803F50D8B40DD094
:104214003F28D8A408D0000E286E000E296E000E88
:104224002A6E000E2B6E2A8E06D0000E286E000E0B
:10423400296E000E2A6E000E2B6E2F50800B381A3A
:104244002F502F24406E2EBE40804050D8B40DD045
:104254004028D8A408D0000E2C6E000E2D6E000E3F
:104264002E6E000E2F6E2E8E06D0000E2C6E000EBB
:104274002D6E000E2E6E000E2F6E2C502D102E1053
:104284002F10D8A417D0000E286E000E296E000E31
:104294002A6E000E2B6E800E2A127F0E2B123850BF
:1042A4002B1228C028F029C029F02AC02AF02BC0DC
:1042B4002BF012003F50D8A409D0000E286E000E37
:1042C400296E000E2A6E000E2B6E120040503FC065
:1042D40030F0316A305E000E315A7F0E3024396E70
:1042E400000E31203A6E28C034F029C035F02AC0BF
:1042F40036F02BC037F0000E286E000E296E000E2B
:104304002A6E000E2B6E000E3B6E000E3C6E000EED
:104314003D6E000E3E6E000E406E28D04050D8B464
:1043240011D0D8903436353636363736D8902836CC
:1043340029362A362B363EBE2880D8903B363C366A
:104344003D363E362C50345C2D5035582E50365860
:104354002F503758D8A009D03E8C2C50345E2D50A5
:10436400355A2E50365A2F50375A402A190E406467
:10437400D5D73450351036103710D8B411D03B800F
:104384000FD0D890283629362A362B363EBE2880C0
:10439400D8903B363C363D363E363906D8A03A06F0
:1043A4002AAEEFD7000E406E3EAE17D0FF0E3B1480
:1043B400306EFF0E3C14316EFF0E3D14326E7F0ED4
:1043C4003E14336E3050311032103310D8B403D051
:1043D400010E406E02D028B0FBD74050D8B41FD095
:1043E400010E2826000E29222A222B222BA017D0C8
:1043F40028C030F029C031F02AC032F02BC033F08D
:104404003334333232323132303230C028F031C0BA
:1044140029F032C02AF033C02BF0394A3A2A3ABE86
:1044240010D03A5003E13928D8A00BD0000E3A6ED0
:104434003968000E286E000E296E000E2A6E000EDA
:104444002B6E3ABE05D03A5011E13904D8B00ED0E3
:10445400000E3A6E000E396E000E286E000E296EA4
:10446400000E2A6E000E2B6E000E386E39C03FF01F
:104474003FA002D02A8E01D02A9ED8903F302B6EC6
:104484000ED7000E0101016F500E006F300E026F47
:10449400100E036F000E056F020E046F74EC2FF004
:1044A400D00E0101996FC90EE82EFED7992FFCD7C3
:1044B40000D0000E0101016F500E006FD30E026F89
:1044C400010E036F000E056F010E046F48EC2DF012
:1044D400D00E0101996FC90EE82EFED7992FFCD793
:1044E40000D0D00E0101996FC90EE82EFED7992F86
:1044F400FCD700D0000E0101016F500E006F280E92
:10450400026F100E036F000E056F020E046F74EC41
:104514002FF0D00E0101996FC90EE82EFED7992F06
:10452400FCD700D0000E0101016F500E006FD50EB4
:10453400026F010E036F000E056F020E046F48EC4C
:104544002DF0D00E0101996FC90EE82EFED7992FD8
:10455400FCD700D00101D551D8A451D0030ED661A7
:104564004ED0C40E916F100E926F5CEC35F0000EBD
:104574000101016F500E006F280E026F100E036FC1
:10458400000E056F040E046F74EC2FF0D00E0101C1
:10459400996FC90EE82EFED7992FFCD700D0000ED4
:1045A4000101016F500E006F280E026F100E036F91
:1045B400000E056F020E046F74EC2FF0D00E010193
:1045C400996FC90EE82EFED7992FFCD700D0000EA4
:1045D4000101016F500E006FD50E026F010E036FC3
:1045E400000E056F020E046F48EC2DF0D00E010191
:1045F400996FC90EE82EFED7992FFCD700D0020E72
:104604000101D319D8B41200D305D8B41200370E5F
:10461400916F100E926F5CEC35F0000E0101016F8A
:10462400500E006F300E026F100E036F000E056FF8
:10463400030E046F74EC2FF0D00E0101996FC90EB4
:10464400E82EFED7992FFCD700D0000E0101016F90
:10465400500E006F300E026F100E036F000E056FC8
:10466400020E046F74EC2FF0D00E0101996FC90E85
:10467400E82EFED7992FFCD700D0000E0101016F60
:10468400500E006FD30E026F010E036F000E056F04
:10469400010E046F48EC2DF0D00E0101996FC90E84
:1046A400E82EFED7992FFCD700D012009DC129F126
:1046B4009EC12AF19FC12BF1A0C12CF119C129F18E
:1046C4001AC12AF11BC12BF11CC12CF1810E01016D
:1046D4001D6FFF0E1E6F29C11FF12AC120F12BC1CE
:1046E40021F12CC122F1180E05D0D89022332133A8
:1046F40020331F33E82EF9D71F511D25276F000ED5
:104704001E21286F28BF0FD0285104E1170E275D02
:10471400D8A009D019C119F11AC11AF11BC11BF192
:104724001CC11CF1120028BF5FD027C11DF1FF0E70
:104734001E6FFF0E1F6F7F0E206F000E216F1D670F
:1047440001D007D02135213320331F331E331D2FD1
:10475400F6D71EC123F11FC124F120C125F121C1C7
:1047640026F10101235129151D6F24512A151E6FAD
:1047740025512B151F6F26512C15206F1D511E110D
:104784001F112011D8B4C6D729C11DF12AC11EF1A9
:104794002BC11FF12CC120F1200E05D0D89020335D
:1047A4001F331E331D33E82EF9D71D511E111F115F
:1047B4002011D8B408D02351292724512A23255164
:1047C4002B2326512C23231D1D6F241D1E6F251DF5
:1047D4001F6F261D206F1D5129171E512A171F51A7
:1047E4002B1720512C1736D029C11DF12AC11EF1D7
:1047F4002BC11FF12CC120F1200E05D0D8902033FD
:104804001F331E331D33E82EF9D71D511E111F11FE
:104814002011D8A408D0000E296F000E2A6F000EB4
:104824002B6F000E16D0D89029351D6F2A351E6FB8
:104834002B351F6F2C35206F1D511E111F11201198
:10484400D8B408D0000E296F000E2A6F800E2B6F8B
:10485400BF0E2C6F29C119F12AC11AF12BC11BF10A
:104864002CC11CF112009DC151F09EC152F09FC198
:1048740053F0A0C154F041C051F042C052F043C0C3
:1048840053F044C054F0810E456EFF0E466E51C085
:1048940047F052C048F053C049F054C04AF0180ED3
:1048A40005D0D8904A32493248324732E82EF9D7F7
:1048B400475045244F6E000E4620506E50BE0FD018
:1048C400505004E1170E4F5CD8A009D041C041F00C
:1048D40042C042F043C043F044C044F0120050BE12
:1048E4005ED04FC045F0FF0E466EFF0E476E7F0E42
:1048F400486E000E496E456601D007D049344932EE
:10490400483247324632452EF6D746C04BF047C0B0
:104914004CF048C04DF049C04EF04B505114456E18
:104924004C505214466E4D505314476E4E5054140E
:10493400486E4550461047104810D8B4C7D751C0E8
:1049440045F052C046F053C047F054C048F0200E22
:1049540005D0D8904832473246324532E82EF9D74E
:104964004550461047104810D8B408D04B50512633
:104974004C5052224D5053224E5054224B1C456EE3
:104984004C1C466E4D1C476E4E1C486E45505116CD
:1049940046505216475053164850541636D051C0FC
:1049A40045F052C046F053C047F054C048F0200EC2
:1049B40005D0D8904832473246324532E82EF9D7EE
:1049C4004550461047104810D8A408D0000E516E28
:1049D400000E526E000E536E000E16D0D890513455
:1049E400456E5234466E5334476E5434486E4550C7
:1049F400461047104810D8B408D0000E516E000E6F
:104A0400526E800E536EBF0E546E51C041F052C0B0
:104A140042F053C043F054C044F01200300EF66E1E
:104A2400100EF76E000EF86E0800F5CFCFF1310EC0
:104A3400F66E100EF76EF86A0800F5CFD0F1D4C107
:104A4400D1F1000E026E500E016ECF0E036E010EF8
:104A5400046E000E066E030E056E89EC30F0D00E67
:104A64000C6ECA0EE82EFED70C2EFCD7D5C1CFF1A2
:104A7400D6C1D0F1F7C0D1F1F8C0D2F1000E026E68
:104A8400500E016ECF0E036E010E046E000E066E04
:104A9400040E056E89EC30F0D00E0C6ECA0EE82EB2
:104AA400FED70C2EFCD7300EF66E100EF76E000EED
:104AB400F86E0800F5CFCFF1310EF66E100EF76EDA
:104AC400F86A0800F5CFD0F10101D305D8A402D0CB
:104AD400020E01D0010ED36FD3C1D1F1000E026ECC
:104AE400500E016ECF0E036E010E046E000E066EA4
:104AF400030E056E89EC30F0D00E0C6ECA0EE82E53
:104B0400FED70C2EFCD7280EF66E100EF76E000E94
:104B1400F86E0800F5CFCFF1290EF66E100EF76E81
:104B2400F86A0800F5CFD0F10101D6510C6E0D6A78
:104B3400020E0C26000E0D220C280D10D8B403D042
:104B4400020ED62723D0D6510C6E0D6A020E0C2607
:104B5400000E0D220C280D10D8A406D0D529D8B4E7
:104B640003D0D52B000E11D0D6510C6E0D6A020E57
:104B74000C26000E0D220C280D10D8A407D0D52920
:104B8400D8A404D0000ED56F030ED66FD5C1D1F1D1
:104B9400D6C1D2F1000E026E500E016ECF0E036E1E
:104BA400010E046E000E066E040E056E89EC30F0E4
:104BB400D00E0C6ECA0EE82EFED70C2EFCD71200B7
:104BC40054EC36F0F28EF28C14EC36F0BDEC35F089
:104BD400ABEC35F00EEC31F059EC34F089EC33F0F9
:104BE40043EC22F0F40E01019B6F820E9A6F050EC6
:104BF400E82EFED79A2FFCD79B2FFAD77E0E010101
:104C0400006F2C0E016F7DEC36F0BE0E0101006FBB
:104C14003C0E016F78EC36F0200E0101006F4A0E55
:104C2400016F73EC36F0A4EC36F0A8EC33F001011C
:104C34009C6F0A0E9C19D8B404D00D0E9C19D8A4EC
:104C440057D0410EC36154D0000EC36F400E006FA5
:104C5400030E016FD40E026F100E036F000E056F6A
:104C6400040E046F9FEC2CF0010100510111D8A433
:104C740009D0A70E916F100E926F5CEC35F0A7EC83
:104C840036F026D0400E006F030E016FDA0E026F6D
:104C9400100E036F000E056F040E046F9FEC2CF0D2
:104CA400010100510111D8A409D0B60E916F100E64
:104CB400926F5CEC35F0A4EC36F00AD05E0E916F86
:104CC400100E926F400E936F030E946F5CEC35F0F0
:104CD400400E0101006F030E016F000E036F000E02
:104CE400026F000E056F400E046F7DEC28F09DD717
:104CF400400EC36502D0C30798D7400EC325D96EB2
:104D0400DA6A030EDA229CC1DFFFC32B400EC325EF
:104D1400D96EDA6A030EDA22000EDF6E86D7000E31
:104D24000101156F000E146F000E0E6F000E0D6F53
:104D340002D0074B082B010E136F07C1F6FF08C101
:104D4400F7FFF86A0800F550200AD8B419D0F70E16
:104D5400096FFF0E0A6F07C1F6FF08C1F7FFF86A73
:104D64000800F5500B6F0C6B09510B270A510C23EB
:104D74000C5104E1050E0B5DD8A002D0000E136F98
:104D840013C10FF1106B0F511011D8B408D0D1D743
:104D9400000E0E6F010E0D6F074B082B31D007C1AB
:104DA400F6FF08C1F7FFF86A0800F550096F0A6BAF
:104DB4000A51000AD8A424D009512B0AD8B4ECD73C
:104DC400060AD8B4E5D71CD014C100F115C101F10D
:104DD400000E036F0A0E026F70EC35F007C1F6FF88
:104DE40008C1F7FFF86A0800F5500101005F000EE2
:104DF400015B300E0025146F000E0121156FCCD716
:104E0400D00E096FFF0E0A6F07C1F6FF08C1F7FF46
:104E1400F86A0800F5500B6F0C6B09510B270A5107
:104E24000C230C5106E10A0E0B5DD8B002D0010E22
:104E340001D0000E116F126B11511211D8A4C4D7F6
:104E44000D510E11D8A40DD014C109F115C10AF1E8
:104E5400091F0A1F094B0A2B09C107F10AC108F1EE
:104E6400120014C107F115C108F11200000E166EEC
:104E7400000E156E000E0F6E000E0E6E02D0084A64
:104E8400092A010E146E08C0F6FF09C0F7FFF86A7C
:104E94000800F550200AD8B419D0F70E0A6EFF0E98
:104EA4000B6E08C0F6FF09C0F7FFF86A0800F5505A
:104EB4000C6E0D6A0A500C260B500D220D5004E1A5
:104EC400050E0C5CD8A002D0000E146E14C010F0B5
:104ED400116A10501110D8B408D0D1D7000E0F6E3B
:104EE400010E0E6E084A092A30D008C0F6FF09C028
:104EF400F7FFF86A0800F5500A6E0B6A0B50000AB7
:104F0400D8A423D00A502B0AD8B4ECD7060AD8B4B4
:104F1400E5D71BD015C001F016C002F0000E046ED8
:104F24000A0E036E98EC35F008C0F6FF09C0F7FFCF
:104F3400F86A0800F550015E000E025A300E012492
:104F4400156E000E0220166ECDD7D00E0A6EFF0E1F
:104F54000B6E08C0F6FF09C0F7FFF86A0800F550A9
:104F64000C6E0D6A0A500C260B500D220D5006E1F2
:104F74000A0E0C5CD8B002D0010E01D0000E126EE5
:104F8400136A12501310D8A4C5D70E500F10D8A40A
:104F94000DD015C00AF016C00BF00A1E0B1E0A4AEB
:104FA4000B2A0AC008F00BC009F0120015C008F063
:104FB40016C009F01200096E0950D8A404AE1AD024
:104FC40001C005F002C006F003C007F004C008F0F9
:104FD400051E061E071E081E052A000E06220722AD
:104FE400082205C00BF006C00CF007C00DF008C085
:104FF4000EF008D001C00BF002C00CF003C00DF09D
:1050040004C00EF00150021003100410D8A409D0FB
:10501400000E016E000E026E000E036E000E046E92
:105024001200960E0A6E06D00A2AD8900E320D325D
:105034000C320B32000E0B14056E000E0C14066EAF
:10504400000E0D14076EFE0E0E14086E05500610A9
:1050540007100810D8B40DD0E7D70A2A010E0B2682
:10506400000E0C220D220E22D8900E320D320C327C
:105074000B32000E0B14056E000E0C14066E000E9F
:105084000D14076EFF0E0E14086E0550061007105F
:105094000810D8B407D0E1D70A06D8900B360C36DE
:1050A4000D360E360DBE03D0020E0A60F5D70AA0E7
:1050B4000D9ED8900A320AC005F0066A076A086A8B
:1050C40005C008F0076A066A056A05500B12065007
:1050D4000C1207500D1208500E120950D8A404AE39
:1050E40001D00E8E0BC001F00CC002F00DC003F015
:1050F4000EC004F0120000C10AF101C10BF101015C
:1051040004510511D8B412000AC1D9FF0BC1DAFF4A
:1051140002C1DFFF04510A25066F05510B21076FF9
:10512400FF0E0625D96EFF0E0721DA6E02C1DFFFDE
:10513400055104E1030E045DD8A0120020EE01F035
:105144000A51D9260B51DA2202C1DFFF20EE02F008
:105154000A51D9260B51DA2202C1DFFF04510A2574
:10516400066F05510B21076FFE0E0625D96EFF0E43
:105174000721DA6E02C1DFFF04510A25066F0551CB
:105184000B21076FFD0E0625D96EFF0E0721DA6E7F
:1051940002C1DFFF055104E1070E045DD8A012002F
:1051A40020EE03F00A51D9260B51DA2202C1DFFFA7
:1051B40004510A25066F05510B21076FFC0E0625C5
:1051C400D96EFF0E0721DA6E02C1DFFF055104E13B
:1051D400090E045DD8A012000AC106F10BC107F143
:1051E400061F071F064B072B030E0615086F096BD6
:1051F40008510A2709510B230851045F0951055B23
:10520400FC0E0417FF0E05170BD00AC1D9FF0BC102
:10521400DAFF02C1DFFF0407D8A005070A4B0B2BF6
:1052240004510511D8B41200F0D721EED9F011EED3
:1052340010F0060EDBCFE3FFE806FCE20DC11BF124
:105244000EC11CF101011B511C11D8A404D0100E75
:105254001B6F010E1C6F1BC100F11CC101F1EEECB0
:1052640034F000C11FF101C120F1A9C11DF1AAC18F
:105274001EF101011EBF0ED01F511D5D1E51800A7B
:105284000F6F2051800A0F59D8B004D01DC11FF1EF
:105294001EC120F11FC11DF120C11EF1A7C119F1CA
:1052A400A8C11AF1ABA10ED017D0000E036F200EC7
:1052B400026F0BC104F10CC105F19BEC2DF001014F
:1052C4001F4B202B19511F5D2051800A0F6F1A515B
:1052D400800A0F59D8A0E9D7000E186F000E176F77
:1052E40014D01BC1D9FF1CC1DAFFDF500F6F0F515F
:1052F400026F036B0BC104F10CC105F19BEC2DF0A3
:1053040001011B4B1C2B174B182B1D51175D1851FA
:10531400800A0F6F1E51800A0F59D8A0E2D7ABB193
:105324000ED017D0000E036F200E026F0BC104F1D4
:105334000CC105F19BEC2DF001011F4B202B1951E1
:105344001F5D2051800A0F6F1A51800A0F59D8A08F
:10535400E9D71FC10BF120C10CF1120021EED9F0E5
:1053640010EE11F0060EDBCFE3FFE806FCE20EC000
:105374001CF00FC01DF01C501D10D8A404D0110E39
:105384001C6E000E1D6E1CC001F01DC002F047EC27
:1053940035F001C020F002C021F0A9C11EF0AAC15D
:1053A4001FF01FBE0ED020501E5C1F50800A106ECE
:1053B4002150800A1058D8B004D01EC020F01FC05D
:1053C40021F020C01EF021C01FF0A7C11AF0A8C10F
:1053D4001BF00101ABA10DD016D0000E046E200EFF
:1053E400036E0CC005F00DC006F0ECEC2DF0204A65
:1053F400212A1A50205C2150800A106E1B50800A0A
:105404001058D8A0EAD7000E196E000E186E13D0EB
:105414001CC0D9FF1DC0DAFFDF50106E1050036EA0
:10542400046A0CC005F00DC006F0ECEC2DF01C4A2B
:105434001D2A184A192A1E50185C1950800A106E29
:105444001F50800A1058D8A0E3D70101ABB10DD08A
:1054540016D0000E046E200E036E0CC005F00DC0B5
:1054640006F0ECEC2DF0204A212A1A50205C215041
:10547400800A106E1B50800A1058D8A0EAD720C0AA
:105484000CF021C00DF01200000E01011915216F5E
:10549400000E1A15226F800E1B15236F7F0E1C152C
:1054A400246F2151221123112411D8A408D0000EF5
:1054B400196F000E1A6F000E1B6F000E1C6F000E8A
:1054C4001D15216F000E1E15226F800E1F15236FF0
:1054D4007F0E2015246F2151221123112411D8A4E9
:1054E40008D0000E1D6F000E1E6F000E1F6F000E01
:1054F400206F1CAF09D0196D1A1FD8B01A2B1B1FAF
:10550400D8B01B2B800E1C5720AF09D01D6D1E1F59
:10551400D8B01E2B1F1FD8B01F2B800E2057000E93
:10552400191B000E1A1B000E1B1B800E1C1B000EE9
:105534001D1B000E1E1B000E1F1B800E201B1D5169
:10554400195D1E511A591F511B5920511C59D8B0AD
:1055540002D0D8901200D8801200000E2814306EA9
:10556400000E2914316E800E2A14326E7F0E2B1415
:10557400336E3050311032103310D8A408D0000EDE
:10558400286E000E296E000E2A6E000E2B6E000E81
:105594002C14306E000E2D14316E800E2E14326ECB
:1055A4007F0E2F14336E3050311032103310D8A4C4
:1055B40008D0000E2C6E000E2D6E000E2E6E000E06
:1055C4002F6E2BAE09D0286C291ED8B0292A2A1E8A
:1055D400D8B02A2A800E2B562FAE09D02C6C2D1E43
:1055E400D8B02D2A2E1ED8B02E2A800E2F56000E8B
:1055F400281A000E291A000E2A1A800E2B1A000EE1
:105604002C1A000E2D1A000E2E1A800E2F1A2C5052
:10561400285C2D5029582E502A582F502B58D8B07A
:1056240002D0D8901200D8801200A1C10AF1A2C100
:105634000BF1A3C10CF1A4C10DF100C10AF101C128
:105644000BF102C10CF103C10DF10AC104F10BC14C
:1056540005F10CC106F10DC107F1180E06D00101C8
:10566400D8900733063305330433E82EF8D70451B2
:10567400086F096B08510911D8A419D0D8900A35BC
:10568400046F0B35056F0C35066F0D35076F04512C
:10569400051106110711D8A405D0000E016F020EE2
:1056A400006F1200000E016F030E006F1200082934
:1056B4000911D8A41CD00AC104F10BC105F10CC115
:1056C40006F10DC107F1090ED890043705370637E6
:1056D4000737E82EF9D70451051106110711D8A48C
:1056E40002D0010E01D0000E006F016B1200000EFB
:1056F400016F040E006F1200A1C10BF0A2C10CF0E7
:10570400A3C10DF0A4C10EF001C00BF002C00CF057
:1057140003C00DF004C00EF00BC005F00CC006F081
:105724000DC007F00EC008F0180E05D0D89008324E
:10573400073206320532E82EF9D70550096E0A6A97
:1057440009500A10D8A419D0D8900B34056E0C3423
:10575400066E0D34076E0E34086E055006100710E1
:105764000810D8A405D0000E026E020E016E1200BD
:10577400000E026E030E016E120009280A10D8A44E
:105784001CD00BC005F00CC006F00DC007F00EC015
:1057940008F0090ED8900536063607360836E82E86
:1057A400F9D70550061007100810D8A402D0010E2E
:1057B40001D0000E016E026A1200000E026E040E89
:1057C400016E1200010102350335096F0951D8A495
:1057D40009D0000E006F000E016F000E026F000E64
:1057E400036F120000C104F101C105F102C106F109
:1057F40003C107F1200E05D0D890073306330533D3
:105804000433E82EF9D70451086F028FFF0E0017F6
:10581400FF0E0117FF0E0217000E0317960E095F05
:1058240009AF0DD00951800A970FD8A0D2D7D890CC
:105834000333023301330033093FF9D70DD01F0E70
:10584400096507D0C6D7D890003701370237033728
:1058540009070951D8A4F7D70851D8B408D0031FB1
:10586400021F011F006D000E01230223032300C148
:1058740000F101C101F102C102F103C103F11200FF
:10588400033404340A6E0A50D8A409D0000E016E01
:10589400000E026E000E036E000E046E120001C0B4
:1058A40005F002C006F003C007F004C008F0200EA3
:1058B40005D0D8900832073206320532E82EF9D7DF
:1058C4000550096E038EFF0E0116FF0E0216FF0E21
:1058D4000316000E0416960E0A5E0AAE0DD00A5088
:1058E400800A970FD8A0D2D7D8900432033202325C
:1058F40001320A3EF9D70DD01F0E0A6407D0C6D76D
:10590400D89001360236033604360A060A50D8A463
:10591400F7D70950D8B408D0041E031E021E016C28
:10592400000E02220322042201C001F002C002F090
:1059340003C003F004C004F0120000C107F101C168
:1059440008F102C109F103C10AF101010407D8A059
:10595400050704290FE10529D8A40CD0000E016F16
:10596400000E006F1200074B082B094B0A2B04078B
:10597400D8A0050707C1D9FF08C1DAFFDF50D8B4A2
:105984001ED009C1F6FF0AC1F7FFF86A0800F550F6
:105994000009D8B414D004510511D8B410D007C1EB
:1059A400D9FF08C1DAFFDF50066F09C1F6FF0AC14B
:1059B400F7FFF86A0800F5500619D8B4D4D707C120
:1059C400D9FF08C1DAFFDF50066F09C1F6FF0AC12B
:1059D400F7FFF86A0800F550065D006F016BD8A068
:1059E4000107120001C008F002C009F003C00AF068
:1059F40004C00BF00506D8A0060605280FE106280A
:105A0400D8A40CD0000E026E000E016E1200084ADB
:105A1400092A0A4A0B2A0506D8A0060608C0D9FF97
:105A240009C0DAFFDF50D8B41ED00AC0F6FF0BC09D
:105A3400F7FFF86A0800F5500009D8B414D00550EF
:105A44000610D8B410D008C0D9FF09C0DAFFDF505F
:105A5400076E0AC0F6FF0BC0F7FFF86A0800F5509E
:105A64000718D8B4D4D708C0D9FF09C0DAFFDF506B
:105A7400076E0AC0F6FF0BC0F7FFF86A0800F5507E
:105A8400075C016E026AD8A002061200C7B4FED7F2
:105A9400C5CF06F11F0E01010617D8A4F7D7C5809C
:105AA400C5B0FED701010051020DF3280A6F0AC1E7
:105AB400C9FFC7B4FED7C5BC1200000E01010C6FAC
:105AC400000E0B6F28D0C586C5B6FED701010B5159
:105AD4000225D96E0C510321DA6EC9CFDFFFFF0E08
:105AE400066FFF0E076F04C108F105C109F10651E5
:105AF4000827075109230B51081904E10C5109190E
:105B0400D8B402D0C59A01D0C58AC588C5B8FED715
:105B140001010B4B0C2B04510B5D0C51800A066FD9
:105B24000551800A0659D8A0CED7C584C5A4120051
:105B3400FDD7010104510511D8B404D00451051155
:105B4400D8A404D002516CEC36F0120020EE04F01C
:105B54000451D9260551DA22DE50DE10D8B416D00D
:105B640020EE04F00451D9260551DA2210EE02F099
:105B74000451E1260551E222DE50E65CE650800A3B
:105B84000A6FDE50800A0A59D8B0120020EE02F0E3
:105B94000451D9260551DA22DECF06F1DDCF07F113
:105BA40004C1D9FF05C1DAFFDECF08F1DDCF09F169
:105BB40006510825D96E07510921DA6E02C1DFFFAB
:105BC40020EE02F00451D9260551DA22DE2A000E15
:105BD400DD22120005500610D8B404D0055006107A
:105BE400D8A404D003509BEC36F0120020EE04F04D
:105BF4000550D9260650DA22DE50DE10D8B416D06D
:105C040020EE04F00550D9260650DA2210EE02F0F8
:105C14000550E1260650E222DE50E65CE650800A9A
:105C24000B6EDE50800A0B58D8B0120020EE02F042
:105C34000550D9260650DA22DECF07F0DDCF08F072
:105C440005C0D9FF06C0DAFFDECF09F0DDCF0AF0C8
:105C540007500924D96E08500A20DA6E03C0DFFF0A
:105C640020EE02F00550D9260650DA22DE2A000E74
:105C7400DD2212000101ABA10AD014C10BF115C140
:105C84000CF112C10DF113C10EF1E6EC33F0010178
:105C940017BF05D016C11BF117C11CF104D0000EAB
:105CA4001C6F000E1B6F000E1A6F000E196F0DD0C3
:105CB400000E036F200E026F12C104F113C105F12F
:105CC4009BEC2DF00101194B1A2B1B51195D1A5134
:105CD400800A186F1C51800A1859D8A0E9D7ABB1B3
:105CE4000AD014C10BF115C10CF112C10DF113C18D
:105CF4000EF1E6EC33F014C100F115C101F1EEEC44
:105D040034F001011B510025126F1C510121136F46
:105D14001200C7B4FED7C5CF07F01F0E0716D8A4CC
:105D2400F8D7C580C5B0FED70150020DF3280B6E1D
:105D34000BC0C9FFC7B4FED7C5BC1200000E0D6E60
:105D4400000E0C6E26D0C586C5B6FED70C500324B3
:105D5400D96E0D500420DA6EC9CFDFFFFF0E076E37
:105D6400FF0E086E05C009F006C00AF007500926A8
:105D740008500A220C50091804E10D500A18D8B42E
:105D840002D0C59A01D0C58AC588C5B8FED70C4AC9
:105D94000D2A05500C5C0D50800A076E0650800ACF
:105DA4000758D8A0D0D7C584C5A41200FDD7000ECB
:105DB4000101C725D96EDA6A020EDA22000EDF6EFF
:105DC400ABA414D0000EC725D96EDA6A020EDA220B
:105DD4000201DF8201D80AD00500FA6E0101BD512B
:105DE400FD6EBE51FE6EFF6AFA501200ABA215D0D2
:105DF400000E0101C725D96EDA6A020EDA22020109
:105E0400DF8401D80AD00500FA6E0101BB51FD6E92
:105E1400BC51FE6EFF6AFA501200000E0101C72544
:105E2400D96EDA6A020EDA22DF50D8B40BD001D868
:105E340012000500FA6EB951FD6EBA51FE6EFF6A8A
:105E4400FA50120003EC36F012000101ABA10AD0A3
:105E540015C00CF016C00DF013C00EF014C00FF0F6
:105E640021EC34F018BE05D017C01CF018C01DF08A
:105E740004D0000E1D6E000E1C6E000E1B6E000E74
:105E84001A6E0CD0000E046E200E036E13C005F0C3
:105E940014C006F0ECEC2DF01A4A1B2A1C501A5CB4
:105EA4001B50800A196E1D50800A1958D8A0EAD7D1
:105EB4000101ABB10AD015C00CF016C00DF013C02F
:105EC4000EF014C00FF021EC34F015C001F016C030
:105ED40002F047EC35F01C500124136E1D500220D3
:105EE400146E1200C7B4FED7C5CF06F11F0E010110
:105EF4000617D8A4F7D7C580C5B0FED70101005155
:105F04000025086F08C1C9FFC7B4FED7000E010100
:105F14000A6F000E096F1FD0C5BC1AD009510225A3
:105F2400066F0A510321076F06C1F6FF07C1F7FF89
:105F3400000EF86E0F0EF76403D00800F55005D07C
:105F4400F6CFE1FFF7CFE2FFE750C96EC7B4FED743
:105F54000101094B0A2B0451095D0A51800A066F9D
:105F64000551800A0659D8A0D7D7C584C5A4120004
:105F7400FDD7000E01010015086F000E0115096F11
:105F8400800E02150A6F7F0E03150B6F085109115D
:105F94000A110B11D8A408D0000E006F000E016F77
:105FA400000E026F000E036F000E0415086F000E42
:105FB4000515096F800E06150A6F7F0E07150B6F06
:105FC400085109110A110B11D8A408D0000E046F4E
:105FD400000E056F000E066F000E076F04510019C6
:105FE4000AE10551011907E10651021904E10751BB
:105FF4000319D8B402D0D8901200D8801200000E31
:106004000114096E000E02140A6E800E03140B6E46
:106014007F0E04140C6E09500A100B100C10D8A437
:1060240008D0000E016E000E026E000E036E000E0C
:10603400046E000E0514096E000E06140A6E800E1E
:1060440007140B6E7F0E08140C6E09500A100B1007
:106054000C10D8A408D0000E056E000E066E000EBB
:10606400076E000E086E055001180AE1065002186A
:1060740007E10750031804E108500418D8B402D00B
:10608400D8901200D8801200000E0101056F03AFF2
:1060940006D0026D031FD8B0032B010E056F01AFAC
:1060A40006D0006D011FD8B0012B010E051B000E98
:1060B400076F000E066F02510311D8B41CD0010EF5
:1060C400046F04D0D89002370337042B03AFFAD7F8
:1060D400D890063707370251005D03510159D8A003
:1060E40005D00251005F0351015B0681D890033350
:1060F4000233042FEDD70551D8B404D0066D071F21
:10610400D8B0072B06C100F107C101F11200C7B4D2
:10611400FED7C5CF07F01F0E0716D8A4F8D7C58041
:10612400C5B0FED701500124096E09C0C9FFC7B428
:10613400FED7000E0B6E000E0A6E1ED0C5BC1AD020
:106144000A500324076E0B500420086E07C0F6FFA4
:1061540008C0F7FF000EF86E0F0EF76403D00800B6
:10616400F55005D0F6CFE1FFF7CFE2FFE750C96E57
:10617400C7B4FED70A4A0B2A05500A5C0B50800AA2
:10618400076E0650800A0758D8A0D8D7C584C5A47E
:106194001200FDD7000E066E04AE06D0036C041E7A
:1061A400D8B0042A010E066E02AE06D0016C021E9F
:1061B400D8B0022A010E061A000E086E000E076EF1
:1061C40003500410D8B41CD0010E056E04D0D8902E
:1061D40003360436052A04AEFAD7D89007360836B3
:1061E4000350015C04500258D8A005D00350015E4E
:1061F4000450025A0780D89004320332052EEDD79A
:106204000650D8B404D0076C081ED8B0082A07C0BA
:1062140001F008C002F012009D9AB20E0101006F55
:106224005D0E016F87EC36F09D98380E0101006F0A
:106234006A0E016F82EC36F0080EB86E900EAB6EEB
:10624400240EAC6E8A0EAF6E000EB06E6E0E01019F
:10625400006F6D0E016F91EC36F0540E0101006F6A
:106264006D0E016F8CEC36F05A0E0101006F6D0E4D
:10627400016F96EC36F0000E0101C46F000ECA6F78
:10628400000EC96F400EC86F000EC76F000EC66FB8
:10629400000EC56F9D8A1200400EF66E6D0EF76EED
:1062A400000EF86E01EED9F010EE07F00900F5CFFC
:1062B400EEFFE550E150FAE1600EF66E6D0EF76EFA
:1062C400000EF86E00EEFBF010EE04F00900F5CFBE
:1062D400EEFFE550E150FAE103EE00F0800EEE6AC5
:1062E400E806FDE102EE00F0D00EEE6AE806FDE1FC
:1062F40001EE9DF03C0EEE6AE806FDE10001FA6B4A
:10630400F96BF86BF76B5E905E920001E2EF25F09B
:10631400000E0101056F01AF06D0006D011FD8B05A
:10632400012B010E056F03AF04D0026D031FD8B01B
:10633400032B02510311D8B418D0010E046F04D0FA
:10634400D89002370337042B03AFFAD70251005D0C
:1063540003510159D8A004D00251005F0351015BDD
:10636400D89003330233042FF1D70551D8B404D0A5
:10637400006D011FD8B0012B00C100F101C101F172
:106384001200000E066E02AE06D0016C021ED8B0DA
:10639400022A010E066E04AE04D0036C041ED8B0AB
:1063A400042A03500410D8B418D0010E056E04D08A
:1063B400D89003360436052A04AEFAD70350015C9C
:1063C40004500258D8A004D00350015E0450025A6D
:1063D400D89004320332052EF1D70650D8B404D035
:1063E400016C021ED8B0022A01C001F002C002F002
:1063F4001200B9C0BDF0BAC0BEF0000E0101A66F14
:10640400000EA56F17D0B7C09FF0B8C0A0F0BD0EA6
:106414000001A16F000EA26FBBC0A3F0BCC0A4F02A
:1064240022EC14F000019F510101A5270001A051A5
:106434000101A623BDC0F6FFBEC0F7FFF86A08003D
:10644400F5500009D8A4DFD7A5C1B7F0A6C1B8F0AC
:1064540012008BC18FF18CC190F1000E0101A66F67
:10646400000EA56F13D089C171F18AC172F18F0E2C
:10647400736F010E746F8DC175F18EC176F105ECE9
:1064840012F001017151A5277251A6238FC1F6FFA5
:1064940090C1F7FFF86A0800F5500009D8A4E3D7C3
:1064A400A5C189F1A6C18AF1120002C106F103C196
:1064B40007F100C108F101C109F101010651046F9E
:1064C4000751056F064B072B04C1F6FF05C1F7FF03
:1064D400000EF86E08C1D9FF09C1DAFF084B092B79
:1064E4000F0EF76403D00800F55005D0F6CFE1FF96
:1064F400F7CFE2FFE750DF6EDF50D8B41200DDD7EC
:1065040003C007F004C008F001C009F002C00AF09B
:106514000750056E0850066E074A082A05C0F6FFA4
:1065240006C0F7FF000EF86E09C0D9FF0AC0DAFFF3
:10653400094A0A2A0F0EF76403D00800F55005D063
:10654400F6CFE1FFF7CFE2FFE750DF6EDF50D8B4BC
:106554001200DED7C30E0001C96F000ECA6FBFC0A0
:10656400CBF0C0C0CCF0000ECE6F000ECD6F000E8D
:10657400D06F000ECF6FCB0EB76F000EB86FC1C0D7
:10658400B9F0C2C0BAF0C90EBB6F000EBC6FFBEC11
:1065940031F00001CD51BF25D96ECE51C021DA6E44
:1065A400000EDF6E1200BF0E0101086FFF0E096FAF
:1065B40006C10AF107C10BF108510A2709510B233F
:1065C4000B5106E11A0E0A5DD8B002D0010E01D0BB
:1065D400000E0C6F0D6B0C510D11D8B406D0200EAB
:1065E4000611066F0751076F120006C106F107C1B5
:1065F40007F11200BF0E096EFF0E0A6E07C00BF002
:1066040008C00CF009500B260A500C220C5006E16D
:106614001A0E0B5CD8B002D0010E01D0000E0D6E24
:106624000E6A0D500E10D8B406D0200E0710076E57
:106634000850086E120007C007F008C008F01200E6
:10664400000E01011D1B000E1E1B000E1F1B800EE1
:10665400201B19C100F11AC101F11BC102F11CC1B7
:1066640003F11DC104F11EC105F11FC106F120C1D2
:1066740007F152EC1BF000C119F101C11AF102C17A
:106684001BF103C11CF11200000E551A000E561A1C
:10669400000E571A800E581A51C041F052C042F0F1
:1066A40053C043F054C044F055C045F056C046F0C2
:1066B40057C047F058C048F0D9EC1CF041C051F025
:1066C40042C052F043C053F044C054F01200010ED3
:1066D4000101066F200E00190111D8B414D0F70E71
:1066E400026FFF0E036F00C104F101C105F10251F5
:1066F400042703510523055104E1050E045DD8A0C8
:1067040002D0000E066F06C100F1016B1200000EEC
:106714000101016F3C0E006F040E026F100E036F37
:10672400000E056F0B0E046F74EC2FF0000E0101C8
:10673400016F3C0E006F0F0E026F100E036F000E00
:10674400056F0B0E046F74EC2FF012000101C5519C
:10675400D8B4FCD7000EC625D96EDA6A020EDA2246
:10676400DF50C46F000EC625D96EDA6A030EDA2232
:10677400DF50006FC62B3F0EC66502D0000EC66FF9
:106784009D9AC5079D8A00511200010E076E200EC6
:1067940001180210D8B414D0F70E036EFF0E046E65
:1067A40001C005F002C006F003500526045006227D
:1067B400065004E1050E055CD8A002D0000E076E59
:1067C40007C001F0026A1200000E0101116F000EF1
:1067D400106F0CD00FC102F1036B0DC104F10EC197
:1067E40005F19BEC2DF00101104B112B10510B25E1
:1067F400D96E11510C21DA6EDF500F6F0F51D8B4DE
:106804001200E8D70101006F0101C851D8B4FCD7C8
:106814009DB803D000C1ADFF10D09D98400ECA258D
:10682400D96EDA6A020EDA2200C1DFFFCA2B3F0EEC
:10683400CA6502D0000ECA6FC8079D881200000EF8
:10684400126E000E116E0BD010C003F0046A0EC05D
:1068540005F00FC006F0ECEC2DF0114A122A11508D
:106864000C24D96E12500D20DA6EDF50106E1050C9
:10687400D8B41200E9D7016E0101C851D8B4FCD7CD
:106884009DB803D001C0ADFF10D09D98400ECA251D
:10689400D96EDA6A020EDA2201C0DFFFCA2B3F0E7C
:1068A400CA6502D0000ECA6FC8079D88120094867C
:1068B40094880F013A973A999F0EC86E280EC66EB7
:1068C400000EC56E000E0101016F3C0E006F2C0E10
:1068D400026F100E036F000E056F040E046F74EC4C
:1068E4002FF01200BF0E0101026FFF0E036F00C1F3
:1068F40004F101C105F10251042703510523055197
:1069040006E11A0E045DD8B002D0010E01D0000ECB
:10691400006F016B1200D00E0101026FFF0E036FB6
:1069240000C104F101C105F10251042703510523FB
:10693400055106E10A0E045DD8B002D0010E01D063
:10694400000E006F016B12000101005101110211D0
:106954000311D8B408D0000E001B000E011B000E5A
:10696400021B800E031B00C100F101C101F102C131
:1069740002F103C103F11200BF0E036EFF0E046E99
:1069840001C005F002C006F003500526045006229B
:10699400065006E11A0E055CD8B002D0010E01D0F3
:1069A400000E016E026A1200D00E036EFF0E046E1A
:1069B40001C005F002C006F003500526045006226B
:1069C400065006E10A0E055CD8B002D0010E01D0D3
:1069D400000E016E026A120000C102F101C103F14E
:1069E40003D00101004B012B00C1D9FF01C1DAFF23
:1069F400DF50D8A4F6D701010251005D006F0351A6
