:0400000058EF00F0C5
:100008002082FACF1AF0FBCF1BF0D9CF1CF0DACF41
:100018001DF0F2AC12EF00F014EF00F04EEF00F01C
:100028009DA819EF00F01BEF00F031EF00F09EA83B
:1000380020EF00F022EF00F031EF00F002D82FEFB0
:1000480000F00500FA6E1150FD6E1250FE6EF85069
:10005800FF6EFA5012004EEF00F09DAA36EF00F046
:1000680038EF00F04EEF00F09EAA3DEF00F03FEFB2
:1000780000F04EEF00F002D84CEF00F00500FA6EE9
:100088000F50FD6E1050FE6EF850FF6EFA501200C1
:100098004EEF00F01DC0DAFF1CC0D9FF1BC0FBFFEC
:1000A8001AC0FAFF2092110066EF01F0600E1624C4
:1000B800D96EDA6A000EDA22000EDF6EABA467EFA3
:1000C80000F069EF00F07EEF00F0600E1624D96EA4
:1000D800DA6A000EDA220001DF8202D87EEF00F031
:1000E8000500FA6E0D50FD6E0E50FE6EF850FF6E54
:1000F800FA501200ABA283EF00F085EF00F09AEF00
:1001080000F0600E1624D96EDA6A000EDA220001B9
:10011800DF8402D89AEF00F00500FA6E0B50FD6EEE
:100128000C50FE6EF850FF6EFA501200600E162446
:10013800D96EDA6A000EDA22DF50D8B4A6EF00F0E2
:10014800A8EF00F0B7EF00F002D8B5EF00F0050017
:10015800FA6E0950FD6E0A50FE6EF850FF6EFA50A6
:100168001200B9EF00F051EC01F012009D9AB40EA4
:100178001E6E000E1F6EA3EC01F09D98380E1E6EC9
:10018800020E1F6E9EEC01F0080EB86E900EAB6E5C
:10019800240EAC6E8A0EAF6E000EB06E800E1E6E10
:1001A800030E1F6EADEC01F06E0E1E6E030E1F6E79
:1001B800A8EC01F0740E1E6E030E1F6EB2EC01F077
:1001C800000E136E000E196E000E186E080E176ED4
:1001D800000E166E000E156E000E146E9D8A12002B
:1001E8001450D8B4FAEF00F0FCEF00F0F4EF00F090
:1001F800600E1524D96EDA6A000EDA22DF50136E0B
:10020800A00E1524D96EDA6A000EDA22DF501E6EAF
:10021800152A3F0E156413EF01F015EF01F017EFE3
:1002280001F0000E156E9D9A14069D8A1E5012004C
:10023800080E176022EF01F024EF01F03AEF01F009
:10024800010E1824D96EDA6A000EDA22DF50AD6E7C
:10025800182A070E186433EF01F035EF01F037EF75
:1002680001F0000E186E172A3BEF01F09D9812005E
:10027800000E896E000E8A6E000E8B6E926893686F
:10028800BF0E946E3C0E0F013A6F3F0E396F2F0E62
:10029800386F000E616EF18E1200A00E1624D96E12
:1002A800DA6A000EDA22AECFDFFF162A3F0E166496
:1002B80060EF01F062EF01F064EF01F0000E166EDE
:1002C800142A120000EE60F0800EEE6AE806FDE1E6
:1002D80000EE01F0190EEE6AE806FDE1209020928A
:1002E800000EF86E000179EF01F095EC01F0F28E46
:1002F800F28CBAEC00F0BFEC01F0F4EC00F07FEF08
:1003080001F058EF00F0700ED36E040ED26E400E5E
:100318009B6ED2AE92EF01F094EF01F08DEF01F0F9
:100328001200BDEC01F03CEC01F087EC01F0BAECF6
:1003380000F012001EC011F01FC012F012001EC003
:100348000FF01FC010F012001EC00BF01FC00CF001
:1003580012001EC00DF01FC00EF012001EC009F0E2
:100368001FC00AF01200AB98AB88120051EC01F0E4
:0A0378001200D09E120012001200C5
:020000040020DA
:08000000FFFFFFFFFFFFFFFF00
:020000040030CA
:0E000000FF281F3CFFBF85FF0FC00FE00F4021
:00000001FF
