:040000007CEF00F0A1
:100008005782FACF05F0FBCF06F0D9CF07F0DACF49
:1000180008F0F2AC12EF00F014EF00F072EF00F00D
:100028009DAC19EF00F01BEF00F026EF00F09EAC3E
:1000380020EF00F022EF00F026EF00F012EC1CF0A9
:1000480072EF00F09DA82BEF00F02DEF00F043EFCA
:1000580000F09EA832EF00F034EF00F043EF00F01C
:1000680002D841EF00F00500FA6E00018051FD6EE4
:100078008151FE6EFF6AFA50120072EF00F09DAADD
:1000880048EF00F04AEF00F060EF00F09EAA4FEF53
:1000980000F051EF00F060EF00F002D85EEF00F0E2
:1000A8000500FA6E00017E51FD6E7F51FE6EFF6AFB
:1000B800FA50120072EF00F09DA265EF00F067EFB2
:1000C80000F072EF00F09EA26CEF00F06EEF00F00F
:1000D80072EF00F01CEC1BF072EF00F008C0DAFFC2
:1000E80007C0D9FF06C0FBFF05C0FAFF57921100F1
:1000F800E8EF16F00C50800B156E0C500C24176EA0
:100108000BAE89EF00F08BEF00F08CEF00F017805A
:100118001750D8B492EF00F094EF00F0A9EF00F078
:100128001728D8A49AEF00F09CEF00F0A4EF00F095
:10013800000E096E000E0A6E000E0B6E000E0C6E9D
:100148000B8E000E0C6EB1EF00F0000E096E000E63
:100158000A6E000E0B6E000E0C6E1050800B166EA1
:1001680015501618D8B4BBEF00F0BDEF00F0BEEF85
:1001780000F0158C10501024166E0FAEC6EF00F06C
:10018800C8EF00F0C9EF00F016801650D8B4CFEFD2
:1001980000F0D1EF00F0E6EF00F01628D8A4D7EF72
:1001A80000F0D9EF00F0E1EF00F0000E0D6E000E48
:1001B8000E6E000E0F6E000E106E0F8E000E106E7B
:1001C800EEEF00F0000E0D6E000E0E6E000E0F6EBC
:1001D800000E106E1750165CD8B0F5EF00F0F7EF70
:1001E80000F01EEF01F015ACFCEF00F0FEEF00F0A0
:1001F80000EF01F0800E151A17C018F016C017F09E
:1002080018C016F009C018F00DC009F018C00DF09C
:100218000AC018F00EC00AF018C00EF00BC018F093
:100228000FC00BF018C00FF00CC018F010C00CF085
:1002380018C010F0000E186E175016C011F0126A90
:10024800115E000E125A12BE33EF01F0125009E18E
:100258001A0E115CD8A033EF01F035EF01F06CEF06
:1002680001F009500A100B100C10D8A43EEF01F051
:1002780041EF01F0010E42EF01F0000E186E000E82
:10028800096E000E0A6E000E0B6E000E0C6E16C084
:1002980017F075EF01F018A054EF01F056EF01F0D8
:1002A8005CEF01F0D89018300109186E5EEF01F08C
:1002B800D890183209A063EF01F065EF01F066EFFE
:1002C80001F0188E0C340C320B320A320932172A1C
:1002D8001650175CD8A073EF01F075EF01F04FEFDF
:1002E80001F015BC7AEF01F07CEF01F0BCEF01F0F2
:1002F8001750D8A482EF01F084EF01F08EEF01F0DF
:10030800000E096E000E0A6E000E0B6E000E0C6ECB
:10031800DDEF02F00D5009260E500A220F500B2275
:1003280010500C220CA09BEF01F09DEF01F049EF5B
:1003380002F018A0A2EF01F0A4EF01F0AAEF01F07B
:10034800D89018300109186EACEF01F0D890183227
:1003580009A0B1EF01F0B3EF01F0B4EF01F0188E8E
:100368000C340C320B320A320932172A49EF02F0E8
:100378000D50095C0E500A580F500B580C50800A4B
:10038800116E1050800A1158D8B0CDEF01F0CFEFA0
:1003980001F0FAEF01F009500D5C116E0A500E5889
:1003A800126E0B500F58136E0C501058146EFF0E2F
:1003B8001124096EFF0E12200A6EFF0E13200B6E19
:1003C800FF0E14200C6E800E151A186C1850D8A445
:1003D800F0EF01F0F2EF01F002EF02F0010E092652
:1003E800000E0A220B220C2202EF02F00D50095EC9
:1003F8000E500A5A0F500B5A10500C5A09500A1036
:100408000B100C10D8A40BEF02F00DEF02F042EF26
:1004180002F01850D8A413EF02F015EF02F042EFE3
:1004280002F0000E096E000E0A6E000E0B6E000E32
:100438000C6EDDEF02F0D89009360A360B360C3612
:1004480018AE29EF02F02BEF02F02CEF02F0098032
:1004580018A031EF02F033EF02F037EF02F0D88046
:10046800183639EF02F0D89018361750D8B43FEF45
:1004780002F041EF02F042EF02F017060BAE47EF31
:1004880002F049EF02F01FEF02F0000E166E18AEF0
:1004980050EF02F052EF02F06AEF02F018C011F0CC
:1004A8007F0E1116D8B45BEF02F05DEF02F061EF3A
:1004B80002F0010E166E6AEF02F009A066EF02F074
:1004C80068EF02F06AEF02F05DEF02F01650D8B460
:1004D80070EF02F072EF02F09DEF02F0010E0926B4
:1004E800000E0A220B220C220CA07DEF02F07FEFF7
:1004F80002F09DEF02F009C011F00AC012F00BC023
:1005080013F00CC014F014341432133212321132B6
:1005180011C009F012C00AF013C00BF014C00CF09F
:100528001728D8B49AEF02F09CEF02F09DEF02F082
:10053800172A1728D8B4A3EF02F0A5EF02F0ADEF01
:1005480002F01750D8A4ABEF02F0ADEF02F0BFEF06
:1005580002F0000E096E000E0A6E000E0B6E000E01
:100568000C6E1750D8A4BBEF02F0BDEF02F0BFEF3E
:1005780002F0000E156E17A0C4EF02F0C6EF02F0ED
:10058800C9EF02F00B8ECAEF02F00B9ED89017301D
:100598000C6E15AED2EF02F0D4EF02F0D5EF02F0F8
:1005A8000C8E09C009F00AC00AF00BC00BF00CC091
:1005B8000CF012000C50800B156E0C500C241B6EA6
:1005C8000BAEE9EF02F0EBEF02F0ECEF02F01B806C
:1005D8001B50D8B4F2EF02F0F4EF02F007EF03F08B
:1005E8001B28D8A4FAEF02F0FCEF02F004EF03F0A6
:1005F800000E096E000E0A6E000E0B6E000E0C6ED9
:100608000B8E0FEF03F0000E096E000E0A6E000E3F
:100618000B6E000E0C6E1050800B151A1050102423
:100628001A6E0FAE1AEF03F01CEF03F01DEF03F084
:100638001A801A50D8B423EF03F025EF03F038EFEF
:1006480003F01A28D8A42BEF03F02DEF03F035EFB1
:1006580003F0000E0D6E000E0E6E000E0F6E000EF3
:10066800106E0F8E40EF03F0000E0D6E000E0E6E32
:10067800000E0F6E000E106E1A50D8B446EF03F03D
:1006880048EF03F050EF03F01B50D8A44EEF03F0EF
:1006980050EF03F05AEF03F0000E096E000E0A6ED9
:1006A800000E0B6E000E0C6EF2EF04F00F500902F4
:1006B800F3CF20F0F4CF21F02050166E176A186A95
:1006C800196A21501C6E1D6A1E6A1F6A0E500A02A2
:1006D800F3CF20F0F4CF21F020501626000E172279
:1006E8001822192221501C26000E1D221E221F220C
:1006F8000D500B02F3CF20F0F4CF21F02050162636
:10070800000E17221822192221501C26000E1D2225
:100718001E221F2218C019F017C018F016C017F0B3
:10072800166A0D500A02F3CF20F0F4CF21F02050C2
:10073800162621501722000E1822000E19220E50DC
:100748000902F3CF20F0F4CF21F0205016262150D3
:100758001722000E1822000E192218C019F017C00F
:1007680018F016C017F0166A0D500902F3CF20F0E2
:10077800F4CF21F02050162621501722000E1822FF
:10078800000E19220F500A02F3CF20F0F4CF21F007
:1007980020501C2621501D22000E1E22000E1F2252
:1007A8000E500B02F3CF20F0F4CF21F020501C267E
:1007B80021501D22000E1E22000E1F220F500B0278
:1007C800F3CF20F0F4CF21F02050116E2150126E9B
:1007D800136A146A13C014F012C013F011C012F097
:1007E800116A11501C2612501D2213501E2214503B
:1007F8001F2216C011F017C012F018C013F019C04C
:1008080014F0190E0DEF04F0D8901432133212328E
:100818001132E82E08EF04F011501C2612501D2248
:1008280013501E2214501F2218C019F017C018F0B8
:1008380016C017F0166A1A501BC011F0126A11265A
:10084800000E1222820E1124206EFF0E1220216E3D
:1008580043EF04F0D8901C361D361E361F3619AEED
:1008680038EF04F03AEF04F03BEF04F01C80D89026
:1008780016361736183619362006D8A021061EAEA9
:1008880048EF04F04AEF04F02EEF04F0000E1A6E61
:1008980019AE51EF04F053EF04F077EF04F0FF0EB8
:1008A8001614116EFF0E1714126EFF0E1814136E25
:1008B8007F0E1914146E1150121013101410D8B49E
:1008C80068EF04F06AEF04F06EEF04F0010E1A6EA0
:1008D80077EF04F01CA073EF04F075EF04F077EFE6
:1008E80004F06AEF04F01A50D8B47DEF04F07FEFFB
:1008F80004F0A3EF04F0010E1C26000E1D221E2298
:100908001F221FA08AEF04F08CEF04F0A3EF04F07D
:100918001CC011F01DC012F01EC013F01FC014F04F
:100928001434143213321232113211C01CF012C0B6
:100938001DF013C01EF014C01FF0204A212A21BE4A
:10094800AEEF04F0215008E12028D8A0AEEF04F063
:10095800B0EF04F0BAEF04F0000E1C6E000E1D6E2E
:10096800800E1E6E7F0E1F6EE8EF04F021BEC7EFEB
:1009780004F0215006E12004D8B0C5EF04F0C7EF19
:1009880004F0D3EF04F0000E1C6E000E1D6E000E76
:100998001E6E000E1F6E000E156EE8EF04F020C0EC
:1009A8001BF0FF0E1C16FF0E1D167F0E1E16000EE6
:1009B8001F161BA0E2EF04F0E4EF04F0E5EF04F0EB
:1009C8001E8ED8901B301F6E15501F121CC009F0C8
:1009D8001DC00AF01EC00BF01FC00CF0120068C04A
:1009E80035F069C036F06AC037F06BC038F023C004
:1009F80035F024C036F025C037F026C038F035C0B1
:100A080027F036C028F037C029F038C02AF0180E71
:100A180013EF05F0D8902A32293228322732E82EEF
:100A28000EEF05F027502F6E306A30BE25EF05F027
:100A3800305009E1960E2F5CD8A025EF05F027EF7E
:100A480005F031EF05F023C023F024C024F025C0C1
:100A580025F026C026F0C9EF06F035C027F036C0CD
:100A680028F037C029F038C02AF0200E41EF05F0F1
:100A7800D8902A32293228322732E82E3CEF05F066
:100A88002750281029102A10D8B44DEF05F04FEF41
:100A980005F061EF05F023C009F024C00AF025C075
:100AA8000BF026C00CF0ACEC1AF009C023F00AC019
:100AB80024F00BC025F00CC026F030BE6FEF05F017
:100AC800305007E17E0E2F5CD8B06DEF05F06FEF68
:100AD80005F08BEF05F035C009F036C00AF037C0D5
:100AE8000BF038C00CF0000E0D6E000E0E6E000EEE
:100AF8000F6E000E106EDEEC02F009C023F00AC083
:100B080024F00BC025F00CC026F0C9EF06F0000E4B
:100B18000D6E000E0E6E000E0F6E4B0E106E23C083
:100B280009F024C00AF025C00BF026C00CF07EECBA
:100B380000F009C031F00AC032F00BC033F00CC02D
:100B480034F0000E0D6E000E0E6E000E0F6ECB0E02
:100B5800106E31C009F032C00AF033C00BF034C057
:100B68000CF07EEC00F009C02BF00AC02CF00BC092
:100B78002DF00CC02EF02BC019F02CC01AF02DC08F
:100B88001BF02EC01CF023C01DF024C01EF025C091
:100B98001FF026C020F0CBEC19F019C039F01AC0AC
:100BA8003AF01BC03BF01CC03CF0000E096E000E72
:100BB8000A6E000E0B6E3F0E0C6E39C00DF03AC077
:100BC8000EF03BC00FF03CC010F003EC13F0D8B0AF
:100BD800F0EF05F0F2EF05F028EF06F023C00DF076
:100BE80024C00EF025C00FF026C010F039C009F05F
:100BF8003AC00AF03BC00BF03CC00CF07EEC00F0B1
:100C080009C031F00AC032F00BC033F00CC034F028
:100C180031C009F032C00AF033C00BF034C00CF018
:100C2800000E0D6E000E0E6E800E0F6EBF0E106E53
:100C38007EEC00F009C039F00AC03AF00BC03BF076
:100C48000CC03CF091EF06F0000E096E000E0A6E23
:100C5800000E0B6EBF0E0C6E39C00DF03AC00EF0D0
:100C68003BC00FF03CC010F003EC13F0D8A03FEFEE
:100C780006F041EF06F077EF06F023C00DF024C030
:100C88000EF025C00FF026C010F039C009F03AC0A8
:100C98000AF03BC00BF03CC00CF07EEC00F009C041
:100CA80031F00AC032F00BC033F00CC034F031C060
:100CB80009F032C00AF033C00BF034C00CF0000E5B
:100CC8000D6E000E0E6E800E0F6E3F0E106E7EECD7
:100CD80000F009C039F00AC03AF00BC03BF00CC074
:100CE8003CF091EF06F039C009F03AC00AF03BC079
:100CF8000BF03CC00CF023C00DF024C00EF025C052
:100D08000FF026C010F07EEC00F009C039F00AC0E0
:100D18003AF00BC03BF00CC03CF035C027F036C0B1
:100D280028F037C029F038C02AF0200EA1EF06F0CD
:100D3800D8902A32293228322732E82E9CEF06F042
:100D48002750281029102A10D8B4ADEF06F0AFEFBD
:100D580006F0C1EF06F039C009F03AC00AF03BC00E
:100D68000BF03CC00CF0ACEC1AF009C039F00AC02A
:100D78003AF00BC03BF00CC03CF039C023F03AC04D
:100D880024F03BC025F03CC026F0120028C040F0FB
:100D980029C041F02AC042F02BC043F02CC044F0D7
:100DA8002DC045F02EC046F02FC047F047BEDFEFFC
:100DB80006F0E2EF06F0010EE3EF06F0000E3E6EDD
:100DC8003F6A3E503F10D8B4ECEF06F0EEEF06F065
:100DD800FEEF06F0471E461E451E441E431E421ED9
:100DE800411E406C000E41224222432244224522E9
:100DF80046224722000173BF04EF07F006EF07F011
:100E080007EF07F04E9273BF14EF07F0735106E136
:100E18007205D8B012EF07F014EF07F01AEF07F0D9
:100E2800000E3B6E010E3A6E1EEF07F072C03AF0EC
:100E380073C03BF070C03CF071C03DF03E503F10B5
:100E4800D8A429EF07F02BEF07F032EF07F04EA4F4
:100E580030EF07F032EF07F035EF07F03C06D8A087
:100E68003D06000E496E1F0E486E000EA46FB9EFC6
:100E780007F04806D8A04906850E4824D96E000E0A
:100E88004920DA6E40C009F041C00AF042C00BF0B8
:100E980043C00CF044C00DF045C00EF046C00FF042
:100EA80047C010F00A0E116E000E126E000E136E7F
:100EB800000E146E000E156E000E166E000E176EE4
:100EC800000E186E43EC11F009C030F00AC031F082
:100ED8000BC032F00CC033F00DC034F00EC035F04A
:100EE8000FC036F010C037F030C01BF032C01CF015
:100EF80031EC1AF01B50300FDF6E3A06D8A03B06D3
:100F08003C06D8A03D0640C009F041C00AF042C0E6
:100F18000BF043C00CF044C00DF045C00EF046C0C5
:100F28000FF047C010F00A0E116E000E126E000E80
:100F3800136E000E146E000E156E000E166E000E67
:100F4800176E000E186E7FEC10F009C040F00AC052
:100F580041F00BC042F00CC043F00DC044F00EC08D
:100F680045F00FC046F010C047F049BEC4EF07F087
:100F7800495008E14804D8A0C4EF07F0C6EF07F0CD
:100F8800F6EF07F04050411042104310441045104E
:100F980046104710D8A4D3EF07F0D5EF07F03DEF80
:100FA80007F03BBEE2EF07F03B5006E13A04D8B049
:100FB800E0EF07F0E2EF07F03DEF07F03DBEEDEFA1
:100FC80007F03D5008E13C04D8A0EDEF07F0EFEF43
:100FD80007F0F6EF07F04EB2F4EF07F0F6EF07F080
:100FE8003DEF07F03E503F10D8A4FDEF07F0FFEFAC
:100FF80007F006EF08F04EA404EF08F006EF08F03B
:1010080024EF08F04806D8A049063E503F10D8A45F
:1010180010EF08F012EF08F018EF08F0000E396E24
:101028002B0E386E1CEF08F0000E396E2D0E386E40
:10103800850E4824D96E000E4920DA6E38C0DFFFCD
:1010480026C01BF027C01CF0850E48241D6E000E1C
:1010580049201E6E3CC01FF03DC020F026EC15F064
:101068001BC026F01CC027F01200000120EE02F081
:10107800C451D926C551DA22DECF09F0DDCF0AF0F6
:10108800F20E0B6EFF0E0C6EA6EC17F009500A104C
:10109800D8A451EF08F053EF08F0A7EF08F00001CB
:1010A80020EE04F0C451D926C551DA22DECF09F06A
:1010B800DDCF0AF0780E0B6EFF0E0C6EA6EC17F063
:1010C80009500A10D8A46BEF08F06DEF08F072EF22
:1010D80008F0010E1DEC0DF095EF09F0000120EE6F
:1010E80004F0C451D926C551DA22DECF10F0DDCF85
:1010F80011F0BAEC0FF010C0C6F011C0C7F0D10E55
:101108000001BC6FFE0EBD6FC6C0BEF0C7C0BFF009
:101118005FEC1BF00EEC1CF00009D8A496EF08F069
:1011280098EF08F09FEF08F0600E0001BC6FFC0E0E
:10113800BD6F5FEC1BF0C6C017F0C7C018F0E7EC36
:1011480015F095EF09F0000120EE02F0C451D92600
:10115800C551DA22DECF09F0DDCF0AF0D90E0B6EC9
:10116800FF0E0C6EA6EC17F009500A10D8A4BFEFBA
:1011780008F0C1EF08F0D8EF08F00EEC1CF00009F9
:10118800D8B4C9EF08F0CBEF08F0D4EF08F00A0E96
:101198000001BC6FFF0EBD6F5FEC1BF095EF09F00F
:1011A80002EC1CF08EEF09F0000120EE02F0C451B1
:1011B800D926C551DA22DECF09F0DDCF0AF0E90ED3
:1011C8000B6EFF0E0C6EA6EC17F009500A10D8A48F
:1011D800F0EF08F0F2EF08F009EF09F00EEC1CF060
:1011E8000009D8A4FAEF08F0FCEF08F005EF09F0C1
:1011F800EE0E0001BC6FFE0EBD6F5FEC1BF095EFAD
:1012080009F0FFEC1BF08EEF09F0000120EE02F070
:10121800C451D926C551DA22DECF09F0DDCF0AF054
:10122800C50E0B6EFF0E0C6EA6EC17F009500A10D7
:10123800D8A421EF09F023EF09F08EEF09F05E0E34
:101248000001BC6FFF0EBD6F5FEC1BF0EA0E0001E2
:10125800BC6FFD0EBD6F5FEC1BF0B30E0001BC6FE1
:10126800FE0EBD6F5FEC1BF0380E0001BC6FFF0E69
:10127800BD6F5FEC1BF0A40E0001BC6FFF0EBD6FCD
:101288005FEC1BF0110E0001BC6FFE0EBD6F5FEC32
:101298001BF0380E0001BC6FFF0EBD6F5FEC1BF03A
:1012A8006C0E0001BC6FFF0EBD6F5FEC1BF0460EAD
:1012B8000001BC6FFD0EBD6F5FEC1BF0150E000149
:1012C800BC6FFC0EBD6F5FEC1BF0950E0001BC6F90
:1012D800FE0EBD6F5FEC1BF0570E0001BC6FFE0EDB
:1012E800BD6F5FEC1BF0380E0001BC6FFF0EBD6FC9
:1012F8005FEC1BF0AD0E0001BC6FFF0EBD6F5FEC25
:101308001BF09A0E0001BC6FFC0EBD6F5FEC1BF06A
:1013180095EF09F0C60E0001BC6FFC0EBD6F5FECC7
:101328001BF01200A7C0D9FFA8C0DAFFDECFF6FF76
:10133800DDCFF7FFF86A0800F550250AD8A4A7EF13
:1013480009F0A9EF09F0D1EF0AF0A7C0D9FFA8C0AA
:10135800DAFFDE2A000EDD22000E0001716F000E9A
:10136800706F70C04EF071C04FF072697369A7C09A
:10137800D9FFA8C0DAFFDECFF6FFDDCFF7FFF86AA6
:101388000800F550630AD8A4CCEF09F0CEEF09F0B5
:10139800F5EF09F0A7C0D9FFA8C0DAFFDE2A000ED2
:1013A800DD22A9C0D9FFAAC0DAFFDFCF4AF0020EBA
:1013B800DE26DFCF4BF0000EDD224AC0D9FF4BC03E
:1013C800DAFFDF50B56FA5C014F0A6C015F0B5C0A0
:1013D80016F0F6EC13F014C0A5F015C0A6F0EDEF6A
:1013E8000AF0A7C0D9FFA8C0DAFFDECFF6FFDDCF2D
:1013F800F7FFF86A0800F550640AD8B406EF0AF057
:1014080008EF0AF01BEF0AF0A7C0D9FFA8C0DAFF5F
:10141800DECFF6FFDDCFF7FFF86A0800F550690A5E
:10142800D8A419EF0AF01BEF0AF05BEF0AF0A7C087
:10143800D9FFA8C0DAFFDE2A000EDD22A9C0D9FF35
:10144800AAC0DAFFDFCF4AF0020EDE26DFCF4BF06C
:10145800000EDD224AC0D9FF4BC0DAFFDECFABF069
:10146800DDCFACF0000EACBFFF0EAD6FAE6FAF6F4F
:10147800B06FB16FB26FA5C026F0A6C027F0ABC0A1
:1014880028F0ACC029F0ADC02AF0AEC02BF0AFC038
:101498002CF0B0C02DF0B1C02EF0B2C02FF0CAECC5
:1014A80006F026C0A5F027C0A6F0EDEF0AF0A7C009
:1014B800D9FFA8C0DAFFDECFF6FFDDCFF7FFF86A65
:1014C8000800F550730AD8A46CEF0AF06EEF0AF022
:1014D80099EF0AF0A7C0D9FFA8C0DAFFDE2A000EEC
:1014E800DD22A9C0D9FFAAC0DAFFDFCF4AF0020E79
:1014F800DE26DFCF4BF0000EDD224AC0D9FF4BC0FD
:10150800DAFFDECFB3F0DDCFB4F0A5C014F0A6C08B
:1015180015F0B3C016F0B4C017F0EDEC0EF014C01F
:10152800A5F015C0A6F0EDEF0AF0A7C0D9FFA8C036
:10153800DAFFDECFF6FFDDCFF7FFF86A0800F550D7
:10154800250AD8A4AAEF0AF0ACEF0AF0C4EF0AF013
:10155800A7C0D9FFA8C0DAFFDE2A000EDD22000EE0
:101568000C6E250E0B6EA5C00DF0A6C00EF09DECFE
:1015780016F0000E0001A66F010EA56FEDEF0AF040
:10158800A7C0D9FFA8C0DAFFDE2A000EDD22000EB0
:10159800A66F000EA56FEDEF0AF0A7C0D9FFA8C08F
:1015A800DAFFDECFF6FFDDCFF7FFF86A0800F55067
:1015B8000B6E0C6AA5C00DF0A6C00EF09DEC16F0DF
:1015C800A7C0D9FFA8C0DAFFDE2A000EDD22BDEFD2
:1015D8000AF0120086EC1BF0F28EF28C31EC17F058
:1015E800B1EC1BF095EC1BF0F00E096E300E0A6E94
:1015F800D9EC1BF0BDEC1BF00009D8B406EF0BF0DA
:1016080008EF0BF016EF0CF07AEC19F089820AEF6C
:101618000CF0260E0001BC6FFF0EBD6FBE0EBE6F34
:10162800FF0EBF6FDF0EC06FFF0EC16F5FEC1BF0C8
:1016380061EC14F000EF0CF0340E0001BC6FFE0EEC
:10164800BD6FCFEC1BF009C0BEF00AC0BFF0BE0EE4
:101658000001C06FFF0EC16F5FEC1BF0F90E0001B7
:10166800BC6FFF0EBD6F5FEC1BF022EE00F03F0E6B
:10167800DE6AE806FDE2000E0001C46F020EC56FC7
:10168800000EC66F1BEC0CF0000E146E020E156EE9
:10169800FA0E166EFF0E176E85EC13F014C0C2F228
:1016A80015C0C3F2000E0201C16F000EC06F7AEFC1
:1016B8000BF0D890C035D96EC135DA6E400ED926F8
:1016C800020EDA22C2C2DEFFC3C2DDFFC04BC12B4D
:1016D800000E146E000E156EFA0E166EFF0E176EC3
:1016E80085EC13F014C0C2F215C0C3F20201C25156
:1016F800C311D8A482EF0BF084EF0BF05DEF0BF071
:1017080040C209F041C20AF0E40E0B6EFF0E0C6EE7
:10171800A6EC17F009500A10D8B495EF0BF097EF24
:101728000BF0AAEF0BF040C209F041C20AF0780EA4
:101738000B6EFF0E0C6EA6EC17F009500A10D8A419
:10174800A8EF0BF0AAEF0BF0AFEF0BF0000E1DECBB
:101758000DF000EF0CF040C209F041C20AF0D30EC0
:101768000B6EFF0E0C6EA6EC17F009500A10D8A4E9
:10177800C0EF0BF0C2EF0BF0CBEF0BF0400E000107
:10178800C46F020EC56F39EC08F000EF0CF040C2D0
:1017980009F041C20AF0CC0E0B6EFF0E0C6EA6ECDF
:1017A80017F009500A10D8A4DCEF0BF0DEEF0BF0AD
:1017B800E2EF0BF0F7EC1BF000EF0CF040C209F081
:1017C80041C20AF0C70E0B6EFF0E0C6EA6EC17F0A6
:1017D80009500A10D8A4F3EF0BF0F5EF0BF0F9EF6E
:1017E8000BF0D0EC18F000EF0CF06F0E0001BC6F9E
:1017F800FD0EBD6F5FEC1BF005EC1CF00009D8A4D2
:1018080008EF0CF00AEF0CF020EF0BF005EC1CF0E1
:101818000009D8B412EF0CF014EF0CF00DEF0BF038
:10182800FEEF0AF08992FEEF0AF07CEF00F0000E5E
:101838000001D06F000ECF6F000ED16F12EF0DF0C8
:101848007AEC19F00001D16F0D0ED119D8A42FEF41
:101858000CF031EF0CF053EF0CF0CF51C425C76FEB
:10186800D051C521C86FC7C0F6FFC8C0F7FF000E2A
:10187800F86E0F0EF76404D0000EF56E0C0006D05B
:10188800F6CFE1FFF7CFE2FF000EE76E380E00015A
:10189800BC6FFF0EBD6F5FEC1BF01CEF0DF0030E6D
:1018A800D119D8A45AEF0CF05CEF0CF064EF0CF0EF
:1018B800380EBC6FFF0EBD6F5FEC1BF01CEF0DF018
:1018C8007F0ED119D8A46BEF0CF06DEF0CF085EFFB
:1018D8000CF0D0BF78EF0CF0D05108E1CF05D8A0BC
:1018E80078EF0CF07AEF0CF012EF0DF0CF07D8A0DC
:1018F800D007EE0EBC6FFF0EBD6F5FEC1BF012EF52
:101908000DF0E00EC76FFF0EC86FD151C96FCA6BDB
:10191800C751C927C851CA23CA510AE15F0EC95D18
:10192800D8A099EF0CF09CEF0CF0010E9DEF0CF095
:10193800000ECB6FCC6BCB51CC11D8A4A6EF0CF01A
:10194800A8EF0CF0CBEF0CF0DF0EC76FFF0EC86FDF
:10195800D151C96FCA6BC751C927C851CA23CA51C7
:101968000AE15E0EC95DD8A0BCEF0CF0BFEF0CF029
:10197800010EC0EF0CF0000ECD6FCE6BCD51CE1125
:10198800D8B4C9EF0CF0CBEF0CF012EF0DF0C65144
:10199800D8B4D1EF0CF0D3EF0CF0DBEF0CF0FC0E69
:1019A800BC6FFF0EBD6F5FEC1BF0E4EF0CF0F60EA2
:1019B800BC6FFF0EBD6FD1C0BEF0BF6B5FEC1BF0FC
:1019C8000001CF51C425C76FD051C521C86FC7C00A
:1019D800F6FFC8C0F7FF000EF86E0F0EF76404D0CC
:1019E800D1C0F5FF0C0006D0F6CFE1FFF7CFE2FF3C
:1019F800D1C0E7FF0001CF4BD02BD0BF0DEF0DF0CA
:101A0800D05109E1400ECF5DD8A00DEF0DF00FEFDA
:101A18000DF012EF0DF0CF07D8A0D0070D0E000182
:101A2800D119D8A41AEF0DF01CEF0DF024EF0CF02B
:101A380012000101CC6F000E0101CB6F000EC96FBF
:101A4800640EC86F000ED46F000ED36F1C0E000119
:101A5800BC6FFD0EBD6F5FEC1BF0980E0001BC6FF4
:101A6800FD0EBD6F5FEC1BF0C10E0001BC6FFD0EDB
:101A7800BD6F5FEC1BF0380E0001BC6FFF0EBD6F31
:101A88005FEC1BF00101CC51D8B44DEF0DF04FEFD6
:101A98000DF051EF0DF002EC1CF00101D351C85DBF
:101AA800D451C959D8B05BEF0DF05DEF0DF063EF7D
:101AB8000DF0010ECB6F000ED46F000ED36F030E26
:101AC8008FEC1AF00C0E09240E6EFE0E0A200F6E13
:101AD800000E116E0A0E106E6CEC17F00EC0CDF1F0
:101AE8000FC0CEF1D8900101D335D96ED435DA6E56
:101AF800000ED926010EDA22CDC1DEFFCEC1DDFFF0
:101B0800D34BD42BCB51D8A48CEF0DF08EEF0DF026
:101B180094EF0DF0D3C1D1F1D4C1D2F198EF0DF00B
:101B2800D1C1D1F1D2C1D2F1000ED66F000ED56F5E
:101B3800000ED06F000ECF6FB1EF0DF0D890CF35FB
:101B4800D96ED035DA6E000ED926010EDA22DE50B3
:101B5800D527DD50D623CF4BD02BD151CF5DD251D5
:101B6800D059D8A0BAEF0DF0BCEF0DF0A2EF0DF0F0
:101B7800D1C110F0D2C111F0D5C10EF0D6C10FF00D
:101B88006CEC17F00EC015F00FC016F0176A186A43
:101B9800000E13EC0EF015C023F016C024F017C089
:101BA80025F018C026F0F3EC04F023C03DF024C063
:101BB8003EF025C03FF026C040F080EC12F03DC05A
:101BC800D5F13EC0D6F10101CC51D8B4EEEF0DF0FD
:101BD800F0EF0DF0F6EF0DF0D5C117F0D6C118F003
:101BE800E7EC15F0F10E0001BC6FFC0EBD6FCDC126
:101BF800BEF0CEC1BFF0D5C1C0F0D6C1C1F05FEC18
:101C08001BF07AEC19F00101CA6F030ECA19D8A4A7
:101C180010EF0EF012EF0EF051EF0DF012001D6EE6
:101C28001D50D8B41AEF0EF01CEF0EF03EEF0EF078
:101C380018BE23EF0EF021EF0EF03EEF0EF015C0A8
:101C480019F016C01AF017C01BF018C01CF0191EA6
:101C58001A1E1B1E1C1E192A000E1A221B221C22C9
:101C680019C01FF01AC020F01BC021F01CC022F0C0
:101C780046EF0EF015C01FF016C020F017C021F077
:101C880018C022F01550161017101810D8A44FEFCE
:101C98000EF051EF0EF05BEF0EF0000E156E000E19
:101CA800166E000E176E000E186EECEF0EF0960E04
:101CB8001E6E65EF0EF01E2AD89022322132203295
:101CC8001F32000E1F14196E000E20141A6E000E1B
:101CD80021141B6EFE0E22141C6E19501A101B10B4
:101CE8001C10D8A47AEF0EF07CEF0EF05FEF0EF028
:101CF8008AEF0EF01E2A010E1F26000E2022212236
:101D08002222D8902232213220321F32000E1F1494
:101D1800196E000E20141A6E000E21141B6EFF0E91
:101D280022141C6E19501A101B101C10D8A49FEFF7
:101D38000EF0A1EF0EF07EEF0EF0A9EF0EF01E06EA
:101D4800D8901F3620362136223621BEAEEF0EF04F
:101D5800B0EF0EF0B8EF0EF0020E1E60B6EF0EF008
:101D6800B8EF0EF0A3EF0EF01EB0BDEF0EF0BFEF10
:101D78000EF0C0EF0EF0219ED8901E321EC019F052
:101D88001A6A1B6A1C6A19C01CF01B6A1A6A196A4B
:101D980019501F121A5020121B5021121C502212C7
:101DA8001D50D8B4DAEF0EF0DCEF0EF0E4EF0EF0D1
:101DB80018BEE3EF0EF0E1EF0EF0E4EF0EF0228E26
:101DC8001FC015F020C016F021C017F022C018F06F
:101DD800120020EED2F010EE19F0060EDBCFE3FF72
:101DE800E806FCE216C024F017C025F024502510A0
:101DF800D8A401EF0FF003EF0FF007EF0FF0190E63
:101E0800246E000E256E24C009F025C00AF0A3EC4C
:101E180019F009C028F00AC029F072C026F073C072
:101E280027F027BE1AEF0FF01CEF0FF031EF0FF07D
:101E38002850265C2750800A186E2950800A1858A6
:101E4800D8A029EF0FF02BEF0FF02DEF0FF031EFA7
:101E58000FF026C028F027C029F028C026F029C096
:101E680027F070C022F071C023F04EB03EEF0FF0A3
:101E780040EF0FF05DEF0FF04EEF0FF0000E0C6E1D
:101E8800200E0B6E14C00DF015C00EF09DEC16F070
:101E9800284A292A2250285C2950800A186E235083
:101EA800800A1858D8A05BEF0FF05DEF0FF042EFF3
:101EB8000FF0000E216E000E206E82EF0FF024C08E
:101EC800F6FF25C0F7FF000EF86E0F0EF76403D07B
:101ED8000800F55005D0F6CFE1FFF7CFE2FFE75055
:101EE800186E18500B6E0C6A14C00DF015C00EF069
:101EF8009DEC16F0244A252A204A212A2650205CE7
:101F08002150800A186E2750800A1858D8A08FEFE1
:101F18000FF091EF0FF063EF0FF04EA096EF0FF078
:101F280098EF0FF0B5EF0FF0A6EF0FF0000E0C6E64
:101F3800200E0B6E14C00DF015C00EF09DEC16F0BF
:101F4800284A292A2250285C2950800A186E2350D2
:101F5800800A1858D8A0B3EF0FF0B5EF0FF09AEF3A
:101F68000FF028C014F029C015F01200000E1E6EE4
:101F7800000E1D6E000E176E000E166EC6EF0FF0E7
:101F8800104A112A010E1C6E10C0D9FF11C0DAFFC9
:101F9800200EDE18D8B4D3EF0FF0D5EF0FF0F1EF25
:101FA8000FF0F70E126EFF0E136E10C0D9FF11C09E
:101FB800DAFFDF50146E156A1250142613501522DA
:101FC800155009E1050E145CD8A0EDEF0FF0EFEF06
:101FD8000FF0F1EF0FF0000E1C6E1CC018F0196A1C
:101FE80018501910D8A4FBEF0FF0FDEF0FF0C4EF55
:101FF8000FF007EF10F0000E176E010E166E104A64
:10200800112A3CEF10F010C0D9FF11C0DAFFDF50E1
:10201800126E136A1350000AD8B415EF10F03CEF93
:1020280010F012502B0AD8B403EF10F0060AD8B4F7
:10203800FFEF0FF03CEF10F01DC009F01EC00AF0D2
:10204800000E0C6E0A0E0B6E73EC1BF010C0D9FF5D
:1020580011C0DAFFDF50126E1250095E000E0A5AE4
:10206800300E09241D6E000E0A201E6E03EF10F0BC
:10207800D00E126EFF0E136E10C0D9FF11C0DAFF1A
:10208800DF50146E156A125014261350152215507D
:102098000AE10A0E145CD8A054EF10F057EF10F0C4
:1020A800010E58EF10F0000E1A6E1B6A1A501B1022
:1020B800D8A461EF10F063EF10F020EF10F0165085
:1020C8001710D8A46AEF10F06CEF10F07AEF10F048
:1020D8001DC012F01EC013F0121E131E124A132A3E
:1020E80012C010F013C011F07EEF10F01DC010F0F8
:1020F8001EC011F01200000E1A6E18BE88EF10F004
:1021080086EF10F09AEF10F0181E171E161E151EF7
:10211800141E131E121E116C000E122213221422FA
:102128001522162217221822010E1A6E10BEA1EFD0
:1021380010F09FEF10F0B3EF10F0101E0F1E0E1EE0
:102148000D1E0C1E0B1E0A1E096C000E0A220B2205
:102158000C220D220E220F221022010E1A1A20EE36
:102168001BF0070EDE6AE806FDE21150121013108C
:1021780014101510161017101810D8B4C6EF10F058
:10218800C8EF10F01AEF11F0010E196ED6EF10F02B
:10219800D8901136123613361436153616361736C9
:1021A8001836192A18AEDBEF10F0DDEF10F0CCEF7F
:1021B80010F0D8901B361C361D361E361F362036BA
:1021C800213622361150095C12500A5813500B5808
:1021D80014500C5815500D5816500E5817500F58CB
:1021E80018501058D8A0FBEF10F0FDEF10F00EEFCC
:1021F80011F01150095E12500A5A13500B5A14501C
:102208000C5A15500D5A16500E5A17500F5A18508E
:10221800105A1B80D89018321732163215321432E1
:10222800133212321132192EDDEF10F01A50D8B4D1
:1022380020EF11F022EF11F032EF11F0221E211ED3
:10224800201E1F1E1E1E1D1E1C1E1B6C000E1C2287
:102258001D221E221F222022212222221BC009F019
:102268001CC00AF01DC00BF01EC00CF01FC00DF002
:1022780020C00EF021C00FF022C010F01200000E96
:102288001A6E10BE4CEF11F04AEF11F05EEF11F02C
:10229800101E0F1E0E1E0D1E0C1E0B1E0A1E096C94
:1022A800000E0A220B220C220D220E220F221022CF
:1022B800010E1A6E18BE65EF11F063EF11F075EF9D
:1022C80011F0181E171E161E151E141E131E121EA0
:1022D800116C000E12221322142215221622172224
:1022E8001822115012101310141015101610171070
:1022F8001810D8B482EF11F084EF11F0CCEF11F080
:10230800010E196E92EF11F0D8901136123613366D
:1023180014361536163617361836192A18AE97EFAA
:1023280011F099EF11F088EF11F01150095C12507B
:102338000A5813500B5814500C5815500D58165075
:102348000E5817500F5818501058D8A0AEEF11F06B
:10235800B0EF11F0C0EF11F01150095E12500A5A97
:1023680013500B5A14500C5A15500D5A16500E5A39
:1023780017500F5A1850105AD89018321732163270
:1023880015321432133212321132192E99EF11F01C
:102398001A50D8B4D2EF11F0D4EF11F0E4EF11F0E5
:1023A800101E0F1E0E1E0D1E0C1E0B1E0A1E096C83
:1023B800000E0A220B220C220D220E220F221022BE
:1023C80009C009F00AC00AF00BC00BF00CC00CF0F1
:1023D8000DC00DF00EC00EF00FC00FF010C010F0C1
:1023E80012001FEF12F0400E0F6E54EF12F0790E2C
:1023F8000F6E54EF12F0240E0F6E54EF12F0300EE1
:102408000F6E54EF12F0190E0F6E54EF12F0120EF9
:102418000F6E54EF12F0020E0F6E54EF12F0780E9A
:102428000F6E54EF12F0000E0F6E54EF12F0180EEC
:102438000F6E54EF12F00B500D6E0E6A0E50000A1C
:10244800D8B429EF12F054EF12F00D50000AD8B4A6
:10245800F7EF11F0010AD8B4FBEF11F0030AD8B472
:10246800FFEF11F0010AD8B403EF12F0070AD8B44D
:1024780007EF12F0010AD8B40BEF12F0030AD8B430
:102488000FEF12F0010AD8B413EF12F00F0AD8B404
:1024980017EF12F0010AD8B41BEF12F054EF12F044
:1024A8000C50D8A45AEF12F05CEF12F069EF12F05A
:1024B8000F5080090F6E69EF12F00FC0DEF07FEF4A
:1024C80012F00FC0DDF07FEF12F009C00DF00AC066
:1024D8000EF00E50000AD8B474EF12F07FEF12F02D
:1024E8000D50000AD8B461EF12F0010AD8B465EFB4
:1024F80012F07FEF12F012003F344034466E46501F
:10250800D8A489EF12F08BEF12F095EF12F0000EBD
:102518003D6E000E3E6E000E3F6E000E406E02EFE6
:1025280013F03DC041F03EC042F03FC043F040C010
:1025380044F0200EA5EF12F0D890443243324232D4
:102548004132E82EA0EF12F04150456E3F8EFF0E4B
:102558003D16FF0E3E16FF0E3F16000E4016960E55
:10256800465E46BEBCEF12F0BAEF12F0D2EF12F0A0
:102578004650800A970FD8B0C4EF12F0C6EF12F099
:10258800C8EF12F08BEF12F0D89040323F323E3253
:102598003D32463EC8EF12F0EAEF12F01F0E4664D5
:1025A800D8EF12F0DAEF12F0E2EF12F08BEF12F040
:1025B800D8903D363E363F36403646064650D8A47B
:1025C800E8EF12F0EAEF12F0DCEF12F04550D8B461
:1025D800F0EF12F0F2EF12F0FAEF12F0401E3F1E89
:1025E8003E1E3D6C000E3E223F2240223DC03DF083
:1025F8003EC03EF03FC03FF040C040F01200000E29
:102608000914116E000E0A14126E800E0B14136E4C
:102618007F0E0C14146E1150121013101410D8A43D
:1026280018EF13F01AEF13F022EF13F0000E096EF3
:10263800000E0A6E000E0B6E000E0C6E000E0D14CE
:10264800116E000E0E14126E800E0F14136E7F0E94
:102658001014146E1150121013101410D8A437EF60
:1026680013F039EF13F041EF13F0000E0D6E000E6A
:102678000E6E000E0F6E000E106E0CAE46EF13F0CD
:1026880048EF13F051EF13F0096C0A1ED8B00A2A6C
:102698000B1ED8B00B2A800E0C5610AE56EF13F056
:1026A80058EF13F061EF13F00D6C0E1ED8B00E2A20
:1026B8000F1ED8B00F2A800E1056000E091A000EF1
:1026C8000A1A000E0B1A800E0C1A000E0D1A000EB4
:1026D8000E1A000E0F1A800E101A0D50095C0E50BB
:1026E8000A580F500B5810500C58D8B07EEF13F002
:1026F80080EF13F083EF13F0D89084EF13F0D880B5
:10270800120014501510D8A48CEF13F08EEF13F0AC
:10271800A1EF13F06CC014F06DC015F01450151033
:10272800D8A499EF13F09BEF13F0A1EF13F0000E6C
:10273800146E000E156EF5EF13F014C00DF015C0F1
:102748000EF016C00FF017C010F0E0EC17F00D50A7
:1027580014260E50152214C0D9FF15C0DAFFDF5019
:10276800D8A4B9EF13F0BBEF13F0C6EF13F0000EC7
:1027780000016C6F000E6D6F6CC014F06DC015F029
:10278800F5EF13F014C00DF015C00EF016C00FF0E1
:1027980017C010F013EC18F00D50142400016C6FE2
:1027A8000E5015206D6F6CC0D9FF6DC0DAFFDF5079
:1027B800D8B4E1EF13F0E3EF13F0EDEF13F06CC0D2
:1027C800D9FF6DC0DAFF000EDF6E6C4B6D2BF1EF99
:1027D80013F0000E6C6F000E6D6F14C014F015C06E
:1027E80015F01200000170517111D8A4FEEF13F01A
:1027F80000EF14F006EF14F070C01AF071C01BF06F
:102808000CEF14F0FF0E70251A6EFF0E71211B6E6F
:102818004EA011EF14F013EF14F01CEF14F016C0D3
:102828000BF00C6A14C00DF015C00EF09DEC16F0FC
:102838001BBE21EF14F023EF14F025EF14F029EF5D
:1028480014F0000E1B6E000E1A6E000E196E000EAC
:10285800186E3BEF14F0000E0C6E200E0B6E14C0B9
:102868000DF015C00EF09DEC16F0184A192A1A50F2
:10287800185C1950800A176E1B50800A1758D8A088
:1028880048EF14F04AEF14F02FEF14F04EB04FEF6A
:1028980014F051EF14F05AEF14F016C00BF00C6A54
:1028A80014C00DF015C00EF09DEC16F0010E1824A2
:1028B800146E000E1920156E120021EE40F03F0E26
:1028C800DE6AE806FDE221EE00F03F0EDE6AE80669
:1028D800FDE2B9EF14F08F0E0001BC6FFF0EBD6F63
:1028E8005FEC1BF0400E0001C46F010EC56F000EB7
:1028F800C66F1BEC0CF03B0E0001BC6FFF0EBD6FEA
:10290800400EBE6F010EBF6FDF0EC06FFF0EC16FAE
:102918005FEC1BF0000E0001C46F010EC56F010EC5
:10292800C66F1BEC0CF0400E126E010E136E000EFB
:10293800146E010E156E71EC1AF00009D8B4A7EFE9
:1029480014F0A9EF14F0ABEF14F0C3EF14F0380E45
:102958000001BC6FFF0EBD6F5FEC1BF0770E00012E
:10296800BC6FFE0EBD6F5FEC1BF005EC1CF00009A0
:10297800D8B4C1EF14F0C3EF14F06FEF14F01200E5
:10298800000E0E6E0CBECDEF14F0CBEF14F0D3EFAB
:1029980014F00B6C0C1ED8B00C2A010E0E6E0ABE79
:1029A800DAEF14F0D8EF14F0E0EF14F0096C0A1E17
:1029B800D8B00A2A010E0E1A000E106E000E0F6E05
:1029C8000B500C10D8B4EBEF14F0EDEF14F015EF3A
:1029D80015F0010E0D6EF5EF14F0D8900B360C368D
:1029E8000D2A0CAEFAEF14F0FCEF14F0F1EF14F02E
:1029F800D8900F3610360B50095C0C500A58D8A0E6
:102A080008EF15F00AEF15F00FEF15F00B50095EFF
:102A18000C500A5A0F80D8900C320B320D2EFCEF56
:102A280014F00E50D8B41BEF15F01DEF15F021EF80
:102A380015F00F6C101ED8B0102A0FC009F010C086
:102A48000AF012004EA02BEF15F02DEF15F037EF1E
:102A580015F01DC014F01EC015F01BC016F01CC0E8
:102A680017F0EEEC19F020BE3CEF15F03EEF15F034
:102A780044EF15F01FC024F020C025F048EF15F0F2
:102A8800000E256E000E246E000E236E000E226EC0
:102A98005AEF15F0000E0C6E200E0B6E1BC00DF0D9
:102AA8001CC00EF09DEC16F0224A232A2450225C0A
:102AB8002350800A216E2550800A2158D8A067EF3C
:102AC80015F069EF15F04EEF15F04EB06EEF15F0FA
:102AD80070EF15F07AEF15F01DC014F01EC015F058
:102AE8001BC016F01CC017F0EEEC19F01DC009F061
:102AF8001EC00AF0A3EC19F0245009241B6E2550BF
:102B08000A201C6E1200800E5324D96EDA6A030E56
:102B1800DA22000EDF6EABA494EF15F096EF15F0F5
:102B2800ABEF15F0800E5324D96EDA6A030EDA2261
:102B38000301DF8202D8ABEF15F00500FA6E000141
:102B48007C51FD6E7D51FE6EFF6AFA501200ABA2F9
:102B5800B0EF15F0B2EF15F0C7EF15F0800E532463
:102B6800D96EDA6A030EDA220301DF8402D8C7EFCE
:102B780015F00500FA6E00017A51FD6E7B51FE6E6C
:102B8800FF6AFA501200800E5324D96EDA6A030ED7
:102B9800DA22DF50D8B4D3EF15F0D5EF15F0E4EF13
:102BA80015F002D8E2EF15F00500FA6E0001785131
:102BB800FD6E7951FE6EFF6AFA501200E6EF15F0CD
:102BC8004AEC1BF01200000E1D6E18BEF5EF15F052
:102BD800185009E1640E175CD8A0F5EF15F0F7EF6F
:102BE80015F0FFEF15F0000E186E630E176E010E4C
:102BF8001D6E0AEF16F018BE06EF16F004EF16F079
:102C08000AEF16F0000E186E000E176E000E0C6E0E
:102C18000A0E0B6E17C009F018C00AF0C4EC14F0C5
:102C280009C011F00AC012F0000E146E0A0E136EDD
:102C380045EC16F011C019F012C01AF017C011F0C7
:102C480018C012F0000E146E0A0E136E45EC16F042
:102C580011C01BF012C01CF0000E0A6E000E096EA7
:102C680019C00BF0000E0C6EF5EC11F0000E0A6E98
:102C7800010E096E1BC00BF01DC00CF0F5EC11F035
:102C88001200000E166E12BE4EEF16F04CEF16F044
:102C980054EF16F0116C121ED8B0122A010E166EDF
:102CA80014BE5BEF16F059EF16F05FEF16F0136CD9
:102CB800141ED8B0142A13501410D8B466EF16F0A6
:102CC80068EF16F08CEF16F0010E156E70EF16F027
:102CD800D89013361436152A14AE75EF16F077EF20
:102CE80016F06CEF16F01350115C14501258D8A05F
:102CF80080EF16F082EF16F086EF16F01350115E93
:102D08001450125AD89014321332152E77EF16F049
:102D18001650D8B492EF16F094EF16F098EF16F01C
:102D2800116C121ED8B0122A11C011F012C012F084
:102D380012000D500E10D8B4A4EF16F0A6EF16F03E
:102D4800AFEF16F00D500E10D8A4ADEF16F0AFEFA0
:102D580016F0B4EF16F00B50D4EC1BF0E7EF16F0BA
:102D680020EE04F00D50D9260E50DA22DE50DE1087
:102D7800D8B4C1EF16F0C3EF16F0DEEF16F020EE70
:102D880004F00D50D9260E50DA2210EE02F00D5044
:102D9800E1260E50E222DE50E65CE650800A136E11
:102DA800DE50800A1358D8B0DCEF16F0DEEF16F0CC
:102DB800E7EF16F020EE02F00D50D9260E50DA2279
:102DC800DE2A000EDD2212002A0EF66E380EF76E8D
:102DD800000EF86E0900F5CFC4F20900F5CFC5F270
:102DE800280EF66E380EF76E000EF86E0900F5CF55
:102DF800D7F10900F5CFD8F1900EF66E370EF76EC1
:102E0800000EF86E00EED2F010EE0DF00900F5CFCE
:102E1800EEFFE550E150FAE104EE00F0400EEE6AF4
:102E2800E806FDE103EE00F011EE00F0EE6AE55071
:102E3800E150FCE1E250FAE100EE60F0450EEE6A86
:102E4800E806FDE100EE4EF0090EEE6AE806FDE147
:102E5800579057920001EEEF0AF09D9A0E0E096EF8
:102E68002B0E0A6EE3EC1BF09D98A20E096E340E31
:102E78000A6EDEEC1BF0080EB86E900EAB6E240ED8
:102E8800AC6E8A0EAF6E000EB06E2E0E096E380E46
:102E98000A6EEDEC1BF0100E096E380E0A6EE8ECA7
:102EA8001BF0160E096E380E0A6EF2EC1BF0000EBF
:102EB8000001846F000E566E000E556E080E546E9B
:102EC800000E536E000E526E000E516E9D8A120057
:102ED800000E136E000E126E10501110D8B477EF5A
:102EE80017F079EF17F0A1EF17F0010E146E81EFCC
:102EF80017F0D89010361136142A11AE86EF17F055
:102F080088EF17F07DEF17F0D8901236133610506F
:102F18000E5C11500F58D8A094EF17F096EF17F0E9
:102F28009BEF17F010500E5E11500F5A1280D89078
:102F380011321032142E88EF17F012C00EF013C0A1
:102F48000FF01200ACEF17F0094A0A2A0B4A0C2AB4
:102F580009C0D9FF0AC0DAFFDF500D6E0BC0F6FFBB
:102F68000CC0F7FFF86A0800F5500D18D8A4BFEF99
:102F780017F0C1EF17F0CDEF17F009C0D9FF0AC05D
:102F8800DAFFDF50D8A4CBEF17F0CDEF17F0A8EF9A
:102F980017F009C0D9FF0AC0DAFFDF500D6E0BC069
:102FA800F6FF0CC0F7FFF86A0800F5500D5C096ED3
:102FB8000A6AD8A00A061200000E136E000E126EDE
:102FC800EAEF17F00D4A0E2A124A132A0DC0D9FF4C
:102FD8000EC0DAFFDF50D8B4F4EF17F0F6EF17F0B1
:102FE8000EEF18F00FC009F010C00AF00DC0D9FF9D
:102FF8000EC0DAFFDF50116E11500B6E0C6AA5EC93
:1030080018F009500A10D8A40CEF18F00EEF18F0B9
:10301800E6EF17F012C00DF013C00EF01200000E0C
:10302800136E000E126E1DEF18F00D4A0E2A124A8A
:10303800132A0DC0D9FF0EC0DAFFDF50D8B427EF2E
:1030480018F029EF18F041EF18F00FC009F010C080
:103058000AF00DC0D9FF0EC0DAFFDF50116E115013
:103068000B6E0C6AA5EC18F009500A10D8B43FEFA3
:1030780018F041EF18F019EF18F012C00DF013C056
:103088000EF01200B8C04CF0B9C04DF0000E0001AF
:103098006F6F000E6E6F64EF18F0B6C0A5F0B7C082
:1030A800A6F04C0EA76F000EA86FBAC0A9F0BBC05F
:1030B800AAF096EC09F00001A5516E27A6516F23DE
:1030C8004CC0F6FF4DC0F7FFF86A0800F55000093C
:1030D800D8A471EF18F073EF18F051EF18F06EC024
:1030E800B6F06FC0B7F012005050D8B47EEF18F0A9
:1030F80080EF18F0A3EF18F000018251D8A487EFF1
:1031080018F089EF18F096EF18F0000E026E000E16
:10311800016E10EC1AF0DEC081FF010E0001826F13
:10312800A4EF18F0000E026E010E016E10EC1AF0FA
:10313800DDC081FF000E0001826FA4EF18F08168E6
:10314800120009C0F6FF0AC0F7FFF86A0800F55038
:103158000B18D8A4B2EF18F0B4EF18F0BAEF18F0C3
:1031680009C009F00AC00AF0CFEF18F009C0F6FF4D
:103178000AC0F7FF094A0A2AF86A0800F550000948
:10318800D8A4C9EF18F0CBEF18F0A5EF18F0000E8F
:10319800096E000E0A6E1200C80E0001BC6FFB0E0D
:1031A800BD6F5FEC1BF0380E0001BC6FFF0EBD6FEA
:1031B8005FEC1BF06C0E0001BC6FFF0EBD6F5FEC87
:1031C8001BF0110E0001BC6FFE0EBD6F5FEC1BF013
:1031D8004E0E0001BC6FFF0EBD6F5FEC1BF0840E3E
:1031E8000001BC6FFF0EBD6F5FEC1BF01200096E93
:1031F8005450D8B402EF19F004EF19F0FCEF18F0AE
:103208009DB809EF19F00BEF19F00FEF19F009C08D
:10321800ADFF24EF19F09D98600E5624D96EDA6A36
:10322800000EDA2209C0DFFF562A070E56641FEF88
:1032380019F021EF19F023EF19F0000E566E54061D
:103248009D8812000EC009F00FC00AF09A0E0B6E8E
:10325800FF0E0C6EA6EC17F009500A10D8A437EF31
:1032680019F039EF19F04FEF19F010C009F011C03B
:103278000AF0B60E0B6EFF0E0C6EA6EC17F0095096
:103288000A10D8A44AEF19F04CEF19F04FEF19F0D3
:10329800010E50EF19F0000E1200010E0F6E200EF5
:1032A80009180A10D8B45BEF19F05DEF19F076EF42
:1032B80019F0F70E0B6EFF0E0C6E09C00DF00AC068
:1032C8000EF00B500D260C500E220E5009E1050E83
:1032D8000D5CD8A072EF19F074EF19F076EF19F0C1
:1032E800000E0F6E0FC009F00A6A12005150D8B4D0
:1032F80080EF19F082EF19F07AEF19F0800E52245E
:10330800D96EDA6A030EDA22DF500001846FC00E2C
:103318005224D96EDA6A030EDA22DF50096E522A75
:103328003F0E52649AEF19F09CEF19F09EEF19F0D6
:10333800000E526E9D9A51069D8A0950120009C0CE
:103348000BF00AC00CF0ABEF19F0094A0A2A09C0C1
:10335800F6FF0AC0F7FF000EF86E0F0EF76403D0F1
:103368000800F55005D0F6CFE1FFF7CFE2FFE750B0
:103378000009D8A4C2EF19F0C4EF19F0A9EF19F0A9
:103388000B50095C096E0C500A580A6E1200000EA8
:103398001D1A000E1E1A000E1F1A800E201A19C0C0
:1033A80009F01AC00AF01BC00BF01CC00CF01DC0BD
:1033B8000DF01EC00EF01FC00FF020C010F07EEC04
:1033C80000F009C019F00AC01AF00BC01BF00CC0BD
:1033D8001CF01200000E1A6E000E196EFFEF19F0A5
:1033E80018C00BF00C6A16C00DF017C00EF09DEC5B
:1033F80016F0194A1A2A19501424D96E1A50152091
:10340800DA6EDF50186E1850D8A40DEF1AF00FEFCF
:103418001AF0F4EF19F012001AEF1AF08B968B8459
:1034280030EF1AF08B948B8630EF1AF001C003F05E
:1034380002C004F00450000AD8B425EF1AF030EFA7
:103448001AF00350000AD8B412EF1AF0010AD8B4DF
:1034580016EF1AF030EF1AF012001CBE3EEF1AF009
:103468001C5006E11B04D8B03CEF1AF03EEF1AF0EE
:103478004CEF1AF01BC01DF01CC01EF01D1E1E1EB6
:103488001D4A1E2A1DC01BF01EC01CF050EF1AF06A
:103498001BC01BF01CC01CF01200080E546057EF34
:1034A8001AF059EF1AF06FEF1AF0600E5524D96E22
:1034B800DA6A000EDA22DF50AD6E552A070E55641F
:1034C80068EF1AF06AEF1AF06CEF1AF0000E556EFA
:1034D800542A70EF1AF09D98120012C00EF013C013
:1034E8000FF014C010F015C011F026EC19F0000907
:1034F800D8B481EF1AF083EF1AF08DEF1AF012C0EA
:1035080074F013C075F0010E0001836F010E8EEF89
:103518001AF0000E12000D6E0DC00BF00B460B4694
:10352800C2500B18830B0B18C26EC280C282C2B283
:10353800A0EF1AF0A2EF1AF09BEF1AF0C4500C6E2D
:103548000B6AC3500B24096E000E0C200A6E120081
:1035580009500A100B100C10D8B4B5EF1AF0B7EFD9
:103568001AF0BFEF1AF0000E091A000E0A1A000E20
:103578000B1A800E0C1A09C009F00AC00AF00BC019
:103588000BF00CC00CF01200D00E0B6EFF0E0C6E80
:1035980009C00DF00AC00EF00B500D260C500E227B
:1035A8000E500AE10A0E0D5CD8A0DDEF1AF0E0EF2C
:1035B8001AF0010EE1EF1AF0000E096E0A6A120005
:1035C800E00E0B6EFF0E0C6E09C00DF00AC00EF077
:1035D8000B500D260C500E220E500AE15F0E0D5CAA
:1035E800D8A0F9EF1AF0FCEF1AF0010EFDEF1AF06F
:1035F800000E096E0A6A1200DF0E0B6EFF0E0C6ECB
:1036080009C00DF00AC00EF00B500D260C500E220A
:103618000E500AE15E0E0D5CD8A015EF1BF018EFF6
:103628001BF0010E19EF1BF0000E096E0A6A12005A
:103638009E92000176517711D8B425EF1BF027EF41
:103648001BF033EF1BF002D833EF1BF00500FA6EC6
:103658007651FD6E7751FE6EFF6AFA501200120025
:10366800000E896E8A68000E8B6EFD0E926E000E3B
:10367800936EB30E946E300E0F013A6F000E396FD1
:103688002D0E386F000E616EF18E1200C00E53249D
:10369800D96EDA6A030EDA22AECFDFFF532A3F0E65
:1036A800536459EF1BF05BEF1BF05DEF1BF0000E4E
:1036B800536E512A1200BE0E0001C26F000EC36F76
:1036C800000EB66F000EB76FBCC0B8F0BDC0B9F041
:1036D800C20EBA6F000EBB6F46EC18F0120009500C
:1036E8000B02F3CF0DF0F4CF0EF009500C02F3509B
:1036F8000E260A500B02F3500E260DC009F00EC01C
:103708000AF0120010EC1CF034EC1BF0A3EC1BF0D8
:10371800FBEC1BF095EC1BF0B1EC1BF031EC17F057
:103728001200BB68000EBC6E9E929D822C0E096E24
:10373800380E0A6ED9EC1BF07E0EBA6E1200700EAF
:10374800D36E040ED26E400E9B6ED2AEAEEF1BF05F
:10375800B0EF1BF0A9EF1BF01200010EC26E080EAD
:10376800C16E870EC06E000EC36E000EC46E9D8CB7
:1037780012005150D8A4C3EF1BF0C6EF1BF0010E86
:10378800C7EF1BF0000E1200286E756C6C2900B68E
:05379800FF9AFFFFFF96
:10379E0074C009F075C00AF012000A6E0A50FBECF4
:1037AE0018F0120009C076F00AC077F0120009C0B6
:1037BE0080F00AC081F0120009C07EF00AC07FF0CE
:1037CE00120009C07AF00AC07BF0120009C07CF02A
:1037DE000AC07DF0120009C078F00AC079F012001C
:1037EE00000E0001836F1200900E0F01426F120047
:1037FE00000E506E1200010E506E12000001835129
:10380E001200AB98AB8812004AEC1BF0120050501D
:10381E001200D09E12009E9C1200DFFFBEFF12000F
:02382E00120086
:10FBC200000000004BFF5468657365207368656C24
:10FBD2006C20636F6D6D616E647320617265206469
:10FBE2006566696E656420696E7465726E616C6CBF
:10FBF200792E2054797065202768656C70272074EF
:10FC02006F207365652074686973206C6973742E44
:10FC12000D0A0020207365742074656D7065726131
:10FC220074757265202D2042696E642074686520A7
:10FC320074696D65722076616C756520746F200D34
:10FC42000A090920202020617665726167652074A7
:10FC5200656D70657261747572652E0D0A004E6F66
:10FC620074653A2074696D6572206973206E6F74D1
:10FC72002072756E6E696E672C207573652027740D
:10FC8200696D65722073746172742720746F2073BA
:10FC9200746172742E0D0A0020202D682C202D2DE7
:10FCA20068656C700920202D205072696E74732073
:10FCB20068656C7020696E666F726D6174696F6ED3
:10FCC2002E0D0A00496E636F72726563742075733C
:10FCD2006167652C20706C65617365207472792090
:10FCE2002774696D6572202D2D68656C7027000D73
:10FCF20054656D70657261747572653A2025642071
:10FD02007C20417665726167652054656D7065720D
:10FD120061747572653A202564002D2D2D3D3D3D9F
:10FD22003D3D5D2054656D7065726174757265202C
:10FD32004D6F6E69746F72205B3D3D3D3D3D2D2DD3
:10FD42002D0D0A002020736574203C76616C756568
:10FD52003E0920202D205365742074686520746943
:10FD62006D65722076616C75652E0D0A00556E6B9D
:10FD72006E6F776E20636F6D6D616E642C20747987
:10FD82007065202768656C702720666F7220686531
:10FD92006C702E0D0A002020496620796F7520773D
:10FDA20069736820746F20657869742C207072659D
:10FDB20073733A206374726C202B20630D0A002047
:10FDC20020496620796F75207769736820746F20E7
:10FDD2007570646174652C20707265737320616E36
:10FDE20079206B65790D0A004368726973746961E1
:10FDF2006E2048616E73656E203C63776840627561
:10FE0200696C64756E6974792E646B3E0D0A00200C
:10FE12002074696D6572205B666C6167735D203C5E
:10FE2200636F6D6D616E643E205B617267735D0D21
:10FE32000A000D0A1B5B313B33326D25731B5B30AD
:10FE42006D206174201B5B313B33336D25731B5B6B
:10FE5200306D0D0A0020207374617274090920202C
:10FE62002D205374617274207468652074696D6505
:10FE7200722E0D0A004661696C656420746F206CF5
:10FE82006F67696E2C2074727920616761696E21D7
:10FE92000D0A00202073746F70090920202D205351
:10FEA200746F70207468652074696D65722E0D0A16
:10FEB2000053696D706C652074696D657220492FFD
:10FEC2004F20636F6E74726F6C6C65720D0A004323
:10FED20068616E67696E672074696D65722076610C
:10FEE2006C756520746F2025640D0A0054696D6578
:10FEF2007220697320616C72656164792073746F1A
:10FF020070706564210D0A0054696D657220697311
:10FF120020616C72656164792073746172746564C6
:10FF2200210D0A00556E697820302E302E312025A1
:10FF3200732025730D0A0D0A00257340257327735C
:10FF42002070617373776F72643A200020207465A9
:10FF52006D70657261747572650D0A0074696D6504
:10FF62007220302E302E310D0A00436F6D6D616E9E
:10FF720064733A0D0A0074656D706572617475720E
:10FF8200650020206C6F676F75740D0A006C6F67D7
:10FF9200696E2061733A20006368726973746961E3
:10FFA2006E0055736167653A0D0A00466C616773AE
:10FFB2003A0D0A0074657374313233004C6F6F70FE
:10FFC2006564002D2D68656C70006C6F676F7574C9
:10FFD2000074696D657200737461727400434F4DF1
:10FFE200310074656D700073746F70000820080032
:0DFFF200736574002563002420002A0000C0
:020000040020DA
:08000000FFFFFFFFFFFFFFFF00
:020000040030CA
:0E000000FF281F3CFFBF85FF0FC00FE00F4021
:00000001FF
