:020000040000FA
:040000004FEF00F0CE
:100008005082FACF08F0FBCF09F0D9CF0AF0DACF47
:100018000BF0F6CF0CF0F7CF0DF0F8CF0EF0F5CFD0
:100028000FF0F2AC26D09DBC9EAC03D089EC0CF04E
:1000380020D09DB89EA809D001D81BD00500FA6E23
:100048000001E251FD6EE3510BD09DBA9EAA0CD07F
:1000580001D80FD00500FA6E0001E051FD6EE151A4
:10006800FE6EFF6AFA5012009DB29EA202D0F5EC15
:100078000BF00FC0F5FF0EC0F8FF0DC0F7FF0CC066
:10008800F6FF0BC0DAFF0AC0D9FF09C0FBFF08C0A2
:0A009800FAFF5092110061EF0AF028
:1010000000C0F9A4B0999282F880907FFF54656D7A
:1010100070657261747572656E2065723A20257311
:031020000A0000C3
:1010240033C0D9FF34C0DAFFDECFF6FFDDCFF7FFE0
:10103400F86A0800F550250AD8A47AD033C0D9FF3D
:1010440034C0DAFFDE2A000EDD22000E0001CD6F6F
:10105400000ECC6FCCC0D0F0CDC0D1F0CE69CF693A
:1010640033C0D9FF34C0DAFFDECFF6FFDDCFF7FFA0
:10107400F86A0800F550730AD8A42AD033C0D9FFFF
:1010840034C0DAFFDE2A000EDD2235C0D9FF36C0B7
:10109400DAFFDFCF37F0020EDE26DFCF38F0000EA6
:1010A400DD2237C0D9FF38C0DAFFDECF39F0DDCF1B
:1010B4003AF031C01BF032C01CF039C01DF03AC008
:1010C4001EF0B5EC08F01BC031F01CC032F0120069
:1010D40033C0D9FF34C0DAFFDECFF6FFDDCFF7FF30
:1010E400F86A0800F550250AD8A416D033C0D9FFF1
:1010F40034C0DAFFDE2A000EDD22000E136E250E48
:10110400126E31C014F032C015F098EC0AF0000EE3
:10111400326E010E316E120033C0D9FF34C0DAFFD3
:10112400DE2A000EDD22000E326E000E316E120039
:1011340033C0D9FF34C0DAFFDECFF6FFDDCFF7FFCF
:10114400F86A0800F550126E136A31C014F032C008
:1011540015F098EC0AF033C0D9FF34C0DAFFDE2A68
:10116400000EDD22D4D720EEF3F010EE20F0060EB0
:10117400DBCFE3FFE806FCE21DC02BF01EC02CF021
:101184002B502C10D8A404D0200E2B6E000E2C6EE5
:101194002BC010F02CC011F0B7EC0BF010C02FF0E6
:1011A40011C030F0CEC02DF0CFC02EF02EBE0ED028
:1011B4002F502D5C2E50800A1F6E3050800A1F580D
:1011C400D8B004D02DC02FF02EC030F02FC02DF099
:1011D40030C02EF0CCC029F0CDC02AF00001D0A13F
:1011E4000DD016D0000E136E200E126E1BC014F01C
:1011F4001CC015F098EC0AF02F4A302A29502F5CB5
:101204003050800A1F6E2A50800A1F58D8A0EAD78F
:10121400000E286E000E276E13D02BC0D9FF2CC0F1
:10122400DAFFDF501F6E1F50126E136A1BC014F0DA
:101234001CC015F098EC0AF02B4A2C2A274A282ABD
:101244002D50275C2850800A1F6E2E50800A1F588C
:10125400D8A0E3D70001D0B10DD016D0000E136E84
:10126400200E126E1BC014F01CC015F098EC0AF08E
:101274002F4A302A29502F5C3050800A1F6E2A5082
:10128400800A1F58D8A0EAD72FC01BF030C01CF02A
:1012940012004D5004E10A0E4C5CD8A01DD04CC085
:1012A40001F04DC002F0000E046E0A0E036E23EC32
:1012B4000BF001C0D4F002C0D5F04CC001F04DC019
:1012C40002F0000E046E0A0E036E4CEC0BF001C02B
:1012D400D2F002C0D3F008D04CC0D2F04DC0D3F04D
:1012E400FAC0D4F0FBC0D5F00001D651D711D8A470
:1012F40013D0020E826E010ED425F66E100ED52187
:10130400F76EF86A000EF8220800F5CF80FF000E91
:10131400D76F010ED66F1200010E826E010ED22518
:10132400F66E100ED321F76EF86A000EF82208004C
:10133400F5CF80FF000ED76F000ED66F1200600E3F
:101344004824D96EDA6A000EDA22000EDF6EABA4EE
:1013540013D0600E4824D96EDA6A000EDA22000136
:10136400DF8201D809D00500FA6EDE51FD6EDF512F
:10137400FE6EFF6AFA501200ABA213D0600E48242E
:10138400D96EDA6A000EDA220001DF8401D809D0AE
:101394000500FA6EDC51FD6EDD51FE6EFF6AFA50F7
:1013A4001200600E4824D96EDA6A000EDA22DF5089
:1013B400D8B40CD001D812000500FA6E0001DA513D
:1013C400FD6EDB51FE6EFF6AFA50120007EC0CF062
:1013D400120035EC0CF0F28EF28C17EC0CF0960E39
:1013E400106E120E116E5CEC0CF027EC0AF042EC5D
:1013F4000CF0110E88EC0BF08A8A110E88EC0BF0BD
:1014040010C0EFF011C0F0F00C0E0001EF25F16FE9
:10141400FE0EF021F26FF1C010F0F2C011F0000ED8
:10142400136E0A0E126EFAEC0AF010C04CF011C0E2
:101434004DF00D0E0001E66F100EE76F4CC0E8F0A2
:101444004DC0E9F0E1EC0BF0D8D79D9A420E106E36
:10145400130E116E66EC0CF09D98980E106E170E1C
:10146400116E61EC0CF0080EB86E900EAB6E240E8B
:10147400AC6E820EAF6E060EB06E180E106E190EA4
:10148400116E70EC0CF0FE0E106E180E116E6BECFB
:101494000CF0040E106E190E116E75EC0CF0000EAB
:1014A400456E000E4B6E000E4A6E400E496E000EE5
:1014B400486E000E476E000E466E9D8A1200F40EB2
:1014C400F66E180EF76E000EF86E00EEF3F010EEE6
:1014D40009F00900F5CFEEFFE550E150FAE10A0EFC
:1014E400F66E190EF76E000EF86E00EE4CF010EE6C
:1014F40004F00900F5CFEEFFE550E150FAE101EE0A
:1015040000F0800EEE6AE806FDE100EE60F0840E65
:10151400EE6AE806FDE100EE41F00B0EEE6AE80625
:10152400FDE1509050920001EBEF09F014501510BA
:10153400D8B404D014501510D8A404D0125057ECC9
:101544000CF0120020EE04F01450D9261550DA22C3
:10155400DE50DE10D8B416D020EE04F01450D92694
:101564001550DA2210EE02F01450E1261550E22252
:10157400DE50E65CE650800A1A6EDE50800A1A5885
:10158400D8B0120020EE02F01450D9261550DA22F9
:10159400DE2A000EDD2212003DC0E4F03EC0E5F07C
:1015A400000E0001CB6F000ECA6F13D03BC031F0A8
:1015B4003CC032F0E40E336E000E346E3FC035F0A2
:1015C40040C036F012EC08F031500001CA27325006
:1015D400CB23E4C0F6FFE5C0F7FFF86A0800F55036
:1015E4000009D8A4E3D7CAC03BF0CBC03CF012003A
:1015F400000E166E000E156E12501310D8B41CD0C7
:10160400010E146E04D0D89012361336142A13AE79
:10161400FAD7D890153616361250105C135011585C
:10162400D8A005D01250105E1350115A1580D890CE
:1016340013321232142EEDD715C010F016C011F06B
:101644001200000E066E000E056E03500410D8B48E
:101654001CD0010E076E04D0D89003360436072A36
:1016640004AEFAD7D890053606360350015C045010
:101674000258D8A005D00350015E0450025A0580D8
:10168400D89004320332072EEDD705C001F006C00E
:1016940002F0120003500410D8B418D0010E056EE5
:1016A40004D0D89003360436052A04AEFAD7035082
:1016B400015C04500258D8A004D00350015E0450C9
:1016C400025AD89004320332052EF1D701C001F03A
:1016D40002C002F01200106E4950D8B4FDD79DB874
:1016E40003D010C0ADFF10D09D98400E4B24D96E8E
:1016F400DA6A010EDA2210C0DFFF4B2A3F0E4B6478
:1017040002D0000E4B6E49069D881200146E14C060
:1017140012F012461246C2501218830B1218C26EEF
:10172400C280C282C2B2FED7C450136E126AC350C2
:101734001224106E000E1320116E1200000E896E1A
:10174400000E8A6E000E8B6E000E926EDF0E936E8C
:10175400BC0E946E3C0E0F013A6F1F0E396F000ED3
:10176400386F000E616EF18E120010C012F011C0BD
:1017740013F002D0104A112A10C0D9FF11C0DAFFA9
:10178400DF50D8A4F7D71250105C106E13501158C4
:10179400116E1200400E496010D0400E4A24D96EDA
:1017A400DA6A010EDA22DF50AD6E4A2A3F0E4A642D
:1017B40002D0000E4A6E492A12009D981200E80ECB
:1017C4000001EC6F000EED6F000E3B6E000E3C6EE0
:1017D400E6C03DF0E7C03EF0EC0E3F6E000E406EFA
:1017E400CEEC0AF012009E920001D84BD92BD951AD
:1017F40004E10A0ED85DD8A0120026EC0CF0000E0D
:101804000001D96F000ED86F1200000E4824D96E63
:10181400DA6A010EDA22AECFDFFF482A3F0E4864AF
:1018240002D0000E486E462A12007C0EBB6E000EDB
:10183400BC6E9E929D82160E106E190E116E5CEC9B
:101844000CF03E0EBA6E120041504210D8B4120091
:1018540001D812000500FA6E4150FD6E4250FE6E32
:10186400FF6AFA50120087EC0CF0A0EC0BF04EEC7F
:101874000CF017EC0CF042EC0CF027EC0AF0120020
:10188400010EC26E080EC16E870EC06E000EC36ECE
:10189400000EC46E9D8C1200700ED36E040ED26EB8
:1018A400400E9B6ED2BE1200FDD7116E11506DEC2E
:1018B4000BF0120010C041F011C042F0120010C031
:1018C400E2F011C0E3F0120010C0E0F011C0E1F04A
:1018D400120010C0DCF011C0DDF0120010C0DEF008
:1018E40011C0DFF0120010C0DAF011C0DBF01200FA
:0918F400286E756C6C29000B00D4
:1018FE00AB98AB88120007EC0CF0120058000102F6
:0C190E00D09E12009E9C120012001200DD
:020000040020DA
:08000000FFFFFFFFFFFFFFFF00
:020000040030CA
:0E000000FF281F3CFFBF85FF0FC00FE00F4021
:00000001FF
