:0400000058EF00F0C5
:100008005B82FACF01F0FBCF02F0D9CF03F0DACF51
:1000180004F0F2AC12EF00F014EF00F04EEF00F035
:100028009DA819EF00F01BEF00F031EF00F09EA83B
:1000380020EF00F022EF00F031EF00F002D82FEFB0
:1000480000F00500FA6E00017651FD6E7751FE6EE4
:10005800FF6AFA5012004EEF00F09DAA36EF00F04A
:1000680038EF00F04EEF00F09EAA3DEF00F03FEFB2
:1000780000F04EEF00F002D84CEF00F00500FA6EE9
:1000880000017451FD6E7551FE6EFF6AFA50120040
:100098004EEF00F004C0DAFF03C0D9FF02C0FBFF37
:1000A80001C0FAFF5B92110074EF0BF04BC0D9FF4F
:1000B8004CC0DAFFDECFF6FFDDCFF7FFF86A0800A5
:1000C800F550250AD8A46BEF00F06DEF00F0E8EFCB
:1000D80002F04BC0D9FF4CC0DAFFDE2A000EDD2249
:1000E800000E00016B6F000E6A6F6AC057F06BC09C
:1000F80058F06C696D69000EC56F000EC46FCCEFC7
:1001080000F057804BC0D9FF4CC0DAFFDE2A000E42
:10011800DD22CCEF00F0578286EF00F0578486EF9F
:1001280000F0578686EF00F0578886EF00F0000E43
:10013800C56F010EC46FCCEF00F04BC0D9FF4CC0A7
:10014800DAFFDECFF6FFDDCFF7FFF86A0800F550DB
:100158004F6E506A5050000AD8B4B5EF00F09BEFCC
:1001680000F04F50200AD8B495EF00F0030AD8B435
:1001780098EF00F0080AD8B492EF00F0060AD8B455
:1001880085EF00F01D0AD8B48FEF00F09BEF00F068
:10019800C451C511D8B4D3EF00F0D5EF00F0A1EFEA
:1001A80000F057A0DAEF00F0DCEF00F0DDEF00F030
:1001B80057924BC0D9FF4CC0DAFFDECFF6FFDDCF38
:1001C800F7FFF86A0800F5502A0AD8A4EEEF00F005
:1001D800F0EF00F019EF01F04BC0D9FF4CC0DAFF87
:1001E800DE2A000EDD224DC0D9FF4EC0DAFFDFCF78
:1001F8004FF0020EDE26DFCF50F0000EDD224FC09A
:10020800D9FF50C0DAFFDECF6AF0DDCF6BF06BBFED
:1002180012EF01F010EF01F05EEF01F057806A6D08
:100228006B1FD8B06B2B5EEF01F04BC0D9FF4CC0F1
:10023800DAFFDECF0CF0DDCF0DF0E0EC05F00CC0FE
:100248006AF00DC06BF030EF01F04BC0D9FF4CC025
:10025800DAFFDE2A000EDD22D00E4F6EFF0E506E42
:100268004BC0D9FF4CC0DAFFDECFF6FFDDCFF7FF7A
:10027800F86A0800F550516E526A4F505126505096
:10028800522252500AE10A0E515CD8A04EEF01F0FA
:1002980051EF01F0010E52EF01F0000E0001C66FA0
:1002A800C76BC651C711D8A45CEF01F05EEF01F02F
:1002B80029EF01F04BC0D9FF4CC0DAFFDECFF6FFC3
:1002C800DDCFF7FFF86A0800F550630AD8A46FEF8E
:1002D80001F071EF01F098EF01F04BC0D9FF4CC06D
:1002E800DAFFDE2A000EDD224DC0D9FF4EC0DAFF4C
:1002F800DFCF4FF0020EDE26DFCF50F0000EDD22FA
:100308004FC0D9FF50C0DAFFDF50C86F49C010F0A6
:100318004AC011F0C8C012F094EC09F010C049F0BE
:1003280011C04AF004EF03F04BC0D9FF4CC0DAFF0C
:10033800DECFF6FFDDCFF7FFF86A0800F550640A54
:10034800D8B4A9EF01F0ABEF01F0BEEF01F04BC05C
:10035800D9FF4CC0DAFFDECFF6FFDDCFF7FFF86A32
:100368000800F550690AD8A4BCEF01F0BEEF01F00F
:10037800FEEF01F04BC0D9FF4CC0DAFFDE2A000EB9
:10038800DD224DC0D9FF4EC0DAFFDFCF4FF0020E9D
:10039800DE26DFCF50F0000EDD224FC0D9FF50C05F
:1003A800DAFFDECFB2F0DDCFB3F0000EB3BFFF0E41
:1003B800B46FB56FB66FB76FB86FB96F49C022F039
:1003C8004AC023F0B2C024F0B3C025F0B4C026F070
:1003D800B5C027F0B6C028F0B7C029F0B8C02AF0D9
:1003E800B9C02BF005EC03F022C049F023C04AF055
:1003F80004EF03F04BC0D9FF4CC0DAFFDECFF6FFA5
:10040800DDCFF7FFF86A0800F550730AD8A40FEF9C
:1004180002F011EF02F03CEF02F04BC0D9FF4CC0E4
:10042800DAFFDE2A000EDD224DC0D9FF4EC0DAFF0A
:10043800DFCF4FF0020EDE26DFCF50F0000EDD22B8
:100448004FC0D9FF50C0DAFFDECFC2F0DDCFC3F016
:1004580049C010F04AC011F0C2C012F0C3C013F076
:10046800E1EC06F010C049F011C04AF004EF03F0C7
:100478004BC0D9FF4CC0DAFFDECFF6FFDDCFF7FF68
:10048800F86A0800F550780AD8B44DEF02F04FEF3B
:1004980002F062EF02F04BC0D9FF4CC0DAFFDECFAA
:1004A800F6FFDDCFF7FFF86A0800F550580AD8A420
:1004B80060EF02F062EF02F0B1EF02F04BC0D9FF3B
:1004C8004CC0DAFFDECFF6FFDDCFF7FFF86A080091
:1004D800F5CFC8F04BC0D9FF4CC0DAFFDE2A000EBA
:1004E800DD224DC0D9FF4EC0DAFFDFCF4FF0020E3C
:1004F800DE26DFCF50F0000EDD224FC0D9FF50C0FE
:10050800DAFFDECF51F0DDCF52F051C0BAF052C061
:10051800BBF0BC6BBD6BBE6BBF6BC06BC16B49C026
:1005280022F04AC023F0BAC024F0BBC025F0BCC0FA
:1005380026F0BDC027F0BEC028F0BFC029F0C0C05B
:100548002AF0C1C02BF0C8C02CF075EC04F022C012
:1005580049F023C04AF004EF03F04BC0D9FF4CC068
:10056800DAFFDECFF6FFDDCFF7FFF86A0800F550B7
:10057800250AD8A4C2EF02F0C4EF02F0DBEF02F0C4
:100588004BC0D9FF4CC0DAFFDE2A000EDD22000E78
:10059800086E250E076E49C009F04AC00AF0FFEC44
:1005A80009F0000E4A6E010E496E04EF03F04BC0CD
:1005B800D9FF4CC0DAFFDE2A000EDD22000E4A6E9B
:1005C800000E496E04EF03F04BC0D9FF4CC0DAFFB0
:1005D800DECFF6FFDDCFF7FFF86A0800F550076EAB
:1005E800086A49C009F04AC00AF0FFEC09F04BC09C
:1005F800D9FF4CC0DAFFDE2A000EDD22D5EF02F06B
:10060800120024C03CF025C03DF026C03EF027C0B3
:100618003FF028C040F029C041F02AC042F02BC06A
:1006280043F043BE1AEF03F01DEF03F0010E1EEF77
:1006380003F0000E3A6E3B6A3A503B10D8B427EFED
:1006480003F029EF03F039EF03F0431E421E411E69
:10065800401E3F1E3E1E3D1E3C6C000E3D223E22AB
:100668003F22402241224222432200016DBF3FEF38
:1006780003F041EF03F042EF03F057926DBF4FEFE5
:1006880003F06D5106E16C05D8B04DEF03F04FEF64
:1006980003F055EF03F0000E376E010E366E59EF7A
:1006A80003F06CC036F06DC037F06AC038F06BC02C
:1006B80039F03A503B10D8A464EF03F066EF03F02A
:1006C8006DEF03F057A46BEF03F06DEF03F070EFDD
:1006D80003F03806D8A03906000E456E1F0E446E8A
:1006E800000E0101966FF5EF03F04406D8A0450609
:1006F800770E4424D96E010E4520DA6E3CC005F011
:100708003DC006F03EC007F03FC008F040C009F009
:1007180041C00AF042C00BF043C00CF00A0E0D6E47
:10072800000E0E6E000E0F6E000E106E000E116E93
:10073800000E126E000E136E000E146E72EC08F0AE
:1007480005C02CF006C02DF007C02EF008C02FF011
:1007580009C030F00AC031F00BC032F00CC033F0E1
:100768002CC017F02EC018F039EC0DF01750300FD0
:10077800DF6E3606D8A037063806D8A039063CC042
:1007880005F03DC006F03EC007F03FC008F040C08D
:1007980009F041C00AF042C00BF043C00CF00A0E49
:1007A8000D6E000E0E6E000E0F6E000E106E000E17
:1007B800116E000E126E000E136E000E146EAEEC6B
:1007C80007F005C03CF006C03DF007C03EF008C089
:1007D8003FF009C040F00AC041F00BC042F00CC025
:1007E80043F045BE00EF04F0455008E14404D8A0AA
:1007F80000EF04F002EF04F032EF04F03C503D103B
:100808003E103F104010411042104310D8A40FEF83
:1008180004F011EF04F079EF03F037BE1EEF04F097
:10082800375006E13604D8B01CEF04F01EEF04F090
:1008380079EF03F039BE29EF04F0395008E13804A4
:10084800D8A029EF04F02BEF04F032EF04F057B2F0
:1008580030EF04F032EF04F079EF03F03A503B1038
:10086800D8A439EF04F03BEF04F042EF04F057A4AA
:1008780040EF04F042EF04F060EF04F04406D8A023
:1008880045063A503B10D8A44CEF04F04EEF04F064
:1008980054EF04F0000E356E2B0E346E58EF04F052
:1008A800000E356E2D0E346E770E4424D96E010E6F
:1008B8004520DA6E34C0DFFF22C017F023C018F0DD
:1008C800770E4424196E010E45201A6E38C01BF0AD
:1008D80039C01CF064EC0AF017C022F018C023F0ED
:1008E800120000016DBF7BEF04F07DEF04F07EEF96
:1008F80004F057926DBF8BEF04F06D5106E16C0563
:10090800D8B089EF04F08BEF04F091EF04F0000EFB
:100918003A6E010E396E95EF04F06CC039F06DC077
:100928003AF06AC03BF06BC03CF057A89EEF04F069
:10093800A0EF04F0A4EF04F0FE0E3B26FF0E3C22CD
:1009480024C03DF025C03EF026C03FF027C040F04F
:1009580028C041F029C042F02AC043F02BC044F01F
:10096800000E466E1F0E456E000E0101966F70EF69
:1009780005F04506D8A046060F0E3D14476E486A96
:1009880048BED0EF04F0485009E10A0E475CD8A0F1
:10099800D0EF04F0D2EF04F0DAEF04F0570E47245A
:1009A800476E000E4820486EE0EF04F0300E4724F2
:1009B800476E000E4820486EBF0E2D6EFF0E2E6E3D
:1009C8002C502F6E306A2D502F262E50302230504A
:1009D8000AE11A0E2F5CD8A0F4EF04F0F7EF04F048
:1009E800010EF8EF04F0000E356E366A35503610F9
:1009F800D8B401EF05F003EF05F033EF05F09F0ED3
:100A08002D6EFF0E2E6E200E47102F6E000E481012
:100A1800306E2D502F262E50302230500AE11A0EFB
:100A28002F5CD8A01AEF05F01DEF05F0010E1EEFA0
:100A380005F0000E376E386A37503810D8B427EFF3
:100A480005F029EF05F033EF05F047C00BF048C07B
:100A58000CF01CEC0CF00BC047F00CC048F0770E03
:100A68004524D96E010E4620DA6E47C0DFFF3906ED
:100A7800D8A03A063B06D8A03C063DC02DF03EC0A3
:100A88002EF03FC02FF040C030F041C031F042C0DE
:100A980032F043C033F044C034F0050E5DEF05F08A
:100AA800D890343233323232313230322F322E3221
:100AB8002D32E82E54EF05F02DC03DF02EC03EF04B
:100AC8002FC03FF030C040F031C041F032C042F09A
:100AD80033C043F034C044F046BE7CEF05F04650C6
:100AE80009E1020E455CD8A07CEF05F07EEF05F029
:100AF800AEEF05F03D503E103F104010411042103F
:100B080043104410D8A48BEF05F08DEF05F0BDEF2E
:100B180004F03ABE9AEF05F03A5006E13904D8B02D
:100B280098EF05F09AEF05F0BDEF04F03CBEA5EF95
:100B380005F03C5008E13B04D8A0A5EF05F0A7EF6D
:100B480005F0AEEF05F057B2ACEF05F0AEEF05F0EB
:100B5800BDEF04F057A8B3EF05F0B5EF05F0CBEF04
:100B680005F04506D8A04606770E4524D96E010E35
:100B78004620DA6E2CC0DFFF4506D8A04606770E61
:100B88004524D96E010E4620DA6E300EDF6E22C083
:100B980017F023C018F0770E4524196E010E462071
:100BA8001A6E3BC01BF03CC01CF064EC0AF017C086
:100BB80022F018C023F01200000E1A6E000E196EF3
:100BC800000E136E000E126EECEF05F00C4A0D2AA3
:100BD800010E186E0CC0F6FF0DC0F7FF000EF86E80
:100BE8000F0EF76403D00800F55005D0F6CFE9FFE3
:100BF800F7CFEAFFEF50200AD8B405EF06F007EF69
:100C080006F02FEF06F0F70E0E6EFF0E0F6E0CC0FB
:100C1800F6FF0DC0F7FF000EF86E0F0EF76403D055
:100C28000800F55005D0F6CFE9FFF7CFEAFFEF50FF
:100C3800106E116A0E5010260F501122115009E142
:100C4800050E105CD8A02BEF06F02DEF06F02FEF65
:100C580006F0000E186E18C014F0156A145015101E
:100C6800D8A439EF06F03BEF06F0EAEF05F045EFC0
:100C780006F0000E136E010E126E0C4A0D2A92EF4A
:100C880006F00CC0F6FF0DC0F7FF000EF86E0F0E51
:100C9800F76403D00800F55005D0F6CFE9FFF7CF89
:100CA800EAFFEF500E6E0F6A0F50000AD8B45FEFDC
:100CB80006F092EF06F00E502B0AD8B441EF06F07A
:100CC800060AD8B43DEF06F092EF06F019C005F019
:100CD8001AC006F0000E086E0A0E076E0BEC0EF036
:100CE8000CC0F6FF0DC0F7FF000EF86E0F0EF7648C
:100CF80003D00800F55005D0F6CFE9FFF7CFEAFF9B
:100D0800EF500E6E0E50055E000E065A300E05248A
:100D1800196E000E06201A6E41EF06F0D00E0E6E08
:100D2800FF0E0F6E0CC0F6FF0DC0F7FF000EF86E39
:100D38000F0EF76403D00800F55005D0F6CFE9FF91
:100D4800F7CFEAFFEF50106E116A0E5010260F50C1
:100D5800112211500AE10A0E105CD8A0B6EF06F075
:100D6800B9EF06F0010EBAEF06F0000E166E176A1C
:100D780016501710D8A4C3EF06F0C5EF06F06AEFB7
:100D880006F012501310D8A4CCEF06F0CEEF06F000
:100D9800DCEF06F019C00EF01AC00FF00E1E0F1E81
:100DA8000E4A0F2A0EC00CF00FC00DF0E0EF06F04F
:100DB80019C00CF01AC00DF0120020EEE7F010EE8A
:100DC80015F0060EDBCFE3FFE806FCE212C020F0C8
:100DD80013C021F020502110D8A4F5EF06F0F7EF4A
:100DE80006F0FBEF06F0150E206E000E216E20C0F7
:100DF80005F021C006F0CEEC0CF005C024F006C0CA
:100E080025F06CC022F06DC023F023BE0EEF07F072
:100E180010EF07F025EF07F02450225C2350800ADA
:100E2800146E2550800A1458D8A01DEF07F01FEF44
:100E380007F021EF07F025EF07F022C024F023C0C8
:100E480025F024C022F025C023F06AC01EF06BC034
:100E58001FF057B032EF07F034EF07F051EF07F00B
:100E680042EF07F0000E086E200E076E10C009F062
:100E780011C00AF0FFEC09F0244A252A1E50245C10
:100E88002550800A146E1F50800A1458D8A04FEFBE
:100E980007F051EF07F036EF07F0000E1D6E000E59
:100EA8001C6E76EF07F020C0F6FF21C0F7FF000E9A
:100EB800F86E0F0EF76403D00800F55005D0F6CF92
:100EC800E9FFF7CFEAFFEF50146E1450076E086A77
:100ED80010C009F011C00AF0FFEC09F0204A212ADD
:100EE8001C4A1D2A22501C5C1D50800A146E235077
:100EF800800A1458D8A083EF07F085EF07F057EF62
:100F080007F057A08AEF07F08CEF07F0A9EF07F07A
:100F18009AEF07F0000E086E200E076E10C009F059
:100F280011C00AF0FFEC09F0244A252A1E50245C5F
:100F38002550800A146E1F50800A1458D8A0A7EFB5
:100F480007F0A9EF07F08EEF07F024C010F025C0D6
:100F580011F01200000E166E14BEB7EF07F0B5EFD1
:100F680007F0C9EF07F0141E131E121E111E101EE3
:100F78000F1E0E1E0D6C000E0E220F2210221122C3
:100F8800122213221422010E166E0CBED0EF07F0A7
:100F9800CEEF07F0E2EF07F00C1E0B1E0A1E091E2B
:100FA800081E071E061E056C000E062207220822D0
:100FB80009220A220B220C22010E161A20EE17F023
:100FC800070EDE6AE806FDE20D500E100F10101035
:100FD8001110121013101410D8B4F5EF07F0F7EF32
:100FE80007F049EF08F0010E156E05EF08F0D890EC
:100FF8000D360E360F3610361136123613361436B5
:10100800152A14AE0AEF08F00CEF08F0FBEF07F012
:10101800D8901736183619361A361B361C361D3630
:101028001E360D50055C0E5006580F5007581050CC
:1010380008581150095812500A5813500B58145098
:101048000C58D8A02AEF08F02CEF08F03DEF08F074
:101058000D50055E0E50065A0F50075A1050085A88
:101068001150095A12500A5A13500B5A14500C5A5C
:101078001780D890143213321232113210320F32D4
:101088000E320D32152E0CEF08F01650D8B44FEF73
:1010980008F051EF08F061EF08F01E1E1D1E1C1E1F
:1010A8001B1E1A1E191E181E176C000E1822192254
:1010B8001A221B221C221D221E2217C005F018C04E
:1010C80006F019C007F01AC008F01BC009F01CC0D0
:1010D8000AF01DC00BF01EC00CF01200000E166EB8
:1010E8000CBE7BEF08F079EF08F08DEF08F00C1ECE
:1010F8000B1E0A1E091E081E071E061E056C000E82
:1011080006220722082209220A220B220C22010E9B
:10111800166E14BE94EF08F092EF08F0A4EF08F0F2
:10112800141E131E121E111E101E0F1E0E1E0D6CF5
:10113800000E0E220F221022112212221322142234
:101148000D500E100F101010111012101310141053
:10115800D8B4B1EF08F0B3EF08F0FBEF08F0010ED8
:10116800156EC1EF08F0D8900D360E360F361036D2
:101178001136123613361436152A14AEC6EF08F097
:10118800C8EF08F0B7EF08F00D50055C0E50065890
:101198000F500758105008581150095812500A5843
:1011A80013500B5814500C58D8A0DDEF08F0DFEF9F
:1011B80008F0EFEF08F00D50055E0E50065A0F507C
:1011C800075A1050085A1150095A12500A5A135007
:1011D8000B5A14500C5AD89014321332123211325E
:1011E80010320F320E320D32152EC8EF08F016509D
:1011F800D8B401EF09F003EF09F013EF09F00C1E62
:101208000B1E0A1E091E081E071E061E056C000E70
:1012180006220722082209220A220B220C2205C0D4
:1012280005F006C006F007C007F008C008F009C0BE
:1012380009F00AC00AF00BC00BF00CC00CF0120049
:101248000001E26F0001E251E225E36FC7B42FEF1E
:1012580009F031EF09F02AEF09F0C5CFE0F01F0ED1
:101268000001E017D8A43BEF09F03DEF09F02AEFA1
:1012780009F0C580C5B043EF09F045EF09F03EEF2E
:1012880009F0E3C0C9FFC7B44CEF09F04EEF09F00D
:1012980047EF09F06BBC53EF09F055EF09F08BEFFE
:1012A80009F0000E0001E46F82EF09F0C5BC5FEFA2
:1012B80009F061EF09F080EF09F0E451DD25E06FF6
:1012C800000EDE21E16FE0C0F6FFE1C0F7FF000E7F
:1012D800F86E0F0EF76403D00800F55005D0F6CF6E
:1012E800E9FFF7CFEAFFEF50C96EC7B47EEF09F008
:1012F80080EF09F079EF09F00001E42BDF51E45D9C
:10130800D8A089EF09F08BEF09F05AEF09F0C584EE
:10131800C5B491EF09F093EF09F08CEF09F01200D2
:1013280000016A516B11D8A49CEF09F09EEF09F0F7
:10133800A4EF09F06AC016F06BC017F0AAEF09F025
:10134800FF0E6A25166EFF0E6B21176E57A0AFEFC2
:1013580009F0B1EF09F0BAEF09F012C007F0086A16
:1013680010C009F011C00AF0FFEC09F017BEBFEF7A
:1013780009F0C1EF09F0C3EF09F0C7EF09F0000E5B
:10138800176E000E166E000E156E000E146ED9EF55
:1013980009F0000E086E200E076E10C009F011C08B
:1013A8000AF0FFEC09F0144A152A1650145C15507F
:1013B800800A136E1750800A1358D8A0E6EF09F078
:1013C800E8EF09F0CDEF09F057B0EDEF09F0EFEFD6
:1013D80009F0F8EF09F012C007F0086A10C009F028
:1013E80011C00AF0FFEC09F0010E1424106E000E73
:1013F8001520116E120009500A10D8B406EF0AF031
:1014080008EF0AF011EF0AF009500A10D8A40FEFFC
:101418000AF011EF0AF016EF0AF007504BEC0EF045
:1014280063EF0AF020EE04F00950D9260A50DA22B8
:10143800DE50DE10D8B423EF0AF025EF0AF040EFB3
:101448000AF020EE04F00950D9260A50DA2210EEEC
:1014580002F00950E1260A50E222DE50E65CE6502E
:10146800800A0F6EDE50800A0F58D8B03EEF0AF09F
:1014780040EF0AF063EF0AF020EE02F00950D92697
:101488000A50DA22DECF0BF0DDCF0CF009C0D9FF0D
:101498000AC0DAFFDECF0DF0DDCF0EF00B500D24C1
:1014A800D96E0C500E20DA6E07C0DFFF20EE02F076
:1014B8000950D9260A50DA22DE2A000EDD2212004F
:1014C80057A069EF0AF06BEF0AF075EF0AF019C040
:1014D80010F01AC011F017C012F018C013F0F6EC93
:1014E8000CF01CBE7AEF0AF07CEF0AF082EF0AF0EB
:1014F8001BC020F01CC021F086EF0AF0000E216E00
:10150800000E206E000E1F6E000E1E6E98EF0AF081
:10151800000E086E200E076E17C009F018C00AF0FA
:10152800FFEC09F01E4A1F2A20501E5C1F50800A3B
:101538001D6E2150800A1D58D8A0A5EF0AF0A7EF0C
:101548000AF08CEF0AF057B0ACEF0AF0AEEF0AF0F1
:10155800B8EF0AF019C010F01AC011F017C012F055
:1015680018C013F0F6EC0CF019C005F01AC006F01C
:10157800CEEC0CF020500524176E21500620186E72
:101588001200000E5A24D96EDA6A010EDA22000E11
:10159800DF6EABA4D2EF0AF0D4EF0AF0E9EF0AF05D
:1015A800000E5A24D96EDA6A010EDA220101DF82AE
:1015B80002D8E9EF0AF00500FA6E00017251FD6EDB
:1015C8007351FE6EFF6AFA501200ABA2EEEF0AF0FA
:1015D800F0EF0AF005EF0BF0000E5A24D96EDA6A24
:1015E800010EDA220101DF8402D805EF0BF00500B5
:1015F800FA6E00017051FD6E7151FE6EFF6AFA506D
:101608001200000E5A24D96EDA6A010EDA22DF506F
:10161800D8B411EF0BF013EF0BF022EF0BF002D858
:1016280020EF0BF00500FA6E00016E51FD6E6F5150
:10163800FE6EFF6AFA50120024EF0BF0E1EC0DF099
:10164800120042EC0EF0AFEC0BF0F28EF28CF40EBE
:101658000001E66F820EE56F050EE82EFED7E52F36
:10166800FCD7E62FFAD7F40E0001E66F820EE56F7D
:10167800050EE82EFED7E52FFCD7E62FFAD72CEC7F
:101688000EF0F20E0001DD6F000EDE6F040EDF6F4C
:101698003C0E24EC09F0F80E0001DD6F000EDE6F41
:1016A800020EDF6F3C0E24EC09F0E40E0001DD6F42
:1016B800010EDE6F0D0EDF6F3C0E24EC09F0090EF3
:1016C8000001E66F1E0EE56FE40EE82EFED7E52F4B
:1016D800FCD7E62FFAD700F070EF0BF058EF00F0C8
:1016E800960EF66E180EF76E000EF86E01EE97F075
:1016F80010EE5BF00900F5CFEEFFE550E150FAE19E
:10170800700EF66E1C0EF76E000EF86E00EEE7F027
:1017180010EE14F00900F5CFEEFFE550E150FAE1C4
:1017280002EE00F0800EEE6AE806FDE101EE00F040
:10173800970EEE6AE806FDE100EE60F0520EEE6AE2
:10174800E806FDE15A6A596A586A576A5B905B92E3
:10175800000125EF0BF09D9A8A0E056E150E066E98
:1017680055EC0EF09D98300E056E1A0E066E50EC74
:101778000EF0080EB86E900EAB6E240EAC6E150E01
:10178800AF6E010EB06EE20E056E1C0E066E5FECBB
:101798000EF0D20E056E1C0E066E5AEC0EF0D80E28
:1017A800056E1C0E066E64EC0EF0000E00017B6FD9
:1017B800000E7F6F000E7E6F400E7D6F000E5A6E1A
:1017C800000E596E000E7C6F9D8A1200CBC053F03C
:1017D800CCC054F0000E0001696F000E686F08EF6E
:1017E8000CF0C9C049F0CAC04AF0530E4B6E000E47
:1017F8004C6ECDC04DF0CEC04EF05AEC00F04950C2
:10180800000168274A50692353C0F6FF54C0F7FF08
:10181800F86A0800F5500009D8A415EF0CF017EF86
:101828000CF0F5EF0BF068C0C9F069C0CAF01200FF
:101838009F0E0D6EFF0E0E6E0BC00FF00CC010F059
:101848000D500F260E50102210500AE11A0E0F5C90
:10185800D8A031EF0CF034EF0CF0010E35EF0CF09E
:10186800000E116E126A11501210D8B43EEF0CF02F
:1018780040EF0CF046EF0CF05F0E0B140B6E0C6A89
:101888004AEF0CF00BC00BF00CC00CF01200807883
:10189800400E0E11111F1111008070400E0A0E012A
:1018A8000F110F008068400E13151515190E0080D2
:1018B800604000000E1315190E008058400F1414D4
:1018C8001F1414170080504000000E050F140F005D
:1018D8008040400C12120C000000004048656C6CFF
:0918E8006F20576F726C6421003F
:1018F200056E00017D51D8B481EF0CF083EF0CF03E
:101902007AEF0CF09DB888EF0CF08AEF0CF08EEFB6
:101912000CF005C0ADFFA3EF0CF09D98400E7F25A3
:10192200D96EDA6A020EDA2205C0DFFF7F2B3F0E84
:101932007F659EEF0CF0A0EF0CF0A2EF0CF0000E12
:101942007F6F7D079D881200010E0B6E200E051819
:101952000610D8B4AFEF0CF0B1EF0CF0CAEF0CF0F8
:10196200F70E076EFF0E086E05C009F006C00AF0FA
:101972000750092608500A220A5009E1050E095C9F
:10198200D8A0C6EF0CF0C8EF0CF0CAEF0CF0000EB6
:101992000B6E0BC005F0066A120005C007F006C008
:1019A20008F0D6EF0CF0054A062A05C0F6FF06C07D
:1019B200F7FF000EF86E0F0EF76403D00800F55023
:1019C20005D0F6CFE9FFF7CFEAFFEF500009D8A420
:1019D200EDEF0CF0EFEF0CF0D4EF0CF00750055CDC
:1019E200056E08500658066E1200000E166E000EA6
:1019F200156E07EF0DF014C007F0086A12C009F067
:101A020013C00AF0FFEC09F0154A162A15501024EB
:101A1200D96E16501120DA6EDF50146E1450D8A40D
:101A220015EF0DF017EF0DF0FCEF0CF01200400E69
:101A320000017D611FEF0DF021EF0DF037EF0DF08A
:101A4200400E7E25D96EDA6A020EDA22DF50AD6EC2
:101A52007E2B3F0E7E6530EF0DF032EF0DF034EF4E
:101A62000DF0000E7E6F7D2B38EF0DF09D98120069
:101A720018BE46EF0DF0185006E11704D8B044EF37
:101A82000DF046EF0DF054EF0DF017C019F018C02D
:101A92001AF0191E1A1E194A1A2A19C017F01AC06A
:101AA20018F058EF0DF017C017F018C018F0120018
:101AB2009F0E076EFF0E086E200E0510096E000EB7
:101AC20006100A6E0750092608500A220A500AE137
:101AD2001A0E095CD8A070EF0DF073EF0DF0010E35
:101AE20074EF0DF0000E056E066A12009F0E076E6F
:101AF200FF0E086E05C009F006C00AF0075009265D
:101B020008500A220A500AE11A0E095CD8A08CEF8A
:101B12000DF08FEF0DF0010E90EF0DF0000E056E3F
:101B2200066A1200BF0E076EFF0E086E05C009F0AE
:101B320006C00AF00750092608500A220A500AE194
:101B42001A0E095CD8A0A8EF0DF0ABEF0DF0010E54
:101B5200ACEF0DF0000E056E066A1200D00E076E95
:101B6200FF0E086E05C009F006C00AF007500926EC
:101B720008500A220A500AE10A0E095CD8A0C4EFF2
:101B82000DF0C7EF0DF0010EC8EF0DF0000E056E5F
:101B9200066A1200000E896E000E8A6E000E8B6EAF
:101BA2009268DF0E936EBF0E946E3C0E0F013A6F79
:101BB2001F0E396F2F0E386F000E616EF18E1200FC
:101BC200000E5A24D96EDA6A020EDA22AECFDFFF95
:101BD2005A2A3F0E5A64F0EF0DF0F2EF0DF0F4EFD7
:101BE2000DF0000E5A6E00017C2B1200D10E556EC4
:101BF200000E566E000E0001C96F000ECA6FCFC0F4
:101C0200CBF0D0C0CCF0550ECD6F000ECE6FEAEC0B
:101C12000BF0120005500702F3CF09F0F4CF0AF0DF
:101C220005500802F3500A2606500702F3500A260E
:101C320009C005F00AC006F01200700ED36E040E41
:101C4200D26E400E9B6ED2AE29EF0EF02BEF0EF04D
:101C520024EF0EF01200948694880F013A973A9975
:101C62009F0EC86E280EC66E000EC56E1200286E3C
:101C7200756C6C290004453C0100380C0600C0005C
:101C820080036FEC0EF0CBEC0DF01EEC0EF0AFEC1F
:101C92000BF01200066E065079EC0CF0120005C033
:101CA20076F006C077F0120005C074F006C075F039
:101CB200120005C070F006C071F0120005C072F08B
:101CC20006C073F0120005C06EF006C06FF012007D
:101CD200AB98AB881200E1EC0DF01200D09E12001E
:021CE2001200EE
:10FDD800004048756D69643A2020202025202020A5
:10FDE80020200040546D703A78782C786F202020BD
:10FDF8002020202000000000E056341205011020C9
:10FE08000042005840DF008A6840402D00C6008448
:10FE1800E3E52F6E2F722A2A2A2A2A2A2A2A2A2A30
:10FE28002A524541442A2A2A2A2A2A2A2A2A2A2AB6
:10FE38002A2A2A2A2A2A0A0D00257320642E202518
:10FE48003032582E20257320323025303258206B1E
:10FE58006C2E20253032583A253032580D0A00537E
:10FE68006B72697665722074696C2061647265735F
:10FE780073653A2025303258202D2025640A0D005C
:10FE8800536B726976657220646174613A2025301B
:10FE98003278202D202564202D2025630A0D004668
:10FEA800656A6C2069206C6165736E696E67206194
:10FEB8006620646174610D0A00536B72697665721D
:10FEC8003A20616472657373653A2025640A0D00EF
:10FED8004861722073656E64742073746172740A69
:10FEE8000D004861722073656E64742073746F70BE
:10FEF8000A0D0042757373656E6572206B6C6172D2
:10FF08000A0D0053656E6474653A204E41434B0AEE
:10FF18000D004048756D69643A20252E3166252507
:10FF2800004040546D703A20252E3166430000533E
:10FF3800656E6474653A2041434B0A0D004C616557
:10FF48007374653A2025640A0D0053657074656DF5
:10FF58006265720000446563656D62657200004EFB
:10FF68006F76656D6265720000536F656E646167D8
:10FF780000004C6F657264616700005469727364B5
:10FF880061670000546F72736461670000466562C0
:10FF98007275617200004F6B746F62657200004683
:10FFA800726564616700004D616E64616700004FAF
:10FFB8006E7364616700004A616E7561720000418A
:10FFC80075677573740000417072696C00004D614B
:10FFD80072747300004A756C6900004A756E690096
:10FFE800004D616A000025730D0A00253032480073
:07FFF8003F0000257300002B
:020000040020DA
:08000000FFFFFFFFFFFFFFFF00
:020000040030CA
:0E000000FF281F3CFFBF85FF0FC00FE00F4021
:00000001FF
