:020000040000FA
:0400000034EF00F0E9
:100008005B82FACF01F0FBCF02F0D9CF03F0DACF51
:1000180004F0F2AC1BD09DB89EA809D001D816D028
:100028000500FA6E00016E51FD6E6F510BD09DBA3E
:100038009EAA0CD001D80AD00500FA6E00016C51B6
:10004800FD6E6D51FE6EFF6AFA50120004C0DAFFB1
:1000580003C0D9FF02C0FBFF01C0FAFF5B92110089
:04006800C2EF0DF0E6
:10100000004B756E6E6520696B6B652066696E645A
:101010006520656E6865642C20616464723A2025E1
:10102000730A0D000A0D536B72697665723A20617E
:101030006472657373653A2025640A0D0068616EF9
:10104000646C65555342436F6D6D616E6428290A67
:101050000D004861722073656E6474207374617250
:10106000740A0D0042757373656E6572206B6C6156
:10107000720A0D00446562756767696E670A0D0044
:101080004C6564206F66660D0A004C6564206F6EC7
:101090000D0A0073746172740073746F70003F21E5
:0310A0003F00000E
:1010A40024C03CF025C03DF026C03EF027C03FF0F0
:1010B40028C040F029C041F02AC042F02BC043F0C0
:1010C40043AE02D0010E01D0000E3A6E3B6A3A5094
:1010D4003B10D8B410D0431E421E411E401E3F1E7A
:1010E4003E1E3D1E3C6C000E3D223E223F2240220D
:1010F400412242224322000165AF579265BF05D0C9
:10110400655108E16405D8B005D0000E376E010EB4
:10111400366E04D064C036F065C037F062C038F073
:1011240063C039F03A503B10D8A402D057A403D07E
:101134003806D8A03906000E456E1F0E446E000E08
:10114400976F7CD04406D8A04506780E4424D96E07
:10115400000E4520DA6E3CC005F03DC006F03EC0EE
:1011640007F03FC008F040C009F041C00AF042C097
:101174000BF043C00CF00A0E0D6E000E0E6E000E46
:101184000F6E000E106E000E116E000E126E000E29
:10119400136E000E146EA9EC0BF005C02CF006C003
:1011A4002DF007C02EF008C02FF009C030F00AC09F
:1011B40031F00BC032F00CC033F02CC017F02EC04D
:1011C40018F01FEC0EF01750300FDF6E3606D8A063
:1011D40037063806D8A039063CC005F03DC006F0F5
:1011E4003EC007F03FC008F040C009F041C00AF01B
:1011F40042C00BF043C00CF00A0E0D6E000E0E6ED2
:10120400000E0F6E000E106E000E116E000E126EA8
:10121400000E136E000E146E71EC0AF005C03CF063
:1012240006C03DF007C03EF008C03FF009C040F0E2
:101234000AC041F00BC042F00CC043F045BE1FD0C1
:10124400455003E14404D8A01AD03C503D103E1050
:101254003F104010411042104310D8A473D737BE3A
:1012640005D0375002E13604D8B06CD739BE07D068
:10127400395003E13804D8A002D057B263D73A50AA
:101284003B10D8A402D057A417D04406D8A04506D2
:101294003A503B10D8A404D0000E356E2B0E03D068
:1012A400000E356E2D0E346E780E4424D96E000E69
:1012B4004520DA6E34C0DFFF22C017F023C018F0D7
:1012C400780E4424196E000E45201A6E38C01BF0A7
:1012D40039C01CF087EC0CF017C022F018C023F0C2
:1012E400120048C0D9FF49C0DAFFDECFF6FFDDCFD8
:1012F400F7FFF86A0800F550250AD8A4D5D048C0ED
:10130400D9FF49C0DAFFDE2A000EDD22000E0001FB
:10131400636F000E626F62C057F063C058F0646977
:10132400656948C0D9FF49C0DAFFDECFF6FFDDCFDB
:10133400F7FFF86A0800F550640AD8B40ED048C024
:10134400D9FF49C0DAFFDECFF6FFDDCFF7FFF86A39
:101354000800F550690AD8A43FD048C0D9FF49C055
:10136400DAFFDE2A000EDD224AC0D9FF4BC0DAFFC5
:10137400DFCF4CF0020EDE26DFCF4DF0000EDD2273
:101384004CC0D9FF4DC0DAFFDECFC9F0DDCFCAF0C3
:10139400000ECABFFF0ECB6FCC6FCD6FCE6FCF6F79
:1013A400D06F46C022F047C023F0C9C024F0CAC0A1
:1013B40025F0CBC026F0CCC027F0CDC028F0CEC09D
:1013C40029F0CFC02AF0D0C02BF052EC08F022C094
:1013D40046F023C047F0120048C0D9FF49C0DAFFE5
:1013E400DECFF6FFDDCFF7FFF86A0800F550730A89
:1013F400D8A42AD048C0D9FF49C0DAFFDE2A000E9B
:10140400DD224AC0D9FF4BC0DAFFDFCF4CF0020E19
:10141400DE26DFCF4DF0000EDD224CC0D9FF4DC0DB
:10142400DAFFDECFD1F0DDCFD2F046C010F047C0F6
:1014340011F0D1C012F0D2C013F015EC0BF010C0B3
:1014440046F011C047F0120048C0D9FF49C0DAFF86
:10145400DECFF6FFDDCFF7FFF86A0800F550250A66
:10146400D8A416D048C0D9FF49C0DAFFDE2A000E3E
:10147400DD22000E086E250E076E46C009F047C037
:101484000AF00DEC0DF0000E476E010E466E1200D0
:1014940048C0D9FF49C0DAFFDE2A000EDD22000E63
:1014A400476E000E466E120048C0D9FF49C0DAFFED
:1014B400DECFF6FFDDCFF7FFF86A0800F550076EC0
:1014C400086A46C009F047C00AF00DEC0DF048C0A8
:1014D400D9FF49C0DAFFDE2A000EDD22D4D7000E80
:1014E400166E14AE12D0141E131E121E111E101EE0
:1014F4000F1E0E1E0D6C000E0E220F221022112242
:10150400122213221422010E166E0CAE12D00C1EDF
:101514000B1E0A1E091E081E071E061E056C000E61
:1015240006220722082209220A220B220C22010E7B
:10153400161A20EE17F0070EDE6AE806FDE20D50DB
:101544000E100F1010101110121013101410D8B424
:1015540046D0010E156E0AD0D8900D360E360F36D1
:1015640010361136123613361436152A14AEF4D743
:10157400D8901736183619361A361B361C361D36CF
:101584001E360D50055C0E5006580F50075810506B
:1015940008581150095812500A5813500B58145037
:1015A4000C58D8A011D00D50055E0E50065A0F509D
:1015B400075A1050085A1150095A12500A5A135017
:1015C4000B5A14500C5A1780D8901432133212321A
:1015D400113210320F320E320D32152EC9D7165079
:1015E400D8B410D01E1E1D1E1C1E1B1E1A1E191E32
:1015F400181E176C000E182219221A221B221C22F4
:101604001D221E2217C005F018C006F019C007F0ED
:101614001AC008F01BC009F01CC00AF01DC00BF072
:101624001EC00CF0120020EEBAF010EE15F0060EFB
:10163400DBCFE3FFE806FCE212C020F013C021F088
:1016440020502110D8A404D0150E206E000E216E57
:1016540020C005F021C006F064EC0EF005C024F0B3
:1016640006C025F064C022F065C023F023BE0ED06E
:101674002450225C2350800A146E2550800A14588A
:10168400D8B004D022C024F023C025F024C022F016
:1016940025C023F062C01EF063C01FF057A00DD018
:1016A40016D0000E086E200E076E10C009F011C08F
:1016B4000AF00DEC0DF0244A252A1E50245C255016
:1016C400800A146E1F50800A1458D8A0EAD7000E5E
:1016D4001D6E000E1C6E13D020C0D9FF21C0DAFF8E
:1016E400DF50146E1450076E086A10C009F011C060
:1016F4000AF00DEC0DF0204A212A1C4A1D2A225022
:101704001C5C1D50800A146E2350800A1458D8A003
:10171400E3D757B00DD016D0000E086E200E076E1A
:1017240010C009F011C00AF00DEC0DF0244A252A6E
:101734001E50245C2550800A146E1F50800A1458D1
:10174400D8A0EAD724C010F025C011F01200000E72
:10175400166E0CAE12D00C1E0B1E0A1E091E081E9D
:10176400071E061E056C000E062207220822092207
:101774000A220B220C22010E166E14AE10D0141E77
:10178400131E121E111E101E0F1E0E1E0D6C000EB7
:101794000E220F22102211221222132214220D5083
:1017A4000E100F1010101110121013101410D8B4C2
:1017B4003CD0010E156E0AD0D8900D360E360F3679
:1017C40010361136123613361436152A14AEF4D7E1
:1017D4000D50055C0E5006580F500758105008580D
:1017E4001150095812500A5813500B5814500C58E1
:1017F400D8A010D00D50055E0E50065A0F50075A4F
:101804001050085A1150095A12500A5A13500B5AC0
:1018140014500C5AD890143213321232113210323E
:101824000F320E320D32152ED3D71650D8B410D035
:101834000C1E0B1E0A1E091E081E071E061E056C22
:10184400000E06220722082209220A220B220C2259
:1018540005C005F006C006F007C007F008C008F090
:1018640009C009F00AC00AF00BC00BF00CC00CF060
:101874001200000E5A24D96EDA6A010EDA22000E22
:10188400DF6EABA414D0000E5A24D96EDA6A010EAE
:10189400DA220101DF8201D80AD00500FA6E0001C4
:1018A4006A51FD6E6B51FE6EFF6AFA501200ABA2D4
:1018B40014D0000E5A24D96EDA6A010EDA2201011C
:1018C400DF8401D80AD00500FA6E00016851FD6E6C
:1018D4006951FE6EFF6AFA501200000E5A24D96E46
:1018E400DA6A010EDA22DF50D8B40CD001D8120023
:1018F4000500FA6E00016651FD6E6751FE6EFF6AC7
:10190400FA5012008DEC0EF0120057A00AD019C044
:1019140010F01AC011F017C012F018C013F0E7EC61
:101924000DF01CBE05D01BC020F01CC021F004D05B
:10193400000E216E000E206E000E1F6E000E1E6E35
:101944000CD0000E086E200E076E17C009F018C0E8
:101954000AF00DEC0DF01E4A1F2A20501E5C1F5089
:10196400800A1D6E2150800A1D58D8A0EAD757B0AE
:101974000AD019C010F01AC011F017C012F018C024
:1019840013F0E7EC0DF019C005F01AC006F064EC92
:101994000EF020500524176E21500620186E1200F8
:1019A4009D9A760E056E180E066ED3EC0EF09D9879
:1019B4009C0E056E1C0E066ECEEC0EF0080EB86E74
:1019C400900EAB6E240EAC6E820EAF6E060EB06E31
:1019D400DE0E056E1D0E066EDDEC0EF0CE0E056EEF
:1019E4001D0E066ED8EC0EF0D40E056E1D0E066E9E
:1019F400E2EC0EF0000E0001736F000E776F000E24
:101A0400766F400E756F000E5A6E000E596E000E02
:101A1400746F9D8A120009500A10D8B404D009507A
:101A24000A10D8A404D00750C9EC0EF0120020EE1E
:101A340004F00950D9260A50DA22DE50DE10D8B458
:101A440016D020EE04F00950D9260A50DA2210EEFE
:101A540002F00950E1260A50E222DE50E65CE6502C
:101A6400800A0F6EDE50800A0F58D8B0120020EEA4
:101A740002F00950D9260A50DA22DE2A000EDD22AD
:101A84001200D5C04EF0D6C04FF0000E0001616FB9
:101A9400000E606F13D0D3C046F0D4C047F04E0E92
:101AA400486E000E496ED7C04AF0D8C04BF073ECB4
:101AB40009F0465000016027475061234EC0F6FFED
:101AC4004FC0F7FFF86A0800F5500009D8A4E3D71F
:101AD40060C0D3F061C0D4F01200B7EC0EF0F28E07
:101AE400F28CD2EC0CF08A8AADEC0EF00001C151FC
:101AF400E06FE16BE0C0DDF0E1C0DEF0040EDF6F0B
:101B04003C0E9AEC0DF0740E0001D96F100EDA6FD2
:101B140079EC0EF0520E0001E16F2B0EE06F000E17
:101B2400E82EFED7E02FFCD7E12FFAD700F0DCD760
:101B3400556E55505524566EC7B4FED7C5CF54F0D4
:101B44001F0E5416D8A4F8D7640E0001D96F100ED6
:101B5400DA6F79EC0EF0C580520E0001D96F100EC9
:101B6400DA6F79EC0EF0240E0001D96F100EDA6FE3
:101B740056C0DBF0DC6B79EC0EF056C0C9FF1200E6
:101B84003C0EF66E1D0EF76E000EF86E00EEACF015
:101B940010EE1DF00900F5CFEEFFE550E150FAE13B
:101BA40001EE00F0C00EEE6AE806FDE100EE60F022
:101BB4004C0EEE6AE806FDE15A6A596A586A576A99
:101BC4005B905B9200016FEF0DF0000E166E000E3D
:101BD400156E0BD014C007F0086A12C009F013C0C8
:101BE4000AF00DEC0DF0154A162A15501024D96E82
:101BF40016501120DA6EDF50146E1450D8B412004F
:101C0400E9D7056E00017551D8B4FCD79DB803D04F
:101C140005C0ADFF10D09D98800E7725D96EDA6A85
:101C2400010EDA2205C0DFFF772B3F0E776502D065
:101C3400000E776F75079D88120018BE05D01850E6
:101C440010E11704D8B00DD017C019F018C01AF05D
:101C5400191E1A1E194A1A2A19C017F01AC018F0A8
:101C6400120017C017F018C018F01200000E896E89
:101C7400000E8A6E000E8B6E9268DF0E936EBF0E9E
:101C8400946E3C0E0F013A6F1F0E396F2F0E386F92
:101C9400000E616EF18E1200400E0001756110D0CD
:101CA400800E7625D96EDA6A010EDA22DF50AD6E27
:101CB400762B3F0E766502D0000E766F752B1200E0
:101CC4009D98120005C007F006C008F002D0054A2E
:101CD400062A05C0D9FF06C0DAFFDF50D8A4F7D71B
:101CE4000750055C056E08500658066E1200DB0EA0
:101CF400526E000E536E000E0001D36F000ED46FAF
:101D0400D9C0D5F0DAC0D6F0520ED76F000ED86F16
:101D140043EC0DF01200400E5A24D96EDA6A010E1B
:101D2400DA22AECFDFFF5A2A3F0E5A6402D0000EE9
:101D34005A6E0001742B12004054656D7065726117
:101D44007475723A2000286E756C6C290000380F87
:051D54000601583C48A7
:101D5A00948694880F013A973A999F0EC86E280E76
:101D6A00C66E1200EDEC0EF038EC0EF0C0EC0EF080
:101D7A00D2EC0CF01200700ED36E040ED26E400E2E
:101D8A009B6ED2BE1200FDD7066E065003EC0EF013
:101D9A00120005C06EF006C06FF0120005C06CF0AC
:101DAA0006C06DF0120005C068F006C069F01200A6
:101DBA0005C06AF006C06BF0120005C066F006C0E6
:101DCA0067F01200AB98AB8812008DEC0EF012008F
:061DDA00D09E1200120071
:020000040020DA
:08000000FFFFFFFFFFFFFFFF00
:020000040030CA
:0E000000FF281F3CFFBF81FF0FC00FE00F4025
:00000001FF
