:020000040000FA
:04000000B5EF7FF0E9
:10FF6A000001E0EF7FF0CBEC7FF0BDEC7FF01200F8
:10FF7A00700ED36E040ED26E400E9B6ED2AEC8EFD8
:10FF8A007FF0CAEF7FF0C3EF7FF01200000E896E98
:10FF9A00000E8A6E000E8B6EFE0E926E9368946847
:10FFAA00FC0E0F013A6F3F0E396F2E0E386F000E9E
:10FFBA00616EF18E1200B8EC7FF08980520E026EEB
:10FFCA002B0E016E000EE82EFED7012EFCD7022E54
:10FFDA00FAD700D08990520E026E2B0E016E000ED7
:10FFEA00E82EFED7012EFCD7022EFAD700D0E2EF78
:06FFFA007FF000EF00F0B3
:020000040020DA
:08000000FFFFFFFFFFFFFFFF00
:020000040030CA
:0E000000FF281F3CFFBF85FF0FC00FE00F4021
:00000001FF
