:020000040000FA
:0400000034EF00F0E9
:100008005B82FACF01F0FBCF02F0D9CF03F0DACF51
:1000180004F0F2AC1BD09DB89EA809D001D816D028
:100028000500FA6E00017251FD6E73510BD09DBA36
:100038009EAA0CD001D80AD00500FA6E00017051B2
:10004800FD6E7151FE6EFF6AFA50120004C0DAFFAD
:1000580003C0D9FF02C0FBFF01C0FAFF5B92110089
:100068008FEF07F04BC0D9FF4CC0DAFFDECFF6FFA9
:10007800DDCFF7FFF86A0800F550250AD8A4E9D1C2
:100088004BC0D9FF4CC0DAFFDE2A000EDD22000E7D
:100098000001676F000E666F66C057F067C058F0C2
:1000A80068696969000EBF6F000E14D057804BC095
:1000B800D9FF4CC0DAFFDE2A000EDD222FD057828E
:1000C800F6D75784F4D75786F2D75788F0D7000E5B
:1000D800BF6F010EBE6F22D04BC0D9FF4CC0DAFFF4
:1000E800DECFF6FFDDCFF7FFF86A0800F5504F6E58
:1000F800506A5050000AD8A4EAD74F50200AD8B402
:10010800E2D7030AD8B4E1D7080AD8B4DAD7060A7E
:10011800D8B4CCD71D0AD8B4D2D7D9D7BE51BF11BD
:10012800D8B4DAD757B057924BC0D9FF4CC0DAFFD2
:10013800DECFF6FFDDCFF7FFF86A0800F5502A0A90
:10014800D8A423D04BC0D9FF4CC0DAFFDE2A000E5A
:10015800DD224DC0D9FF4EC0DAFFDFCF4FF0020ECF
:10016800DE26DFCF50F0000EDD224FC0D9FF50C091
:10017800DAFFDECF66F0DDCF67F067AF41D057809A
:10018800666D671FD8B0672B3BD04BC0D9FF4CC0FA
:10019800DAFFDECF0CF0DDCF0DF07FEC04F00CC001
:1001A80066F00DC067F007D04BC0D9FF4CC0DAFF2E
:1001B800DE2A000EDD22D00E4F6EFF0E506E4BC0B1
:1001C800D9FF4CC0DAFFDECFF6FFDDCFF7FFF86AC4
:1001D8000800F550516E526A4F5051265050522225
:1001E800525006E10A0E515CD8B002D0010E01D07F
:1001F800000E0001C06FC16BC051C111D8A4D4D783
:100208004BC0D9FF4CC0DAFFDECFF6FFDDCFF7FFDA
:10021800F86A0800F550630AD8A426D04BC0D9FF65
:100228004CC0DAFFDE2A000EDD224DC0D9FF4EC0D9
:10023800DAFFDFCF4FF0020EDE26DFCF50F0000EE0
:10024800DD224FC0D9FF50C0DAFFDF50C26F49C06E
:1002580022F04AC023F0C2C024F098EC08F022C073
:1002680049F023C04AF012004BC0D9FF4CC0DAFF56
:10027800DECFF6FFDDCFF7FFF86A0800F550640A15
:10028800D8B40ED04BC0D9FF4CC0DAFFDECFF6FF92
:10029800DDCFF7FFF86A0800F550690AD8A43FD007
:1002A8004BC0D9FF4CC0DAFFDE2A000EDD224DC05C
:1002B800D9FF4EC0DAFFDFCF4FF0020EDE26DFCFC8
:1002C80050F0000EDD224FC0D9FF50C0DAFFDECF5C
:1002D800AEF0DDCFAFF0000EAFBFFF0EB06FB16F65
:1002E800B26FB36FB46FB56F49C022F04AC023F044
:1002F800AEC024F0AFC025F0B0C026F0B1C027F0E2
:10030800B2C028F0B3C029F0B4C02AF0B5C02BF0B1
:1003180048EC02F022C049F023C04AF012004BC05A
:10032800D9FF4CC0DAFFDECFF6FFDDCFF7FFF86A62
:100338000800F550780AD8B40ED04BC0D9FF4CC08D
:10034800DAFFDECFF6FFDDCFF7FFF86A0800F550D9
:10035800580AD8A44ED04BC0D9FF4CC0DAFFDECF24
:10036800F6FFDDCFF7FFF86A0800F5CFC2F04BC003
:10037800D9FF4CC0DAFFDE2A000EDD224DC0D9FFBE
:100388004EC0DAFFDFCF4FF0020EDE26DFCF50F08F
:10039800000EDD224FC0D9FF50C0DAFFDECF51F08A
:1003A800DDCF52F051C0B6F052C0B7F0B86BB96BA0
:1003B800BA6BBB6BBC6BBD6B49C022F04AC023F063
:1003C800B6C024F0B7C025F0B8C026F0B9C027F0F1
:1003D800BAC028F0BBC029F0BCC02AF0BDC02BF0C1
:1003E800C2C02CF069EC03F022C049F023C04AF0E7
:1003F80012004BC0D9FF4CC0DAFFDECFF6FFDDCFCD
:10040800F7FFF86A0800F550250AD8A416D04BC0A3
:10041800D9FF4CC0DAFFDE2A000EDD22000E086E7E
:10042800250E076E49C009F04AC00AF005EC08F02D
:10043800000E4A6E010E496E12004BC0D9FF4CC027
:10044800DAFFDE2A000EDD22000E4A6E000E496E2B
:1004580012004BC0D9FF4CC0DAFFDECFF6FFDDCF6C
:10046800F7FFF86A0800F550076E086A49C009F0F6
:100478004AC00AF005EC08F04BC0D9FF4CC0DAFFBF
:10048800DE2A000EDD22D4D724C03CF025C03DF082
:1004980026C03EF027C03FF028C040F029C041F0F8
:1004A8002AC042F02BC043F043AE02D0010E01D067
:1004B800000E3A6E3B6A3A503B10D8B410D0431E37
:1004C800421E411E401E3F1E3E1E3D1E3C6C000E3D
:1004D8003D223E223F224022412242224322000165
:1004E80069AF579269BF05D0695108E16805D8B06E
:1004F80005D0000E376E010E366E04D068C036F097
:1005080069C037F066C038F067C039F03A503B1020
:10051800D8A402D057A403D03806D8A03906000EB4
:10052800456E1F0E446E000E9A6F7CD04406D8A00C
:1005380045067B0E4424D96E000E4520DA6E3CC079
:1005480005F03DC006F03EC007F03FC008F040C0CF
:1005580009F041C00AF042C00BF043C00CF00A0E8B
:100568000D6E000E0E6E000E0F6E000E106E000E59
:10057800116E000E126E000E136E000E146E66ECF5
:1005880006F005C02CF006C02DF007C02EF008C0FC
:100598002FF009C030F00AC031F00BC032F00CC0A7
:1005A80033F02CC017F02EC018F070EC09F017507B
:1005B800300FDF6E3606D8A037063806D8A03906C1
:1005C8003CC005F03DC006F03EC007F03FC008F053
:1005D80040C009F041C00AF042C00BF043C00CF023
:1005E8000A0E0D6E000E0E6E000E0F6E000E106ECF
:1005F800000E116E000E126E000E136E000E146EB9
:1006080024EC05F005C03CF006C03DF007C03EF004
:1006180008C03FF009C040F00AC041F00BC042F0EA
:100628000CC043F045BE1FD0455003E14404D8A098
:100638001AD03C503D103E103F104010411042105F
:100648004310D8A473D737BE05D0375002E136041B
:10065800D8B06CD739BE07D0395003E13804D8A0D8
:1006680002D057B263D73A503B10D8A402D057A44F
:1006780017D04406D8A045063A503B10D8A404D059
:10068800000E356E2B0E03D0000E356E2D0E346E17
:100698007B0E4424D96E000E4520DA6E34C0DFFF8D
:1006A80022C017F023C018F07B0E4424196E000EE8
:1006B80045201A6E38C01BF039C01CF044EC07F016
:1006C80017C022F018C023F01200000169AF57923A
:1006D80069BF05D0695108E16805D8B005D0000E9A
:1006E8003A6E010E396E04D068C039F069C03AF02C
:1006F80066C03BF067C03CF057A804D0FE0E3B260E
:10070800FF0E3C2224C03DF025C03EF026C03FF03D
:1007180027C040F028C041F029C042F02AC043F069
:100728002BC044F0000E466E1F0E456E000E9A6FE9
:1007380093D04506D8A046060F0E3D14476E486A6A
:1007480048BE08D0485004E10A0E475CD8A002D041
:10075800570E01D0300E4724476E000E4820486ED1
:10076800BF0E2D6EFF0E2E6E2C502F6E306A2D5040
:100778002F262E503022305006E11A0E2F5CD8B0AA
:1007880002D0010E01D0000E356E366A3550361093
:10079800D8B427D09F0E2D6EFF0E2E6E200E471058
:1007A8002F6E000E4810306E2D502F262E503022FE
:1007B800305006E11A0E2F5CD8B002D0010E01D0DD
:1007C800000E376E386A37503810D8B40AD047C090
:1007D8000BF048C00CF0BFEC08F00BC047F00CC0A1
:1007E80048F07B0E4524D96E000E4620DA6E47C0CD
:1007F800DFFF3906D8A03A063B06D8A03C063DC024
:100808002DF03EC02EF03FC02FF040C030F041C068
:1008180031F042C032F043C033F044C034F0050E2A
:1008280009D0D890343233323232313230322F322A
:100838002E322D32E82EF5D72DC03DF02EC03EF0D9
:100848002FC03FF030C040F031C041F032C042F01C
:1008580033C043F034C044F046BE20D0465004E1D3
:10086800020E455CD8A01AD03D503E103F104010F3
:100878004110421043104410D8A45BD73ABE05D0AB
:100888003A5002E13904D8B054D73CBE07D03C50A6
:1008980003E13B04D8A002D057B24BD757A816D0D3
:1008A8004506D8A046067B0E4524D96E000E462084
:1008B800DA6E2CC0DFFF4506D8A046067B0E45241D
:1008C800D96E000E4620DA6E300EDF6E22C017F0A9
:1008D80023C018F07B0E4524196E000E46201A6EB0
:1008E8003BC01BF03CC01CF044EC07F017C022F0E2
:1008F80018C023F01200000E1A6E000E196E000EBA
:10090800136E000E126E02D00C4A0D2A010E186EDC
:100918000CC0F6FF0DC0F7FFF86A0800F550200A72
:10092800D8B419D0F70E0E6EFF0E0F6E0CC0F6FF7E
:100938000DC0F7FFF86A0800F550106E116A0E50E6
:1009480010260F501122115004E1050E105CD8A09A
:1009580002D0000E186E18C014F0156A1450151045
:10096800D8B408D0D1D7000E136E010E126E0C4AFF
:100978000D2A30D00CC0F6FF0DC0F7FFF86A08004A
:10098800F5500E6E0F6A0F50000AD8A423D00E50EF
:100998002B0AD8B4ECD7060AD8B4E5D71BD019C0AF
:1009A80005F01AC006F0000E086E0A0E076E3AEC43
:1009B8000AF00CC0F6FF0DC0F7FFF86A0800F55002
:1009C800055E000E065A300E0524196E000E06202C
:1009D8001A6ECDD7D00E0E6EFF0E0F6E0CC0F6FF3E
:1009E8000DC0F7FFF86A0800F550106E116A0E5036
:1009F80010260F501122115006E10A0E105CD8B0D3
:100A080002D0010E01D0000E166E176A165017108C
:100A1800D8A4C5D712501310D8A40DD019C00EF001
:100A28001AC00FF00E1E0F1E0E4A0F2A0EC00CF031
:100A38000FC00DF0120019C00CF01AC00DF0120012
:100A4800000E166E14AE12D0141E131E121E111EA6
:100A5800101E0F1E0E1E0D6C000E0E220F221022ED
:100A68001122122213221422010E166E0CAE12D07D
:100A78000C1E0B1E0A1E091E081E071E061E056CEC
:100A8800000E06220722082209220A220B220C2223
:100A9800010E161A20EE17F0070EDE6AE806FDE2D0
:100AA8000D500E100F1010101110121013101410FA
:100AB800D8B446D0010E156E0AD0D8900D360E3631
:100AC8000F3610361136123613361436152A14AE70
:100AD800F4D7D8901736183619361A361B361C36FE
:100AE8001D361E360D50055C0E5006580F5007581F
:100AF800105008581150095812500A5813500B58E2
:100B080014500C58D8A011D00D50055E0E50065A3E
:100B18000F50075A1050085A1150095A12500A5AC1
:100B280013500B5A14500C5A1780D89014321332A1
:100B38001232113210320F320E320D32152EC9D741
:100B48001650D8B410D01E1E1D1E1C1E1B1E1A1EA9
:100B5800191E181E176C000E182219221A221B22A1
:100B68001C221D221E2217C005F018C006F019C04D
:100B780007F01AC008F01BC009F01CC00AF01DC01D
:100B88000BF01EC00CF012000001DC6F0001DC51FC
:100B9800020DF328DD6F310EC96FFE0ECA6F26EC09
:100BA8000AF0C7B4FED7C5CFD6F01F0E0001D6177E
:100BB800D8A4F7D7C20EC96FFF0ECA6F26EC0AF089
:100BC800C580C5B0FED78E0E0001C96FFF0ECA6F73
:100BD80026EC0AF0DDC0C9FFC7B4FED7FC0E000141
:100BE800C96FFE0ECA6FDDC0CBF0CC6B26EC0AF0E5
:100BF800C5BC59D0F10E0001C96FFF0ECA6F26ECB3
:100C08000AF0000E0001DE6F3BD0C586C5B6FED7E0
:100C18000001DE51D325D96E000ED421DA6EC9CF7A
:100C2800DFFFDE51D66FD76BFF0ED86FFF0ED96F7F
:100C3800D551DA6FDB6BD851DA27D951DB23D6517E
:100C4800DA1904E1D751DB19D8B402D0C59A01D01A
:100C5800C58AC588C5B8FED7D30E0001C96FFF0E77
:100C6800CA6FDE51D325D96E000ED421DA6EDF505B
:100C7800D66FD651CB6FCC6B26EC0AF00001DE2B79
:100C8800D551DE5DD8A0C1D7C58AC588C5B8FED7FD
:100C9800C584C5B4FED7A00E0001C96FFF0ECA6F88
:100CA80026EC0AF007D0160E0001C96FFF0ECA6FB6
:100CB80026EC0AF07B0E0001C96FFE0ECA6F26EC07
:100CC8000AF01200000E166E0CAE12D00C1E0B1E8F
:100CD8000A1E091E081E071E061E056C000E0622A7
:100CE8000722082209220A220B220C22010E166E64
:100CF80014AE10D0141E131E121E111E101E0F1E2D
:100D08000E1E0D6C000E0E220F221022112212222E
:100D1800132214220D500E100F1010101110121063
:100D280013101410D8B43CD0010E156E0AD0D89008
:100D38000D360E360F361036113612361336143677
:100D4800152A14AEF4D70D50055C0E5006580F50F6
:100D58000758105008581150095812500A58135083
:100D68000B5814500C58D8A010D00D50055E0E50DA
:100D7800065A0F50075A1050085A1150095A125063
:100D88000A5A13500B5A14500C5AD8901432133272
:100D98001232113210320F320E320D32152ED3D7D5
:100DA8001650D8B410D00C1E0B1E0A1E091E081EA1
:100DB800071E061E056C000E0622072208220922BD
:100DC8000A220B220C2205C005F006C006F007C057
:100DD80007F008C008F009C009F00AC00AF00BC003
:100DE8000BF00CC00CF01200000E5A24D96EDA6A0F
:100DF800010EDA22000EDF6EABA414D0000E5A24C6
:100E0800D96EDA6A010EDA220101DF8201D80AD02E
:100E18000500FA6E00016E51FD6E6F51FE6EFF6A9D
:100E2800FA501200ABA214D0000E5A24D96EDA6A16
:100E3800010EDA220101DF8401D80AD00500FA6E1A
:100E480000016C51FD6E6D51FE6EFF6AFA50120082
:100E5800000E5A24D96EDA6A010EDA22DF50D8B4AD
:100E68000CD001D812000500FA6E00016A51FD6E1F
:100E78006B51FE6EFF6AFA5012004DEC0AF0120038
:100E880057A00AD019C010F01AC011F017C012F0FC
:100E980018C013F003EC09F01CBE05D01BC020F0ED
:100EA8001CC021F004D0000E216E000E206E000E32
:100EB8001F6E000E1E6E0CD0000E086E200E076E00
:100EC80017C009F018C00AF005EC08F01E4A1F2ADE
:100ED80020501E5C1F50800A1D6E2150800A1D582C
:100EE800D8A0EAD757B00AD019C010F01AC011F02C
:100EF80017C012F018C013F003EC09F019C005F080
:100F08001AC006F0FCEC09F020500524176E215099
:100F18000620186E1200760EF66E120EF76E000E90
:100F2800F86E01EEC0F010EE35F00900F5CFEEFFD7
:100F3800E550E150FAE1D40EF66E140EF76E000E8D
:100F4800F86E00EEDFF010EE15F00900F5CFEEFFB9
:100F5800E550E150FAE102EE00F0800EEE6AE80694
:100F6800FDE101EE00F0C00EEE6AE806FDE100EEDC
:100F780060F04E0EEE6AE806FDE15A6A596A586A50
:100F8800576A5B905B9200013BEF08F09D9AF00E68
:100F9800056E0D0E066E91EC0AF09D98A20E056E78
:100FA800130E066E8CEC0AF0080EB86E900EAB6E3F
:100FB800240EAC6E8A0EAF6E000EB06E5A0E056E21
:100FC800150E066E9BEC0AF04A0E056E150E066E9F
:100FD80096EC0AF0500E056E150E066EA0EC0AF09F
:100FE800000E0001766F000E7A6F000E796F400ECA
:100FF800786F000E5A6E000E596E000E776F9D8A3C
:10100800120009500A10D8B404D009500A10D8A404
:1010180004D0075087EC0AF0120020EE04F00950C3
:10102800D9260A50DA22DE50DE10D8B416D020EEC7
:1010380004F00950D9260A50DA2210EE02F00950BD
:10104800E1260A50E222DE50E65CE650800A0F6E86
:10105800DE50800A0F58D8B0120020EE02F0095076
:10106800D9260A50DA22DE2A000EDD22120075EC9B
:101078000AF0CAEC07F0F28EF28C5EEC0AF0110E60
:10108800566E3C0E556ECB0EE82EFED7552EFCD76D
:10109800562EFAD700F07C0E0001C96FFF0ECA6FFA
:1010A80026EC0AF06A0E0001C96FFF0ECA6F26EC23
:1010B8000AF0E7EC09F0520E566E2B0E556E000E34
:1010C800E82EFED7552EFCD7562EFAD700D0EAD7F1
:1010D800C5C053F0C6C054F0000E0001656F000E85
:1010E800646F13D0C3C049F0C4C04AF0530E4B6EAE
:1010F800000E4C6EC7C04DF0C8C04EF036EC00F084
:101108004950000164274A50652353C0F6FF54C074
:10111800F7FFF86A0800F5500009D8A4E3D764C0BF
:10112800C3F065C0C4F01200000166516711D8A46D
:1011380005D066C025F067C026F006D0FF0E6625EC
:10114800256EFF0E6721266E24C07BF0000E7C6F93
:1011580022C017F023C018F07B0E196E000E1A6E0D
:1011680025C01BF026C01CF044EC07F017C022F085
:1011780018C023F012009F0E0D6EFF0E0E6E0BC0EE
:101188000FF00CC010F00D500F260E50102210500A
:1011980006E11A0E0F5CD8B002D0010E01D0000E85
:1011A800116E126A11501210D8B405D05F0E0B14CC
:1011B8000B6E0C6A12000BC00BF00CC00CF0120086
:1011C800010E0B6E200E05180610D8B414D0F70EB9
:1011D800076EFF0E086E05C009F006C00AF007503A
:1011E800092608500A220A5004E1050E095CD8A015
:1011F80002D0000E0B6E0BC005F0066A1200000E3E
:10120800166E000E156E0BD014C007F0086A12C0D7
:1012180009F013C00AF005EC08F0154A162A155013
:101228001024D96E16501120DA6EDF50146E145047
:10123800D8B41200E9D7056E00017851D8B4FCD7AC
:101248009DB803D005C0ADFF10D09D98800E7A25BB
:10125800D96EDA6A010EDA2205C0DFFF7A2B3F0E5B
:101268007A6502D0000E7A6F78079D881200404D8B
:101278006F6973743A787878252020202020200020
:1012880040546D703A78782C786F202020202020E8
:10129800200000000102030405060708090A0B0CD8
:0312A8000D0E0F19
:1012AC009F0E076EFF0E086E200E0510096E000EC5
:1012BC0006100A6E0750092608500A220A5006E149
:1012CC001A0E095CD8B002D0010E01D0000E056ECA
:1012DC00066A120018BE05D0185010E11704D8B0D9
:1012EC000DD017C019F018C01AF0191E1A1E194A81
:1012FC001A2A19C017F01AC018F0120017C017F0EC
:10130C0018C018F012009F0E076EFF0E086E05C075
:10131C0009F006C00AF00750092608500A220A50A4
:10132C0006E11A0E095CD8B002D0010E01D0000EF5
:10133C00056E066A1200BF0E076EFF0E086E05C022
:10134C0009F006C00AF00750092608500A220A5074
:10135C0006E11A0E095CD8B002D0010E01D0000EC5
:10136C00056E066A1200D00E076EFF0E086E05C0E1
:10137C0009F006C00AF00750092608500A220A5044
:10138C0006E10A0E095CD8B002D0010E01D0000EA5
:10139C00056E066A1200400E0001786110D0800EB6
:1013AC007925D96EDA6A010EDA22DF50AD6E792B0F
:1013BC003F0E796502D0000E796F782B12009D9844
:1013CC001200AA0E0001D36F000ED46F010ED56F60
:1013DC00480EC8EC05F02F0E0001C96FFF0ECA6F46
:1013EC00AAC0CBF0CC6B26EC0AF0120005C007F0BB
:1013FC0006C008F002D0054A062A05C0D9FF06C06F
:10140C00DAFFDF50D8A4F7D70750055C056E0850FB
:10141C000658066E1200000E896E000E8A6E000EC3
:10142C008B6E92689368BF0E946E3C0E0F013A6FF0
:10143C003F0E396F2F0E386F000E616EF18E120059
:10144C00CB0E0001D16F000ED26F000EC36F000ED9
:10145C00C46FC9C0C5F0CAC0C6F0D10EC76F000EAC
:10146C00C86F6CEC08F0120005500702F3CF09F0BE
:10147C00F4CF0AF005500802F3500A260650070272
:10148C00F3500A2609C005F00AC006F01200400EFF
:10149C005A24D96EDA6A010EDA22AECFDFFF5A2A4D
:1014AC003F0E5A6402D0000E5A6E0001772B1200C8
:1014BC00948694880F013A973A999F0EC86E280E1D
:1014CC00C66E000EC56E120000380C06008A00C0F5
:0D14DC000080503C48270100C60084402DD0
:1014EA00ABEC0AF011EC0AF07EEC0AF0CAEC07F059
:1014FA001200700ED36E040ED26E400E9B6ED2BED8
:10150A001200FDD7066E06501FEC09F0120005C046
:10151A0072F006C073F0120005C070F006C071F0D8
:10152A00120005C06CF006C06DF0120005C06EF026
:10153A0006C06FF0120005C06AF006C06BF0120018
:10154A00AB98AB8812004DEC0AF01200D09E120044
:02155A0012007D
:10FE3000000D0A2A2A2A2A2A2A2A2A2A2A2A524546
:10FE400041442A2A2A2A2A2A2A2A2A2A2A2A2A2AE1
:10FE50002A2A2A0A0D000A0D2A2A2A2A2A2A2A2AA6
:10FE60002A2A2A57524954452A2A2A2A2A2A2A2A39
:10FE70002A2A2A2A2A2A2A2A0A0D002A2A2A2A2A49
:10FE80002A2A2A2A2A2A2A2A2A2A2A2A2A2A2A2AD2
:10FE90002A2A2A2A2A2A2A2A2A2A2A0A0D004E41EE
:10FEA000434B202D2046656A6C206920736B726974
:10FEB000766E696E6720616620646174610D0A0068
:10FEC00041434B202D20536B726576206461746131
:10FED0003A202523303258202D2025630A0D004179
:10FEE000434B202D20536B726576206164726573DD
:10FEF00073653A2025233032580A0D00536B72691E
:10FF00007665723A20616472657373653A202523C1
:10FF10003032580A0D004B756E6E6520696B6B654B
:10FF20002066696E646520656E6865640D0A00521E
:10FF3000657475722066726120544337343A202507
:10FF400032640D0A004E41434B202D2067656E73CD
:10FF5000656E6465720D0A00416464726573736551
:10FF60003A2025233032580D0A00537461727420F0
:10FF70007061206D616C696E670D0A004F67206CBF
:10FF8000E6732064656D206967656E0D0A0048613F
:10FF9000722073656E64742073746172740A0D004C
:10FFA0004861722073656E64742073746F700D0AFB
:10FFB000004861722073656E64742073746F700AF8
:10FFC0000D0042757373656E206572206B6C6172F3
:10FFD0000A0D004C61657374653A203078253258FB
:10FFE0000A0D00446174613A2025233032580D0A0D
:0FFFF000004D6F64746F672041434B0D0A000092
:020000040020DA
:08000000FFFFFFFFFFFFFFFF00
:020000040030CA
:0E000000FF281F3CFFBF85FF0FC00FE00F4021
:00000001FF
