:020000040000FA
:0400000049EF00F0D4
:100008004F82FACF09F0FBCF0AF0D9CF0BF0DACF45
:100018000CF0F6CF0DF0F7CF0EF0F8CF0FF0F5CFCC
:1000280010F0F2AC20D09DB89EA809D001D81BD002
:100038000500FA6E0001DD51FD6EDE510BD09DBA50
:100048009EAA0CD001D80FD00500FA6E0001DB5132
:10005800FD6EDC51FE6EFF6AFA5012009DB29EA240
:1000680002D0CBEC0EF010C0F5FF0FC0F8FF0EC0A9
:10007800F7FF0DC0F6FF0CC0DAFF0BC0D9FF0AC0AE
:0E008800FBFF09C0FAFF4F9211001CEF0DF0B4
:101000000054656D70657261747572656E206572ED
:101010003A2000C0F9A4B0999282F880907FFF54E2
:10102000656D70657261747572656E2065723A20C7
:10103000256400493243206672656B76656E733AAB
:0F1040002025640046656A6C2121210A0D0000FD
:1010500030C070F031C071F032C072F033C073F044
:1010600034C074F035C075F036C076F037C077F014
:10107000000177AF02D0010E01D0000E6E6F6F6BD2
:101080006E516F11D8B410D0771F761F751F741F63
:10109000731F721F711F706D000E712372237323F3
:1010A000742375237623772340AE419240BE05D04A
:1010B000405008E13F04D8B005D0000E6B6F010E20
:1010C0006A6F04D03FC06AF040C06BF0CDC06CF0D6
:1010D000CEC06DF06E516F11D8A402D041A403D0E0
:1010E0006C07D8A06D07000E796F1F0E786F000E89
:1010F000FE6F7DD07807D8A07907DF0E7825D96EEE
:10110000000E7921DA6E70C011F071C012F072C059
:1011100013F073C014F074C015F075C016F076C0EB
:1011200017F077C018F00A0E196E000E1A6E000E36
:101130001B6E000E1C6E000E1D6E000E1E6E000E4D
:101140001F6E000E206EB5EC0AF011C060F012C0E8
:1011500061F013C062F014C063F015C064F016C0F3
:1011600065F017C066F018C067F060C023F062C079
:1011700024F04BEC0EF02350300FDF6E00016A07B5
:10118000D8A06B076C07D8A06D0770C011F071C0B4
:1011900012F072C013F073C014F074C015F075C073
:1011A00016F076C017F077C018F00A0E196E000E10
:1011B0001A6E000E1B6E000E1C6E000E1D6E000ED1
:1011C0001E6E000E1F6E000E206E11EC0AF011C094
:1011D00070F012C071F013C072F014C073F015C03B
:1011E00074F016C075F017C076F018C077F00001E3
:1011F00079BF1FD0795103E17805D8A01AD070517A
:101200007111721173117411751176117711D8A4BF
:1012100071D76BBF05D06B5102E16A05D8B06AD7B0
:101220006DBF07D06D5103E16C05D8A002D041B26B
:1012300061D76E516F11D8A402D041A417D078079E
:10124000D8A079076E516F11D8A404D0000E696F31
:101250002B0E03D0000E696F2D0E686FDF0E782500
:10126000D96E000E7921DA6E68C0DFFF2EC023F040
:101270002FC024F0DF0E7825256E000E7921266E12
:101280006CC027F06DC028F093EC0BF023C02EF05B
:1012900024C02FF012003AC0D9FF3BC0DAFFDECFE6
:1012A000F6FFDDCFF7FFF86A0800F550250AD8A44D
:1012B0009DD03AC0D9FF3BC0DAFFDE2A000EDD2206
:1012C000000E0001CE6F000ECD6FCDC041F0CEC03C
:1012D00042F03F6840683AC0D9FF3BC0DAFFDECF3A
:1012E000F6FFDDCFF7FFF86A0800F550640AD8B4BE
:1012F0000ED03AC0D9FF3BC0DAFFDECFF6FFDDCF1C
:10130000F7FFF86A0800F550690AD8A43FD03AC040
:10131000D9FF3BC0DAFFDE2A000EDD223CC0D9FF38
:101320003DC0DAFFDFCF7AF0020EDE26DFCF7BF0A2
:10133000000EDD227AC0D9FF7BC0DAFFDECF7CF061
:10134000DDCF7DF0000E7DBFFF0E7E6F7F6F806F63
:10135000816F826F836F38C02EF039C02FF07CC050
:1013600030F07DC031F07EC032F07FC033F080C0FD
:1013700034F081C035F082C036F083C037F028ECFD
:1013800008F02EC038F02FC039F012003AC0D9FF53
:101390003BC0DAFFDECFF6FFDDCFF7FFF86A0800CB
:1013A000F550250AD8A416D03AC0D9FF3BC0DAFFC1
:1013B000DE2A000EDD22000E146E250E136E38C0DC
:1013C00015F039C016F052EC0DF0000E396E010E1A
:1013D000386E12003AC0D9FF3BC0DAFFDE2A000E99
:1013E000DD22000E396E000E386E12003AC0D9FFB1
:1013F0003BC0DAFFDECFF6FFDDCFF7FFF86A08006B
:10140000F550136E146A38C015F039C016F052EC5E
:101410000DF03AC0D9FF3BC0DAFFDE2A000EDD2214
:10142000D4D7000E226E20AE12D0201E1F1E1E1E0C
:101430001D1E1C1E1B1E1A1E196C000E1A221B22BA
:101440001C221D221E221F222022010E226E18AEF7
:1014500012D0181E171E161E151E141E131E121E45
:10146000116C000E122213221422152216221722AA
:101470001822010E221A20EE23F0070EDE6AE8067B
:10148000FDE219501A101B101C101D101E101F1009
:101490002010D8B446D0010E216E0AD0D89019364B
:1014A0001A361B361C361D361E361F362036212AAC
:1014B00020AEF4D7D8902336243625362636273664
:1014C000283629362A361950115C1A5012581B50EA
:1014D00013581C5014581D5015581E5016581F50A4
:1014E000175820501858D8A011D01950115E1A5012
:1014F000125A1B50135A1C50145A1D50155A1E5084
:10150000165A1F50175A2050185A2380D89020324C
:101510001F321E321D321C321B321A321932212E5A
:10152000C9D72250D8B410D02A1E291E281E271E23
:10153000261E251E241E236C000E24222522262270
:101540002722282229222A2223C011F024C012F0A7
:1015500025C013F026C014F027C015F028C016F0DF
:1015600029C017F02AC018F01200000E226E18AE23
:1015700012D0181E171E161E151E141E131E121E24
:10158000116C000E12221322142215221622172289
:101590001822010E226E20AE10D0201E1F1E1E1E0D
:1015A0001D1E1C1E1B1E1A1E196C000E1A221B2249
:1015B0001C221D221E221F22202219501A101B102D
:1015C0001C101D101E101F102010D8B43CD0010E8E
:1015D000216E0AD0D89019361A361B361C361D36A5
:1015E0001E361F362036212A20AEF4D71950115C42
:1015F0001A5012581B5013581C5014581D5015588F
:101600001E5016581F50175820501858D8A010D0E8
:101610001950115E1A50125A1B50135A1C50145A6A
:101620001D50155A1E50165A1F50175A2050185A3E
:10163000D89020321F321E321D321C321B321A3219
:101640001932212ED3D72250D8B410D0181E171E0D
:10165000161E151E141E131E121E116C000E1222D1
:1016600013221422152216221722182211C011F05B
:1016700012C012F013C013F014C014F015C015F00E
:1016800016C016F017C017F018C018F01200000EA0
:101690004824D96EDA6A010EDA22000EDF6EABA49E
:1016A00014D0000E4824D96EDA6A010EDA22010144
:1016B000DF8201D80AD00500FA6E0001D951FD6E13
:1016C000DA51FE6EFF6AFA501200ABA214D0000E7F
:1016D0004824D96EDA6A010EDA220101DF8401D8CA
:1016E0000AD00500FA6E0001D751FD6ED851FE6E8A
:1016F000FF6AFA501200000E4824D96EDA6A010E11
:10170000DA22DF50D8B40CD001D812000500FA6EEE
:101710000001D551FD6ED651FE6EFF6AFA501200DF
:10172000EDEC0EF0120041A00AD025C01CF026C03E
:101730001DF023C01EF024C01FF0DFEC0DF028BE0A
:1017400005D027C02CF028C02DF004D0000E2D6E3F
:10175000000E2C6E000E2B6E000E2A6E0CD0000EAA
:10176000146E200E136E23C015F024C016F052EC38
:101770000DF02A4A2B2A2C502A5C2B50800A296E05
:101780002D50800A2958D8A0EAD741B00AD025C0E8
:101790001CF026C01DF023C01EF024C01FF0DFEC9B
:1017A0000DF025C011F026C012F064EC0EF02C50A4
:1017B0001124236E2D501220246E1200090E4C6449
:1017C00017D04CC001F0026A000E046E0A0E036EC0
:1017D00027EC0CF00150446E4CC001F0026A000E80
:1017E000046E0A0E036EE4EC0CF00150436E04D05C
:1017F0004CC043F0C6C044F00001CF51D011D8A472
:1018000013D0020E826E130E4424F66EF76A100E89
:10181000F722F86A000EF8220800F5CF80FF000ECC
:10182000D06F010ECF6F1200010E826E130E432493
:10183000F66EF76A100EF722F86A000EF82208001A
:10184000F5CF80FF000ED06F000ECF6F1200000E9C
:10185000066E04AE06D0036C041ED8B0042A010E36
:10186000066E02AE06D0016C021ED8B0022A010E2E
:10187000061A000E086E000E076E03500410D8B44E
:101880001CD0010E056E04D0D89003360436052A0C
:1018900004AEFAD7D890073608360350015C0450DE
:1018A0000258D8A005D00350015E0450025A0780A8
:1018B000D89004320332052EEDD70650D8B404D0A8
:1018C000076C081ED8B0082A07C001F008C002F053
:1018D0001200000E196E000E1A6E000E1B6E000E26
:1018E0001C6E1550161017101810D8B42AD0010EFF
:1018F0001D6E06D0D89015361636173618361D2AA6
:1019000018AEF8D7D89019361A361B361C36155033
:10191000115C165012581750135818501458D8A06C
:1019200009D01550115E1650125A1750135A1850FC
:10193000145A1980D89018321732163215321D2ECB
:10194000E1D719C011F01AC012F01BC013F01CC06F
:1019500014F012009D9A8E0E116E160E126E4BEC44
:101960000FF09D981C0E116E1D0E126E46EC0FF0BE
:10197000080EB86E900EAB6E240EAC6E150EAF6EE8
:10198000010EB06EE40E116E1E0E126E55EC0FF0CD
:10199000CE0E116E1E0E126E50EC0FF0D40E116EA4
:1019A0001E0E126E5AEC0FF0000E456E000E4B6EBE
:1019B000000E4A6E400E496E000E486E000E476ED5
:1019C000000E466E9D8A1200000E066E02AE06D014
:1019D000016C021ED8B0022A010E066E04AE04D0BD
:1019E000036C041ED8B0042A03500410D8B418D0D5
:1019F000010E056E04D0D89003360436052A04AED5
:101A0000FAD70350015C04500258D8A004D0035008
:101A1000015E0450025AD89004320332052EF1D7E9
:101A20000650D8B404D0016C021ED8B0022A01C0FE
:101A300001F002C002F012002C0EF66E1C0EF76EC2
:101A4000000EF86E00EE96F010EE35F00900F5CFBE
:101A5000EEFFE550E150FAE1DE0EF66E1E0EF76E77
:101A6000000EF86E0900F5CF4CF00900F5CF4DF0EF
:101A70000900F5CF4EF001EE00F0C00EEE6AE80668
:101A8000FDE100EECBF0340EEE6AE806FDE100EE7B
:101A90003FF00D0EEE6AE806FDE14F904F92000117
:101AA00031EF0EF015501610D8B404D015501610A2
:101AB000D8A404D013503CEC0FF0120020EE04F038
:101AC0001550D9261650DA22DE50DE10D8B416D0C2
:101AD00020EE04F01550D9261650DA2210EE02F04E
:101AE0001550E1261650E222DE50E65CE650800AF0
:101AF0001B6EDE50800A1B58D8B0120020EE02F098
:101B00001550D9261650DA22DE2A000EDD221200E8
:101B100086C08AF087C08BF0000E0001CC6F000EEB
:101B2000CB6F13D084C038F085C039F08A0E3A6E7E
:101B3000000E3B6E88C03CF089C03DF04BEC09F0D4
:101B400038500001CB273950CC238AC0F6FF8BC018
:101B5000F7FFF86A0800F5500009D8A4E3D7CBC016
:101B600084F0CCC085F0120094860F013A879488E7
:101B70003A89000E116E900E126ED00E136E030E87
:101B8000146E800E156E1A0E166E060E176E000E6F
:101B9000186E69EC0CF011040101C46F330E0001E2
:101BA0008C6F100E8D6FC4C18EF08F6BB7EC0EF082
:101BB000C4C1C8FF480EC66E000E6B6E1200000E48
:101BC000226E000E216E0BD020C013F0146A1EC0CE
:101BD00015F01FC016F052EC0DF0214A222A2150B8
:101BE0001C24D96E22501D20DA6EDF50206E20504A
:101BF000D8B41200E9D7116E4950D8B4FDD79DB8BA
:101C000003D011C0ADFF10D09D98800E4B24D96E2B
:101C1000DA6A010EDA2211C0DFFF4B2A3F0E4B6455
:101C200002D0000E4B6E49069D8812000E0E111157
:101C30001F1111000E0A0E010F110F000E131515C2
:101C400015190E0000000E1315190E000F14141FA5
:101C50001414170000000E050F140F000B00FD01F7
:011C6000483B
:101C62001AEC0FF0F28EF28CBC0E116E170E126E81
:101C720041EC0FF0A3EC0EF00001956F1F0E8C6F7C
:101C8200100E8D6F95518E6F8F6B8EBF8F07B7ECD5
:101C92000EF0F0D724BE05D0245010E12304D8B0B2
:101CA2000DD023C025F024C026F0251E261E254A6D
:101CB200262A25C023F026C024F0120023C023F0D8
:101CC20024C024F0120011C013F012C014F002D08C
:101CD200114A122A11C0D9FF12C0DAFFDF50D8A46C
:101CE200F7D71350115C116E14501258126E120075
:101CF200000E896E000E8A6E000E8B6E92689368DB
:101D0200BF0E946E3C0E0F013A6F3F0E396F2F0ECD
:101D1200386F000E616EF18E1200400E496010D0D5
:101D2200800E4A24D96EDA6A010EDA22DF50AD6ED5
:101D32004A2A3F0E4A6402D0000E4A6E492A120015
:101D42009D981200B4EC0DF025EC0FF063EC0FF04F
:101D5200480E37EC0FF00CEC0FF00001946F25ECFD
:101D62000FF05FEC0FF00001945112008E0E000193
:101D7200926F000E936F000E846F000E856F8CC001
:101D820086F08DC087F0920E886F000E896F88EC06
:101D92000DF012009E920001D14BD22BD25104E1E0
:101DA2000A0ED15DD8A01200DDEC0EF0000E00018B
:101DB200D26F000ED16F12000001D351D411D8B4EA
:101DC200120001D812000500FA6ED351FD6ED451F3
:101DD200FE6EFF6AFA501200400E4824D96EDA6A8B
:101DE200010EDA22AECFDFFF482A3F0E486402D04E
:101DF200000E486E462A1200630EBB6E000EBC6EC9
:101E02009E929D82E20E116E1E0E126E41EC0FF03A
:101E12004E0EBA6E1200C5BC03D025EC0FF007D0EF
:101E2200440E00018C6F100E8D6FB7EC0EF0000E99
:101E320012006DEC0FF079EC0EF02EEC0FF0FDECD1
:101E42000EF0AAEC0CF01200C7B4FED76BCF11F063
:101E52001F0E1116D8B41200F7D7700ED36E040EEF
:101E6200D26E400E9B6ED2BE1200FDD7116E115083
:101E72001124C86E1200126E1250FBEC0DF012000B
:101E820011C0D3F012C0D4F0120011C0DDF012C0A4
:101E9200DEF0120011C0DBF012C0DCF0120011C043
:101EA200D7F012C0D8F0120011C0D9F012C0DAF087
:101EB200120011C0D5F012C0D6F01200C584C5A41C
:101EC2001200FDD7C580C5A01200FDD7AB98AB8824
:0F1ED2001200EDEC0EF01200D09E120038020844
:041EE20012001200D8
:020000040020DA
:08000000FFFFFFFFFFFFFFFF00
:020000040030CA
:0E000000FF281F3CFFBF85FF0FC00FE00F4021
:00000001FF
