:020000040000FA
:0400000056EF00F0C7
:100008005B82FACF01F0FBCF02F0D9CF03F0DACF51
:1000180004F0F2AC12EF00F014EF00F04CEF00F037
:100028009DA819EF00F01BEF00F030EF00F09EA83C
:1000380020EF00F022EF00F030EF00F002D82EEFB2
:1000480000F00500FA6E3E50FD6E3F50FE6EFF6AEE
:10005800FA5012004CEF00F09DAA35EF00F037EF90
:1000680000F04CEF00F09EAA3CEF00F03EEF00F0ED
:100078004CEF00F002D84AEF00F00500FA6E3C5051
:10008800FD6E3D50FE6EFF6AFA5012004CEF00F014
:1000980004C0DAFF03C0D9FF02C0FBFF01C0FAFFAA
:0800A8005B92110069EF0AF000
:10100000004D6F64746F67204E41434B20667261E0
:1010100020736C6176656E0D0A004D6F64746F67A6
:101020002041434B2066726120736C6176656E0DC2
:101030000A00536C6176656E207376617265646533
:0910400020696B6B650D0A0000CC
:10104A0012C0D9FF13C0DAFFDECFF6FFDDCFF7FFFC
:10105A00F86A0800F550250AD8A436EF08F038EFE8
:10106A0008F080EF08F012C0D9FF13C0DAFFDE2AB9
:10107A00000EDD22000E316E000E306E30C034F0EC
:10108A0031C035F03268336812C0D9FF13C0DAFFB5
:10109A00DECFF6FFDDCFF7FFF86A0800F550250A24
:1010AA00D8A45AEF08F05CEF08F073EF08F012C00A
:1010BA00D9FF13C0DAFFDE2A000EDD22000E086E09
:1010CA00250E076E10C009F011C00AF059EC09F09C
:1010DA00000E116E010E106E9CEF08F012C0D9FFBF
:1010EA0013C0DAFFDE2A000EDD22000E116E000E9A
:1010FA00106E9CEF08F012C0D9FF13C0DAFFDECFE2
:10110A00F6FFDDCFF7FFF86A0800F550076E086AA8
:10111A0010C009F011C00AF059EC09F012C0D9FF49
:10112A0013C0DAFFDE2A000EDD226DEF08F012008E
:10113A00276E27502724286EC580C5B0A7EF08F070
:10114A00A9EF08F0A2EF08F028C0C9FFC7B4B0EFB2
:10115A0008F0B2EF08F0ABEF08F0C5BCB7EF08F043
:10116A00B9EF08F0F5EF08F0000E296EE2EF08F08B
:10117A0029502424D96E000E2520DA6EDF50C96E5C
:10118A00C7B4CAEF08F0CCEF08F0C5EF08F0C5BC49
:10119A00D1EF08F0D3EF08F0DBEF08F01A0E1E6E5D
:1011AA00100E1F6EDAEC0AF0E1EF08F0010E1E6E67
:1011BA00100E1F6EDAEC0AF0292A2650295CD8A0F4
:1011CA00E9EF08F0EBEF08F0BDEF08F0C584C5B40D
:1011DA00F1EF08F0F3EF08F0ECEF08F0FBEF08F09E
:1011EA00320E1E6E100E1F6EDAEC0AF01200600E3E
:1011FA004324D96EDA6A000EDA22000EDF6EABA43F
:10120A0009EF09F00BEF09F01FEF09F0600E432414
:10121A00D96EDA6A000EDA220001DF8202D81FEFE5
:10122A0009F00500FA6E3A50FD6E3B50FE6EFF6AF9
:10123A00FA501200ABA224EF09F026EF09F03AEFB8
:10124A0009F0600E4324D96EDA6A000EDA22000130
:10125A00DF8402D83AEF09F00500FA6E3850FD6EC5
:10126A003950FE6EFF6AFA501200600E4324D96E9E
:10127A00DA6A000EDA22DF50D8B446EF09F048EFF6
:10128A0009F056EF09F002D854EF09F00500FA6E9A
:10129A003650FD6E3750FE6EFF6AFA50120058EF54
:1012AA0009F0C5EC0AF0120009500A10D8B460EF30
:1012BA0009F062EF09F06BEF09F009500A10D8A49F
:1012CA0069EF09F06BEF09F070EF09F007501AECBB
:1012DA000BF0A3EF09F020EE04F00950D9260A50CA
:1012EA00DA22DE50DE10D8B47DEF09F07FEF09F084
:1012FA009AEF09F020EE04F00950D9260A50DA22B2
:10130A0010EE02F00950E1260A50E222DE50E65CB5
:10131A00E650800A0F6EDE50800A0F58D8B098EF58
:10132A0009F09AEF09F0A3EF09F020EE02F0095054
:10133A00D9260A50DA22DE2A000EDD2212009D9AF0
:10134A00F80E056E110E066E24EC0BF09D98200E19
:10135A00056E150E066E1FEC0BF0080EB86E900E99
:10136A00AB6E240EAC6E150EAF6E010EB06E800E13
:10137A00056E160E066E2EEC0BF0700E056E160E2E
:10138A00066E29EC0BF0760E056E160E066E33EC21
:10139A000BF0000E406E000E466E000E456E400EBB
:1013AA00446E000E436E000E426E000E416E9D8A20
:1013BA00120011EC0BF0FBEC0AF0570E246E000E33
:1013CA00256E040E266E3C0E9DEC08F0490E246E26
:1013DA00000E256E0C0E266E3C0E9DEC08F0490E92
:1013EA00246E000E256E0C0E266E3C0E9DEC08F047
:1013FA00520E0101416F2B0E406F000EE82EFED7F0
:10140A00402FFCD7412FFAD700F0F4EF09F056EF3E
:10141A0000F018C01CF019C01DF0000E2F6E000E4F
:10142A002E6E2AEF0AF016C010F017C011F01C0E2B
:10143A00126E000E136E1AC014F01BC015F025ECC4
:10144A0008F010502E2611502F221CC0F6FF1DC086
:10145A00F7FFF86A0800F5500009D8A437EF0AF038
:10146A0039EF0AF018EF0AF02EC016F02FC017F065
:10147A001200056E4450D8B445EF0AF047EF0AF05F
:10148A003FEF0AF09DB84CEF0AF04EEF0AF052EF28
:10149A000AF005C0ADFF67EF0AF09D98A00E46243A
:1014AA00D96EDA6A000EDA2205C0DFFF462A3F0E3D
:1014BA00466462EF0AF064EF0AF066EF0AF0000E83
:1014CA00466E44069D8812000E0EF66E160EF76ED4
:1014DA00000EF86E00EE47F010EE14F00900F5CF9A
:1014EA00EEFFE550E150FAE101EE00F0400EEE6A3F
:1014FA00E806FDE100EE60F0A00EEE6AE806FDE106
:10150A0000EE2AF01D0EEE6AE806FDE15B905B92A2
:10151A000001DEEF09F0400E446096EF0AF098EF02
:10152A000AF0AEEF0AF0A00E4524D96EDA6A000E70
:10153A00DA22DF50AD6E452A3F0E4564A7EF0AF066
:10154A00A9EF0AF0ABEF0AF0000E456E442AAFEF9E
:10155A000AF09D981200000E896E000E8A6E000E27
:10156A008B6E92689368BF0E946E3C0E0F013A6FB1
:10157A003F0E396F2F0E386F000E616EF18E12001A
:10158A00000E4324D96EDA6A010EDA22AECFDFFFEB
:10159A00432A3F0E4364D4EF0AF0D6EF0AF0D8EF9D
:1015AA000AF0000E436E412A1200200E226E000E2F
:1015BA00236E000E166E000E176E1EC018F01FC0A6
:1015CA0019F0220E1A6E000E1B6E0EEC0AF01200B3
:1015DA00700ED36E040ED26E400E9B6ED2AEF8EF32
:1015EA000AF0FAEF0AF0F3EF0AF0120094869488F0
:1015FA000F013A973A999F0EC86E280EC66E000ED2
:10160A00C56E1200483C4048656C6C6F20576F727B
:10161A006C6421000038060F3EEC0BF0B0EC0AF0C7
:10162A00EDEC0AF0A4EC09F01200066E06503EEC4E
:10163A000AF0120005C03EF006C03FF0120005C0D5
:10164A003CF006C03DF0120005C038F006C039F083
:10165A00120005C03AF006C03BF0120005C036F091
:10166A0006C037F01200AB98AB881200C5EC0AF03E
:08167A001200D09E12001200C4
:020000040020DA
:08000000FFFFFFFFFFFFFFFF00
:020000040030CA
:0E000000FF281F3CFFBF85FF0FC00FE00F4021
:00000001FF
